:02000002B0004C
:1040000000400B00C85D0B00000006000C0005021C
:084010000401810C0000000016
:04401800005A0B003F
:10401C0009480A49884208B505D0094A824202D0AB
:10402C00121A01F035FC0748074A0021121A01F058
:10403C003DFC014808BD00BFF0E50320345D0B00DA
:10404C005CE603205CE60320EDE7032070B5074E29
:10405C00074C01F025F8A41BA4080025AC4200D1A4
:10406C0070BD56F8043B98470135F7E7045D0B002B
:10407C00285D0B0000F042BA08B500F0A7FABDE8C5
:10408C00084000F0C5BF00F073BE00F079BE0078A8
:10409C00B0FA80F040097047012303707047006844
:1040AC0000F0F2BC00F0E8BC0EB403B503AB002189
:1040BC0053F8042B019300F03AFF02B05DF804EBC7
:1040CC0003B070470F2938B505460C4606D901F0E8
:1040DC00EBF80D492246FFF7E7FF38BD407801F0B9
:1040EC00010101F00CFBA878C4F3400101F007FBBF
:1040FC00E878C4F3800101F002FB2879E108BDE8FF
:10410C00384001F0FCBA00BF145A0B0038B5044615
:10411C00FFF7D8FF2078002101F0F1FA607901F067
:10412C0007FB01210546207801F0E9FA284638BD45
:10413C0038B50D46044609212846FFF7E7FF00284D
:10414C00B8BF0F300011207008212846FFF7DEFFA2
:10415C000028B8BF0F300011607007212846FFF708
:10416C00D5FF0028B8BF0F300011A0700C212846D5
:10417C00FFF7CCFF0028B8BF0F300011E0700D2105
:10418C002846FFF7C3FF0028B8BF0F30001120717D
:10419C000A212846FFF7BAFF0028B8BF0F300011DC
:1041AC0060710B212846FFF7B1FF0028B8BF0F3014
:1041BC000011A0710E212846FFF7A8FF0028B8BFF8
:1041CC000F300011E0710F212846FFF79FFF0028E8
:1041DC00B8BF0F3000112072204638BD37B50546E8
:1041EC0001EBC10401F0FAFA2978019401A8FFF758
:1041FC0056FF01F0F3FA631C6978019301A8FFF7ED
:10420C004EFF01F0EBFAA31CA978019301A8FFF76C
:10421C0046FF01F0E3FAE31CE978019301A8FFF7EC
:10422C003EFF01F0DBFA231D2979019301A8FFF76A
:10423C0036FF01F0D3FA631D6979019301A8FFF7EA
:10424C002EFF01F0CBFAA31DA979019301A8FFF76A
:10425C0026FF01F0C3FAE31DE979019301A8FFF7EA
:10426C001EFF083401F0BAFA297A019401A8FFF76D
:10427C0016FF03B030BD38B501EBC104054601F0A3
:10428C00ADFA2046FFF70EFF287001F0A7FA601C6C
:10429C00FFF708FF687001F0A1FAA01CFFF702FFFE
:1042AC00A87001F09BFAE01CFFF7FCFEE87001F02F
:1042BC0095FA201DFFF7F6FE287101F08FFA601DAC
:1042CC00FFF7F0FE687101F089FAA01DFFF7EAFE16
:1042DC00A87101F083FAE01DFFF7E4FEE87101F02C
:1042EC007DFA04F10800FFF7DDFE287238BD38B501
:1042FC000C46054600F0D8FF03681B699847002858
:10430C000ADD00F0D1FF03685B699847C0F34213E4
:10431C0000F01F002B70207038BD2DE9F74F4FF4C3
:10432C001062836801924FF0000A4FF0FF3093F84F
:10433C000090B9F1000F6BD093F80180B8F1000F29
:10434C0066D093F802E0BEF1000F61D093F803C081
:10435C00BCF1000F5CD01F79002F59D05E79002E74
:10436C0056D09D79002D53D0DC79002C50D01A7A80
:10437C00002A4DD091F800B0A9EB0B0991F801B0CF
:10438C00B9F1000FA8EB0B08B8BFC9F10009B8F1DF
:10439C00000FB8BFC8F10008C14491F80280AEEB21
:1043AC00080EBEF1000FB8BFCEF1000ECE4491F84E
:1043BC000390ACEB090991F804C0A7EB0C0791F83A
:1043CC0005C0B9F1000FA6EB0C06B8BFC9F1000986
:1043DC00002FB8BF7F42F144002E4F44B8BF764245
:1043EC003E448F79ED1B002DB8BF6D423544CE791C
:1043FC00A41B002CB8BF64422C440D7A521B002A1B
:10440C00B8BF52422244019CA242BCBF504601920A
:10441C000AF1010ABAF1200F03F1090387D103B0A5
:10442C00BDE8F08FF0B5054687B019B1012911D060
:10443C0007B0F0BD014603A8FFF77AFE03A9284692
:10444C00FFF76BFF019000F02FFF019A2049FFF757
:10445C002BFEEDE700F028FF1E491F4FFFF724FE4F
:10446C0000242646013400F01FFF20232246394643
:10447C00FFF71AFE04EBC402A9689DF80C00093A78
:10448C008B1888549DF80D1059709DF80E1099706A
:10449C009DF80F10D9709DF8101019719DF811101E
:1044AC0059719DF8121099719DF81310D9719DF8DE
:1044BC0014101972A86831461044FFF78FFE202C97
:1044CC00CFD100F0F1FE0549FFF7EEFDB0E700BFDC
:1044DC005A5A0B00715A0B00815A0B008E5A0B0062
:1044EC0010B543680268013B002B04DDD41814F8A6
:1044FC00014CD454F6E7117010BD000038B51F4CB8
:10450C000121207801F0EAF86078012101F0E6F849
:10451C00A078012101F0E2F8E078012101F0DEF849
:10452C002079012101F0DAF86079002101F0D6F848
:10453C00A1792046FFF7C6FD2078012101F0DFF8B4
:10454C000025A06805EBC503294618440135FFF783
:10455C0092FE202DF5D101230948237300F0CAF9EE
:10456C0008481321FFF7BCFF06480221FFF7B8FFEC
:10457C0004480621FFF7B4FF38BD00BFA0E60320B6
:10458C008CE603207CE6032038B50E4D0E4C2B78C0
:10459C00BFF35B8F13F0010F09D12846FFF777FDAE
:1045AC0028B100F059FA20602846FFF775FD00F09D
:1045BC0053FA2368C31A0A2BCABF206000200120BB
:1045CC0038BD00BF6CE6032078E603202DE9F043EC
:1045DC00614C237B85B0002B4AD000F065FE03684C
:1045EC001B699847002843DD0DF103010DF1020012
:1045FC00FFF77DFE9DF8023043B1012B00F0A68041
:10460C0000F052FE5549FFF74FFD31E09DF8035085
:10461C001F2D2DD8214601A8FFF78AFDA1689DF812
:10462C00040005EBC5028B1888549DF805105970D1
:10463C009DF8061099709DF80710D9709DF8081018
:10464C0019719DF8091059719DF80A1099719DF80E
:10465C000B10D9719DF80C101972A06829461044E2
:10466C00FFF7BCFD00F020FE3D492A46FFF71CFD7C
:10467C00FFF78AFF002866D03A4C2378BFF35B8F94
:10468C00DB070AD42046FFF702FD30B100F0E4F955
:10469C00354B18602046FFF7FFFC2F49DFF8DC8014
:1046AC0001A8FFF745FD01A92B48FFF736FEC4B260
:1046BC00064600F0D1F998F80030A342054642D0E6
:1046CC00294F3B68C31AB3F5167F39DDDFF8B0907C
:1046DC0099F80030A34233D021462448FFF700FF5D
:1046EC0089F8004000F0E0FD2149FFF7DDFC00F007
:1046FC00DBFD2049C4F30012FFF7D6FC00F0D4FD1B
:10470C001C49C4F3C002FFF7CFFC00F0CDFD1949E2
:10471C00C4F38002FFF7C8FC00F0C6FD1549C4F3D2
:10472C004002FFF7C1FC00F0BFFD124906F0010288
:10473C00FFF7BAFC00F0B8FD0F492246FFF7B4FCB6
:10474C0088F800403D6005B0BDE8F0839DF803108B
:10475C002046FFF767FE8BE7A0E60320B85A0B0054
:10476C009E5A0B0068E6032070E6032084E60320C3
:10477C00C95A0B00D05A0B00D35A0B0074E6032015
:10478C0075E6032038B5134B134A9A600025C3E92C
:10479C000055022000F068FA104C114A257341F2C2
:1047AC000533C4E900234FF49070FFF76CFC0D4DFA
:1047BC00A060682103240C4800F099F86C60204636
:1047CC00FFF761FC2860094D20466C60FFF75BFC2D
:1047DC00286038BD5CE603200000FFFFA0E6032044
:1047EC00060203047CE603208CE6032084E6032007
:1047FC0013B51B2204460178012301A800F0C4F86C
:10480C0001A800F0E0F8C0F3C013A370C0F380134C
:10481C00E370C0F340132371C0F3C103637101A8AB
:10482C0000F09EF802B010BD13B51C2204460178AE
:10483C00012301A800F0A8F801A800F0C4F8C0F307
:10484C00C013A371C0F38013E371C0F34013237240
:10485C00C0F3C103637201A800F082F802B010BD6E
:10486C0013B5382201780446012301A800F08CF816
:10487C0001A800F0A8F8C0F30013A372C0F3C003A2
:10488C00E37200F00103237301A800F069F802B091
:10489C0010BD13B56B2204460178012301A800F06A
:1048AC0073F801A800F08FF8C0F3C0136373C0F362
:1048BC008013A373C0F34013E373C0F3C0032374DA
:1048CC0000F00703637401A800F04AF802B010BDB1
:1048DC0010B50446FFF78CFF2046FFF7A5FF2046D6
:1048EC00FFF7D7FF2046BDE81040FFF7B9BF0170B6
:1048FC007047000013B5044600F09EFF00F0C1FDA8
:10490C0040B900F0D1FC0C49FFF7CEFB00F094FF4E
:10491C0000F080FD2046FFF7DBFF6B22217801A819
:10492C0000F00CF8002101A800F023F801A800F019
:10493C0017F802B010BD00BFE05A0B0037B5154692
:10494C000446019100F078FF019900F092FD00F00F
:10495C0073FF036829469B689847204603B030BD17
:10496C0010B5044600F068FF012100F086FD2046DA
:10497C0010BD07B5019100F05FFF036801999B68BA
:10498C0003B05DF804EB184773B50C46164601935B
:10499C00054600F051FF214600F06BFD00F04CFF86
:1049AC00036831469B68984700F046FF002100F0F1
:1049BC0064FD00F041FF019A0023214600F047FD01
:1049CC00284602B070BD08B500F036FF03685B697D
:1049DC009847C0B208BD000008B5024B1B689B6825
:1049EC00019308BD6802030008B5024B1B68DB6825
:1049FC00019308BD6802030008B5024B1B685B6895
:104A0C00019308BD2C02030008B5024B1B689B6880
:104A1C00019308BD2C02030008B5024B1B68DB6830
:104A2C00019308BD2C02030008B5024B1B681B69DF
:104A3C00019308BD2C02030008B5024B1B681B6BCD
:104A4C00019308BD2C02030008B5024B1B685B6880
:104A5C00019308BD1802030008B5024B1B685B6983
:104A6C00019308BD1802030008B5024B1B689B6A32
:104A7C00019308BD1802030008B5024B1B68DB6AE2
:104A8C00019308BD1802030008B5024B1B681B6B91
:104A9C00019308BD1802030008B5024B1B685B6C40
:104AAC00019308BD4802030008B5024B1B685B6903
:104ABC00019308BD6402030008B5024B1B68DB6858
:104ACC00019308BD3C02030008B5024B1B681B692F
:104ADC00019308BD3C02030008B5024B1B685B69DF
:104AEC00019308BD3C02030008B5024B1B689B698F
:104AFC00019308BD3C02030008B5024B1B68DB693F
:104B0C00019308BD3C02030008B5024B1B681B6AED
:104B1C00019308BD3C02030008B5024B1B689B6A5D
:104B2C00019308BD3C02030008B5024B1B681B6CCB
:104B3C00019308BD3C02030008B5024B1B68DB68FF
:104B4C00019308BD2802030008B5024B1B689B6942
:104B5C00019308BD2802030008B5024B1B68DB69F2
:104B6C00019308BD2802030008B5024B1B681B6AA1
:104B7C00019308BD2802030008B5024B1B685B6A51
:104B8C00019308BD2802030008B5024B1B689B6A01
:104B9C00019308BD2802030008B5024B1B68DB6AB1
:104BAC00019308BD2802030008B5024B1B681B6B60
:104BBC00019308BD2802030008B5024B1B685B6B10
:104BCC00019308BD2802030008B5024B1B681B6C3F
:104BDC00019308BD2802030008B5024B1B681B6D2E
:104BEC00019308BD2802030008B5024B1B68DB6962
:104BFC00019308BD3002030008B5024B1B681B6A09
:104C0C00019308BD3002030008B5024B1B681B68FA
:104C1C00019308BD4C02030008B5024B1B681B69CD
:104C2C00019308BD4C02030008B5024B1B685B697D
:104C3C00019308BD4C02030008B5024B1B689B692D
:104C4C00019308BD4C02030008B5024B1B68DB69DD
:104C5C00019308BD4C02030008B5024B1B681B6A8C
:104C6C00019308BD4C02030008B5024B1B685B683E
:104C7C00019308BD2002030008B5034B1B68D3F851
:104C8C008830019308BD00002002030008B5034BD7
:104C9C001B68D3F89430019308BD00002002030078
:104CAC0008B5024B1B685B68019308BD400203000A
:104CBC0008B5024B1B689B68019308BD40020300BA
:104CCC0008B5024B1B68DB68019308BD400203006A
:104CDC0008B5024B1B681B69019308BD4002030019
:104CEC0008B5024B1B685B69019308BD40020300C9
:104CFC0008B5024B1B689B69019308BD4002030079
:104D0C0008B5024B1B68DB69019308BD4002030028
:104D1C0008B5024B1B681B6A019308BD40020300D7
:104D2C0008B5024B1B681B6B019308BD40020300C6
:104D3C0008B5024B1B685B6B019308BD4002030076
:104D4C0008B5024B1B681B6C019308BD40020300A5
:104D5C0008B5024B1B685B6C019308BD4002030055
:104D6C0008B5024B1B68DB6B019308BD44020300C2
:104D7C0008B5024B1B681B68019308BD1C0203009D
:104D8C0008B5024B1B685B68019308BD1C0203004D
:104D9C0008B5024B1B685B6A019308BD1C0203003B
:104DAC0008B5024B1B681B6C019308BD1C02030069
:104DBC0008B5024B1B685B6C019308BD1C02030019
:104DCC00002240681146FFF7A3BF0022406811463D
:104DDC00FFF7AEBF40680022FFF7A2BF4068002279
:104DEC0081F00101FFF78CBF002340681A46194679
:104DFC00FFF77EBF002340681A461946FFF770BFC5
:104E0C00002240681146FFF763BF0022406811463C
:104E1C00FFF74EBF406800220221FFF751BF00236D
:104E2C0040681A46FFF73CBF024B03225A60024A05
:104E3C001A607047B0E60320045B0B0010B5044603
:104E4C0008462170FFF7D0FE00236360204610BD9A
:104E5C00054B02221A60054B054A9A600020C3E9F3
:104E6C000000FFF701BF00BFC4E60320B8E6032033
:104E7C000000FFFF024800230360FFF70DBE00BFD8
:104E8C00C8E60320F8B506460D468F180024BD422F
:104E9C000CD0336815F8011B9B6830469847031EED
:104EAC0001DB1C44F3E7002C08BF1C462046F8BD70
:104EBC0013B50446084659B1019100F02DFD236845
:104ECC000199DB680246204602B0BDE81040184745
:104EDC0002B010BD03689B68184738B50D21054614
:104EEC00FFF7F8FF0A2104462846FFF7F3FF20449A
:104EFC0038BD30B58BB00023012A8DF8243098BF13
:104F0C000A2209AC0D46B1FBF2F101FB125303F07E
:104F1C00FF03092B94BF30333733DBB2AA4204F8BA
:104F2C00013DEFD92146FFF7C3FF0BB030BD2DE992
:104F3C00F04186B000AF05460E46381D14211446CC
:104F4C003B60FFF725FF13280ED8391D2846FFF7C5
:104F5C00AFFF04461EB12846FFF7BFFF04442046AE
:104F6C001837BD46BDE8F08100F1080323F00703B4
:104F7C00E846ADEB030D2246411C3B686846FFF743
:104F8C0007FF69462846FFF793FF0446C546E1E74D
:104F9C00002340681A461946FFF7A2BE014B024A8D
:104FAC001A607047CCE60320385B0B00024B1A6882
:104FBC00024B1A60704700BFF0E50320D0E60320D7
:104FCC00014B00229A607047D4E60320014B186015
:104FDC00704700BFF4E5032008B50B4B43B100F05C
:104FEC0063F903681B699847002801DDAFF3008063
:104FFC00064B43B100F0CEFB03681B6998470028B1
:10500C0001DDAFF3008008BD0000000000000000CF
:10501C0008B5FFF7E1FFFFF71FFD014B186008BD56
:10502C0038E703200548064A064908B5121A00F06D
:10503C002FFC054B054A1A6008BD00BF00F4032085
:10504C0004F40320305D0B0000F403201E1C279A8F
:10505C0007B5002300931A466FF07701FFF716FE91
:10506C0003B05DF804FB000007B543880A2B08D099
:10507C00502B0BD1094B1B684BB103B05DF804EB03
:10508C001847FFF7E5FF03B05DF804FB002300931E
:10509C001A466FF07701FFF7F9FDF4E7E8E6032015
:1050AC0010B512480021FFF783FE114B1A68114B03
:1050BC009A42114B0CBF012200221A7001D0FFF74B
:1050CC00B1FFFFF7C1FC044600F0F8FB0B4B13B12A
:1050DC002046AFF3008000210848FFF741FEBDE8F1
:1050EC00104007480021FFF7C7BD00BFD94F0B0088
:1050FC0000F403201E1C279AE4E6032000000000A5
:10510C0075500B00704710B518210446FEF7BDFF13
:10511C00204610BDF0B5037D062B8DB00E4600F178
:10512C0004074FF0000412D000F1080515F8011D1A
:10513C000A223046FFF7DDFEAF42044419D0002CA2
:10514C00F4D02E213046FFF7C5FE0444EEE72F23A2
:10515C006A4639460A208DF80040FFF7A5FC6846E0
:10516C0000F0DAFB33680246DB6869463046984744
:10517C00044620460DB0F0BD10B5054B0446112277
:10518C0040F8043B002100F091FB204610BD00BF0D
:10519C00605B0B000346074A10B543F8042B01F182
:1051AC00100251F8044B43F8044B9142F9D10A78A0
:1051BC001A7010BD605B0B0010B59DF8084044EAF6
:1051CC00032343EA024242EA01610423416003756E
:1051DC0010BD000007B5064B0360CB7800938B78AD
:1051EC004A780978FFF7E8FF03B05DF804FB00BFCD
:1051FC00605B0B00417470477047704708B5002125
:10520C00007CFFF719FD40EAE07008BD08B50121EC
:10521C00007CFFF711FD40EAE07008BD08B5007C8A
:10522C00FFF702FD20EAE07008BD08B5007CFFF72F
:10523C00F3FC20EAE07008BD13B50446007C019134
:10524C00FFF7F2FC0028019901DC607C20B1207C86
:10525C00FFF7FAFC20EAE07002B010BD007CFFF70B
:10526C00FBBC10B514210446FEF70FFF204610BD01
:10527C0010B54FF47A73044608460021C4E90113B3
:10528C00044B23600123207463741146FFF7BCFCAC
:10529C00204610BD745B0B0010B51422044600218F
:1052AC0000F004FB204610BD10B50F4C88B003A8CD
:1052BC00FFF7F2FF2178BFF35B8F11F001010FD1E3
:1052CC0020460191FEF7E3FE019948B103AA074875
:1052DC00FFF7CEFF2046FEF7DFFE054800F0D2FABE
:1052EC00024808B010BD00BFECE60320F0E6032036
:1052FC0005520B0070474174704708B5007CFFF7EE
:10530C000BFC20EAE07008BD08B5007CFFF7DCFB65
:10531C0020EAE07008BD08B5007CFFF7E5FB40EA29
:10532C00E07008BD08B5007CFFF7D6FB40EAE070E2
:10533C0008BD007CFFF7E0BB37B5457C04462DB1BA
:10534C00207C03B0BDE83040FFF7B6BB007C019178
:10535C00FFF7E2FB00280199F2DC284603B030BDD0
:10536C0010B514210446FEF790FE204610BD000037
:10537C0010B54FF47A730446084611460022C4E96E
:10538C000123044B2360012320746374FFF7CCFBCF
:10539C00204610BDA45B0B007047F8B506461546B9
:1053AC000C468F18BC4206D0336814F8011B9B685E
:1053BC0030469847F6E72846F8BD007C0022FFF7F8
:1053CC00D3BB007C0021FFF7D7BB007C0021FFF78B
:1053DC00DBBB007C0021FFF7DFBB007C0021FFF76B
:1053EC00E3BB10B514210446FEF74FFE204610BD5A
:1053FC0010B54FF47A73044608460021C4E9011332
:10540C00034B236020741146FFF7DEFB204610BDD2
:10541C00D45B0B000023007C1A461946FFF78CBBAB
:10542C007FB500221423CDE90122ADF804300B78AE
:10543C008DF808304B680393CB680493007C0B7A8F
:10544C00059301A9FFF7C8FB07B05DF804FB1FB576
:10545C00003B8DF800104FF06401039118BF01233D
:10546C00694601928DF80830FFF7DAFF05B05DF858
:10547C0004FB007C0022FFF767BB007C0022FFF7D7
:10548C006BBB007C0021FFF797BB002240681146E4
:10549C00FFF71EBC002240681146FFF739BC002202
:1054AC0040681146FFF744BC40680022FFF738BC47
:1054BC004068002281F00101FFF722BC0023406804
:1054CC001A461946FFF714BC002240681146FFF734
:1054DC00EFBB406800220221FFF7F2BB00234068BB
:1054EC001A46FFF7DDBB0000024B04225A60024A49
:1054FC001A60704704E70320FC5B0B000023406834
:10550C001A46FFF7CDBB406800220221FFF7D8BB3B
:10551C00002240681146FFF7CBBB002240681146C1
:10552C00FFF7D6BB002340681A461946FFF7D8BBD5
:10553C00002340681A461946FFF7DABB4068002181
:10554C00FFF7FEBB40680021FFF702BC4068002259
:10555C0081F00101FFF7D4BB40680022FFF7E0BBEC
:10556C00002240681146FFF7E3BB00224068114659
:10557C00FFF7CEBB2DE9F04395B014460D46074618
:10558C00FFF7FAFD00211C220DA8009100F08EF906
:10559C0040230C9320466B460CAA0021FFF724FAFB
:1055AC00044600284BD1024601216868FFF790FBA6
:1055BC000221804622466868FFF78AFB009E8146DE
:1055CC002146002E3BD0002939D17368022B03D021
:1055DC000A2B11D0F669F4E7B8F1000FFAD0716913
:1055EC0006A8043107ADFFF7F5FD0FCD3C1D0FC428
:1055FC002B6823704146EDE7B9F1000FEAD07469CE
:10560C00102201A800F052F906238DF8143001ADD8
:10561C0004F108031834186859682A4603C2083381
:10562C00A3421546F7D101A906A807ADFFF7B2FDB5
:10563C000FCD3C1D0FC42B6823704946CAE7009858
:10564C00FFF7CAF9384615B0BDE8F083024B034AA0
:10565C001A6000225A6070470CE70320385C0B007C
:10566C00232813B502D9002002B010BDA0F10B0302
:10567C00022B1AD8174C2178BFF35B8F11F0010164
:10568C000BD120460191FEF702FD019928B1124879
:10569C00FFF7D4FB2046FEF7FFFC0F4B1878FFF703
:1056AC00ABFA0028DFD10120DEE7012809D800F091
:1056BC00C3F80021007CFFF77FFA80F00100C0B234
:1056CC00D2E709380128EED800F064F8007CFFF727
:1056DC001BFAF2E714E7032018E70320232838B558
:1056EC0004460D460AD8FF2908D0FFF7B9FF28B1A8
:1056FC0029462046BDE83840FFF786B938BD38B595
:10570C0004460D46FFF788F9FF2810D0062804D868
:10571C004D2323FA00F0C30709D42046FFF7A0FF5E
:10572C0028B129462046BDE83840FFF77DB938BD81
:10573C000D2810B504469CBF0E34A4B22046FFF7CA
:10574C008FFF50B103212046FFF756F9032804D1EF
:10575C002046BDE81040FFF76FB9002010BD704720
:10576C0038B5044614252A46002100F09FF8258000
:10577C004025074925812846258200F081F80449F7
:10578C006060284600F07CF8E060204638BD00BF21
:10579C006C5C0B0030B50E4D2978BFF35B8F11F0AC
:1057AC00010487B011D12846FEF771FC68B101A83D
:1057BC00FFF7D6FF01AA21460648FFF7D9FD284678
:1057CC00FEF76AFC044800F05DF8024807B030BDF3
:1057DC0020E7032024E703206B570B0010B5084C7F
:1057EC002378BFF35B8FDB0708D42046FEF74FFC12
:1057FC0020B1FFF739F92046FEF74EFC014810BDE9
:10580C003CE7032040E703207047000038B5202513
:10581C00142304460360856005610649284600F0A0
:10582C002FF804496060284600F02AF8E060204612
:10583C0038BD00BF6C5C0B0030B50E4D2978BFF342
:10584C005B8F11F0010487B011D12846FEF71FFCC5
:10585C0068B101A8FFF7DAFF01AA21460648FFF755
:10586C00C7FD2846FEF718FC044800F00BF8024868
:10587C0007B030BD44E7032048E7032015580B0060
:10588C00FEF701BC002301461A46184600F04CB83E
:10589C000A44914200F1FF3300D1704710B511F862
:1058AC00014B03F8014F9142F9D110BD024403465C
:1058BC00934200D1704703F8011BF9E738B5104B40
:1058CC001D68AB6B0446B3B91820FFF751FA0246BA
:1058DC00A86320B90B4B0C484221FFF761FA0B4926
:1058EC000B4BC0E900130B4B83600B23838100210E
:1058FC000120C2E90401AB6B00221C615A6138BD66
:10590C00F4E503206D5C0B00845C0B000E33CDAB17
:10591C0034126DE6ECDE0500034613F8012B002A69
:10592C00FBD1181A013870472DE9F843DFF8B8801D
:10593C000646D8F800001F460D46914600F056F872
:10594C00254B1C6834B9254C1C60254B13B11B68C6
:10595C00C4F8883063681F2B07DDD8F8000000F00E
:10596C0047F84FF0FF30BDE8F8834EB3D4F8880009
:10597C0088B91C4B23B9D8F8000000F038F8F0E7D0
:10598C004FF48470FFF7F4F90028F4D00023C0E939
:10599C004033C4F88800636840F8239001229A4091
:1059AC0000EB8301D0F800311343C0F80031022E14
:1059BC00C1F8807002BFD0F804311343C0F8043131
:1059CC006368D8F800005A1C0233626044F8235014
:1059DC0000F00EF80020C6E7E8E703205CE70320A0
:1059EC00000000007D4D0B0058E603207047704707
:1059FC00704700001D400B0059400B0081400B000C
:105A0C0085400B00000000004D756C7469706C656E
:105A1C007865722E7365742829203E2076616C752A
:105A2C0065206D75737420626520696E20746865DD
:105A3C002072616E6765206F6620302E2E2E3135F8
:105A4C002C2076616C7565203D2025640A0042652A
:105A5C00737420636F6C6C656374696F6E2069730B
:105A6C002025640A00426567696E6E696E6720774F
:105A7C006970650A0057697065642025642F256478
:105A8C000A005769706520636F6D706C657465648E
:105A9C000A0050726F6772616D6D65642066696E85
:105AAC0067657220706F732025780A00556E6B6ED7
:105ABC006F776E20636F6D6D616E640A0041646474
:105ACC006564200025640020746F20637572446146
:105ADC0074610A004D505536303530203E20456EED
:105AEC0061626C696E6720576972650A000000007C
:105AFC0000000000000000002B4E0B00214E0B009C
:105B0C00174E0B000D4E0B00014E0B00F54D0B000C
:105B1C0049550B0051550B00E94D0B00E14D0B00A5
:105B2C00D74D0B00CD4D0B0081550B0061707000F3
:105B3C0025592D256D2D25645425483A254D3A259A
:105B4C0053257A0061736374696D65000000000071
:105B5C000000000021510B0011510B0013510B00E0
:105B6C00000000000000000007520B006F520B00F9
:105B7C0045520B00914E0B0037520B0009520B0093
:105B8C0019520B0069520B0029520B0001520B00E9
:105B9C00000000000000000001530B006D530B00CF
:105BAC0045530B00914E0B0015530B0031530B005A
:105BBC0023530B003F530B0003530B0007530B00F5
:105BCC000000000000000000A5530B00EF530B0079
:105BDC00C7530B00A7530B00CF530B00D7530B002D
:105BEC00DF530B00E7530B00000000000000000027
:105BFC00E9540B00DF540B00D5540B0097540B00E9
:105C0C009D4F0B00C9540B0049550B0051550B000F
:105C1C00BD540B00B5540B00AB540B00A1540B003E
:105C2C0081550B00000000000000000009550B001E
:105C3C0013550B001D550B0027550B0031550B0050
:105C4C003D550B0049550B0051550B0059550B0098
:105C5C0065550B006D550B0077550B0081550B00EE
:105C6C00005245454E54206D616C6C6F632073750A
:105C7C0063636565646564002F6D6E742F776F7256
:105C8C006B73706163652F776F726B737061636593
:105C9C002F4743432D31302D706970656C696E65EB
:105CAC002F6A656E6B696E732D4743432D31302D12
:105CBC00706970656C696E652D34385F32303230C6
:105CCC00313132345F313630363138303634312F71
:105CDC007372632F6E65776C69622F6E65776C6972
:105CEC00622F6C6962632F7374646C69622F7261CA
:105CFC006E642E630000000091470B00354E0B00C4
:105D0C005D4E0B00814E0B00A94F0B00B94F0B00E1
:105D1C00CD4F0B00F5540B0059560B000000000042
:045D2C000000000073
:045D3000000000006F
:105D3400505B0B00F8E503200000000000000000A9
:105D4400000000000000000000000000000000004F
:105D5400000000000000000000000000000000003F
:105D6400000000000000000000000000000000002F
:105D7400000000000000000000000000000000001F
:105D8400000000000000000000000000000000000F
:0C5D94000000000000000000ECE703200D
:105DA000FFFFFFFF00000102030405060708090AC0
:105DB0000B0C0D0E0F101112131415161718191ABB
:085DC0001B1C1D1E1F20280002
:045DC80078563412C3
:04000003B000401CED
:00000001FF
