:02000002B0004C
:1040000000400B0038590B00000006000C000502B0
:084010000401810C0000000016
:0440180004560B003F
:10401C0009480A49884208B505D0094A824202D0AB
:10402C00121A01F037FA0748074A0021121A01F058
:10403C003FFA014808BD00BF38E60320A4580B0026
:10404C00A4E60320A4E60320EDE7032070B5074E99
:10405C00074C00F0BDFCA41BA4080025AC4200D109
:10406C0070BD56F8043B98470135F7E778580B00BC
:10407C009C580B0000F0B8B808B500F0DBF8BDE8B0
:10408C00084000F05DBC00F00BBB00F011BB0078E9
:10409C00B0FA80F0400970470123037070470EB4EA
:1040AC0003B503AB002153F8042B019300F0D7FBAD
:1040BC0002B05DF804EB03B0704700000F2938B56F
:1040CC0005460C4606D900F087FD0D492246FFF740
:1040DC00E6FF38BD407801F0010100F06CFFA878D4
:1040EC00C4F3400100F067FFE878C4F3800100F0EE
:1040FC0062FF2879E108BDE8384000F05CBF00BFE2
:10410C0018560B0038B50446FFF7D8FF207800216D
:10411C0000F051FF607900F067FF0121054620781F
:10412C0000F049FF284638BD38B50D460446092134
:10413C002846FFF7E7FF07EE900AF8EEE77A08212A
:10414C00C4ED007A2846FFF7DDFF07EE900AF8EE83
:10415C00E77A0721C4ED017A2846FFF7D3FF07EE73
:10416C00900AF8EEE77A0C21C4ED027A2846FFF7A4
:10417C00C9FF07EE900AF8EEE77A0D21C4ED037A39
:10418C002846FFF7BFFF07EE900AF8EEE77A0A2100
:10419C00C4ED047A2846FFF7B5FF07EE900AF8EE57
:1041AC00E77A0B21C4ED057A2846FFF7ABFF07EE43
:1041BC00900AF8EEE77A0E21C4ED067A2846FFF74E
:1041CC00A1FF07EE900AF8EEE77A0F21C4ED077A0B
:1041DC002846FFF797FF07EE900AF8EEE77A20469D
:1041EC00C4ED087A38BD000010B5114C01212078BF
:1041FC0000F0D0FE6078012100F0CCFEA078012107
:10420C0000F0C8FEE078012100F0C4FE2079012105
:10421C0000F0C0FE6079002100F0BCFEA1792046C0
:10422C00FFF74CFF20780121BDE8104000F0C3BE21
:10423C00B0E6032070B58AB03C493D4C01A8FFF7AD
:10424C0073FF00F0C9FC0546019801F0C5F8024661
:10425C000B4628462146FFF722FF00F0BDFC064620
:10426C000298344D01F0B8F802460B463046294608
:10427C00FFF715FF00F0B0FC0646039801F0ACF810
:10428C0002460B4630462146FFF709FF00F0A4FC1E
:10429C000646049801F0A0F802460B463046294623
:1042AC00FFF7FDFE00F098FC0646059801F094F827
:1042BC0002460B4630462146FFF7F1FE00F08CFC1F
:1042CC000646069801F088F802460B463046294609
:1042DC00FFF7E5FE00F080FC0646079801F07CF83D
:1042EC0002460B4630462146FFF7D9FE00F074FC1F
:1042FC000646089801F070F802460B4630462946EF
:10430C00FFF7CDFE00F068FC0546099801F064F853
:10431C0002460B4628462146FFF7C1FE00F05CFC26
:10432C000549FFF7BCFE0AB070BD00BFB0E6032024
:10433C005E560B0068560B005C560B0008B50C4B18
:10434C000022C3E90022A2F580329A60022000F01C
:10435C0023F9084B06221A7002225A7003229A7013
:10436C000422DA7005221A7113225A7108BD00BF9B
:10437C00A4E60320B0E6032008B5024B1B689B683B
:10438C00019308BD6802030008B5024B1B68DB688B
:10439C00019308BD6802030008B5024B1B685B68FB
:1043AC00019308BD2C02030008B5024B1B689B68E7
:1043BC00019308BD2C02030008B5024B1B68DB6897
:1043CC00019308BD2C02030008B5024B1B681B6946
:1043DC00019308BD2C02030008B5024B1B681B6B34
:1043EC00019308BD2C02030008B5024B1B685B68E7
:1043FC00019308BD1802030008B5024B1B685B69EA
:10440C00019308BD1802030008B5024B1B685B6CD6
:10441C00019308BD4802030008B5024B1B685B6999
:10442C00019308BD6402030008B5024B1B68DB68EE
:10443C00019308BD3C02030008B5024B1B681B69C5
:10444C00019308BD3C02030008B5024B1B685B6975
:10445C00019308BD3C02030008B5024B1B689B6925
:10446C00019308BD3C02030008B5024B1B68DB69D5
:10447C00019308BD3C02030008B5024B1B681B6A84
:10448C00019308BD3C02030008B5024B1B689B6AF4
:10449C00019308BD3C02030008B5024B1B681B6C62
:1044AC00019308BD3C02030008B5024B1B681B6A54
:1044BC00019308BD2802030008B5024B1B685B6A18
:1044CC00019308BD2802030008B5024B1B689B6AC8
:1044DC00019308BD2802030008B5024B1B68DB6A78
:1044EC00019308BD2802030008B5024B1B681B6B27
:1044FC00019308BD2802030008B5024B1B685B6BD7
:10450C00019308BD2802030008B5024B1B681B6C05
:10451C00019308BD2802030008B5024B1B68DB6938
:10452C00019308BD3002030008B5024B1B681B6ADF
:10453C00019308BD3002030008B5024B1B681B68D1
:10454C00019308BD4C02030008B5024B1B681B69A4
:10455C00019308BD4C02030008B5024B1B685B6954
:10456C00019308BD4C02030008B5024B1B689B6904
:10457C00019308BD4C02030008B5024B1B68DB69B4
:10458C00019308BD4C02030008B5024B1B681B6A63
:10459C00019308BD4C02030008B5024B1B685B6815
:1045AC00019308BD2002030008B5034B1B68D3F828
:1045BC008830019308BD00002002030008B5034BAE
:1045CC001B68D3F89430019308BD0000200203004F
:1045DC0008B5024B1B685B68019308BD40020300E1
:1045EC0008B5024B1B689B68019308BD4002030091
:1045FC0008B5024B1B68DB68019308BD4002030041
:10460C0008B5024B1B681B69019308BD40020300EF
:10461C0008B5024B1B685B69019308BD400203009F
:10462C0008B5024B1B689B69019308BD400203004F
:10463C0008B5024B1B68DB69019308BD40020300FF
:10464C0008B5024B1B681B6A019308BD40020300AE
:10465C0008B5024B1B681B6B019308BD400203009D
:10466C0008B5024B1B685B6B019308BD400203004D
:10467C0008B5024B1B681B6C019308BD400203007C
:10468C0008B5024B1B685B6C019308BD400203002C
:10469C0008B5024B1B68DB6B019308BD4402030099
:1046AC0008B5024B1B681B68019308BD1C02030074
:1046BC0008B5024B1B685B68019308BD1C02030024
:1046CC0008B5024B1B685B6A019308BD1C02030012
:1046DC0008B5024B1B681B6C019308BD1C02030040
:1046EC0008B5024B1B685B6C019308BD1C020300F0
:1046FC00002240681146FFF7A3BF00224068114614
:10470C00FFF7AEBF40680022FFF7A2BF406800224F
:10471C0081F00101FFF78CBF002340681A4619464F
:10472C00FFF77EBF002340681A461946FFF770BF9B
:10473C00002240681146FFF763BF00224068114613
:10474C00FFF74EBF406800220221FFF751BF002344
:10475C0040681A46FFF73CBF024B03225A60024ADC
:10476C001A607047B8E6032078560B0010B5044663
:10477C0008462170FFF7D0FE00236360204610BD71
:10478C00054B02221A60054B054A9A600020C3E9CA
:10479C000000FFF701BF00BFCCE60320C0E60320FA
:1047AC000000FFFF024800230360FFF72DBE00BF8F
:1047BC00D0E60320F8B506460D468F180024BD42FE
:1047CC000CD0336815F8011B9B6830469847031EC4
:1047DC0001DB1C44F3E7002C08BF1C462046F8BD47
:1047EC0013B50446084659B1019100F097FE2368B1
:1047FC000199DB680246204602B0BDE8104018471C
:10480C0002B010BD03689B68184738B50D210546EA
:10481C00FFF7F8FF0A2104462846FFF7F3FF204470
:10482C0038BD30B58BB00023012A8DF8243098BFE9
:10483C000A2209AC0D46B1FBF2F101FB125303F055
:10484C00FF03092B94BF30333733DBB2AA4204F891
:10485C00013DEFD92146FFF7C3FF0BB030BD2DE969
:10486C00F04186B000AF05460E46381D14211446A3
:10487C003B60FFF725FF13280ED8391D2846FFF79C
:10488C00AFFF04461EB12846FFF7BFFF0444204685
:10489C001837BD46BDE8F08100F1080323F007038B
:1048AC00E846ADEB030D2246411C3B686846FFF71A
:1048BC0007FF69462846FFF793FF0446C546E1E724
:1048CC00002340681A461946FFF7A2BE014B024A64
:1048DC001A607047D4E60320AC560B00024B1A68E2
:1048EC00024B1A60704700BF38E60320D8E603205D
:1048FC00014B00229A607047DCE60320014B1860E4
:10490C00704700BF3CE6032008B50B4B43B100F0E9
:10491C0063F903681B699847002801DDAFF3008039
:10492C00064B43B100F092FB03681B6998470028C3
:10493C0001DDAFF3008008BD0000000000000000A6
:10494C0008B5FFF7E1FFFFF757FD014B186008BDF5
:10495C0040E703200548064A064908B5121A00F03C
:10496C0099FD054B054A1A6008BD00BF00F40320F1
:10497C0004F40320A0580B0000F403201E1C279AFB
:10498C0007B5002300931A466FF07701FFF716FE68
:10499C0003B05DF804FB000007B543880A2B08D070
:1049AC00502B0BD1094B1B684BB103B05DF804EBDA
:1049BC001847FFF7E5FF03B05DF804FB00230093F5
:1049CC001A466FF07701FFF7F9FDF4E7F0E60320E4
:1049DC0010B512480021FFF783FE114B1A68114BDA
:1049EC009A42114B0CBF012200221A7001D0FFF722
:1049FC00B1FFFFF7F9FC044600F062FD0B4B13B15D
:104A0C002046AFF3008000210848FFF741FEBDE8C7
:104A1C00104007480021FFF7C7BD00BF09490B0034
:104A2C0000F403201E1C279AECE603200000000073
:104A3C00A5490B00704710B518210446FFF725FB5C
:104A4C00204610BDF0B5037D062B8DB00E4600F14F
:104A5C0004074FF0000412D000F1080515F8011DF1
:104A6C000A223046FFF7DDFEAF42044419D0002C79
:104A7C00F4D02E213046FFF7C5FE0444EEE72F2379
:104A8C006A4639460A208DF80040FFF7C5FC684697
:104A9C0000F044FD33680246DB68694630469847AF
:104AAC00044620460DB0F0BD10B5054B044611224E
:104ABC0040F8043B002100F0FBFC204610BD00BF79
:104ACC00D4560B000346074A10B543F8042B01F1EA
:104ADC00100251F8044B43F8044B9142F9D10A7877
:104AEC001A7010BDD4560B0010B59DF8084044EA5E
:104AFC00032343EA024242EA016104234160037545
:104B0C0010BD000007B5064B0360CB7800938B7883
:104B1C004A780978FFF7E8FF03B05DF804FB00BFA3
:104B2C00D4560B00417470477047704708B500218C
:104B3C00007CFFF719FD40EAE07008BD08B50121C3
:104B4C00007CFFF711FD40EAE07008BD08B5007C61
:104B5C00FFF702FD20EAE07008BD08B5007CFFF706
:104B6C00F3FC20EAE07008BD13B50446007C01910B
:104B7C00FFF7F2FC0028019901DC607C20B1207C5D
:104B8C00FFF7FAFC20EAE07002B010BD007CFFF7E2
:104B9C00FBBC10B514210446FFF777FA204610BD74
:104BAC0010B54FF47A73044608460021C4E901138A
:104BBC00044B23600123207463741146FFF7BCFC83
:104BCC00204610BDE8560B0010B5142204460021F7
:104BDC0000F06EFC204610BD10B50F4C88B003A839
:104BEC00FFF7F2FF2178BFF35B8F11F001010FD1BA
:104BFC0020460191FFF74BFA019948B103AA0748E7
:104C0C00FFF7CEFF2046FFF747FA054800F03CFCC3
:104C1C00024808B010BD00BFF4E60320F8E60320FC
:104C2C00354B0B0070474174704708B5007CFFF79B
:104C3C002BFC20EAE07008BD08B5007CFFF7FCFBFC
:104C4C0020EAE07008BD08B5007CFFF705FC40EADF
:104C5C00E07008BD08B5007CFFF7F6FB40EAE07099
:104C6C0008BD007CFFF700BC37B5457C04462DB170
:104C7C00207C03B0BDE83040FFF7D6BB007C01912F
:104C8C00FFF702FC00280199F2DC284603B030BD86
:104C9C0010B514210446FFF7F8F9204610BD0000AA
:104CAC0010B54FF47A730446084611460022C4E945
:104CBC000123044B2360012320746374FFF7ECFB86
:104CCC00204610BD18570B007047F8B50646154620
:104CDC000C468F18BC4206D0336814F8011B9B6835
:104CEC0030469847F6E72846F8BD007C0022FFF7CF
:104CFC00DBBB007C0021FFF7DFBB007C0021FFF752
:104D0C00E3BB007C0021FFF7E7BB007C0021FFF731
:104D1C00EBBB10B514210446FFF7B7F9204610BDC4
:104D2C0010B54FF47A73044608460021C4E9011308
:104D3C00034B236020741146FFF7E6FB204610BDA1
:104D4C0048570B00002240681146FFF759BC00225F
:104D5C0040681146FFF774BC002240681146FFF70B
:104D6C007FBC40680022FFF773BC4068002281F0D2
:104D7C000101FFF75DBC002340681A461946FFF796
:104D8C004FBC002240681146FFF72ABC4068002245
:104D9C000221FFF72DBC002340681A46FFF718BC10
:104DAC00024B04225A60024A1A6070470CE7032037
:104DBC0070570B00002340681A46FFF709BC406887
:104DCC0000220221FFF714BC002240681146FFF7B5
:104DDC0007BC002240681146FFF712BC0023406854
:104DEC001A461946FFF714BC002340681A461946A8
:104DFC00FFF716BC40680021FFF73ABC4068002161
:104E0C00FFF73EBC4068002281F00101FFF710BCA7
:104E1C0040680022FFF71CBC002240681146FFF7D7
:104E2C001FBC002240681146FFF70ABC2DE9F04375
:104E3C0095B014460D460746FFF736FE00211C229E
:104E4C000DA8009100F034FB40230C9320466B46D8
:104E5C000CAA0021FFF798FA044600284BD1024611
:104E6C0001216868FFF7CCFB022180462246686866
:104E7C00FFF7C6FB009E81462146002E3BD0002941
:104E8C0039D17368022B03D00A2B11D0F669F4E7E1
:104E9C00B8F1000FFAD0716906A8043107ADFFF71D
:104EAC0031FE0FCD3C1D0FC42B6823704146EDE73E
:104EBC00B9F1000FEAD07469102201A800F0F8FAD9
:104ECC0006238DF8143001AD04F10803183418686A
:104EDC0059682A4603C20833A3421546F7D101A9E3
:104EEC0006A807ADFFF7EEFD0FCD3C1D0FC42B68D8
:104EFC0023704946CAE70098FFF73EFA384615B0CA
:104F0C00BDE8F083024B034A1A6000225A607047D6
:104F1C0014E70320AC570B00232813B502D900204B
:104F2C0002B010BDA0F10B03022B1AD8174C21783C
:104F3C00BFF35B8F11F001010BD120460191FFF7FC
:104F4C00A6F8019928B11248FFF710FC2046FFF78C
:104F5C00A3F80F4B1878FFF7E7FA0028DFD10120F0
:104F6C00DEE7012809D800F0ADF80021007CFFF73E
:104F7C00C3FA80F00100C0B2D2E709380128EED89C
:104F8C0000F064F8007CFFF777FAF2E71CE70320E7
:104F9C0020E70320232838B504460D460AD8FF29FC
:104FAC0008D0FFF7B9FF28B129462046BDE83840A4
:104FBC00FFF7FAB938BD38B504460D46FFF7FCF9D2
:104FCC00FF2810D0062804D84D2323FA00F0C3077D
:104FDC0009D42046FFF7A0FF28B129462046BDE89A
:104FEC003840FFF7F1B938BD0D2810B504469CBF09
:104FFC000E34A4B22046FFF78FFF50B10321204698
:10500C00FFF7CAF9032804D12046BDE81040FFF78A
:10501C00E3B9002010BD704738B5044614252A4664
:10502C00002100F045FA25804025074925812846B6
:10503C00258200F06BF804496060284600F066F8A1
:10504C00E060204638BD00BFE0570B0030B50E4D78
:10505C002978BFF35B8F11F0010487B011D128467A
:10506C00FFF715F868B101A8FFF7D6FF01AA214692
:10507C000648FFF715FE2846FFF70EF8044800F027
:10508C0003FA024807B030BD28E703202CE70320C1
:10509C0023500B007047000038B52025142304461C
:1050AC000360856005610649284600F02FF8044925
:1050BC006060284600F02AF8E060204638BD00BF4A
:1050CC00E0570B0030B50E4D2978BFF35B8F11F014
:1050DC00010487B011D12846FEF7D9FF68B101A8A9
:1050EC00FFF7DAFF01AA21460648FFF719FE28460A
:1050FC00FEF7D2FF044800F0C7F9024807B030BDF4
:10510C0044E7032048E70320A1500B00FEF7BBBF88
:10511C0081F0004102E000BF83F0004330B54FEA5C
:10512C0041044FEA430594EA050F08BF90EA020FC9
:10513C001FBF54EA000C55EA020C7FEA645C7FEA5C
:10514C00655C00F0E2804FEA5454D4EB5555B8BF7F
:10515C006D420CDD2C4480EA020281EA030382EAF0
:10516C00000083EA010180EA020281EA0303362D82
:10517C0088BF30BD11F0004F4FEA01314FF4801C55
:10518C004CEA113102D0404261EB410113F0004F67
:10519C004FEA03334CEA133302D0524263EB43031E
:1051AC0094EA050F00F0A780A4F10104D5F1200EBC
:1051BC000DDB02FA0EFC22FA05F2801841F1000117
:1051CC0003FA0EF2801843FA05F359410EE0A5F1EB
:1051DC0020050EF1200E012A03FA0EFC28BF4CF01C
:1051EC00020C43FA05F3C01851EBE37101F00045D2
:1051FC0007D54FF0000EDCF1000C7EEB00006EEBDF
:10520C000101B1F5801F1BD3B1F5001F0CD3490868
:10521C005FEA30004FEA3C0C04F101044FEA4452BF
:10522C0012F5800F80F09A80BCF1004F08BF5FEA46
:10523C00500C50F1000041EB045141EA050130BD26
:10524C005FEA4C0C404141EB0101013C28BFB1F538
:10525C00801FE9D291F0000F04BF01460020B1FA83
:10526C0081F308BF2033A3F10B03B3F120020CDA56
:10527C000C3208DD02F1140CC2F10C0201FA0CF034
:10528C0021FA02F10CE002F11402D8BFC2F1200C99
:10529C0001FA02F120FA0CFCDCBF41EA0C0190404F
:1052AC00E41AA2BF01EB0451294330BD6FEA040498
:1052BC001F3C1CDA0C340EDC04F11404C4F1200283
:1052CC0020FA04F001FA02F340EA030021FA04F395
:1052DC0045EA030130BDC4F10C04C4F1200220FAEC
:1052EC0002F001FA04F340EA0300294630BD21FA2A
:1052FC0004F0294630BD94F0000F83F4801306BFF0
:10530C0081F480110134013D4EE77FEA645C18BFE3
:10531C007FEA655C29D094EA050F08BF90EA020F7A
:10532C0005D054EA000C04BF1946104630BD91EA72
:10533C00030F1EBF0021002030BD5FEA545C05D175
:10534C004000494128BF41F0004130BD14F58004B4
:10535C003CBF01F5801130BD01F0004545F0FE4128
:10536C0041F470014FF0000030BD7FEA645C1ABF5D
:10537C00194610467FEA655C1CBF0B46024650EA94
:10538C00013406BF52EA033591EA030F41F40021C0
:10539C0030BD00BF90F0000F04BF0021704730B546
:1053AC004FF4806404F132044FF000054FF000011B
:1053BC0050E700BF90F0000F04BF0021704730B5DC
:1053CC004FF4806404F1320410F0004548BF4042B1
:1053DC004FF000013EE700BF42004FEAE2014FEA06
:1053EC0031014FEA02701FBF12F07F4393F07F4FE1
:1053FC0081F06051704732F07F4208BF704793F0E4
:10540C007F4F04BF41F40021704730B54FF46074F6
:10541C0001F0004521F000411CE700BF50EA0102F9
:10542C0008BF704730B54FF000050AE050EA0102A2
:10543C0008BF704730B511F0004502D5404261EB12
:10544C0041014FF4806404F132045FEA915C3FF453
:10545C00D8AE4FF003025FEADC0C18BF03325FEAF0
:10546C00DC0C18BF033202EBDC02C2F1200300FAA1
:10547C0003FC20FA02F001FA03FE40EA0E0021FAC6
:10548C0002F11444BDE600BF002301461A4618463B
:10549C0000F04CB80A44914200F1FF3300D1704740
:1054AC0010B511F8014B03F8014F9142F9D110BD21
:1054BC0002440346934200D1704703F8011BF9E7FD
:1054CC0038B5104B1D68AB6B0446B3B91820FFF709
:1054DC00E7F80246A86320B90B4B0C484221FFF7B2
:1054EC00F7F80B490B4BC0E900130B4B83600B23F4
:1054FC00838100210120C2E90401AB6B00221C61F5
:10550C005A6138BD3CE60320E1570B00F8570B00FD
:10551C000E33CDAB34126DE6ECDE0500034613F80A
:10552C00012B002AFBD1181A013870472DE9F843DA
:10553C00DFF8B8800646D8F800001F460D469146A5
:10554C0000F056F8254B1C6834B9254C1C60254BD3
:10555C0013B11B68C4F8883063681F2B07DDD8F8BB
:10556C00000000F047F84FF0FF30BDE8F8834EB371
:10557C00D4F8880088B91C4B23B9D8F8000000F087
:10558C0038F8F0E74FF48470FFF78AF80028F4D06D
:10559C000023C0E94033C4F88800636840F82390C6
:1055AC0001229A4000EB8301D0F800311343C0F87C
:1055BC000031022EC1F8807002BFD0F804311343C1
:1055CC00C0F804316368D8F800005A1C02336260DA
:1055DC0044F8235000F00EF80020C6E7E8E703205B
:1055EC005CE7032000000000AD460B00A0E60320A2
:1055FC0070477047704700001D400B0059400B006E
:10560C0081400B0085400B00000000004D756C7450
:10561C0069706C657865722E7365742829203E203C
:10562C0076616C7565206D75737420626520696E8A
:10563C00207468652072616E6765206F6620302E5D
:10564C002E2E31352C2076616C7565203D2025641D
:10565C000A00252E3266202020202000252E3266BE
:10566C002020000000000000000000005B470B0041
:10567C0051470B0047470B003D470B0031470B00D0
:10568C0025470B00014E0B00094E0B0019470B0070
:10569C0011470B0007470B00FD460B00394E0B0062
:1056AC006170700025592D256D2D25645425483ABF
:1056BC00254D3A2553257A0061736374696D650035
:1056CC000000000000000000514A0B00414A0B0092
:1056DC00434A0B000000000000000000374B0B0099
:1056EC009F4B0B00754B0B00C1470B00674B0B001E
:1056FC00394B0B00494B0B00994B0B00594B0B00D2
:10570C00314B0B000000000000000000314C0B007E
:10571C009D4C0B00754C0B00C1470B00454C0B000E
:10572C00614C0B00534C0B006F4C0B00334C0B00BB
:10573C00374C0B000000000000000000D54C0B00A3
:10574C001F4D0B00F74C0B00D74C0B00FF4C0B0004
:10575C00074D0B000F4D0B00174D0B000000000008
:10576C0000000000A34D0B00994D0B008F4D0B005A
:10577C00514D0B00CD480B00834D0B00014E0B001F
:10578C00094E0B00774D0B006F4D0B00654D0B0058
:10579C005B4D0B00394E0B000000000000000000B8
:1057AC00C14D0B00CB4D0B00D54D0B00DF4D0B004D
:1057BC00E94D0B00F54D0B00014E0B00094E0B0093
:1057CC00114E0B001D4E0B00254E0B002F4E0B00E7
:1057DC00394E0B00005245454E54206D616C6C6F78
:1057EC006320737563636565646564002F6D6E7407
:1057FC002F776F726B73706163652F776F726B733A
:10580C00706163652F4743432D31302D706970658E
:10581C006C696E652F6A656E6B696E732D474343B9
:10582C002D31302D706970656C696E652D34385F63
:10583C0032303230313132345F313630363138300B
:10584C003634312F7372632F6E65776C69622F6EED
:10585C0065776C69622F6C6962632F7374646C6911
:10586C00622F72616E642E630000000049430B00CE
:10587C0065470B008D470B00B1470B00D9480B0057
:10588C00E9480B00FD480B00AD4D0B00114F0B0010
:04589C000000000008
:0458A0000000000004
:1058A400C4560B0040E60320000000000000000086
:1058B40000000000000000000000000000000000E4
:1058C40000000000000000000000000000000000D4
:1058D40000000000000000000000000000000000C4
:1058E40000000000000000000000000000000000B4
:1058F40000000000000000000000000000000000A4
:0C5904000000000000000000ECE70320A1
:10591000FFFFFFFF00000102030405060708090A54
:105920000B0C0D0E0F101112131415161718191A4F
:085930001B1C1D1E1F20280096
:045938007856341257
:04000003B000401CED
:00000001FF
