:02000002B0004C
:1040000000400B00C8580B00000006000C00050221
:084010000401810C0000000016
:0440180040550B0004
:10401C0009480A49884208B505D0094A824202D0AB
:10402C00121A01F0C3F90748074A0021121A01F0CD
:10403C00CBF9014808BD00BF24E6032034580B001F
:10404C0090E6032090E60320EDE7032070B5074EC1
:10405C00074C00F005FEA41BA4080025AC4200D1BF
:10406C0070BD56F8043B98470135F7E704580B0030
:10407C0028580B0000F0F0B808B500F03FF9BDE887
:10408C00084000F0A5BD00F08BBB00F091BB0078A0
:10409C00B0FA80F0400970470123037070470EB4EA
:1040AC0003B503AB002153F8042B019300F0F5FC8E
:1040BC0002B05DF804EB03B0704700000F2938B56F
:1040CC0005460C4606D900F0CFFE0D492246FFF7F7
:1040DC00E6FF38BD407801F0010101F0B4F8A87892
:1040EC00C4F3400101F0AFF8E878C4F3800101F0AB
:1040FC00AAF82879E108BDE8384001F0A4B800BF5F
:10410C0054550B0038B50446FFF7D8FF2078002132
:10411C0001F099F8607901F0AFF80121054620789B
:10412C0001F091F8284638BD38B50D4604460921F2
:10413C002846FFF7E7FF0028B8BF0F3000112070AA
:10414C0008212846FFF7DEFF0028B8BF0F3000110A
:10415C00607007212846FFF7D5FF0028B8BF0F3045
:10416C000011A0700C212846FFF7CCFF0028B8BF27
:10417C000F300011E0700D212846FFF7C3FF002817
:10418C00B8BF0F30001120710A212846FFF7BAFF83
:10419C000028B8BF0F30001160710B212846FFF7C3
:1041AC00B1FF0028B8BF0F300011A0710E212846B6
:1041BC00FFF7A8FF0028B8BF0F300011E0710F21E6
:1041CC002846FFF79FFF0028B8BF0F300011207260
:1041DC00204638BD10B50B7802784C78D21A43784B
:1041EC00002AA3EB0403B8BF5242002BB8BF5B42BA
:1041FC008C781A4483781B1B002BB8BF5B42CC789D
:10420C001A44C3781B1B002BB8BF5B420C791344B8
:10421C000279121B002AB8BF52424C7913444279DE
:10422C00121B002AB8BF52428C791A4483791B1B8B
:10423C00002BB8BF5B421A44CC79C379007A1B1BA4
:10424C00002BB8BF5B4213440A7A801A0028B8BF0F
:10425C004042184410BD000010B5114C01212078CB
:10426C0000F0E0FF6078012100F0DCFFA078012174
:10427C0000F0D8FFE078012100F0D4FF2079012173
:10428C0000F0D0FF6079002100F0CCFFA17920462E
:10429C00FFF714FF20780121BDE8104000F0D3BFD8
:1042AC009CE6032013B5114B1B780146C3B101905A
:1042BC000F48FFF78FFFB0F5106FA8BF4FF41060D9
:1042CC00019904460B4B1B786BB10B48FFF782FF2F
:1042DC00074B094A8442C8BF1346184602B010BDAA
:1042EC004FF41064EEE7024BF7E700BFACE6032097
:1042FC00A3E60320B6E60320ADE6032000B589B0A3
:10430C00414901A8FFF710FF00F0AEFD03681B69DF
:10431C009847002831DD00F0A7FD014604A800F005
:10432C0003FC3A4904A800F048FB48B3384B9DF80D
:10433C0004201A709DF805205A709DF806209A707A
:10434C009DF80720DA709DF808201A719DF8092055
:10435C005A719DF80A209A719DF80B20DA719DF81C
:10436C000C201A722B4B01221A7000F07DFD2A4989
:10437C00FFF795FE04A800F09DFA09B05DF804FB68
:10438C00264904A800F019FB10B3254B9DF8042016
:10439C001A709DF805205A709DF806209A709DF8A9
:1043AC000720DA709DF808201A719DF809205A71BF
:1043BC009DF80A209A719DF80B20DA719DF80C205B
:1043CC001A72184B01221A7000F04EFD1649CFE7F5
:1043DC00164904A800F0F1FA0028CBD001A8FFF789
:1043EC0061FF0B4B984203D100F03EFD1049BFE733
:1043FC000B4B984203D100F037FD0E49B8E700F0A3
:10440C0033FD0D49B4E700BF9CE603209A550B0021
:10441C00A3E60320ACE60320A4550B00AF550B001C
:10442C00ADE60320B6E60320BC550B00CA550B00C5
:10443C00D3550B00DE550B00EC550B0008B50C4B9F
:10444C000022C3E90022A2F580329A60022000F01B
:10445C0023F9084B06221A7002225A7003229A7012
:10446C000422DA7005221A7113225A7108BD00BF9A
:10447C0090E603209CE6032008B5024B1B689B6862
:10448C00019308BD6802030008B5024B1B68DB688A
:10449C00019308BD6802030008B5024B1B685B68FA
:1044AC00019308BD2C02030008B5024B1B689B68E6
:1044BC00019308BD2C02030008B5024B1B68DB6896
:1044CC00019308BD2C02030008B5024B1B681B6945
:1044DC00019308BD2C02030008B5024B1B681B6B33
:1044EC00019308BD2C02030008B5024B1B685B68E6
:1044FC00019308BD1802030008B5024B1B685B69E9
:10450C00019308BD1802030008B5024B1B685B6CD5
:10451C00019308BD4802030008B5024B1B685B6998
:10452C00019308BD6402030008B5024B1B68DB68ED
:10453C00019308BD3C02030008B5024B1B681B69C4
:10454C00019308BD3C02030008B5024B1B685B6974
:10455C00019308BD3C02030008B5024B1B689B6924
:10456C00019308BD3C02030008B5024B1B68DB69D4
:10457C00019308BD3C02030008B5024B1B681B6A83
:10458C00019308BD3C02030008B5024B1B689B6AF3
:10459C00019308BD3C02030008B5024B1B681B6C61
:1045AC00019308BD3C02030008B5024B1B681B6A53
:1045BC00019308BD2802030008B5024B1B685B6A17
:1045CC00019308BD2802030008B5024B1B689B6AC7
:1045DC00019308BD2802030008B5024B1B68DB6A77
:1045EC00019308BD2802030008B5024B1B681B6B26
:1045FC00019308BD2802030008B5024B1B685B6BD6
:10460C00019308BD2802030008B5024B1B681B6C04
:10461C00019308BD2802030008B5024B1B68DB6937
:10462C00019308BD3002030008B5024B1B681B6ADE
:10463C00019308BD3002030008B5024B1B681B68D0
:10464C00019308BD4C02030008B5024B1B681B69A3
:10465C00019308BD4C02030008B5024B1B685B6953
:10466C00019308BD4C02030008B5024B1B689B6903
:10467C00019308BD4C02030008B5024B1B68DB69B3
:10468C00019308BD4C02030008B5024B1B681B6A62
:10469C00019308BD4C02030008B5024B1B685B6814
:1046AC00019308BD2002030008B5034B1B68D3F827
:1046BC008830019308BD00002002030008B5034BAD
:1046CC001B68D3F89430019308BD0000200203004E
:1046DC0008B5024B1B685B68019308BD40020300E0
:1046EC0008B5024B1B689B68019308BD4002030090
:1046FC0008B5024B1B68DB68019308BD4002030040
:10470C0008B5024B1B681B69019308BD40020300EE
:10471C0008B5024B1B685B69019308BD400203009E
:10472C0008B5024B1B689B69019308BD400203004E
:10473C0008B5024B1B68DB69019308BD40020300FE
:10474C0008B5024B1B681B6A019308BD40020300AD
:10475C0008B5024B1B681B6B019308BD400203009C
:10476C0008B5024B1B685B6B019308BD400203004C
:10477C0008B5024B1B681B6C019308BD400203007B
:10478C0008B5024B1B685B6C019308BD400203002B
:10479C0008B5024B1B68DB6B019308BD4402030098
:1047AC0008B5024B1B681B68019308BD1C02030073
:1047BC0008B5024B1B685B68019308BD1C02030023
:1047CC0008B5024B1B689B68019308BD1C020300D3
:1047DC0008B5024B1B685B6A019308BD1C02030001
:1047EC0008B5024B1B681B6C019308BD1C0203002F
:1047FC0008B5024B1B685B6C019308BD1C020300DF
:10480C00002240681146FFF79BBF0022406811460A
:10481C00FFF7A6BF40680022FFF79ABF406800224E
:10482C0081F00101FFF784BF002340681A46194646
:10483C00FFF776BF002340681A461946FFF768BF9A
:10484C00002240681146FFF75BBF0022406811460A
:10485C00FFF746BF406800220221FFF749BF002343
:10486C0040681A46FFF734BF024B03225A60024AD3
:10487C001A607047B8E6032004560B0010B50446C6
:10488C0008462170FFF7C8FE00236360204610BD68
:10489C00054B02221A60054B054A9A600020C3E9B9
:1048AC000000FFF7F9BE00BFCCE60320C0E60320F2
:1048BC000000FFFF10B504460068FFF779FF2046A3
:1048CC0010BD10B50446006808B1FFF771FF002356
:1048DC00C4E90133236010BD38B504460D460068A9
:1048EC000131FFF76DFF10B1C4E90005012038BD9F
:1048FC0010B50368044623B143688B4201D30120F1
:10490C0010BD2046FFF7E8FF0028F9D0A368002B64
:10491C00F5D122681370F2E737B50D4611460192B6
:10492C000446FFF7E5FF019A28B92046FFF7C9FFB7
:10493C00204603B030BDA2602946206800F036FD49
:10494C002268A3680021D154F2E7002313B5C0E913
:10495C00003304468360037341B10846019100F0B3
:10496C007BFD019902462046FFF7D6FF204602B098
:10497C0010BD70B505460E4609B9002070BD6AB170
:10498C00846814442146FFF7B3FF0028F5D028684B
:10499C00AB683146184400F057FDAC600120EDE7E0
:1049AC0007B500238DF80410012201A98DF80530FC
:1049BC00FFF7DFFF03B05DF804FB08B582683AB976
:1049CC0021B10878B0FA80F0400900E0012008BD60
:1049DC00006809B90078F5E700F02CFDF2E700005B
:1049EC00024800230360FFF78FBD00BFD0E6032011
:1049FC00F8B506460D468F180024BD420CD033681E
:104A0C0015F8011B9B6830469847031E01DB1C44BC
:104A1C00F3E7002C08BF1C462046F8BD13B504462E
:104A2C00084659B1019100F017FD23680199DB6824
:104A3C000246204602B0BDE81040184702B010BD37
:104A4C0003689B68184738B50D210546FFF7F8FF3A
:104A5C000A2104462846FFF7F3FF204438BD30B541
:104A6C008BB00023012A8DF8243098BF0A2209ACA0
:104A7C000D46B1FBF2F101FB125303F0FF03092BBE
:104A8C0094BF30333733DBB2AA4204F8013DEFD97F
:104A9C002146FFF7C3FF0BB030BD2DE9F04186B0C6
:104AAC0000AF05460E46381D142114463B60FFF737
:104ABC008FFE13280ED8391D2846FFF7AFFF04468A
:104ACC001EB12846FFF7BFFF044420461837BD46E9
:104ADC00BDE8F08100F1080323F00703E846ADEBD5
:104AEC00030D2246411C3B686846FFF771FE694680
:104AFC002846FFF793FF0446C546E1E710B5044688
:104B0C00FFF7FAFCE060236820465B6998470028B1
:104B1C0008DAFFF7F1FCE368C01AA3689842F2D3F5
:104B2C004FF0FF3010BD000038B50D460749044664
:104B3C00FFF70BFF2846FFF7E1FF002804DBC1B2AB
:104B4C002046FFF72DFFF5E7204638BD99550B00A1
:104B5C00002340681A461946FFF7DABD014B024A9A
:104B6C001A607047D4E6032038560B00024B1A68C3
:104B7C00024B1A60704700BF24E60320D8E60320DE
:104B8C00014B00229A607047DCE60320014B186051
:104B9C00704700BF28E6032008B50B4B43B100F06B
:104BAC0063F903681B699847002801DDAFF30080A7
:104BBC00064B43B100F092FB03681B699847002831
:104BCC0001DDAFF3008008BD000000000000000014
:104BDC0008B5FFF7E1FFFFF78FFC014B186008BD2C
:104BEC0040E703200548064A064908B5121A00F0AA
:104BFC00DDFB054B054A1A6008BD00BF00F403201D
:104C0C0004F4032030580B0000F403201E1C279AD8
:104C1C0007B5002300931A466FF07701FFF74EFD9E
:104C2C0003B05DF804FB000007B543880A2B08D0DD
:104C3C00502B0BD1094B1B684BB103B05DF804EB47
:104C4C001847FFF7E5FF03B05DF804FB0023009362
:104C5C001A466FF07701FFF731FDF4E7F0E6032019
:104C6C0010B512480021FFF7C3FD114B1A68114B08
:104C7C009A42114B0CBF012200221A7001D0FFF78F
:104C8C00B1FFFFF731FC044600F0A6FB0B4B13B150
:104C9C002046AFF3008000210848FFF779FDBDE8FE
:104CAC00104007480021FFF7FFBC00BF994B0B00D9
:104CBC0000F403201E1C279AECE6032000000000E1
:104CCC00354C0B00704710B518210446FFF7DDF981
:104CDC00204610BDF0B5037D062B8DB00E4600F1BD
:104CEC0004074FF0000412D000F1080515F8011D5F
:104CFC000A223046FFF7B3FEAF42044419D0002C11
:104D0C00F4D02E213046FFF79BFE0444EEE72F2310
:104D1C006A4639460A208DF80040FFF7FDFB6846CD
:104D2C0000F09AFB33680246DB68694630469847C8
:104D3C00044620460DB0F0BD10B5054B04461122BB
:104D4C0040F8043B002100F03FFB204610BD00BFA3
:104D5C0060560B000346074A10B543F8042B01F1CB
:104D6C00100251F8044B43F8044B9142F9D10A78E4
:104D7C001A7010BD60560B0010B59DF8084044EA3F
:104D8C00032343EA024242EA0161042341600375B2
:104D9C0010BD000007B5064B0360CB7800938B78F1
:104DAC004A780978FFF7E8FF03B05DF804FB00BF11
:104DBC0060560B00417470477047704708B500216E
:104DCC00007CFFF751FC40EAE07008BD08B50121FA
:104DDC00007CFFF749FC40EAE07008BD08B5007C98
:104DEC00FFF73AFC20EAE07008BD08B5007CFFF73D
:104DFC002BFC20EAE07008BD13B50446007C019141
:104E0C00FFF72AFC0028019901DC607C20B1207C92
:104E1C00FFF732FC20EAE07002B010BD007CFFF717
:104E2C0033BC10B514210446FFF72FF9204610BDF2
:104E3C0010B54FF47A73044608460021C4E90113F7
:104E4C00044B23600123207463741146FFF7F4FBB9
:104E5C00204610BD74560B0010B5142204460021D8
:104E6C0000F0B2FA204610BD10B50F4C88B003A864
:104E7C00FFF7F2FF2178BFF35B8F11F001010FD127
:104E8C0020460191FFF703F9019948B103AA07489D
:104E9C00FFF7CEFF2046FFF7FFF8054800F080FA39
:104EAC00024808B010BD00BFF4E60320F8E603206A
:104EBC00C54D0B0070474174704708B5007CFFF777
:104ECC0063FB20EAE07008BD08B5007CFFF734FBFB
:104EDC0020EAE07008BD08B5007CFFF73DFB40EA16
:104EEC00E07008BD08B5007CFFF72EFB40EAE070CF
:104EFC0008BD007CFFF738BB37B5457C04462DB1A7
:104F0C00207C03B0BDE83040FFF70EBB007C019164
:104F1C00FFF73AFB00280199F2DC284603B030BDBC
:104F2C0010B514210446FFF7B0F8204610BD000060
:104F3C0010B54FF47A730446084611460022C4E9B2
:104F4C000123044B2360012320746374FFF724FBBB
:104F5C00204610BDA4560B007047F8B50646154602
:104F6C000C468F18BC4206D0336814F8011B9B68A2
:104F7C0030469847F6E72846F8BD007C0022FFF73C
:104F8C0013BB007C0021FFF717BB007C0021FFF74F
:104F9C001BBB007C0021FFF71FBB007C0021FFF72F
:104FAC0023BB10B514210446FFF76FF8204610BD43
:104FBC0010B54FF47A73044608460021C4E9011376
:104FCC00034B236020741146FFF71EFB204610BDD7
:104FDC00D4560B00002240681146FFF791BB00220B
:104FEC0040681146FFF7ACBB002240681146FFF742
:104FFC00B7BB40680022FFF7ABBB4068002281F0D2
:10500C000101FFF795BB002340681A461946FFF7CC
:10501C0087BB002240681146FFF762BB4068002244
:10502C000221FFF765BB002340681A46FFF750BB0F
:10503C00024B04225A60024A1A6070470CE70320A4
:10504C00FC560B00002340681A46FFF741BB406832
:10505C0000220221FFF74CBB002240681146FFF7EB
:10506C003FBB002240681146FFF74ABB0023406853
:10507C001A461946FFF74CBB002340681A461946DE
:10508C00FFF74EBB40680021FFF772BB4068002160
:10509C00FFF776BB4068002281F00101FFF748BBA7
:1050AC0040680022FFF754BB002240681146FFF70E
:1050BC0057BB002240681146FFF742BB2DE9F04375
:1050CC0095B014460D460746FFF736FE00211C220C
:1050DC000DA8009100F078F940230C9320466B4604
:1050EC000CAA0021FFF7D0F9044600284BD1024648
:1050FC0001216868FFF704FB02218046224668689C
:10510C00FFF7FEFA009E81462146002E3BD0002977
:10511C0039D17368022B03D00A2B11D0F669F4E74E
:10512C00B8F1000FFAD0716906A8043107ADFFF78A
:10513C0031FE0FCD3C1D0FC42B6823704146EDE7AB
:10514C00B9F1000FEAD07469102201A800F03CF903
:10515C0006238DF8143001AD04F1080318341868D7
:10516C0059682A4603C20833A3421546F7D101A950
:10517C0006A807ADFFF7EEFD0FCD3C1D0FC42B6845
:10518C0023704946CAE70098FFF776F9384615B000
:10519C00BDE8F083024B034A1A6000225A60704744
:1051AC0014E7032038570B00232813B502D900202D
:1051BC0002B010BDA0F10B03022B1AD8174C2178AA
:1051CC00BFF35B8F11F001010BD120460191FEF76B
:1051DC005EFF019928B11248FFF750FB2046FEF7FD
:1051EC005BFF0F4B1878FFF71FFA0028DFD1012067
:1051FC00DEE7012809D800F0ADF80021007CFFF7AC
:10520C00FBF980F00100C0B2D2E709380128EED8D2
:10521C0000F064F8007CFFF7AFF9F2E71CE703201D
:10522C0020E70320232838B504460D460AD8FF2969
:10523C0008D0FFF7B9FF28B129462046BDE8384011
:10524C00FFF732B938BD38B504460D46FFF734F9CF
:10525C00FF2810D0062804D84D2323FA00F0C307EA
:10526C0009D42046FFF7A0FF28B129462046BDE807
:10527C003840FFF729B938BD0D2810B504469CBF3E
:10528C000E34A4B22046FFF78FFF50B10321204605
:10529C00FFF702F9032804D12046BDE81040FFF7C0
:1052AC001BB9002010BD704738B5044614252A469A
:1052BC00002100F089F825804025074925812846E2
:1052CC00258200F06BF804496060284600F066F80F
:1052DC00E060204638BD00BF6C570B0030B50E4D5A
:1052EC002978BFF35B8F11F0010487B011D12846E8
:1052FC00FEF7CDFE68B101A8FFF7D6FF01AA214643
:10530C000648FFF715FE2846FEF7C6FE044800F0D7
:10531C0047F8024807B030BD28E703202CE70320EC
:10532C00B3520B007047000038B5202514230446F7
:10533C000360856005610649284600F02FF8044992
:10534C006060284600F02AF8E060204638BD00BFB7
:10535C006C570B0030B50E4D2978BFF35B8F11F0F5
:10536C00010487B011D12846FEF791FE68B101A85F
:10537C00FFF7DAFF01AA21460648FFF719FE284677
:10538C00FEF78AFE044800F00BF8024807B030BD67
:10539C0044E7032048E7032031530B00FEF773BEAC
:1053AC00002301461A46184600F05EB80A449142A2
:1053BC0000F1FF3300D1704710B511F8014B03F821
:1053CC00014F9142F9D110BD02440346934200D1E2
:1053DC00704703F8011BF9E738B5104B1D68AB6B30
:1053EC000446B3B91820FFF7DBF90246A86320B9CD
:1053FC000B4B0C484221FFF7F3F90B490B4BC0E95F
:10540C0000130B4B83600B23838100210120C2E925
:10541C000401AB6B00221C615A6138BD28E60320E5
:10542C006D570B0084570B000E33CDAB34126DE669
:10543C00ECDE050010F8012B11F8013B012A28BF06
:10544C009A42F7D0D01A7047034611F8012B03F893
:10545C00012B002AF9D17047034613F8012B002ABF
:10546C00FBD1181A013870472DE9F843DFF8B880E2
:10547C000646D8F800001F460D46914600F056F837
:10548C00254B1C6834B9254C1C60254B13B11B688B
:10549C00C4F8883063681F2B07DDD8F8000000F0D3
:1054AC0047F84FF0FF30BDE8F8834EB3D4F88800CE
:1054BC0088B91C4B23B9D8F8000000F038F8F0E795
:1054CC004FF48470FFF76CF90028F4D00023C0E986
:1054DC004033C4F88800636840F8239001229A4056
:1054EC0000EB8301D0F800311343C0F80031022ED9
:1054FC00C1F8807002BFD0F804311343C0F80431F6
:10550C006368D8F800005A1C0233626044F82350D8
:10551C0000F00EF80020C6E7E8E703205CE7032064
:10552C0000000000AD470B008CE60320704770476D
:10553C00704700001D400B0059400B0081400B00D0
:10554C0085400B00000000004D756C7469706C6533
:10555C007865722E7365742829203E2076616C75EF
:10556C0065206D75737420626520696E20746865A2
:10557C002072616E6765206F6620302E2E2E3135BD
:10558C002C2076616C7565203D2025640A005245FF
:10559C00515F50454143450050524F475F50454184
:1055AC004345005245515F5448554D425F5550009C
:1055BC0050524F475F5448554D425F55500052452D
:1055CC00515F4245535400424553545F504541434B
:1055DC004500424553545F5448554D425F55500069
:1055EC00424553545F554E4B4E4F574E00000000F2
:1055FC0000000000000000006B480B0061480B002D
:10560C0057480B004D480B0041480B0035480B0028
:10561C0091500B0099500B0029480B0021480B00AE
:10562C0017480B000D480B00C9500B00617070003F
:10563C0025592D256D2D25645425483A254D3A259F
:10564C0053257A0061736374696D65000000000076
:10565C0000000000E14C0B00D14C0B00D34C0B00B4
:10566C000000000000000000C74D0B002F4E0B0087
:10567C00054E0B00FD490B00F74D0B00C94D0B00FF
:10568C00D94D0B00294E0B00E94D0B00C14D0B0001
:10569C000000000000000000C14E0B002D4F0B005D
:1056AC00054F0B00FD490B00D54E0B00F14E0B00C6
:1056BC00E34E0B00FF4E0B00C34E0B00C74E0B000E
:1056CC000000000000000000654F0B00AF4F0B0006
:1056DC00874F0B00674F0B008F4F0B00974F0B0042
:1056EC009F4F0B00A74F0B000000000000000000B4
:1056FC0033500B0029500B001F500B00E14F0B00D7
:10570C005D4B0B0013500B0091500B0099500B008C
:10571C0007500B00FF4F0B00F54F0B00EB4F0B002E
:10572C00C9500B00000000000000000051500B009D
:10573C005B500B0065500B006F500B0079500B0049
:10574C0085500B0091500B0099500B00A1500B0091
:10575C00AD500B00B5500B00BF500B00C9500B00E7
:10576C00005245454E54206D616C6C6F632073750F
:10577C0063636565646564002F6D6E742F776F725B
:10578C006B73706163652F776F726B737061636598
:10579C002F4743432D31302D706970656C696E65F0
:1057AC002F6A656E6B696E732D4743432D31302D17
:1057BC00706970656C696E652D34385F32303230CB
:1057CC00313132345F313630363138303634312F76
:1057DC007372632F6E65776C69622F6E65776C6977
:1057EC00622F6C6962632F7374646C69622F7261CF
:1057FC006E642E630000000049440B0075480B00DA
:10580C009D480B00ED490B00694B0B00794B0B00CD
:10581C008D4B0B003D500B00A1510B000000000004
:04582C000000000078
:045830000000000074
:1058340050560B002CE6032000000000000000007E
:105844000000000000000000000000000000000054
:105854000000000000000000000000000000000044
:105864000000000000000000000000000000000034
:105874000000000000000000000000000000000024
:105884000000000000000000000000000000000014
:0C5894000000000000000000ECE7032012
:1058A000FFFFFFFF00000102030405060708090AC5
:1058B0000B0C0D0E0F101112131415161718191AC0
:0858C0001B1C1D1E1F20280007
:0458C80078563412C8
:04000003B000401CED
:00000001FF
