:02000002B0004C
:1040000000400B00606F0B00000006000C00050272
:084010000401810C0000000016
:044018000C670B0026
:10401C0009480A49884208B505D0094A824202D0AB
:10402C00121A02F07BFA0748074A0021121A02F012
:10403C009DFA014808BD00BFF0E40320C46E0B00DC
:10404C0064E5032064E50320EDE7032070B5074E1B
:10405C00074C01F09FFAA41BA4080025AC4200D128
:10406C0070BD56F8043B98470135F7E7946E0B008A
:10407C00B86E0B0000F0A8B908B500F071FABDE8F5
:10408C00084001F03FBA01F065B801F063B801F0E7
:10409C0069B8000008B5034A00210C2000F0BEFFEF
:1040AC00FEE700BFC94D0B000078B0FA80F0400964
:1040BC0070470123037070470EB403B503AB0021A6
:1040CC0053F8042B019301F092F902B05DF804EB64
:1040DC0003B070470F2938B505460C4606D901F0D8
:1040EC0073FB0D492246FFF7E7FF38BD407801F01E
:1040FC00010102F024F8A878C4F3400102F01FF883
:10410C00E878C4F3800102F01AF82879E108BDE8D8
:10411C00384002F014B800BF20670B0038B50446D5
:10412C00FFF7D8FF2078002102F009F8607902F03F
:10413C001FF801210546207802F001F8284638BD09
:10414C0038B50D46044608212846FFF7E7FF00283E
:10415C00B8BF0F300011207007212846FFF7DEFF93
:10416C00031EB8BF0F331B11637009212846FFF7DC
:10417C00D5FF031EB8BF0F331B11A3700C212846AB
:10418C00FFF7CCFF031EB8BF0F331B11E3700D21DB
:10419C002846FFF7C3FF0028B8BF0F30001120716D
:1041AC00204638BD38B5054601EB810402F036F8DF
:1041BC002978204600F022FE02F030F86978601C65
:1041CC0000F01CFE02F02AF8A978A01C00F016FEE4
:1041DC0002F024F8E978E01C00F010FE02F01EF862
:1041EC002979201DBDE8384000F008BE38B50C46D2
:1041FC00054601F0E9FA03681B69984700280ADDB7
:10420C0001F0E2FA03685B699847C0F3421300F0CF
:10421C001F002B70207038BD2DE9F041DFF884C0F1
:10422C00066800274FF0FF30337896F80180B57898
:10423C00F478327948EA030E45EA0E0E44EA0E0E83
:10424C0052EA0E0E27D091F800E0A3EB0E0391F882
:10425C0001E0002BA8EB0E0EB8BF5B42BEF1000FC5
:10426C00B8BFCEF1000E9E448B78EB1ACD78002BA4
:10427C00A4EB0504B8BF5B42002C7344B8BF644286
:10428C001C440B79D31A002BB8BF5B422344634503
:10429C00BCBF38469C460137082F06F10506C3D132
:1042AC00BDE8F08100CA9A3B13B5044641686846E4
:1042BC00FFF746FF69462046FFF7AEFF02B010BD80
:1042CC002DE9F341064621B101290CD002B0BDE81D
:1042DC00F081FFF7E9FF019001F076FA019A164997
:1042EC00FFF7EAFEF2E701F06FFA1449DFF85480A9
:1042FC00FFF7E2FE002425462746013401F064FA5C
:10430C00082322464146FFF7D7FE316804EB8403AD
:10431C00053BCA18CD5455709570D5701571306821
:10432C0039461844FFF73EFF082CE5D101F04CFA52
:10433C000349FFF7C1FEC9E766670B007D670B00F9
:10434C009A670B008D670B0030B50023834205DAAA
:10435C00CD5CD45CA54203D10133F7E7012030BD1D
:10436C000020FCE770B50028C0F102041646D8BF47
:10437C00012400F1FF32A0F102000D4600EB040114
:10438C0002EB04002944D8BF0022284402F0D4F8E0
:10439C002E7070BDF8B50A4F06460D460024B44287
:1043AC0007DA01F011FA2A5D3946FFF785FE013470
:1043BC00F5E701F009FA0349FFF77EFEF8BD00BFEF
:1043CC00AA670B0002680B00F8B5244C244E207829
:1043DC00012101F0A3FE6078012101F09FFEA0787D
:1043EC00012101F09BFEE078012101F097FE20797C
:1043FC00012101F093FE6079002101F08FFEA1797B
:10440C002046FFF767FE2078012101F098FE00247A
:10441C00376801F003FF204600F0E8FC385501F046
:10442C00FDFE601C00F0E2FC3D19687001F0F6FE28
:10443C00A01C00F0DBFCA87001F0F0FEE01C00F00A
:10444C00D5FCE87001F0EAFE201D00F0CFFC05342D
:10445C00282C2871DCD101233372F8BD74E60320BB
:10446C007CE603202DE9F041184800F0AFF958BB69
:10447C0001F0AAF91649154EDFF86080154F00F0CF
:10448C007BFF124800F0E7FB0446C0B101F09CF939
:10449C0021460546304600F0B7FA4146024628460A
:1044AC00FFF70AFE01F090F93946FFF705FE30469A
:1044BC0000F0B8FA41F2883000F0E2FFE1E701F0D9
:1044CC0083F90549FFF7F8FDBDE8F081A0E503206D
:1044DC00AF670B00CA670B00F3670B00C6670B00D6
:1044EC0010B50C4B1A7808B122B110BD002AFCD0C3
:1044FC001870FAE701241C7001F066F90649FFF701
:10450C00DBFDFFF7AFFF21460448BDE8104000F08B
:10451C00FEBB00BF68E5032004680B0088E603209F
:10452C0010B50C4B1C7808B124B110BD002CFCD07C
:10453C001870FAE701221A7001F046F90649FFF7E4
:10454C00BBFDFFF78FFF21460448BDE8104000F08B
:10455C00DEBB00BF69E503200F680B0088E6032073
:10456C007FB5684D684C2B78BFF35B8F13F0010F50
:10457C0009D12846FFF798FD28B100F027FC2060F0
:10458C002846FFF796FD614D2B7A002B3ED001F0AB
:10459C001BF903681B699847002837DD0DF10701EB
:1045AC000DF10600FFF722FE9DF8063043B1012BFA
:1045BC0000F0978001F008F95549FFF77DFD25E0E3
:1045CC009DF80760072E21D8696802A8FFF7B8FD8F
:1045DC0029689DF8080006EB86028B1888549DF814
:1045EC00091059709DF80A1099709DF80B10D9702C
:1045FC0028689DF80C10197110443146FFF7D2FD54
:10460C0001F0E2F843493246FFF756FD3F48FFF709
:10461C004BFE08286BD901F0D7F83F49FFF74CFD4A
:10462C0000F0D4FB2368C31A462B69DD3B4920609C
:10463C000023012204EB830051F8045B406885429F
:10464C00C8BF13460132082AF4D104EB8302D4ED1F
:10465C00097AD2ED016A324DB8EEE77AF8EEE66AE5
:10466C00C6EE877A9FED2F7A67EE877A9FED2E7ACA
:10467C00F4EEC77AF1EE10FA08DD2C4A1168994273
:10468C000BBF2B681360013300232B6028482022BA
:10469C00002101F06BFF002363622C68042C0FD106
:1046AC00224D01F091F82A682249FFF705FD2249B5
:1046BC002A782046FFF756FE1F492046FFF76AFE70
:1046CC001E4A1D490420FFF73FFEFFF709FF1C4A55
:1046DC0019490420FFF738FE04B0BDE87040FFF71D
:1046EC001FBF9DF807102846FFF7EAFD8EE704EB85
:1046FC008000436801334360636A013363628FE770
:10470C0004B070BD64E5032074E503207CE603204F
:10471C0036680B001C680B0047680B007CE5032017
:10472C0070E503200000C8420000A0426CE50320A5
:10473C0078E503205D680B009CE50320F4E403207E
:10474C00F0E4032037B5174D174C284601F0AAFBAF
:10475C00164B00931649174B40F25B72204600F043
:10476C00CFF8154B23602146C4F8D050134A144897
:10477C00144C002300F0C6FA134B636006221A7027
:10478C0002225A7003229A700422DA7005221A71DE
:10479C0013225A71002222722820FFF776FC206027
:1047AC0003B030BD94E60320A0E5032088680B001D
:1047BC0078680B006E680B00C8680B00A9680B00CA
:1047CC0088E603207CE6032074E6032008B5D0F8C5
:1047DC00D00003681B6B9847003818BF012008BD38
:1047EC00F8B506460F461446C4B1D6F8D000036897
:1047FC001B6B984708B90020F8BDD6F8D000FA2CEE
:10480C0003682546A8BFFA25DB682A46394698472F
:10481C0083B2E41A9D42A4B2E6D0ECE70120EBE7A8
:10482C0070472DE9F8430646884691461F461D46BB
:10483C000024D6F8D00003681B6B9847D0B1002D2C
:10484C0018DBD6F8D00003681B69984760B1D6F81E
:10485C00D00003685B69984708F804000134A4B2DF
:10486C004C4507D03D46ECE70A3D0A202DB200F03E
:10487C0007FEDEE72046BDE8F88370B5044600F17C
:10488C00220596220021284601F070FE6168284618
:10489C0001F0ACFED4F8D0002289036829465E6A88
:1048AC000023B047003818BF012070BD10B5D421CB
:1048BC000446FFF7ECFB204610BD10B50446D0F8BB
:1048CC00D00003681B6B984720B1D4F8D000036864
:1048DC00DB6A9847012010BD13B5044608460191C8
:1048EC0001F08CFEC0F3072323706070A31C84B20C
:1048FC0001992246184601F089FE204402B010BDF1
:10490C0030B502810A4A0B4DC0E90323039B436176
:10491C000023C0E90051C0E92F33C0E93133C0E9AD
:10492C000633C0F8CC300384A0F8B83030BD00BFDB
:10493C0003680B00CC6A0B002DE9F74F1646026892
:10494C001BB297690193012205460C46B847C7B2C2
:10495C00012F019B03D0002003B0BDE8F08F04F1C0
:10496C00010804F1050A4FF000092A680193D2F8F6
:10497C0018B0414601222846D847C0B20128EAD1D6
:10498C0018F8012B02F07F01C24501FB07994FEA91
:10499C00C717E0D012F0800F019BE6D1A8EB0404FE
:1049AC00A7B2341B2A68013C4C45D2F818A03DBF75
:1049BC0006F1FF32D21B92B21FFA89F24146284609
:1049CC00D047C0B2384480B2C6E700002DE9F041B0
:1049DC00DFF8308005460C4616461F463B469622AD
:1049EC0021462846FFF7A8FF48B12378B6EB131FE2
:1049FC0005D000F0E9FE414600F0D1FCEEE7BDE841
:104A0C00F08100BFE4680B000231C9B209299ABFDA
:104A1C00024B53F821000248704700BFE86A0B00B4
:104A2C00F5680B0010B5E02380F822300146002316
:104A3C0080F8233051F8223B04465B6902229847E8
:104A4C00236820461B69BDE81040184738B5054659
:104A5C000846102300F8023B0C462949FFF73CFF9F
:104A6C000423037002234370AB698BB11B787BB1B9
:104A7C000623437095F82030012B39D10E23437057
:104A8C0095F82130012B02BF437843F0200343708B
:104A9C002B691B781BB1437863F07F0343706B6900
:104AAC001B781BB1437843F04003437001238370A0
:104ABC002C23C370E9680B78F3B10430FFF70CFFBB
:104ACC00A96931B10B7823B1FFF706FFE969FFF74C
:104ADC0003FF29690B780BB1FFF7FEFE69690B78B0
:104AEC000BB1FFF7F9FE001BC0B2831E637038BD1B
:104AFC00022BC5D11E23C2E7037143710630DFE7D9
:104B0C0003690B002DE9F743054610460E469846FF
:104B1C00019201F073FD9DF82C90BDF8287001995D
:104B2C0084B2B9F1000F35D102344FEA4903304653
:104B3C00A4B243F030033C4400F8013BA4B222463B
:104B4C0004F07F037F2A88BF43F080037F2A00F89C
:104B5C00013B4FEAD414F2D8FFF7BEFE0346B9F17D
:104B6C00000F0CD0B5F8B820120A0270B5F8B820B6
:104B7C004270B5F8B82001320233A5F8B8203A4695
:104B8C004146184601F0D8FC3844801B80B203B073
:104B9C00BDE8F0830434C8E773B59DF8186000F1E4
:104BAC0022050446CDE9003613460A462946FFF78E
:104BBC00A9FF236802465B6929462046984710B92D
:104BCC00002002B070BD002EFBD04FF4FA73962279
:104BDC0029462046FFF7B0FE0428F1D194F8223084
:104BEC001B09042BECD1A38CB4F8B8005BBA0133CD
:104BFC009BB2C31A58425841E3E730B585B004461E
:104C0C0010461D460391029201F0F8FCDDE90221E9
:104C1C0083B200952046FFF7BFFF05B030BD38B515
:104C2C001D4682230B70B0F8B8301B0A8B70B0F89D
:104C3C00B830CB70B0F8B8300C460133A0F8B830AF
:104C4C001146201DFFF748FE00F8015B001BC0B2A7
:104C5C00831E637038BD2DE9F0410368DB680446A0
:104C6C00984700284BD004F1220529462046FFF72F
:104C7C00EDFE236882B25B692946204698470028DE
:104C8C003DD041F27073962229462046FFF754FE20
:104C9C00C0B2042833D1638CB3F5087F2FD194F8BC
:104CAC00250010B140B2BDE8F08104F1BC0704F15D
:104CBC00D00857F8043BF3B1032657F8042C2946C7
:104CCC00137912682046FFF7AAFF236882B25B694A
:104CDC0029462046984790B14FF4FA730922294689
:104CEC002046FFF773FE30B9013E16F0FF06E4D103
:104CFC006FF00100D7E7B845DBD10020D3E74FF0C8
:104D0C00FF30D0E710B5C0E90012037210BD1FB51B
:104D1C0004460A22084601A900F0A6FAD4E90001CB
:104D2C00237A01AAFFF769FF04B010BD08B5024B46
:104D3C001B689B68019308BD6802030008B5024B11
:104D4C001B68DB68019308BD6802030008B5024BC1
:104D5C001B685B68019308BD2C02030008B5024B6D
:104D6C001B689B68019308BD2C02030008B5024B1D
:104D7C001B68DB68019308BD2C02030008B5024BCD
:104D8C001B681B69019308BD2C02030008B5024B7C
:104D9C001B681B6B019308BD2C02030008B5024B6A
:104DAC001B685B69019308BD6C02030008B5024BDC
:104DBC001B685B68019308BD1802030008B5024B21
:104DCC001B68DB68019308BD1802030008B5024B91
:104DDC001B685B69019308BD1802030008B5024B00
:104DEC001B689B6A019308BD1802030008B5024BAF
:104DFC001B68DB6A019308BD1802030008B5024B5F
:104E0C001B681B6B019308BD1802030008B5024B0D
:104E1C001B685B6C019308BD4802030008B5024B8C
:104E2C001B685B69019308BD6402030008B5024B63
:104E3C001B681B6A019308BD6402030008B5024B92
:104E4C001B689B6A019308BD6402030008B5024B02
:104E5C001B68DB68019308BD3C02030008B5024BDC
:104E6C001B681B69019308BD3C02030008B5024B8B
:104E7C001B685B69019308BD3C02030008B5024B3B
:104E8C001B689B69019308BD3C02030008B5024BEB
:104E9C001B68DB69019308BD3C02030008B5024B9B
:104EAC001B681B6A019308BD3C02030008B5024B4A
:104EBC001B689B6A019308BD3C02030008B5024BBA
:104ECC001B681B6C019308BD3C02030008B5024B28
:104EDC001B681B6A019308BD2802030008B5024B2E
:104EEC001B685B6A019308BD2802030008B5024BDE
:104EFC001B689B6A019308BD2802030008B5024B8E
:104F0C001B68DB6A019308BD2802030008B5024B3D
:104F1C001B681B6B019308BD2802030008B5024BEC
:104F2C001B685B6B019308BD2802030008B5024B9C
:104F3C001B681B6C019308BD2802030008B5024BCB
:104F4C001B689B69019308BD3802030008B5024B2E
:104F5C001B68DB69019308BD3802030008B5024BDE
:104F6C001B681B6A019308BD3802030008B5024B8D
:104F7C001B689B6A019308BD3802030008B5024BFD
:104F8C001B681B6B019308BD3802030008B5024B6C
:104F9C001B689B6B019308BD3802030008B5024BDC
:104FAC001B68DB69019308BD3002030008B5024B96
:104FBC001B681B6A019308BD3002030008B5024B45
:104FCC001B681B68019308BD4C02030008B5024B1B
:104FDC001B681B69019308BD4C02030008B5024B0A
:104FEC001B685B69019308BD4C02030008B5024BBA
:104FFC001B689B69019308BD4C02030008B5024B6A
:10500C001B68DB69019308BD4C02030008B5024B19
:10501C001B681B6A019308BD4C02030008B5024BC8
:10502C001B685B6B019308BD6002030008B5024B63
:10503C001B681B6D019308BD6002030008B5024B91
:10504C001B685B68019308BD2002030008B5024B86
:10505C001B685B69019308BD2002030008B5034B74
:10506C001B68D3F88830019308BD000020020300B0
:10507C0008B5034B1B68D3F89430019308BD0000AE
:10508C002002030008B5024B1B685B68019308BD46
:10509C004002030008B5024B1B689B68019308BDD6
:1050AC004002030008B5024B1B68DB68019308BD86
:1050BC004002030008B5024B1B681B69019308BD35
:1050CC004002030008B5024B1B685B69019308BDE5
:1050DC004002030008B5024B1B689B69019308BD95
:1050EC004002030008B5024B1B68DB69019308BD45
:1050FC004002030008B5024B1B681B6A019308BDF4
:10510C004002030008B5024B1B681B6B019308BDE2
:10511C004002030008B5024B1B685B6B019308BD92
:10512C004002030008B5024B1B681B6C019308BDC1
:10513C004002030008B5024B1B685B6C019308BD71
:10514C004002030008B5024B1B68DB6B019308BDE2
:10515C004402030008B5024B1B681B68019308BD91
:10516C001C02030008B5024B1B685B68019308BD69
:10517C001C02030008B5024B1B685B6A019308BD57
:10518C001C02030008B5024B1B68DB6B019308BDC6
:10519C001C02030008B5024B1B681B6C019308BD75
:1051AC001C02030008B5024B1B685B6C019308BD25
:1051BC001C020300002240681146FFF79BBF00222F
:1051CC0040681146FFF7A6BF40680022FFF79ABF60
:1051DC004068002281F00101FFF784BF0023406882
:1051EC001A461946FFF776BF002340681A4619463F
:1051FC00FFF768BF002240681146FFF75BBF002233
:10520C0040681146FFF746BF406800220221FFF7B5
:10521C0049BF002340681A46FFF734BF024B0322F4
:10522C005A60024A1A607047B0E60320186B0B00F4
:10523C0010B5044608462170FFF7B0FE00236360EA
:10524C00204610BD054B02221A60054B054A9A6098
:10525C000020C3E90000FFF7F1BE00BFC4E6032045
:10526C00B8E603200000FFFF2DE9F041931E8CB03F
:10527C00222B4FF000030D4614468DF82C3027D905
:10528C0000282ADA2E462D2306F8013B40420A2438
:10529C000DF12B074FF001082246014601A801F041
:1052AC0029F9029B0198092BCCBF3722302252FAE4
:1052BC0083F307F8013908F101080028ECD14246C4
:1052CC00791C304601F02AF928460CB0BDE8F08173
:1052DC000A2AD5D018B12E46DAE70A24FAE7302389
:1052EC008DF82B302E460DF12A074FF00208E6E719
:1052FC0010B54368013B0446436063B903689B687F
:10530C009847A368013BA3602BB923682046DB6850
:10531C00BDE81040184710BD024800230360FFF79A
:10532C0075BD00BFC8E60320F8B506460D468F18BC
:10533C000024BD420CD0336815F8011B9B68304625
:10534C009847031E01DB1C44F3E7002C08BF1C46E6
:10535C002046F8BD13B50446084659B1019101F039
:10536C004DF923680199DB680246204602B0BDE87E
:10537C001040184702B010BD08B5FFF7EBFF08BD91
:10538C0003689B68184738B50D210546FFF7F8FFF1
:10539C000A2104462846FFF7F3FF204438BD38B5F0
:1053AC000546FFF7D7FF04462846FFF7ECFF2044DD
:1053BC0038BD30B58BB00023012A8DF8243098BF4E
:1053CC000A2209AC0D46B1FBF2F101FB125303F0BA
:1053DC00FF03092B94BF30333733DBB2AA4204F8F6
:1053EC00013DEFD92146FFF7B5FF0BB030BD2DE9DC
:1053FC00F04186B000AF05460E46381D1421144608
:10540C003B60FFF7B7FE13280ED8391D2846FFF76F
:10541C00A1FF04461EB12846FFF7B5FF0444204601
:10542C001837BD46BDE8F08100F1080323F00703EF
:10543C00E846ADEB030D2246411C3B686846FFF77E
:10544C0099FE69462846FFF785FF0446C546E1E705
:10545C00002340681A461946FFF734BE014B024A36
:10546C001A607047CCE60320546B0B00024B1A6891
:10547C00024B1A60704700BFF8E40320D0E603200B
:10548C000021FFF7E3BD000010B5044B0360044698
:10549C00806908B1FFF72CFF204610BD4C6C0B0047
:1054AC0010B50446FFF7F0FF20461C21FEF7EFFD78
:1054BC00204610BD014B00229A607047D4E60320B1
:1054CC00014B1860704700BFFCE4032008B50B4B80
:1054DC0043B100F079F903681B699847002801DD96
:1054EC00AFF30080064B43B100F074FE03681B69F8
:1054FC009847002801DDAFF3008008BD00000000D4
:10550C000000000008B5FFF7E1FFFFF75FFC014B5F
:10551C00186008BD38E703200548064A064908B557
:10552C00121A00F0FBFF054B054A1A6008BD00BFBC
:10553C0000F4032004F40320C06E0B0000F40320DD
:10554C001E1C279A07B5002300931A466FF07701AB
:10555C00FFF78EFD03B05DF804FB000007B5438830
:10556C000A2B08D0502B0BD1094B1B684BB103B045
:10557C005DF804EB1847FFF7E5FF03B05DF804FB9B
:10558C00002300931A466FF07701FFF771FDF4E7E3
:10559C00E8E6032010B512480021FFF703FE114B7B
:1055AC001A68114B9A42114B0CBF012200221A703F
:1055BC0001D0FFF7B1FFFFF7F9FB044600F0DEFF67
:1055CC000B4B13B12046AFF3008000210848FFF7C6
:1055DC00B9FDBDE8104007480021FFF73FBD00BFF3
:1055EC00CD540B0000F403201E1C279AE4E6032084
:1055FC000000000069550B00704710B518210446D7
:10560C00FEF745FD204610BDF0B5037D062B8DB091
:10561C000E4600F104074FF0000412D000F108050B
:10562C0015F8011D0A223046FFF7C3FEAF420444B1
:10563C0019D0002CF4D02E213046FFF7A1FE0444E3
:10564C00EEE72F236A4639460A208DF80040FFF713
:10565C00E5FB684600F0D2FF33680246DB6869461A
:10566C0030469847044620460DB0F0BD10B5054BAA
:10567C000446112240F8043B002100F077FF20463D
:10568C0010BD00BF7C6B0B000346074A10B543F8F6
:10569C00042B01F1100251F8044B43F8044B9142D6
:1056AC00F9D10A781A7010BD7C6B0B00037D042BAA
:1056BC0004D14068003818BF01207047062B07D171
:1056CC0043683BB983682BB9C3681BB90069F1E720
:1056DC00002070470120704710B59DF8084044EA3F
:1056EC00032343EA024242EA016104234160037549
:1056FC0010BD000007B5064B0360CB7800938B7888
:10570C004A780978FFF7E8FF03B05DF804FB00BFA7
:10571C007C6B0B00417470477047704708B50021D3
:10572C00007CFFF763FC40EAE07008BD08B501217E
:10573C00007CFFF75BFC40EAE07008BD08B5007C1C
:10574C00FFF74CFC20EAE07008BD08B5007CFFF7C1
:10575C003DFC20EAE07008BD13B50446007C0191C5
:10576C00FFF73CFC0028019901DC607C20B1207C17
:10577C00FFF744FC20EAE07002B010BD007CFFF79C
:10578C0045BC10B514210446FEF781FC204610BD23
:10579C0010B54FF47A73044608460021C4E901138E
:1057AC00044B23600123207463741146FFF706FC3D
:1057BC00204610BD906B0B0010B51422044600213E
:1057CC0000F0D4FE204610BD10B50F4C88B003A8D5
:1057DC00FFF7F2FF2178BFF35B8F11F001010FD1BE
:1057EC0020460191FEF760FC019948B103AA0748D5
:1057FC00FFF7CEFF2046FEF75CFC054800F074FE78
:10580C00024808B010BD00BFECE60320F0E6032010
:10581C0025570B0070474174704708B5007CFFF7A3
:10582C0045FB20EAE07008BD08B5007CFFF716FBCD
:10583C0020EAE07008BD08B5007CFFF71FFB40EACA
:10584C00E07008BD08B5007CFFF710FB40EAE07083
:10585C0008BD007CFFF71ABB37B5457C04462DB15B
:10586C00207C03B0BDE83040FFF7F0BA007C01911A
:10587C00FFF71CFB00280199F2DC284603B030BD71
:10588C0010B514210446FEF702FC204610BD0000A2
:10589C0010B54FF47A730446084611460022C4E949
:1058AC000123044B2360012320746374FFF706FB70
:1058BC00204610BDC06B0B007047F8B50646154668
:1058CC000C468F18BC4206D0336814F8011B9B6839
:1058DC0030469847F6E72846F8BD007C0022FFF7D3
:1058EC00F5BA007C0021FFF7F9BA007C0021FFF724
:1058FC00FDBA007C0021FFF701BB007C0021FFF703
:10590C0005BB10B514210446FEF7C1FB204610BDA3
:10591C0010B54FF47A73044608460021C4E901130C
:10592C00034B236020741146FFF700FB204610BD8B
:10593C00F06B0B0013B503688DF80710DC6B0122BC
:10594C004FF0FF330DF10701A04702B010BD10B4AA
:10595C000368DC6B4FF0FF33A4465DF8044B6047E3
:10596C0013B5134602688DF80710D46B0DF10701BF
:10597C000122A04702B010BD10B54369B3F88620D0
:10598C00B3F884309A42044608D06369B3F8842093
:10599C00511CA3F884101344187910BD03681B69BB
:1059AC0098470028F1D14FF0FF30F6E77047436974
:1059BC001868C043C00F704770470000064B9942EF
:1059CC0010B500F10C0405D0084600F07BFC002853
:1059DC0008BF0024204610BD4C6B0B0010B5AC2149
:1059EC000446FEF754FB204610BDAC21FEF74FBB1E
:1059FC002DE9F0414FF0000886B01C46C0F8048039
:105A0C0005460E4617464146102202A800F0AEFD90
:105A1C00631C09D04FF47A73B4FBF3F203FB12440A
:105A2C00CDE902285C430494686910230093006854
:105A3C0002AB41F2050240F6FF71FFF77FFA002836
:105A4C0007DAFFF79FFB03686B60002006B0BDE828
:105A5C00F0816869002300683A463146FFF78EFAF8
:105A6C00031EEEDB1846F1E730B587B0044601ADF6
:105A7C006846FFF73FFE0FCD04340FC42B6823702C
:105A8C0007B030BD70B54D69054B04468C3544F8F4
:105A9C00043B06460FCD0FC42B682370304670BDF7
:105AAC007C6B0B002DE9F0439846036893B00D46D0
:105ABC000024DB6A06461746984728466B46224662
:105ACC0021460094FFF73AF90546002863D1009B64
:105ADC00002B4BD05B69002B48D006A8FFF7C6FD06
:105AEC00009B5C696378022B04D1211D06A8FFF78B
:105AFC00BBFF26E00A2B24D11122294601A800F075
:105B0C0035FDA368002B38D004F108030DF1040C0B
:105B1C00183418685968624603C20833A342944685
:105B2C00F7D1062301A90CA88DF81430FFF7ACFDB2
:105B3C000DF1340CBCE80F0007AC0FC4DCF80030DE
:105B4C00237006A8FFF7B2FD80B1336807ADD3F818
:105B5C002090124B0C930FCD0DAC0FC42B682370FF
:105B6C003A4643460CA93046C84705460098FFF70D
:105B7C00DDF8284613B0BDE8F083E368002BC3D1F1
:105B8C004FF6FF70D4F81090FFF750F98145BBD158
:105B9C0004F11401AAE72546E8E700BF7C6B0B0073
:105BAC0038B543691A68002A054610DAB3F886201E
:105BBC00B3F884309A420AD103681B6998470446AB
:105BCC0028B92B682846DB6A9847204638BD012047
:105BDC00FCE710B54369B3F88620B3F884309A42D9
:105BEC00044605D06369B3F884201344187910BDBA
:105BFC0003681B6998470028F4D14FF0FF30F6E793
:105C0C00F8B543691746B3F88620B3F884309A4246
:105C1C0005460E4616D06969B1F88430B1F8864055
:105C2C00E41ABC4228BF3C46043322461944304691
:105C3C0000F074FC6A69B2F884302344A2F8843012
:105C4C002046F8BD03681B6998470028E3D14FF044
:105C5C00FF34F5E742690023A2F884304269A2F8C8
:105C6C00863070472DE9F0411F4603680C46DB6A0D
:105C7C008AB0054616469847237DD5F81480042B28
:105C8C000CBF02200A2006220121FFF77FF9C8F879
:105C9C0000006B691B68002B08DA2B682846DB6A4E
:105CAC000024984720460AB0BDE8F0812846FFF74B
:105CBC00D1FFB7B1002303A9F8B20393ADF81030AC
:105CCC00FFF76CF80028E8D1686906230093006898
:105CDC0003AB41F20B0240F6FF71FFF72FF90028DE
:105CEC00DBD11C22002103A800F040FC237D042BF7
:105CFC001DD14FF407733046ADF80C30FFF79EF80A
:105D0C00ADF80E006068FFF791F804906B691C22E7
:105D1C00186803A9FFF722F90028BED104340FCC70
:105D2C006D698C350FC523682B700124BAE740F6DA
:105D3C001C233046ADF80C30FFF780F805AEADF8FB
:105D4C000E00231D04F1140718685968324603C26B
:105D5C000833BB421646F7D1D8E7000030B542698C
:105D6C00B2F886308BB004462BB1B2F884209A423C
:105D7C0001D1FFF76FFF61690868002818DBB1F8E3
:105D8C0086507F2D14D804310823C5F18002294494
:105D9C00FFF7ECF8002813DD6369B3F886200AB925
:105DAC00A3F884206369B3F886201044A3F8860016
:105DBC006369B3F88600B3F88430C01A0BB030BDF9
:105DCC00FFF7E0F903680B2BF2D0FFF7DBF9036860
:105DDC000B2BEDD020230025CDE90235FFF7D2F9AE
:105DEC0003680193084B0949009302AA2B46322001
:105DFC00FFF71CF963691868FFF7A8F863694FF09F
:105E0C00FF321A60D4E700BF176C0B00106C0B004C
:105E1C0010B5436904461868002801DBFFF796F8B3
:105E2C0063694FF0FF321A606069112200218C30D7
:105E3C0000F09CFB2046BDE81040FFF70BBF10B5EF
:105E4C00002304460160C0F884308830FFF70EFC54
:105E5C00204610BD73B500234FF47A72C0E90132AD
:105E6C000E4A0361026043610446AC200191FEF7C7
:105E7C000AF9051E05F10C0608D00123C5E901330A
:105E8C00074B01992B603046FFF7D9FF2046C4E938
:105E9C000565FFF7DFFE02B070BD00BF4C6C0B0058
:105EAC00306C0B0010B54FF0FF310446FFF7D2FFFA
:105EBC00204610BD10B504460068002801DBFFF732
:105ECC0045F8204610BD0C30FFF7F4BF00224068A7
:105EDC001146FFF7EFB8002240681146FFF70AB9E8
:105EEC00002240681146FFF715B940680022FFF701
:105EFC0009B94068002281F00101FFF7F3B80023D3
:105F0C0040681A461946FFF7E5B80022406811466A
:105F1C00FFF7C0B8406800220221FFF7C3B8002386
:105F2C0040681A46FFF7AEB8024B04225A60024A88
:105F3C001A60704704E70320986C0B00002340683C
:105F4C001A46FFF79FB8406800220221FFF7AAB853
:105F5C00002240681146FFF79DB8002240681146A8
:105F6C00FFF7A8B8002340681A461946FFF7AAB8ED
:105F7C00002340681A461946FFF7ACB84068002168
:105F8C00FFF7D0B840680021FFF7D4B84068002272
:105F9C0081F00101FFF7A6B840680022FFF7B2B804
:105FAC00002240681146FFF7B5B800224068114640
:105FBC00FFF7A0B82DE9F04395B014460D460746FF
:105FCC00FFF754FB00211C220DA8009100F0CEFA23
:105FDC0040230C9320466B460CAA0021FEF7AEFE24
:105FEC00044600284BD1024601216868FFF762F88D
:105FFC000221804622466868FFF75CF8009E8146C5
:10600C002146002E3BD0002939D17368022B03D0D6
:10601C000A2B11D0F669F4E7B8F1000FFAD07169C8
:10602C0006A8043107ADFFF765FB0FCD3C1D0FC46F
:10603C002B6823704146EDE7B9F1000FEAD0746983
:10604C00102201A800F092FA06238DF8143001AD4D
:10605C0004F108031834186859682A4603C2083337
:10606C00A3421546F7D101A906A807ADFFF70CFB13
:10607C000FCD3C1D0FC42B6823704946CAE700980E
:10608C00FEF754FE384615B0BDE8F083024B034AC8
:10609C001A6000225A6070470CE70320D46C0B0086
:1060AC00232813B502D9002002B010BDA0F10B03B8
:1060BC00022B1AD8174C2178BFF35B8F11F001011A
:1060CC000BD120460191FDF7EFFF019928B1124841
:1060DC00FFF7AEF82046FDF7ECFF0F4B1878FEF7F4
:1060EC0065FF0028DFD10120DEE7012809D800F088
:1060FC00C3F80021007CFEF711FF80F00100C0B254
:10610C00D2E709380128EED800F064F8007CFEF7DD
:10611C00C5FEF2E714E7032018E70320232838B55F
:10612C0004460D460AD8FF2908D0FFF7B9FF28B15D
:10613C0029462046BDE83840FEF710BE38BD38B5BC
:10614C0004460D46FEF712FEFF2810D0062804D890
:10615C004D2323FA00F0C30709D42046FFF7A0FF14
:10616C0028B129462046BDE83840FEF707BE38BDA9
:10617C000D2810B504469CBF0E34A4B22046FFF780
:10618C008FFF50B103212046FEF7E0FD032804D118
:10619C002046BDE81040FEF7F9BD002010BD704749
:1061AC0038B5044614252A46002100F0DFF9258075
:1061BC004025074925812846258200F081F80449AD
:1061CC006060284600F07CF8E060204638BD00BFD7
:1061DC00086D0B0030B50E4D2978BFF35B8F11F0B5
:1061EC00010487B011D12846FDF75EFF68B101A804
:1061FC00FFF7D6FF01AA21460648FFF749FB2846C0
:10620C00FDF757FF044800F06FF9024807B030BDA6
:10621C0020E7032024E70320AB610B0010B5084CEA
:10622C002378BFF35B8FDB0708D42046FDF73CFFD8
:10623C0020B1FEF7D3FD2046FDF73BFF014810BD12
:10624C003CE7032040E703207047000038B52025C9
:10625C00142304460360856005610649284600F056
:10626C002FF804496060284600F02AF8E0602046C8
:10627C0038BD00BF086D0B0030B50E4D2978BFF34B
:10628C005B8F11F0010487B011D12846FDF70CFF8C
:10629C0068B101A8FFF7DAFF01AA21460648FFF70B
:1062AC0037FB2846FDF705FF044800F01DF90248AE
:1062BC0007B030BD44E7032048E7032055620B00CC
:1062CC00FDF7E3BE014900F0F9B800BF246D0B00E7
:1062DC007FB500241023CDE90234036815469E696E
:1062EC0012686B46CDE90044B0479DF8043003F0CA
:1062FC000603062B03BF009B2B600120204604B035
:10630C0070BD0098904214BF012006207047000019
:10631C0010B5034B0360044600F0CDF8204610BDC9
:10632C00646D0B0010B50446FFF7F2FF2046082100
:10633C00FDF7ADFE204610BD2DE9F0411F46DDE90D
:10634C000834DDF8188098450646154607D107999C
:10635C0000F0B4F818B165710020BDE8F081394641
:10636C00304600F0ABF80028F6D00123C4F80080CA
:10637C002571A371F0E738B515461C4600F09EF860
:10638C0020B10823E36006232560237138BD73B563
:10639C0005460C4601921E4600F090F850B9032EAB
:1063AC0008D82368019A5B692946204602B0BDE8EB
:1063BC007040184702B070BD10B5034B0360044623
:1063CC00FFF7A6FF204610BDC46D0B0010B50446A8
:1063DC00FFF7F2FF20460C21FDF759FE204610BDB9
:1063EC00F7B5089F974205460E4614460AD0A86892
:1063FC0002680897156A31462246AC4603B0BDE8E0
:10640C00F04060471946019300F058F8019B0028B2
:10641C00EDD0062003B0F0BD2DE9F14F0D46194625
:10642C00DDE90A4BDDE90CA681461746984600F0DB
:10643C0045F890B1002D3460377109DB61198A453C
:10644C000CBF06210121B171002001B0BDE8F08F15
:10645C000235F9D10123B371F6E7544506D15946FB
:10646C00484600F02BF808B17771EDE7D9F8080031
:10647C000368CDE90CA6CDE90A4BDC693A464346E4
:10648C002946A44601B0BDE8F04F60472DE9F04124
:10649C0007460C4615461E46FFF76DFF48B9B8680F
:1064AC0003689F692A4633462146BC46BDE8F04145
:1064BC006047BDE8F081704700207047814208B505
:1064CC000ED0406803782A2B0CD049680B782A2B05
:1064DC0008BF013100F080F8B0FA80F0400908BD27
:1064EC000120FCE70020FAE7002301461A46184673
:1064FC0000F0A0B8002910B591FBF2F402FB1413C4
:10650C0006DB002B01DA01349B1AC0E9004310BDF5
:10651C00002BC4BF04F1FF349B18F6E70A449142E8
:10652C0000F1FF3300D1704710B511F8014B03F89F
:10653C00014F9142F9D110BD884210B501EB020414
:10654C0002D98442234607D8431EA14208D011F831
:10655C00012B03F8012FF8E7024401468A4200D1CF
:10656C0010BD13F8014D02F8014DF7E70244034644
:10657C00934200D1704703F8011BF9E738B5104B73
:10658C001D68AB6B0446B3B91820FEF7E3FD024659
:10659C00A86320B90B4B0C484221FEF7FBFD0B49BD
:1065AC000B4BC0E900130B4B83600B238381002141
:1065BC000120C2E90401AB6B00221C615A6138BD99
:1065CC00FCE40320FD6D0B00146E0B000E33CDAB01
:1065DC0034126DE6ECDE050010F8012B11F8013BCE
:1065EC00012A28BF9A42F7D0D01A7047034611F8F7
:1065FC00012B03F8012B002AF9D17047034613F83D
:10660C00012B002AFBD1181A0138704710B501393B
:10661C00034632B111F8014F03F8014B013A002C3B
:10662C00F7D11A440021934200D110BD03F8011B8D
:10663C00F9E700002DE9F843DFF8B8800646D8F8F2
:10664C0000001F460D46914600F056F8254B1C687D
:10665C0034B9254C1C60254B13B11B68C4F8883029
:10666C0063681F2B07DDD8F8000000F047F84FF0E7
:10667C00FF30BDE8F8834EB3D4F8880088B91C4BC2
:10668C0023B9D8F8000000F038F8F0E74FF4847024
:10669C00FEF760FD0028F4D00023C0E94033C4F8B5
:1066AC008800636840F8239001229A4000EB830134
:1066BC00D0F800311343C0F80031022EC1F88070BD
:1066CC0002BFD0F804311343C0F804316368D8F822
:1066DC0000005A1C0233626044F8235000F00EF89C
:1066EC000020C6E7E8E703205CE703200000000079
:1066FC0061510B0060E50320704770477047000044
:10670C001D400B0059400B0081400B0085400B00D5
:10671C00000000004D756C7469706C657865722EA4
:10672C007365742829203E2076616C7565206D7523
:10673C00737420626520696E207468652072616EC6
:10674C006765206F6620302E2E2E31352C20766119
:10675C006C7565203D2025640A00426573742063C6
:10676C006F6C6C656374696F6E2069732025640AA5
:10677C0000426567696E6E696E6720776970650A9D
:10678C000057697065642025642F25640A005769D9
:10679C00706520636F6D706C657465640A002564A8
:1067AC00202000436F6E6E656374696E6720746F92
:1067BC00204D5154542E2E2E200025730A00526564
:1067CC00747279696E67204D51545420636F6E6EEC
:1067DC00656374696F6E20696E2035207365636F15
:1067EC006E64732E2E0A004D51545420436F6E6EFE
:1067FC006563746564210A00436F756E746564206B
:10680C00757000436F756E74656420646F776E00ED
:10681C0050726F6772616D6D65642066696E676535
:10682C007220706F732025780A00556E6B6E6F772F
:10683C006E20636F6D6D616E640A0053616D706CD8
:10684C0065206F7574206F6620626F756E64730AB5
:10685C0000426573742063686F6963653A20256430
:10686C000A0044757269737472616E00696F2E61EF
:10687C00646166727569742E636F6D0061696F5F18
:10688C0075506C7132303061414E4669336E5969C6
:10689C005A6B7A6E516835564D58444500447572A2
:1068AC0069737472616E2F66656564732F4F4E5FEA
:1068BC004F46460000000000000000002D480B0071
:1068CC00B9480B00D9470B0087480B00C7480B0091
:1068DC00ED470B002F480B0044726F7070656420FD
:1068EC0061207061636B657400556E6B6E6F776EB3
:1068FC00206572726F72004D515454004661696C80
:10690C00656420746F2073756273637269626500CD
:10691C00436F6E6E656374696F6E206661696C653A
:10692C0064005468652053657276657220646F65E7
:10693C0073206E6F7420737570706F72742074682E
:10694C0065206C6576656C206F6620746865204DDB
:10695C005154542070726F746F636F6C2072657138
:10696C007565737465640054686520436C69656E65
:10697C0074206964656E7469666965722069732038
:10698C00636F7272656374205554462D382062759E
:10699C0074206E6F7420616C6C6F77656420627903
:1069AC0020746865205365727665720054686520A2
:1069BC004D51545420736572766963652069732058
:1069CC00756E617661696C61626C650054686520F6
:1069DC006461746120696E207468652075736572DA
:1069EC00206E616D65206F722070617373776F72AA
:1069FC0064206973206D616C666F726D6564004E06
:106A0C006F7420617574686F72697A656420746F35
:106A1C0020636F6E6E6563740045786365656465AD
:106A2C0064207265636F6E6E656374207261746549
:106A3C00206C696D69742E20506C656173652074CF
:106A4C00727920616761696E206C617465722E00C9
:106A5C00596F752068617665206265656E2062618C
:106A6C006E6E65642066726F6D20636F6E6E65630B
:106A7C0074696E672E20506C6561736520636F6E50
:106A8C007461637420746865204D5154542073658F
:106A9C00727665722061646D696E6973747261746B
:106AAC006F7220666F72206D6F7265206465746101
:106ABC00696C732E00000000000000000000000054
:106ACC000000000000000000A1400B00A1400B00E2
:106ADC00A1400B00A1400B00A1400B0008690B006A
:106AEC001C690B00F5680B002E690B0073690B0019
:106AFC00B8690B00D8690B000B6A0B00256A0B00F8
:106B0C005C6A0B0000000000000000001F520B002C
:106B1C0015520B000B520B0001520B00F5510B00E0
:106B2C00E9510B00895F0B00915F0B00DD510B00ED
:106B3C00D5510B00CB510B00C1510B00C15F0B00A9
:106B4C0000000000000000006170700025592D2528
:106B5C006D2D25645425483A254D3A2553257A0048
:106B6C0061736374696D6500000000000000000033
:106B7C0015560B0005560B0007560B0000000000C5
:106B8C000000000027570B008F570B0065570B00B8
:106B9C0035530B0057570B0029570B0039570B0077
:106BAC0089570B0049570B0021570B0000000000C0
:106BBC000000000021580B008D580B0065580B008D
:106BCC0035530B0035580B0051580B0043580B0034
:106BDC005F580B0023580B0027580B0000000000D7
:106BEC0000000000C5580B000F590B00E7580B00B4
:106BFC00C7580B00EF580B00F7580B00FF580B0051
:106C0C0007590B00776972696E67007265637620AD
:106C1C006572726F72203D20256400000000000038
:106C2C0000000000C5590B00E9590B00D35E0B00A6
:106C3C00F7590B00C9590B000000000000000000C0
:106C4C0095540B00AD540B0041590B005B590B00D4
:106C5C00695D0B0085590B00DF5B0B00B9590B000C
:106C6C00715C0B00B15A0B000D5C0B001D5E0B0030
:106C7C00AD5B0B00BB590B006D590B00FD590B00A4
:106C8C00915A0B0000000000000000002B5F0B006D
:106C9C00215F0B00175F0B00D95E0B005D540B00DE
:106CAC000B5F0B00895F0B00915F0B00FF5E0B000D
:106CBC00F75E0B00ED5E0B00E35E0B00C15F0B009B
:106CCC000000000000000000495F0B00535F0B0048
:106CDC005D5F0B00675F0B00715F0B007D5F0B004E
:106CEC00895F0B00915F0B00995F0B00A55F0B0098
:106CFC00AD5F0B00B75F0B00C15F0B00005374312D
:106D0C00395F53705F6D616B655F73686172656449
:106D1C005F74616700000000646D0B00096D0B006F
:106D2C00C46D0B00386D0B00E86D0B004E31305FFD
:106D3C005F637878616269763131375F5F636C616C
:106D4C0073735F747970655F696E666F45000000E0
:106D5C00000000002C6D0B001D630B0031630B0059
:106D6C00C5640B00C5640B009B630B00DD620B005C
:106D7C0083630B0045630B000F630B00C46D0B00AA
:106D8C00946D0B002C6D0B004E31305F5F63787887
:106D9C00616269763132305F5F73695F636C617316
:106DAC00735F747970655F696E666F4500000000F3
:106DBC0000000000886D0B00C5630B00D9630B004D
:106DCC00C5640B00C5640B009B630B00DD620B00FC
:106DDC0099640B0025640B00ED630B00646D0B00D4
:106DEC00F06D0B00537439747970655F696E666F62
:106DFC00005245454E54206D616C6C6F6320737569
:106E0C0063636565646564002F6D6E742F776F72B4
:106E1C006B73706163652F776F726B7370616365F1
:106E2C002F4743432D31302D706970656C696E6549
:106E3C002F6A656E6B696E732D4743432D31302D70
:106E4C00706970656C696E652D34385F3230323024
:106E5C00313132345F313630363138303634312FCF
:106E6C007372632F6E65776C69622F6E65776C69D0
:106E7C00622F6C6962632F7374646C69622F726128
:106E8C006E642E630000000051470B0029520B006A
:106E9C0051520B0025530B0069540B0079540B0015
:106EAC00C1540B00355F0B0099600B000000000013
:046EBC0000000000D2
:046EC00000000000CE
:106EC40000010203030201006C6B0B0000E50320C8
:106ED40000000000000000000000000000000000AE
:106EE400000000000000000000000000000000009E
:106EF400000000000000000000000000000000008E
:106F0400000000000000000000000000000000007D
:106F1400000000000000000000000000000000006D
:106F2400000000000000000000000000000000005D
:046F3400ECE7032063
:106F3800FFFFFFFF00000102030405060708090A16
:106F48000B0C0D0E0F101112131415161718191A11
:086F58001B1C1D1E1F20280058
:046F60007856341219
:04000003B000401CED
:00000001FF
