:02000002B0004C
:1040000000400B00985D0B00000006000C0005024C
:084010000401810C0000000016
:04401800305A0B000F
:10401C0009480A49884208B505D0094A824202D0AB
:10402C00121A01F04DFC0748074A0021121A01F040
:10403C0055FC014808BD00BFF0E50320045D0B00F2
:10404C005CE603205CE60320EDE7032070B5074E29
:10405C00074C01F03DF8A41BA4080025AC4200D18C
:10406C0070BD56F8043B98470135F7E7D85C0B0058
:10407C00FC5C0B0000F054BA08B500F0B9FABDE8CE
:10408C00084000F0DDBF00F087BE00F08DBE007868
:10409C00B0FA80F040097047012303707047006844
:1040AC0000F0FEBC00F0F4BC0EB403B503AB002171
:1040BC0053F8042B019300F04EFF02B05DF804EBB3
:1040CC0003B070470F2938B505460C4606D901F0E8
:1040DC0003F90D492246FFF7E7FF38BD407801F0A0
:1040EC00010101F024FBA878C4F3400101F01FFB8F
:1040FC00E878C4F3800101F01AFB2879E108BDE8E7
:10410C00384001F014BB00BF445A0B0038B50446CC
:10411C00FFF7D8FF2078002101F009FB607901F04E
:10412C001FFB01210546207801F001FB284638BD14
:10413C0038B50D46044609212846FFF7E7FF00284D
:10414C00B8BF0F300011207008212846FFF7DEFFA2
:10415C000028B8BF0F300011607007212846FFF708
:10416C00D5FF0028B8BF0F300011A0700C212846D5
:10417C00FFF7CCFF0028B8BF0F300011E0700D2105
:10418C002846FFF7C3FF0028B8BF0F30001120717D
:10419C000A212846FFF7BAFF0028B8BF0F300011DC
:1041AC0060710B212846FFF7B1FF0028B8BF0F3014
:1041BC000011A0710E212846FFF7A8FF0028B8BFF8
:1041CC000F300011E0710F212846FFF79FFF0028E8
:1041DC00B8BF0F3000112072204638BD37B50546E8
:1041EC0001EBC10401F012FB2978019401A8FFF73F
:1041FC0056FF01F00BFB631C6978019301A8FFF7D4
:10420C004EFF01F003FBA31CA978019301A8FFF753
:10421C0046FF01F0FBFAE31CE978019301A8FFF7D4
:10422C003EFF01F0F3FA231D2979019301A8FFF752
:10423C0036FF01F0EBFA631D6979019301A8FFF7D2
:10424C002EFF01F0E3FAA31DA979019301A8FFF752
:10425C0026FF01F0DBFAE31DE979019301A8FFF7D2
:10426C001EFF083401F0D2FA297A019401A8FFF755
:10427C0016FF03B030BD38B501EBC104054601F0A3
:10428C00C5FA2046FFF70EFF287001F0BFFA601C3C
:10429C00FFF708FF687001F0B9FAA01CFFF702FFE6
:1042AC00A87001F0B3FAE01CFFF7FCFEE87001F017
:1042BC00ADFA201DFFF7F6FE287101F0A7FA601D7C
:1042CC00FFF7F0FE687101F0A1FAA01DFFF7EAFEFE
:1042DC00A87101F09BFAE01DFFF7E4FEE87101F014
:1042EC0095FA04F10800FFF7DDFE287238BD38B5E9
:1042FC000C46054600F0F0FF03681B699847002840
:10430C000BDD00F0E9FF03685B699847C0F34213CB
:10431C0000F01F002B70207038BD01232B7011236F
:10432C002370F9E770B505460C4600F0D5FF03681D
:10433C0044EA45119B68BDE87040C9B218472DE9A5
:10434C00F74F4FF41062836801924FF0000A4FF060
:10435C00FF3093F80090B9F1000F6BD093F8018007
:10436C00B8F1000F66D093F802E0BEF1000F61D0F7
:10437C0093F803C0BCF1000F5CD01F79002F59D00B
:10438C005E79002E56D09D79002D53D0DC79002C0F
:10439C0050D01A7A002A4DD091F800B0A9EB0B0935
:1043AC0091F801B0B9F1000FA8EB0B08B8BFC9F137
:1043BC000009B8F1000FB8BFC8F10008C14491F86A
:1043CC000280AEEB080EBEF1000FB8BFCEF1000EAE
:1043DC00CE4491F80390ACEB090991F804C0A7EB1B
:1043EC000C0791F805C0B9F1000FA6EB0C06B8BF8D
:1043FC00C9F10009002FB8BF7F42F144002E4F4491
:10440C00B8BF76423E448F79ED1B002DB8BF6D428C
:10441C003544CE79A41B002CB8BF64422C440D7AD1
:10442C00521B002AB8BF52422244019CA242BCBF7C
:10443C00504601920AF1010ABAF1200F03F1090367
:10444C0087D103B0BDE8F08FF0B5054685B099B9BA
:10445C00014601A8FFF76CFE01A92846FFF76FFF84
:10446C00431C06D11221012005B0BDE8F040FFF736
:10447C0059BFC1B20320F7E701293CD100F02CFF52
:10448C001E491F4FFFF710FE00242646013400F092
:10449C0023FF202322463946FFF706FE04EBC40215
:1044AC00A9689DF80400093A8B1888549DF80510EA
:1044BC0059709DF8061099709DF80710D9709DF8E9
:1044CC00081019719DF8091059719DF80A1099710D
:1044DC009DF80B10D9719DF80C101972A868314613
:1044EC001044FFF77BFE202CCFD14FF4FA7000F074
:1044FC007BFD0121B7E705B0F0BD00BF8A5A0B0068
:10450C00925A0B0010B543680268013B002B04DD86
:10451C00D41814F8014CD454F6E7117010BD0000F7
:10452C0038B51F4C0121207801F0F0F8607801219A
:10453C0001F0ECF8A078012101F0E8F8E078012115
:10454C0001F0E4F82079012101F0E0F86079002114
:10455C0001F0DCF8A1792046FFF7B4FD20780121A9
:10456C0001F0E5F80025A06805EBC50329461844C1
:10457C000135FFF780FE202DF5D101230948237367
:10458C0000F0C4F908481321FFF7BCFF06480221CC
:10459C00FFF7B8FF04480621FFF7B4FF38BD00BF92
:1045AC00A0E603208CE603207CE6032038B50E4DF4
:1045BC000E4C2B78BFF35B8F13F0010F09D12846FB
:1045CC00FFF765FD28B100F053FA20602846FFF78D
:1045DC0063FD00F04DFA2368C31A0A2BCABF206092
:1045EC000020012038BD00BF6CE6032078E60320D4
:1045FC002DE9F043604C237B85B0002B4DD000F0AF
:10460C006BFE03681B699847002846DD0DF103011A
:10461C000DF10200FFF76BFE9DF802601EB1022E39
:10462C0036D0102130E09DF803501F2D35D821468F
:10463C0001A8FFF77DFDA1689DF8040005EBC502FC
:10464C008B1888549DF8051059709DF806109970B8
:10465C009DF80710D9709DF8081019719DF8091074
:10466C0059719DF80A1099719DF80B10D9719DF82C
:10467C000C101972A06829461044FFF7AFFD4FF4D7
:10468C00FA7000F0B1FC31460120FFF74BFE04E05C
:10469C009DF803102046FFF7D7FEFFF787FF002891
:1046AC0066D0364C2378BFF35B8FDB070AD42046E9
:1046BC00FFF7EDFC30B100F0DBF9314B1860204610
:1046CC00FFF7EAFC2C49DFF8CC8001A8FFF730FD9E
:1046DC0001A92948FFF733FEC4B2064600F0C8F919
:1046EC0098F80030A342054642D0254F3B68C31AC8
:1046FC00B3F5167F39DDDFF8A09099F80030A342AE
:10470C0033D021461F48FFF7FDFE89F8004000F02A
:10471C00E3FD1D49FFF7C8FC00F0DEFD1B49C4F3A7
:10472C000012FFF7C1FC00F0D7FD1849C4F3C0021A
:10473C00FFF7BAFC00F0D0FD1449C4F38002FFF778
:10474C00B3FC00F0C9FD1149C4F34002FFF7ACFC07
:10475C0000F0C2FD0D4906F00102FFF7A5FC00F0C8
:10476C00BBFD0B492246FFF79FFC88F800403D60DB
:10477C0005B0BDE8F08300BFA0E6032068E6032087
:10478C0070E6032084E603209F5A0B00A65A0B0008
:10479C00A95A0B0074E6032075E6032038B5134BB9
:1047AC00134A9A600025C3E90055022000F068FA0C
:1047BC00104C114A257341F20533C4E900234FF420
:1047CC009070FFF760FC0D4DA060682103240C482D
:1047DC0000F099F86C602046FFF755FC2860094DF5
:1047EC0020466C60FFF74FFC286038BD5CE6032068
:1047FC000000FFFFA0E60320060203047CE6032072
:10480C008CE6032084E6032013B51B2204460178B2
:10481C00012301A800F0C4F801A800F0E0F8C0F3EF
:10482C00C013A370C0F38013E370C0F34013237163
:10483C00C0F3C103637101A800F09EF802B010BD73
:10484C0013B51C2204460178012301A800F0A8F836
:10485C0001A800F0C4F8C0F3C013A371C0F3801317
:10486C00E371C0F340132372C0F3C103637201A858
:10487C0000F082F802B010BD13B53822017804465E
:10488C00012301A800F08CF801A800F0A8F8C0F3EF
:10489C000013A372C0F3C003E37200F0010323738F
:1048AC0001A800F069F802B010BD13B56B220446E4
:1048BC000178012301A800F073F801A800F08FF82B
:1048CC00C0F3C0136373C0F38013A373C0F340131E
:1048DC00E373C0F3C003237400F00703637401A8EF
:1048EC0000F04AF802B010BD10B50446FFF78CFF7B
:1048FC002046FFF7A5FF2046FFF7D7FF2046BDE86F
:10490C001040FFF7B9BF01707047000013B50446A3
:10491C0000F0AAFF00F0CDFD40B900F0DDFC0C4921
:10492C00FFF7C2FB00F0A0FF00F08CFD2046FFF764
:10493C00DBFF6B22217801A800F00CF8002101A804
:10494C0000F023F801A800F017F802B010BD00BF6A
:10495C00B65A0B0037B515460446019100F084FF9A
:10496C00019900F09EFD00F07FFF036829469B68CB
:10497C009847204603B030BD10B5044600F074FFD4
:10498C00012100F092FD204610BD07B5019100F009
:10499C006BFF036801999B6803B05DF804EB184743
:1049AC0073B50C4616460193054600F05DFF214693
:1049BC0000F077FD00F058FF036831469B6898477C
:1049CC0000F052FF002100F070FD00F04DFF019A45
:1049DC000023214600F053FD284602B070BD08B5F7
:1049EC0000F042FF03685B699847C0B208BD000045
:1049FC0008B5024B1B689B68019308BD6802030055
:104A0C0008B5024B1B68DB68019308BD6802030004
:104A1C0008B5024B1B685B68019308BD2C020300B0
:104A2C0008B5024B1B689B68019308BD2C02030060
:104A3C0008B5024B1B68DB68019308BD2C02030010
:104A4C0008B5024B1B681B69019308BD2C020300BF
:104A5C0008B5024B1B681B6B019308BD2C020300AD
:104A6C0008B5024B1B685B68019308BD1802030074
:104A7C0008B5024B1B685B69019308BD1802030063
:104A8C0008B5024B1B689B6A019308BD1802030012
:104A9C0008B5024B1B68DB6A019308BD18020300C2
:104AAC0008B5024B1B681B6B019308BD1802030071
:104ABC0008B5024B1B685B6C019308BD48020300F0
:104ACC0008B5024B1B685B69019308BD64020300C7
:104ADC0008B5024B1B68DB68019308BD3C02030060
:104AEC0008B5024B1B681B69019308BD3C0203000F
:104AFC0008B5024B1B685B69019308BD3C020300BF
:104B0C0008B5024B1B689B69019308BD3C0203006E
:104B1C0008B5024B1B68DB69019308BD3C0203001E
:104B2C0008B5024B1B681B6A019308BD3C020300CD
:104B3C0008B5024B1B689B6A019308BD3C0203003D
:104B4C0008B5024B1B681B6C019308BD3C020300AB
:104B5C0008B5024B1B68DB68019308BD28020300F3
:104B6C0008B5024B1B689B69019308BD2802030022
:104B7C0008B5024B1B68DB69019308BD28020300D2
:104B8C0008B5024B1B681B6A019308BD2802030081
:104B9C0008B5024B1B685B6A019308BD2802030031
:104BAC0008B5024B1B689B6A019308BD28020300E1
:104BBC0008B5024B1B68DB6A019308BD2802030091
:104BCC0008B5024B1B681B6B019308BD2802030040
:104BDC0008B5024B1B685B6B019308BD28020300F0
:104BEC0008B5024B1B681B6C019308BD280203001F
:104BFC0008B5024B1B681B6D019308BD280203000E
:104C0C0008B5024B1B68DB69019308BD3002030039
:104C1C0008B5024B1B681B6A019308BD30020300E8
:104C2C0008B5024B1B681B68019308BD4C020300BE
:104C3C0008B5024B1B681B69019308BD4C020300AD
:104C4C0008B5024B1B685B69019308BD4C0203005D
:104C5C0008B5024B1B689B69019308BD4C0203000D
:104C6C0008B5024B1B68DB69019308BD4C020300BD
:104C7C0008B5024B1B681B6A019308BD4C0203006C
:104C8C0008B5024B1B685B68019308BD200203004A
:104C9C0008B5024B1B685B69019308BD2002030039
:104CAC0008B5034B1B68D3F88830019308BD00008E
:104CBC002002030008B5034B1B68D3F89430019312
:104CCC0008BD00002002030008B5024B1B685B689E
:104CDC00019308BD4002030008B5024B1B689B689A
:104CEC00019308BD4002030008B5024B1B68DB684A
:104CFC00019308BD4002030008B5024B1B681B69F9
:104D0C00019308BD4002030008B5024B1B685B69A8
:104D1C00019308BD4002030008B5024B1B689B6958
:104D2C00019308BD4002030008B5024B1B68DB6908
:104D3C00019308BD4002030008B5024B1B681B6AB7
:104D4C00019308BD4002030008B5024B1B681B6BA6
:104D5C00019308BD4002030008B5024B1B685B6B56
:104D6C00019308BD4002030008B5024B1B681B6C85
:104D7C00019308BD4002030008B5024B1B685B6C35
:104D8C00019308BD4002030008B5024B1B68DB6BA6
:104D9C00019308BD4402030008B5024B1B681B6855
:104DAC00019308BD1C02030008B5024B1B685B682D
:104DBC00019308BD1C02030008B5024B1B685B6A1B
:104DCC00019308BD1C02030008B5024B1B681B6C49
:104DDC00019308BD1C02030008B5024B1B685B6CF9
:104DEC00019308BD1C020300002240681146FFF726
:104DFC00A3BF002240681146FFF7AEBF40680022F7
:104E0C00FFF7A2BF4068002281F00101FFF78CBFC1
:104E1C00002340681A461946FFF77EBF00234068FE
:104E2C001A461946FFF770BF002240681146FFF77B
:104E3C0063BF002240681146FFF74EBF4068002256
:104E4C000221FFF751BF002340681A46FFF73CBF11
:104E5C00024B03225A60024A1A607047B0E60320E4
:104E6C00D85A0B0010B5044608462170FFF7C8FE4F
:104E7C0000236360204610BD054B02221A60054BCF
:104E8C00054A9A600020C3E90000FFF7F9BE00BF95
:104E9C00C4E60320B8E603200000FFFF024800230D
:104EAC000360FFF705BE00BFC8E60320F8B5064651
:104EBC000D468F180024BD420CD0336815F8011B29
:104ECC009B6830469847031E01DB1C44F3E7002C1B
:104EDC0008BF1C462046F8BD13B50446084659B118
:104EEC00019100F031FD23680199DB6802462046F0
:104EFC0002B0BDE81040184702B010BD03689B68B3
:104F0C00184738B50D210546FFF7F8FF0A2104466E
:104F1C002846FFF7F3FF204438BD30B58BB0002393
:104F2C00012A8DF8243098BF0A2209AC0D46B1FB3A
:104F3C00F2F101FB125303F0FF03092B94BF303342
:104F4C003733DBB2AA4204F8013DEFD92146FFF713
:104F5C00C3FF0BB030BD2DE9F04186B000AF054664
:104F6C000E46381D142114463B60FFF725FF13280D
:104F7C000ED8391D2846FFF7AFFF04461EB1284650
:104F8C00FFF7BFFF044420461837BD46BDE8F0814B
:104F9C0000F1080323F00703E846ADEB030D2246AE
:104FAC00411C3B686846FFF707FF69462846FFF738
:104FBC0093FF0446C546E1E7002340681A461946AC
:104FCC00FFF7A2BE014B024A1A607047CCE60320E1
:104FDC000C5B0B00024B1A68024B1A60704700BF47
:104FEC00F0E50320D0E603200021FFF751BE0000BE
:104FFC00014B00229A607047D4E60320014B1860E5
:10500C00704700BFF4E5032008B50B4B43B100F02B
:10501C0063F903681B699847002801DDAFF3008032
:10502C00064B43B100F0CEFB03681B699847002880
:10503C0001DDAFF3008008BD00000000000000009F
:10504C0008B5FFF7E1FFFFF713FD014B186008BD32
:10505C0038E703200548064A064908B5121A00F03D
:10506C002FFC054B054A1A6008BD00BF00F4032055
:10507C0004F40320005D0B0000F403201E1C279A8F
:10508C0007B5002300931A466FF07701FFF712FE65
:10509C0003B05DF804FB000007B543880A2B08D069
:1050AC00502B0BD1094B1B684BB103B05DF804EBD3
:1050BC001847FFF7E5FF03B05DF804FB00230093EE
:1050CC001A466FF07701FFF7F5FDF4E7E8E60320E9
:1050DC0010B512480021FFF77FFE114B1A68114BD7
:1050EC009A42114B0CBF012200221A7001D0FFF71B
:1050FC00B1FFFFF7B5FC044600F0F8FB0B4B13B106
:10510C002046AFF3008000210848FFF73DFEBDE8C4
:10511C00104007480021FFF7C3BD00BF09500B002A
:10512C0000F403201E1C279AE4E603200000000074
:10513C00A5500B00704710B518210446FEF7A5FFCB
:10514C00204610BDF0B5037D062B8DB00E4600F148
:10515C0004074FF0000412D000F1080515F8011DEA
:10516C000A223046FFF7D9FEAF42044419D0002C76
:10517C00F4D02E213046FFF7C1FE0444EEE72F2376
:10518C006A4639460A208DF80040FFF799FC6846BC
:10519C0000F0DAFB33680246DB6869463046984714
:1051AC00044620460DB0F0BD10B5054B0446112247
:1051BC0040F8043B002100F091FB204610BD00BFDD
:1051CC00345B0B000346074A10B543F8042B01F17E
:1051DC00100251F8044B43F8044B9142F9D10A7870
:1051EC001A7010BD345B0B0010B59DF8084044EAF2
:1051FC00032343EA024242EA01610423416003753E
:10520C0010BD000007B5064B0360CB7800938B787C
:10521C004A780978FFF7E8FF03B05DF804FB00BF9C
:10522C00345B0B00417470477047704708B5002120
:10523C00007CFFF70DFD40EAE07008BD08B50121C8
:10524C00007CFFF705FD40EAE07008BD08B5007C66
:10525C00FFF7F6FC20EAE07008BD08B5007CFFF70C
:10526C00E7FC20EAE07008BD13B50446007C019110
:10527C00FFF7E6FC0028019901DC607C20B1207C62
:10528C00FFF7EEFC20EAE07002B010BD007CFFF7E7
:10529C00EFBC10B514210446FEF7F7FE204610BDF6
:1052AC0010B54FF47A73044608460021C4E9011383
:1052BC00044B23600123207463741146FFF7B0FC88
:1052CC00204610BD485B0B0010B51422044600218B
:1052DC0000F004FB204610BD10B50F4C88B003A89D
:1052EC00FFF7F2FF2178BFF35B8F11F001010FD1B3
:1052FC0020460191FEF7CBFE019948B103AA07485D
:10530C00FFF7CEFF2046FEF7C7FE054800F0D2FAA5
:10531C00024808B010BD00BFECE60320F0E6032005
:10532C0035520B0070474174704708B5007CFFF78D
:10533C00FFFB20EAE07008BD08B5007CFFF7D0FB4E
:10534C0020EAE07008BD08B5007CFFF7D9FB40EA05
:10535C00E07008BD08B5007CFFF7CAFB40EAE070BE
:10536C0008BD007CFFF7D4BB37B5457C04462DB196
:10537C00207C03B0BDE83040FFF7AABB007C019154
:10538C00FFF7D6FB00280199F2DC284603B030BDAC
:10539C0010B514210446FEF778FE204610BD00001F
:1053AC0010B54FF47A730446084611460022C4E93E
:1053BC000123044B2360012320746374FFF7C0FBAB
:1053CC00204610BD785B0B007047F8B506461546B5
:1053DC000C468F18BC4206D0336814F8011B9B682E
:1053EC0030469847F6E72846F8BD007C0022FFF7C8
:1053FC00C7BB007C0021FFF7CBBB007C0021FFF773
:10540C00CFBB007C0021FFF7D3BB007C0021FFF752
:10541C00D7BB10B514210446FEF737FE204610BD4D
:10542C0010B54FF47A73044608460021C4E9011301
:10543C00034B236020741146FFF7D2FB204610BDAE
:10544C00A85B0B000023007C1A461946FFF780BBB3
:10545C007FB500221423CDE90122ADF804300B787E
:10546C008DF808304B680393CB680493007C0B7A5F
:10547C00059301A9FFF7BCFB07B05DF804FB1FB552
:10548C00003B8DF800104FF06401039118BF01230D
:10549C00694601928DF80830FFF7DAFF05B05DF828
:1054AC0004FB007C0022FFF75BBB007C0022FFF7B3
:1054BC005FBB007C0021FFF78BBB002240681146CC
:1054CC00FFF71ABC002240681146FFF735BC0022DA
:1054DC0040681146FFF740BC40680022FFF734BC1F
:1054EC004068002281F00101FFF71EBC00234068D8
:1054FC001A461946FFF710BC002240681146FFF708
:10550C00EBBB406800220221FFF7EEBB0023406892
:10551C001A46FFF7D9BB0000024B04225A60024A1C
:10552C001A60704704E70320D05B0B00002340682F
:10553C001A46FFF7C9BB406800220221FFF7D4BB13
:10554C00002240681146FFF7C7BB00224068114695
:10555C00FFF7D2BB002340681A461946FFF7D4BBAD
:10556C00002340681A461946FFF7D6BB4068002155
:10557C00FFF7FABB40680021FFF7FEBB4068002232
:10558C0081F00101FFF7D0BB40680022FFF7DCBBC4
:10559C00002240681146FFF7DFBB0022406811462D
:1055AC00FFF7CABB2DE9F04395B014460D460746EC
:1055BC00FFF7FAFD00211C220DA8009100F08EF9D6
:1055CC0040230C9320466B460CAA0021FFF718FAD7
:1055DC00044600284BD1024601216868FFF78CFB7A
:1055EC000221804622466868FFF786FB009E8146B2
:1055FC002146002E3BD0002939D17368022B03D0F1
:10560C000A2B11D0F669F4E7B8F1000FFAD07169E2
:10561C0006A8043107ADFFF7F5FD0FCD3C1D0FC4F7
:10562C002B6823704146EDE7B9F1000FEAD074699D
:10563C00102201A800F052F906238DF8143001ADA8
:10564C0004F108031834186859682A4603C2083351
:10565C00A3421546F7D101A906A807ADFFF7B2FD85
:10566C000FCD3C1D0FC42B6823704946CAE7009828
:10567C00FFF7BEF9384615B0BDE8F083024B034A7C
:10568C001A6000225A6070470CE703200C5C0B0078
:10569C00232813B502D9002002B010BDA0F10B03D2
:1056AC00022B1AD8174C2178BFF35B8F11F0010134
:1056BC000BD120460191FEF7EAFC019928B1124862
:1056CC00FFF7D0FB2046FEF7E7FC0F4B1878FFF7EF
:1056DC009FFA0028DFD10120DEE7012809D800F06D
:1056EC00C3F80021007CFFF773FA80F00100C0B210
:1056FC00D2E709380128EED800F064F8007CFFF7F7
:10570C000FFAF2E714E7032018E70320232838B533
:10571C0004460D460AD8FF2908D0FFF7B9FF28B177
:10572C0029462046BDE83840FFF77AB938BD38B570
:10573C0004460D46FFF77CF9FF2810D0062804D844
:10574C004D2323FA00F0C30709D42046FFF7A0FF2E
:10575C0028B129462046BDE83840FFF771B938BD5D
:10576C000D2810B504469CBF0E34A4B22046FFF79A
:10577C008FFF50B103212046FFF74AF9032804D1CB
:10578C002046BDE81040FFF763B9002010BD7047FC
:10579C0038B5044614252A46002100F09FF82580D0
:1057AC004025074925812846258200F081F80449C7
:1057BC006060284600F07CF8E060204638BD00BFF1
:1057CC00405C0B0030B50E4D2978BFF35B8F11F0A8
:1057DC00010487B011D12846FEF759FC68B101A825
:1057EC00FFF7D6FF01AA21460648FFF7D9FD284648
:1057FC00FEF752FC044800F05DF8024807B030BDDB
:10580C0020E7032024E703209B570B0010B5084C1E
:10581C002378BFF35B8FDB0708D42046FEF737FCF9
:10582C0020B1FFF72DF92046FEF736FC014810BDDC
:10583C003CE7032040E703207047000038B52025E3
:10584C00142304460360856005610649284600F070
:10585C002FF804496060284600F02AF8E0602046E2
:10586C0038BD00BF405C0B0030B50E4D2978BFF33E
:10587C005B8F11F0010487B011D12846FEF707FCAD
:10588C0068B101A8FFF7DAFF01AA21460648FFF725
:10589C00C7FD2846FEF700FC044800F00BF8024850
:1058AC0007B030BD44E7032048E7032045580B0000
:1058BC00FEF7E9BB002301461A46184600F04CB827
:1058CC000A44914200F1FF3300D1704710B511F832
:1058DC00014B03F8014F9142F9D110BD024403462C
:1058EC00934200D1704703F8011BF9E738B5104B10
:1058FC001D68AB6B0446B3B91820FFF74DFA02468E
:10590C00A86320B90B4B0C484221FFF75DFA0B49F9
:10591C000B4BC0E900130B4B83600B2383810021DD
:10592C000120C2E90401AB6B00221C615A6138BD35
:10593C00F4E50320415C0B00585C0B000E33CDAB3F
:10594C0034126DE6ECDE0500034613F8012B002A39
:10595C00FBD1181A013870472DE9F843DFF8B880ED
:10596C000646D8F800001F460D46914600F056F842
:10597C00254B1C6834B9254C1C60254B13B11B6896
:10598C00C4F8883063681F2B07DDD8F8000000F0DE
:10599C0047F84FF0FF30BDE8F8834EB3D4F88800D9
:1059AC0088B91C4B23B9D8F8000000F038F8F0E7A0
:1059BC004FF48470FFF7F0F90028F4D00023C0E90D
:1059CC004033C4F88800636840F8239001229A4061
:1059DC0000EB8301D0F800311343C0F80031022EE4
:1059EC00C1F8807002BFD0F804311343C0F8043101
:1059FC006368D8F800005A1C0233626044F82350E4
:105A0C0000F00EF80020C6E7E8E703205CE703206F
:105A1C0000000000A54D0B0058E6032070477047AE
:105A2C00704700001D400B0059400B0081400B00DB
:105A3C0085400B00000000004D756C7469706C653E
:105A4C007865722E7365742829203E2076616C75FA
:105A5C0065206D75737420626520696E20746865AD
:105A6C002072616E6765206F6620302E2E2E3135C8
:105A7C002C2076616C7565203D2025640A00574901
:105A8C0050494E470A0057697065642025642F25DC
:105A9C00640A004164646564200025640020746F0E
:105AAC0020637572446174610A004D50553630356F
:105ABC0030203E20456E61626C696E6720576972BA
:105ACC00650A00000000000000000000534E0B00AF
:105ADC00494E0B003F4E0B00354E0B00294E0B0070
:105AEC001D4E0B0079550B0081550B00114E0B0010
:105AFC00094E0B00FF4D0B00F54D0B00B1550B0083
:105B0C006170700025592D256D2D25645425483A5A
:105B1C00254D3A2553257A0061736374696D6500D0
:105B2C00000000000000000051510B0041510B001F
:105B3C0043510B00000000000000000037520B0026
:105B4C009F520B0075520B00B94E0B0067520B00A5
:105B5C0039520B0049520B0099520B0059520B0051
:105B6C0031520B00000000000000000031530B000C
:105B7C009D530B0075530B00B94E0B0045530B0096
:105B8C0061530B0053530B006F530B0033530B003B
:105B9C0037530B000000000000000000D5530B0031
:105BAC001F540B00F7530B00D7530B00FF530B0084
:105BBC0007540B000F540B0017540B00000000008F
:105BCC000000000019550B000F550B0005550B007C
:105BDC00C7540B00C54F0B00F9540B0079550B0043
:105BEC0081550B00ED540B00E5540B00DB540B00FE
:105BFC00D1540B00B1550B00000000000000000058
:105C0C0039550B0043550B004D550B0057550B00E8
:105C1C0061550B006D550B0079550B0081550B0030
:105C2C0089550B0095550B009D550B00A7550B0086
:105C3C00B1550B00005245454E54206D616C6C6F94
:105C4C006320737563636565646564002F6D6E74A2
:105C5C002F776F726B73706163652F776F726B73D5
:105C6C00706163652F4743432D31302D706970652A
:105C7C006C696E652F6A656E6B696E732D47434355
:105C8C002D31302D706970656C696E652D34385FFF
:105C9C0032303230313132345F31363036313830A7
:105CAC003634312F7372632F6E65776C69622F6E89
:105CBC0065776C69622F6C6962632F7374646C69AD
:105CCC00622F72616E642E6300000000A9470B0006
:105CDC005D4E0B00854E0B00A94E0B00D14F0B00F7
:105CEC00E14F0B00FD4F0B0025550B0089560B00A7
:045CFC0000000000A4
:045D0000000000009F
:105D0400245B0B00F8E50320000000000000000005
:105D1400000000000000000000000000000000007F
:105D2400000000000000000000000000000000006F
:105D3400000000000000000000000000000000005F
:105D4400000000000000000000000000000000004F
:105D5400000000000000000000000000000000003F
:0C5D64000000000000000000ECE703203D
:105D7000FFFFFFFF00000102030405060708090AF0
:105D80000B0C0D0E0F101112131415161718191AEB
:085D90001B1C1D1E1F20280032
:045D980078563412F3
:04000003B000401CED
:00000001FF
