:02000002B0004C
:1040000000400B00C0590B00000006000C00050228
:084010000401810C0000000016
:04401800E4550B0060
:10401C0009480A49884208B505D0094A824202D0AB
:10402C00121A01F027FA0748074A0021121A01F068
:10403C002FFA014808BD00BFDCE5032024590B0012
:10404C0050E6032050E60320EDE7032070B5074E41
:10405C00074C00F053FEA41BA4080025AC4200D171
:10406C0070BD56F8043B98470135F7E7F0580B0044
:10407C0014590B0000F06AB908B500F0B5F9BDE8A9
:10408C00084000F0F3BD00F0A1BC00F0A7BC007824
:10409C00B0FA80F0400970470123037070470EB4EA
:1040AC0003B503AB002153F8042B019300F06DFD15
:1040BC0002B05DF804EB03B0704700000F2938B56F
:1040CC0005460C4606D900F01DFF0D492246FFF7A8
:1040DC00E6FF38BD407801F0010101F002F9A87843
:1040EC00C4F3400101F0FDF8E878C4F3800101F05D
:1040FC00F8F82879E108BDE8384001F0F2B800BFC3
:10410C00F8550B0038B50446FFF7D8FF207800218E
:10411C0001F0E7F8607901F0FDF8012105462078FF
:10412C0001F0DFF8284638BD38B50D4604460821A5
:10413C002846FFF7E7FF0028B8BF0F3000112070AA
:10414C0007212846FFF7DEFF031EB8BF0F331B11F4
:10415C00637009212846FFF7D5FF031EB8BF0F3344
:10416C001B11A3700C212846FFF7CCFF031EB8BF10
:10417C000F331B11E3700D212846FFF7C3FF0028F6
:10418C00B8BF0F3000112071204638BD38B5054638
:10419C0001EB810401F014F92978204600F0C2FAF1
:1041AC0001F00EF96978601C00F0BCFA01F008F916
:1041BC00A978A01C00F0B6FA01F002F9E978E01C2D
:1041CC0000F0B0FA01F0FCF82979201DBDE8384068
:1041DC0000F0A8BA38B50C46054600F093FE03680B
:1041EC001B69984700280ADD00F08CFE03685B69A8
:1041FC009847C0F3421300F01F002B70207038BD9D
:10420C002DE9F0414FF4106C066800274FF0FF3099
:10421C00337893B396F80180B8F1000F2DD0B578B0
:10422C005DB3F4784CB332793AB391F800E0A3EB78
:10423C000E0391F801E0002BA8EB0E0EB8BF5B4209
:10424C00BEF1000FB8BFCEF1000E9E448B78EB1A76
:10425C00CD78002BA4EB0504B8BF5B42002C734453
:10426C00B8BF64421C440B79D31A002BB8BF5B4215
:10427C0023446345BCBF38469C460137082F06F1E2
:10428C000506C5D1BDE8F08113B504464168684602
:10429C00FFF74AFF69462046FFF7B2FF02B010BD98
:1042AC002DE9F341064621B101290CD002B0BDE83D
:1042BC00F081FFF7E9FF019000F024FE019A164906
:1042CC00FFF7EDFEF2E700F01DFE1449DFF8548015
:1042DC00FFF7E5FE002425462746013400F012FEC8
:1042EC00082322464146FFF7DAFE316804EB8403CB
:1042FC00053BCA18CD5455709570D5701571306842
:10430C0039461844FFF742FF082CE5D100F0FAFDBE
:10431C000349FFF7C4FEC9E73E560B0055560B0088
:10432C0072560B0065560B0030B543688B420BD1AF
:10433C000023994206DD0468D55CE45CA54203D1F8
:10434C000133F6E7012030BD0020FCE7F8B5244C22
:10435C00244E2078012100F0B3FF6078012100F099
:10436C00AFFFA078012100F0ABFFE078012100F055
:10437C00A7FF2079012100F0A3FF6079002100F054
:10438C009FFFA1792046FFF799FE2078012100F0CC
:10439C00A8FF0024376801F013F8204600F0BAF9A2
:1043AC00385501F00DF8601C00F0B4F93D19687037
:1043BC0001F006F8A01C00F0ADF9A87001F000F8AF
:1043CC00E01C00F0A7F9E87000F0FAFF201D00F0E7
:1043DC00A1F90534282C2871DCD101233372F8BDE6
:1043EC009CE60320A4E603202DE9F043764C7749A4
:1043FC0087B002A8FFF798FE237A002B3ED000F07E
:10440C0081FD03681B699847002837DD0DF1070112
:10441C000DF10600FFF7DEFE9DF8063043B1012BCF
:10442C0000F0A08000F06EFD6949FFF738FE25E032
:10443C009DF80750072D21D8616804A8FFF774FE7A
:10444C0021689DF8100005EB85028B1888549DF8A7
:10445C00111059709DF8121099709DF81310D970A5
:10446C0020689DF81410197110442946FFF78EFE30
:10447C0000F048FD57492A46FFF711FE564C574F9E
:10448C002378BFF35B8F13F0010F09D12046FFF7A0
:10449C00FEFD28B100F02EF938602046FFF7FCFD38
:1044AC0049484F4C4F4EFFF7EFFE54F82030013384
:1044BC0044F8203033680133336000F01BF93B685B
:1044CC00C31A642B7DDDD6ED007A474DDFF840C171
:1044DC00D5F800E0DCF800109FED446ADFED445A9B
:1044EC000023F8EEE77A98461A469946F4EC016AEE
:1044FC00F8EEE66A86EEA77A27EE067AB4EEE57A4F
:10450C00F1EE10FA08DD964513BF012301310123AA
:10451C0096461CBF002198460132082A44F8049C98
:10452C00E4D1B8F1000F01D0C5F800E00BB1CCF824
:10453C00001000233360DCF800303860062B2AD1E1
:10454C0000F0E0FC2A682B49FFF7A9FD29782A4DD9
:10455C006B682A68013B002B0ADDD01810F8010C9F
:10456C00D054F6E79DF807102046FFF799FE85E733
:10457C00224E117000246B68A34208DD00F0C2FCCF
:10458C002B6831461A5DFFF78AFD0134F3E700F022
:10459C00B9FC00F0D0FA1A4A17480321FFF7C4FE01
:1045AC0020B100F0AFFC1749FFF779FD164A12480D
:1045BC000321FFF7B9FE20B100F0A4FC1349FFF76B
:1045CC006EFD07B0BDE8F083A4E603209CE6032053
:1045DC009C560B0082560B005CE603208CE60320F5
:1045EC006CE6032064E6032060E603200000C8426A
:1045FC000000A042AD560B0094E60320BE560B0003
:10460C00DFE50320C3560B00DCE50320D3560B007B
:10461C0068E60320114B124A70B500259A60C3E975
:10462C000055022000F04EF90E4B0F4C06221A706A
:10463C0002225A700422DA7005221A710326132200
:10464C005A719E70282063602572FFF71CFD074B82
:10465C00074A5E601A60206070BD00BF50E6032000
:10466C000000FFFF9CE60320A4E6032094E6032051
:10467C0090E6032008B5024B1B689B68019308BDAC
:10468C006802030008B5024B1B68DB68019308BD88
:10469C006802030008B5024B1B685B68019308BDF8
:1046AC002C02030008B5024B1B689B68019308BDE4
:1046BC002C02030008B5024B1B68DB68019308BD94
:1046CC002C02030008B5024B1B681B69019308BD43
:1046DC002C02030008B5024B1B681B6B019308BD31
:1046EC002C02030008B5024B1B685B68019308BDE4
:1046FC001802030008B5024B1B685B69019308BDE7
:10470C001802030008B5024B1B689B6A019308BD95
:10471C001802030008B5024B1B68DB6A019308BD45
:10472C001802030008B5024B1B681B6B019308BDF4
:10473C001802030008B5024B1B685B6C019308BDA3
:10474C004802030008B5024B1B685B69019308BD66
:10475C006402030008B5024B1B68DB68019308BDBB
:10476C003C02030008B5024B1B681B69019308BD92
:10477C003C02030008B5024B1B685B69019308BD42
:10478C003C02030008B5024B1B689B69019308BDF2
:10479C003C02030008B5024B1B68DB69019308BDA2
:1047AC003C02030008B5024B1B681B6A019308BD51
:1047BC003C02030008B5024B1B689B6A019308BDC1
:1047CC003C02030008B5024B1B681B6C019308BD2F
:1047DC003C02030008B5024B1B681B6A019308BD21
:1047EC002802030008B5024B1B685B6A019308BDE5
:1047FC002802030008B5024B1B689B6A019308BD95
:10480C002802030008B5024B1B68DB6A019308BD44
:10481C002802030008B5024B1B681B6B019308BDF3
:10482C002802030008B5024B1B685B6B019308BDA3
:10483C002802030008B5024B1B681B6C019308BDD2
:10484C002802030008B5024B1B68DB69019308BD05
:10485C003002030008B5024B1B681B6A019308BDAC
:10486C003002030008B5024B1B681B68019308BD9E
:10487C004C02030008B5024B1B681B69019308BD71
:10488C004C02030008B5024B1B685B69019308BD21
:10489C004C02030008B5024B1B689B69019308BDD1
:1048AC004C02030008B5024B1B68DB69019308BD81
:1048BC004C02030008B5024B1B681B6A019308BD30
:1048CC004C02030008B5024B1B685B68019308BDE2
:1048DC002002030008B5034B1B68D3F88830019302
:1048EC0008BD00002002030008B5034B1B68D3F879
:1048FC009430019308BD00002002030008B5024B60
:10490C001B685B68019308BD4002030008B5024BAD
:10491C001B689B68019308BD4002030008B5024B5D
:10492C001B68DB68019308BD4002030008B5024B0D
:10493C001B681B69019308BD4002030008B5024BBC
:10494C001B685B69019308BD4002030008B5024B6C
:10495C001B689B69019308BD4002030008B5024B1C
:10496C001B68DB69019308BD4002030008B5024BCC
:10497C001B681B6A019308BD4002030008B5024B7B
:10498C001B681B6B019308BD4002030008B5024B6A
:10499C001B685B6B019308BD4002030008B5024B1A
:1049AC001B681B6C019308BD4002030008B5024B49
:1049BC001B685B6C019308BD4002030008B5024BF9
:1049CC001B68DB6B019308BD4402030008B5024B66
:1049DC001B681B68019308BD1C02030008B5024B41
:1049EC001B685B68019308BD1C02030008B5024BF1
:1049FC001B685B6A019308BD1C02030008B5024BDF
:104A0C001B681B6C019308BD1C02030008B5024B0C
:104A1C001B685B6C019308BD1C02030000224068FC
:104A2C001146FFF7A3BF002240681146FFF7AEBF47
:104A3C0040680022FFF7A2BF4068002281F001010C
:104A4C00FFF78CBF002340681A461946FFF77EBF5C
:104A5C00002340681A461946FFF770BF00224068D1
:104A6C001146FFF763BF002240681146FFF74EBFA7
:104A7C00406800220221FFF751BF002340681A460C
:104A8C00FFF73CBF024B03225A60024A1A60704780
:104A9C00B0E60320F0560B0010B504460846217012
:104AAC00FFF7D0FE00236360204610BD054B0222A9
:104ABC001A60054B054A9A600020C3E90000FFF715
:104ACC0001BF00BFC4E60320B8E603200000FFFFCF
:104ADC00024800230360FFF72DBE00BFC8E6032089
:104AEC00F8B506460D468F180024BD420CD033682D
:104AFC0015F8011B9B6830469847031E01DB1C44CC
:104B0C00F3E7002C08BF1C462046F8BD13B504463D
:104B1C00084659B1019100F0F1FC23680199DB685A
:104B2C000246204602B0BDE81040184702B010BD46
:104B3C0003689B68184738B50D210546FFF7F8FF49
:104B4C000A2104462846FFF7F3FF204438BD30B550
:104B5C008BB00023012A8DF8243098BF0A2209ACAF
:104B6C000D46B1FBF2F101FB125303F0FF03092BCD
:104B7C0094BF30333733DBB2AA4204F8013DEFD98E
:104B8C002146FFF7C3FF0BB030BD2DE9F04186B0D5
:104B9C0000AF05460E46381D142114463B60FFF746
:104BAC0025FF13280ED8391D2846FFF7AFFF044602
:104BBC001EB12846FFF7BFFF044420461837BD46F8
:104BCC00BDE8F08100F1080323F00703E846ADEBE4
:104BDC00030D2246411C3B686846FFF707FF6946F8
:104BEC002846FFF793FF0446C546E1E700234068DB
:104BFC001A461946FFF7A2BE014B024A1A607047CB
:104C0C00CCE6032024570B00024B1A68024B1A60A7
:104C1C00704700BFE4E50320D0E60320014B0022DF
:104C2C009A607047D4E60320014B1860704700BFB0
:104C3C00E8E5032008B50B4B43B100F063F90368BA
:104C4C001B699847002801DDAFF30080064B43B188
:104C5C0000F092FB03681B699847002801DDAFF355
:104C6C00008008BD000000000000000008B5FFF740
:104C7C00E1FFFFF73FFD014B186008BD38E703204B
:104C8C000548064A064908B5121A00F0F3FB054B15
:104C9C00054A1A6008BD00BF00F4032004F4032089
:104CAC0020590B0000F403201E1C279A07B5002383
:104CBC0000931A466FF07701FFF716FE03B05DF80C
:104CCC0004FB000007B543880A2B08D0502B0BD1EE
:104CDC00094B1B684BB103B05DF804EB1847FFF7A9
:104CEC00E5FF03B05DF804FB002300931A466FF058
:104CFC007701FFF7F9FDF4E7E8E6032010B5124859
:104D0C000021FFF783FE114B1A68114B9A42114B8D
:104D1C000CBF012200221A7001D0FFF7B1FFFFF780
:104D2C00E1FC044600F0BCFB0B4B13B12046AFF387
:104D3C00008000210848FFF741FEBDE810400748FD
:104D4C000021FFF7C7BD00BF354C0B0000F403205A
:104D5C001E1C279AE4E6032000000000D14C0B0037
:104D6C00704710B518210446FFF78FF9204610BD87
:104D7C00F0B5037D062B8DB00E4600F104074FF005
:104D8C00000412D000F1080515F8011D0A22304666
:104D9C00FFF7DDFEAF42044419D0002CF4D02E21D5
:104DAC003046FFF7C5FE0444EEE72F236A4639462A
:104DBC000A208DF80040FFF7C5FC684600F09EFB0A
:104DCC0033680246DB6869463046984704462046FD
:104DDC000DB0F0BD10B5054B0446112240F8043B54
:104DEC00002100F055FB204610BD00BF4C570B00B6
:104DFC000346074A10B543F8042B01F1100251F891
:104E0C00044B43F8044B9142F9D10A781A7010BD47
:104E1C004C570B0010B59DF8084044EA032343EAB5
:104E2C00024242EA016104234160037510BD000097
:104E3C0007B5064B0360CB7800938B784A780978DA
:104E4C00FFF7E8FF03B05DF804FB00BF4C570B0005
:104E5C00417470477047704708B50021007CFFF71C
:104E6C0019FD40EAE07008BD08B50121007CFFF790
:104E7C0011FD40EAE07008BD08B5007CFFF702FDAB
:104E8C0020EAE07008BD08B5007CFFF7F3FC20EACF
:104E9C00E07008BD13B50446007C0191FFF7F2FCED
:104EAC000028019901DC607C20B1207CFFF7FAFC22
:104EBC0020EAE07002B010BD007CFFF7FBBC10B51F
:104ECC0014210446FFF7E1F8204610BD10B54FF44D
:104EDC007A73044608460021C4E90113044B23608D
:104EEC000123207463741146FFF7BCFC204610BDEF
:104EFC0060570B0010B514220446002100F0C8FACC
:104F0C00204610BD10B50F4C88B003A8FFF7F2FF78
:104F1C002178BFF35B8F11F001010FD12046019175
:104F2C00FFF7B5F8019948B103AA0748FFF7CEFF80
:104F3C002046FFF7B1F8054800F096FA024808B091
:104F4C0010BD00BFECE60320F0E60320614E0B0021
:104F5C0070474174704708B5007CFFF72BFC20EAC2
:104F6C00E07008BD08B5007CFFF7FCFB20EAE070A0
:104F7C0008BD08B5007CFFF705FC40EAE07008BDF1
:104F8C0008B5007CFFF7F6FB40EAE07008BD007C3A
:104F9C00FFF700BC37B5457C04462DB1207C03B02F
:104FAC00BDE83040FFF7D6BB007C0191FFF702FC57
:104FBC0000280199F2DC284603B030BD10B514214D
:104FCC000446FFF762F8204610BD000010B54FF400
:104FDC007A730446084611460022C4E90123044BA7
:104FEC002360012320746374FFF7ECFB204610BD93
:104FFC0090570B007047F8B5064615460C468F18AF
:10500C00BC4206D0336814F8011B9B6830469847A5
:10501C00F6E72846F8BD007C0022FFF7DBBB007CDE
:10502C000021FFF7DFBB007C0021FFF7E3BB007C16
:10503C000021FFF7E7BB007C0021FFF7EBBB10B5AD
:10504C0014210446FFF721F8204610BD10B54FF48B
:10505C007A73044608460021C4E90113034B23600C
:10506C0020741146FFF7E6FB204610BDC0570B001D
:10507C00002240681146FFF759BC002240681146D7
:10508C00FFF774BC002240681146FFF77FBC4068F4
:10509C000022FFF773BC4068002281F00101FFF78A
:1050AC005DBC002340681A461946FFF74FBC00222E
:1050BC0040681146FFF72ABC406800220221FFF726
:1050CC002DBC002340681A46FFF718BC024B042283
:1050DC005A60024A1A60704704E70320E8570B0035
:1050EC00002340681A46FFF709BC406800220221E1
:1050FC00FFF714BC002240681146FFF707BC0022E2
:10510C0040681146FFF712BC002340681A46194646
:10511C00FFF714BC002340681A461946FFF716BC6B
:10512C0040680021FFF73ABC40680021FFF73EBC05
:10513C004068002281F00101FFF710BC406800229A
:10514C00FFF71CBC002240681146FFF71FBC002271
:10515C0040681146FFF70ABC2DE9F04395B01446A0
:10516C000D460746FFF736FE00211C220DA80091C4
:10517C0000F08EF940230C9320466B460CAA0021BC
:10518C00FFF780FA044600284BD1024601216868DB
:10519C00FFF7CCFB0221804622466868FFF7C6FB6E
:1051AC00009E81462146002E3BD0002939D17368E0
:1051BC00022B03D00A2B11D0F669F4E7B8F1000FDB
:1051CC00FAD0716906A8043107ADFFF731FE0FCD97
:1051DC003C1D0FC42B6823704146EDE7B9F1000F5D
:1051EC00EAD07469102201A800F052F906238DF858
:1051FC00143001AD04F108031834186859682A46B4
:10520C0003C20833A3421546F7D101A906A807AD7E
:10521C00FFF7EEFD0FCD3C1D0FC42B6823704946E4
:10522C00CAE70098FFF726FA384615B0BDE8F083B8
:10523C00024B034A1A6000225A6070470CE70320A5
:10524C0024580B00232813B502D9002002B010BD3E
:10525C00A0F10B03022B1AD8174C2178BFF35B8FEC
:10526C0011F001010BD120460191FEF710FF0199BD
:10527C0028B11248FFF710FC2046FEF70DFF0F4B2C
:10528C001878FFF7E7FA0028DFD10120DEE70128C4
:10529C0009D800F0C3F80021007CFFF7C3FA80F0B6
:1052AC000100C0B2D2E709380128EED800F064F84A
:1052BC00007CFFF777FAF2E714E7032018E70320E6
:1052CC00232838B504460D460AD8FF2908D0FFF725
:1052DC00B9FF28B129462046BDE83840FFF7E2B9AE
:1052EC0038BD38B504460D46FFF7E4F9FF2810D059
:1052FC00062804D84D2323FA00F0C30709D420460E
:10530C00FFF7A0FF28B129462046BDE83840FFF73B
:10531C00D9B938BD0D2810B504469CBF0E34A4B2C3
:10532C002046FFF78FFF50B103212046FFF7B2F95B
:10533C00032804D12046BDE81040FFF7CBB900206C
:10534C0010BD704738B5044614252A46002100F0DC
:10535C009FF825804025074925812846258200F0A5
:10536C0081F804496060284600F07CF8E060204633
:10537C0038BD00BF58580B0030B50E4D2978BFF31F
:10538C005B8F11F0010487B011D12846FEF77FFE28
:10539C0068B101A8FFF7D6FF01AA21460648FFF71E
:1053AC0015FE2846FEF778FE044800F05DF802482A
:1053BC0007B030BD20E7032024E703204F530B0038
:1053CC0010B5084C2378BFF35B8FDB0708D420465D
:1053DC00FEF75DFE20B1FFF795F92046FEF75CFE67
:1053EC00014810BD3CE7032040E703207047000054
:1053FC0038B52025142304460360856005610649F1
:10540C00284600F02FF804496060284600F02AF87E
:10541C00E060204638BD00BF58580B0030B50E4D2B
:10542C002978BFF35B8F11F0010487B011D12846A6
:10543C00FEF72DFE68B101A8FFF7DAFF01AA21469D
:10544C000648FFF703FE2846FEF726FE044800F048
:10545C000BF8024807B030BD44E7032048E70320AF
:10546C00F9530B00FEF70FBE002301461A461846EF
:10547C0000F04CB80A44914200F1FF3300D1704760
:10548C0010B511F8014B03F8014F9142F9D110BD41
:10549C0002440346934200D1704703F8011BF9E71D
:1054AC0038B5104B1D68AB6B0446B3B91820FFF729
:1054BC008DFA0246A86320B90B4B0C484221FFF72A
:1054CC009DFA0B490B4BC0E900130B4B83600B236C
:1054DC00838100210120C2E90401AB6B00221C6115
:1054EC005A6138BDE8E5032059580B0070580B0081
:1054FC000E33CDAB34126DE6ECDE0500034613F82B
:10550C00012B002AFBD1181A013870472DE9F843FA
:10551C00DFF8B8800646D8F800001F460D469146C5
:10552C0000F056F8254B1C6834B9254C1C60254BF3
:10553C0013B11B68C4F8883063681F2B07DDD8F8DB
:10554C00000000F047F84FF0FF30BDE8F8834EB391
:10555C00D4F8880088B91C4B23B9D8F8000000F0A7
:10556C0038F8F0E74FF48470FFF730FA0028F4D0E5
:10557C000023C0E94033C4F88800636840F82390E6
:10558C0001229A4000EB8301D0F800311343C0F89C
:10559C000031022EC1F8807002BFD0F804311343E1
:1055AC00C0F804316368D8F800005A1C02336260FA
:1055BC0044F8235000F00EF80020C6E7E8E703207B
:1055CC005CE7032000000000D9490B004CE60320E7
:1055DC0070477047704700001D400B0059400B008E
:1055EC0081400B0085400B00000000004D756C7471
:1055FC0069706C657865722E7365742829203E205D
:10560C0076616C7565206D75737420626520696EAA
:10561C00207468652072616E6765206F6620302E7D
:10562C002E2E31352C2076616C7565203D2025643D
:10563C000A004265737420636F6C6C656374696FE8
:10564C006E2069732025640A00426567696E6E6975
:10565C006E6720776970650A00576970656420254C
:10566C00642F25640A005769706520636F6D706C38
:10567C00657465640A0050726F6772616D6D656464
:10568C002066696E67657220706F732025780A003A
:10569C00556E6B6E6F776E20636F6D6D616E640A05
:1056AC0000426573742063686F6963653A202564F2
:1056BC000A0025642C2000436F756E746564207598
:1056CC007020686F650A00436F756E7465642064A2
:1056DC006F776E20686F650A000000000000000004
:1056EC0000000000874A0B007D4A0B00734A0B0038
:1056FC00694A0B005D4A0B00514A0B002D510B00FF
:10570C0035510B00454A0B003D4A0B00334A0B0048
:10571C00294A0B0065510B006170700025592D252D
:10572C006D2D25645425483A254D3A2553257A008C
:10573C0061736374696D6500000000000000000077
:10574C007D4D0B006D4D0B006F4D0B0000000000EC
:10575C0000000000634E0B00CB4E0B00A14E0B0063
:10576C00ED4A0B00934E0B00654E0B00754E0B0073
:10577C00C54E0B00854E0B005D4E0B00000000006B
:10578C00000000005D4F0B00C94F0B00A14F0B0038
:10579C00ED4A0B00714F0B008D4F0B007F4F0B0030
:1057AC009B4F0B005F4F0B00634F0B000000000082
:1057BC000000000001500B004B500B0023500B005D
:1057CC0003500B002B500B0033500B003B500B00C5
:1057DC0043500B000000000000000000CF500B00F5
:1057EC00C5500B00BB500B007D500B00F94B0B0050
:1057FC00AF500B002D510B0035510B00A3500B007B
:10580C009B500B0091500B0087500B0065510B0007
:10581C000000000000000000ED500B00F7500B00E2
:10582C0001510B000B510B0015510B0021510B00BA
:10583C002D510B0035510B003D510B0049510B0004
:10584C0051510B005B510B0065510B00005245454B
:10585C004E54206D616C6C6F63207375636365656A
:10586C00646564002F6D6E742F776F726B7370614B
:10587C0063652F776F726B73706163652F4743435A
:10588C002D31302D706970656C696E652F6A656E8F
:10589C006B696E732D4743432D31302D70697065E4
:1058AC006C696E652D34385F3230323031313234C0
:1058BC005F313630363138303634312F7372632FD6
:1058CC006E65776C69622F6E65776C69622F6C6997
:1058DC0062632F7374646C69622F72616E642E63E1
:1058EC000000000021460B00914A0B00B94A0B0046
:1058FC00DD4A0B00054C0B00154C0B00294C0B0022
:10590C00D9500B003D520B000000000000000000BD
:04591C000000000087
:045920000000000083
:1059240003020101020300003C570B00ECE50320D5
:105934000000000000000000000000000000000063
:105944000000000000000000000000000000000053
:105954000000000000000000000000000000000043
:105964000000000000000000000000000000000033
:105974000000000000000000000000000000000023
:105984000000000000000000000000000000000013
:04599400ECE7032019
:10599800FFFFFFFF00000102030405060708090ACC
:1059A8000B0C0D0E0F101112131415161718191AC7
:0859B8001B1C1D1E1F2028000E
:0459C00078563412CF
:04000003B000401CED
:00000001FF
