:02000002B0004C
:1040000000400B0058580B00000006000C00050291
:084010000401810C0000000016
:0440180038550B000C
:10401C0009480A49884208B505D0094A824202D0AB
:10402C00121A01F0D1F90748074A0021121A01F0BF
:10403C00D9F9014808BD00BF10E50320C4570B0097
:10404C007CE503207CE50320EDE7032070B5074EEB
:10405C00074C00F0FDFDA41BA4080025AC4200D1C8
:10406C0070BD56F8043B98470135F7E79C570B0099
:10407C00C0570B0000F064B908B500F063FABDE856
:10408C00084000F09DBD00F04BBC00F051BC007826
:10409C00B0FA80F040097047012303707047006844
:1040AC0000F0EABA00F0E0BA0EB403B503AB00219D
:1040BC0053F8042B019300F012FD02B05DF804EBF1
:1040CC0003B070470F2938B505460C4606D900F0E9
:1040DC00C3FE0D492246FFF7E7FF38BD407801F0DB
:1040EC00010101F0A8F8A878C4F3400101F0A3F88D
:1040FC00E878C4F3800101F09EF82879E108BDE866
:10410C00384001F098B800BF4C550B0038B5044648
:10411C00FFF7D8FF2078002101F08DF8607901F0CD
:10412C00A3F801210546207801F085F8284638BD12
:10413C0038B50D46044609212846FFF7E7FF00284D
:10414C00B8BF0F300011207008212846FFF7DEFFA2
:10415C000028B8BF0F300011607007212846FFF708
:10416C00D5FF0028B8BF0F300011A0700C212846D5
:10417C00FFF7CCFF0028B8BF0F300011E0700D2105
:10418C002846FFF7C3FF0028B8BF0F30001120717D
:10419C000A212846FFF7BAFF0028B8BF0F300011DC
:1041AC0060710B212846FFF7B1FF0028B8BF0F3014
:1041BC000011A0710E212846FFF7A8FF0028B8BFF8
:1041CC000F300011E0710F212846FFF79FFF0028E8
:1041DC00B8BF0F3000112072204638BD37B50546E8
:1041EC0001EBC10401F096F82978019401A8FFF7BE
:1041FC0056FF01F08FF8631C6978019301A8FFF753
:10420C004EFF01F087F8A31CA978019301A8FFF7D2
:10421C0046FF01F07FF8E31CE978019301A8FFF752
:10422C003EFF01F077F8231D2979019301A8FFF7D0
:10423C0036FF01F06FF8631D6979019301A8FFF750
:10424C002EFF01F067F8A31DA979019301A8FFF7D0
:10425C0026FF01F05FF8E31DE979019301A8FFF750
:10426C001EFF083401F056F8297A019401A8FFF7D3
:10427C0016FF03B030BD38B501EBC104054601F0A3
:10428C0049F82046FFF70EFF287001F043F8601C38
:10429C00FFF708FF687001F03DF8A01CFFF702FF64
:1042AC00A87001F037F8E01CFFF7FCFEE87001F095
:1042BC0031F8201DFFF7F6FE287101F02BF8601D78
:1042CC00FFF7F0FE687101F025F8A01DFFF7EAFE7C
:1042DC00A87101F01FF8E01DFFF7E4FEE87101F092
:1042EC0019F804F10800FFF7DDFE287238BD38B567
:1042FC000C46054600F0B0FD03681B699847002882
:10430C000BDD00F0A9FD03685B699847C0F342130D
:10431C0000F01F002B70207038BD01232B7011236F
:10432C002370F9E770B505460C4600F095FD03685F
:10433C0044EA45119B68BDE87040C9B218470000BB
:10434C0038B5164C164D2078012100F063FF6078CB
:10435C00012100F05FFFA078012100F05BFFE07805
:10436C00012100F057FF2079012100F053FF607903
:10437C00002100F04FFFA1792046FFF7A3FE207823
:10438C00012100F058FF0024214628460134FFF794
:10439C0072FF202C05F10905F6D138BDA8E60320E3
:1043AC0088E503201F281FB504462AD8164901A802
:1043BC00FFF7BEFE154A9DF8040004EBC401531828
:1043CC0050549DF8051059709DF8061099709DF881
:1043DC000710D9709DF8081019719DF809105971C2
:1043EC009DF80A1099719DF80B10D9719DF80C105D
:1043FC00197218462146FFF7F1FE00210120FFF744
:10440C0091FF04B010BD00BFA8E6032088E503208F
:10441C002DE9F74F3F4B4FF410624FF000094FF06E
:10442C00FF3A019293F80080B8F1000F66D093F830
:10443C0001E0BEF1000F61D093F802C0BCF1000F97
:10444C005CD0DF78002F59D01E79002E56D05D79C4
:10445C00002D53D09C79002C50D0D97900294DD007
:10446C001A7A002A4AD090F800B0A8EB0B0890F802
:10447C0001B0B8F1000FAEEB0B0EB8BFC8F10008DD
:10448C00BEF1000FB8BFCEF1000EF04490F802E080
:10449C00ACEB0E0CBCF1000FB8BFCCF1000CC4445B
:1044AC0090F80380A7EB08080779F61B4779B8F159
:1044BC00000FA5EB0705B8BFC8F10008002EB8BF68
:1044CC007642E044002D4644B8BF6D4235448679AF
:1044DC00A41B002CB8BF64422C44C579491B00298D
:1044EC00B8BF49422144047A121B002AB8BF524279
:1044FC000A4401998A42BCBFCA46019209F10109DA
:10450C00B9F1200F03F109038CD1504603B0BDE87B
:10451C00F08F00BF88E503201FB570B9084901A8CA
:10452C00FFF706FE01A8FFF773FF431C13BFC1B2D0
:10453C00122101200320FFF7F5FE05B05DF804FB06
:10454C00A8E6032007B500F087FC03681B699847B1
:10455C00002813DD0DF107010DF10600FFF7C7FE72
:10456C009DF8063033B1022B0BD010210120FFF740
:10457C00D9FE03E09DF80700FFF714FF03B05DF8C8
:10458C0004FB9DF80700FFF7C7FFF7E708B50C4BD6
:10459C000022C3E90022A2F580329A60022000F0CA
:1045AC003BF9084B06221A7002225A7003229A70A9
:1045BC000422DA7005221A7113225A7108BD00BF49
:1045CC007CE50320A8E6032008B5024B1B689B681A
:1045DC00019308BD6802030008B5024B1B68DB6839
:1045EC00019308BD6802030008B5024B1B685B68A9
:1045FC00019308BD2C02030008B5024B1B689B6895
:10460C00019308BD2C02030008B5024B1B68DB6844
:10461C00019308BD2C02030008B5024B1B681B69F3
:10462C00019308BD2C02030008B5024B1B681B6BE1
:10463C00019308BD2C02030008B5024B1B685B6894
:10464C00019308BD1802030008B5024B1B685B6997
:10465C00019308BD1802030008B5024B1B689B6A46
:10466C00019308BD1802030008B5024B1B68DB6AF6
:10467C00019308BD1802030008B5024B1B681B6BA5
:10468C00019308BD1802030008B5024B1B685B6C54
:10469C00019308BD4802030008B5024B1B685B6917
:1046AC00019308BD6402030008B5024B1B68DB686C
:1046BC00019308BD3C02030008B5024B1B681B6943
:1046CC00019308BD3C02030008B5024B1B685B69F3
:1046DC00019308BD3C02030008B5024B1B689B69A3
:1046EC00019308BD3C02030008B5024B1B68DB6953
:1046FC00019308BD3C02030008B5024B1B681B6A02
:10470C00019308BD3C02030008B5024B1B689B6A71
:10471C00019308BD3C02030008B5024B1B681B6CDF
:10472C00019308BD3C02030008B5024B1B681B6AD1
:10473C00019308BD2802030008B5024B1B685B6A95
:10474C00019308BD2802030008B5024B1B689B6A45
:10475C00019308BD2802030008B5024B1B68DB6AF5
:10476C00019308BD2802030008B5024B1B681B6BA4
:10477C00019308BD2802030008B5024B1B685B6B54
:10478C00019308BD2802030008B5024B1B681B6C83
:10479C00019308BD2802030008B5024B1B68DB69B6
:1047AC00019308BD3002030008B5024B1B681B6A5D
:1047BC00019308BD3002030008B5024B1B681B684F
:1047CC00019308BD4C02030008B5024B1B681B6922
:1047DC00019308BD4C02030008B5024B1B685B69D2
:1047EC00019308BD4C02030008B5024B1B689B6982
:1047FC00019308BD4C02030008B5024B1B68DB6932
:10480C00019308BD4C02030008B5024B1B681B6AE0
:10481C00019308BD4C02030008B5024B1B685B6892
:10482C00019308BD2002030008B5034B1B68D3F8A5
:10483C008830019308BD00002002030008B5034B2B
:10484C001B68D3F89430019308BD000020020300CC
:10485C0008B5024B1B685B68019308BD400203005E
:10486C0008B5024B1B689B68019308BD400203000E
:10487C0008B5024B1B68DB68019308BD40020300BE
:10488C0008B5024B1B681B69019308BD400203006D
:10489C0008B5024B1B685B69019308BD400203001D
:1048AC0008B5024B1B689B69019308BD40020300CD
:1048BC0008B5024B1B68DB69019308BD400203007D
:1048CC0008B5024B1B681B6A019308BD400203002C
:1048DC0008B5024B1B681B6B019308BD400203001B
:1048EC0008B5024B1B685B6B019308BD40020300CB
:1048FC0008B5024B1B681B6C019308BD40020300FA
:10490C0008B5024B1B685B6C019308BD40020300A9
:10491C0008B5024B1B68DB6B019308BD4402030016
:10492C0008B5024B1B681B68019308BD1C020300F1
:10493C0008B5024B1B685B68019308BD1C020300A1
:10494C0008B5024B1B685B6A019308BD1C0203008F
:10495C0008B5024B1B681B6C019308BD1C020300BD
:10496C0008B5024B1B685B6C019308BD1C0203006D
:10497C00002240681146FFF7A3BF00224068114691
:10498C00FFF7AEBF40680022FFF7A2BF40680022CD
:10499C0081F00101FFF78CBF002340681A461946CD
:1049AC00FFF77EBF002340681A461946FFF770BF19
:1049BC00002240681146FFF763BF00224068114691
:1049CC00FFF74EBF406800220221FFF751BF0023C2
:1049DC0040681A46FFF73CBF024B03225A60024A5A
:1049EC001A607047B0E603209C550B0010B50446C6
:1049FC0008462170FFF7D0FE00236360204610BDEF
:104A0C00054B02221A60054B054A9A600020C3E947
:104A1C000000FFF701BF00BFC4E60320B8E6032087
:104A2C000000FFFF024800230360FFF72DBE00BF0C
:104A3C00C8E60320F8B506460D468F180024BD4283
:104A4C000CD0336815F8011B9B6830469847031E41
:104A5C0001DB1C44F3E7002C08BF1C462046F8BDC4
:104A6C0013B50446084659B1019100F0F1FC2368D6
:104A7C000199DB680246204602B0BDE81040184799
:104A8C0002B010BD03689B68184738B50D21054668
:104A9C00FFF7F8FF0A2104462846FFF7F3FF2044EE
:104AAC0038BD30B58BB00023012A8DF8243098BF67
:104ABC000A2209AC0D46B1FBF2F101FB125303F0D3
:104ACC00FF03092B94BF30333733DBB2AA4204F80F
:104ADC00013DEFD92146FFF7C3FF0BB030BD2DE9E7
:104AEC00F04186B000AF05460E46381D1421144621
:104AFC003B60FFF725FF13280ED8391D2846FFF71A
:104B0C00AFFF04461EB12846FFF7BFFF0444204602
:104B1C001837BD46BDE8F08100F1080323F0070308
:104B2C00E846ADEB030D2246411C3B686846FFF797
:104B3C0007FF69462846FFF793FF0446C546E1E7A1
:104B4C00002340681A461946FFF7A2BE014B024AE1
:104B5C001A607047CCE60320D0550B00024B1A6844
:104B6C00024B1A60704700BF10E50320D0E603200B
:104B7C00014B00229A607047D4E60320014B186069
:104B8C00704700BF14E5032008B50B4B43B100F090
:104B9C0063F903681B699847002801DDAFF30080B7
:104BAC00064B43B100F092FB03681B699847002841
:104BBC0001DDAFF3008008BD000000000000000024
:104BCC0008B5FFF7E1FFFFF73FFD014B186008BD8B
:104BDC0038E703200548064A064908B5121A00F0C2
:104BEC00F3FB054B054A1A6008BD00BF00F4032017
:104BFC0004F40320C0570B0000F403201E1C279A5A
:104C0C0007B5002300931A466FF07701FFF716FEE5
:104C1C0003B05DF804FB000007B543880A2B08D0ED
:104C2C00502B0BD1094B1B684BB103B05DF804EB57
:104C3C001847FFF7E5FF03B05DF804FB0023009372
:104C4C001A466FF07701FFF7F9FDF4E7E8E6032069
:104C5C0010B512480021FFF783FE114B1A68114B57
:104C6C009A42114B0CBF012200221A7001D0FFF79F
:104C7C00B1FFFFF7E1FC044600F0BCFB0B4B13B19A
:104C8C002046AFF3008000210848FFF741FEBDE845
:104C9C00104007480021FFF7C7BD00BF894B0B0030
:104CAC0000F403201E1C279AE4E6032000000000F9
:104CBC00254C0B00704710B518210446FFF7E5F999
:104CCC00204610BDF0B5037D062B8DB00E4600F1CD
:104CDC0004074FF0000412D000F1080515F8011D6F
:104CEC000A223046FFF7DDFEAF42044419D0002CF7
:104CFC00F4D02E213046FFF7C5FE0444EEE72F23F7
:104D0C006A4639460A208DF80040FFF7C5FC684614
:104D1C0000F09EFB33680246DB68694630469847D4
:104D2C00044620460DB0F0BD10B5054B04461122CB
:104D3C0040F8043B002100F055FB204610BD00BF9D
:104D4C00F8550B000346074A10B543F8042B01F144
:104D5C00100251F8044B43F8044B9142F9D10A78F4
:104D6C001A7010BDF8550B0010B59DF8084044EAB8
:104D7C00032343EA024242EA0161042341600375C2
:104D8C0010BD000007B5064B0360CB7800938B7801
:104D9C004A780978FFF7E8FF03B05DF804FB00BF21
:104DAC00F8550B00417470477047704708B50021E7
:104DBC00007CFFF719FD40EAE07008BD08B5012141
:104DCC00007CFFF711FD40EAE07008BD08B5007CDF
:104DDC00FFF702FD20EAE07008BD08B5007CFFF784
:104DEC00F3FC20EAE07008BD13B50446007C019189
:104DFC00FFF7F2FC0028019901DC607C20B1207CDB
:104E0C00FFF7FAFC20EAE07002B010BD007CFFF75F
:104E1C00FBBC10B514210446FFF737F9204610BD32
:104E2C0010B54FF47A73044608460021C4E9011307
:104E3C00044B23600123207463741146FFF7BCFC00
:104E4C00204610BD0C560B0010B514220446002150
:104E5C0000F0C8FA204610BD10B50F4C88B003A85E
:104E6C00FFF7F2FF2178BFF35B8F11F001010FD137
:104E7C0020460191FFF70BF9019948B103AA0748A5
:104E8C00FFF7CEFF2046FFF707F9054800F096FA2A
:104E9C00024808B010BD00BFECE60320F0E603208A
:104EAC00B54D0B0070474174704708B5007CFFF797
:104EBC002BFC20EAE07008BD08B5007CFFF7FCFB7A
:104ECC0020EAE07008BD08B5007CFFF705FC40EA5D
:104EDC00E07008BD08B5007CFFF7F6FB40EAE07017
:104EEC0008BD007CFFF700BC37B5457C04462DB1EE
:104EFC00207C03B0BDE83040FFF7D6BB007C0191AD
:104F0C00FFF702FC00280199F2DC284603B030BD03
:104F1C0010B514210446FFF7B8F8204610BD000068
:104F2C0010B54FF47A730446084611460022C4E9C2
:104F3C000123044B2360012320746374FFF7ECFB03
:104F4C00204610BD3C560B007047F8B5064615467A
:104F5C000C468F18BC4206D0336814F8011B9B68B2
:104F6C0030469847F6E72846F8BD007C0022FFF74C
:104F7C00DBBB007C0021FFF7DFBB007C0021FFF7CF
:104F8C00E3BB007C0021FFF7E7BB007C0021FFF7AF
:104F9C00EBBB10B514210446FFF777F8204610BD83
:104FAC0010B54FF47A73044608460021C4E9011386
:104FBC00034B236020741146FFF7E6FB204610BD1F
:104FCC006C560B00002240681146FFF759BC0022BA
:104FDC0040681146FFF774BC002240681146FFF789
:104FEC007FBC40680022FFF773BC4068002281F050
:104FFC000101FFF75DBC002340681A461946FFF714
:10500C004FBC002240681146FFF72ABC40680022C2
:10501C000221FFF72DBC002340681A46FFF718BC8D
:10502C00024B04225A60024A1A60704704E70320BC
:10503C0094560B00002340681A46FFF709BC4068E1
:10504C0000220221FFF714BC002240681146FFF732
:10505C0007BC002240681146FFF712BC00234068D1
:10506C001A461946FFF714BC002340681A46194625
:10507C00FFF716BC40680021FFF73ABC40680021DE
:10508C00FFF73EBC4068002281F00101FFF710BC25
:10509C0040680022FFF71CBC002240681146FFF755
:1050AC001FBC002240681146FFF70ABC2DE9F043F3
:1050BC0095B014460D460746FFF736FE00211C221C
:1050CC000DA8009100F08EF940230C9320466B46FE
:1050DC000CAA0021FFF780FA044600284BD10246A7
:1050EC0001216868FFF7CCFB0221804622466868E4
:1050FC00FFF7C6FB009E81462146002E3BD00029BF
:10510C0039D17368022B03D00A2B11D0F669F4E75E
:10511C00B8F1000FFAD0716906A8043107ADFFF79A
:10512C0031FE0FCD3C1D0FC42B6823704146EDE7BB
:10513C00B9F1000FEAD07469102201A800F052F9FD
:10514C0006238DF8143001AD04F1080318341868E7
:10515C0059682A4603C20833A3421546F7D101A960
:10516C0006A807ADFFF7EEFD0FCD3C1D0FC42B6855
:10517C0023704946CAE70098FFF726FA384615B05F
:10518C00BDE8F083024B034A1A6000225A60704754
:10519C000CE70320D0560B00232813B502D90020AE
:1051AC0002B010BDA0F10B03022B1AD8174C2178BA
:1051BC00BFF35B8F11F001010BD120460191FEF77B
:1051CC0066FF019928B11248FFF710FC2046FEF744
:1051DC0063FF0F4B1878FFF7E7FA0028DFD10120A7
:1051EC00DEE7012809D800F0C3F80021007CFFF7A6
:1051FC00C3FA80F00100C0B2D2E709380128EED81A
:10520C0000F064F8007CFFF777FAF2E714E703206C
:10521C0018E70320232838B504460D460AD8FF2981
:10522C0008D0FFF7B9FF28B129462046BDE8384021
:10523C00FFF7E2B938BD38B504460D46FFF7E4F97F
:10524C00FF2810D0062804D84D2323FA00F0C307FA
:10525C0009D42046FFF7A0FF28B129462046BDE817
:10526C003840FFF7D9B938BD0D2810B504469CBF9E
:10527C000E34A4B22046FFF78FFF50B10321204615
:10528C00FFF7B2F9032804D12046BDE81040FFF720
:10529C00CBB9002010BD704738B5044614252A46FA
:1052AC00002100F09FF825804025074925812846DC
:1052BC00258200F081F804496060284600F07CF8F3
:1052CC00E060204638BD00BF04570B0030B50E4DD2
:1052DC002978BFF35B8F11F0010487B011D12846F8
:1052EC00FEF7D5FE68B101A8FFF7D6FF01AA21464B
:1052FC000648FFF715FE2846FEF7CEFE044800F0E0
:10530C005DF8024807B030BD20E7032024E70320F6
:10531C00A3520B0010B5084C2378BFF35B8FDB074F
:10532C0008D42046FEF7B3FE20B1FFF795F92046CE
:10533C00FEF7B2FE014810BD3CE7032040E7032016
:10534C007047000038B5202514230446036085609F
:10535C0005610649284600F02FF80449606028468C
:10536C0000F02AF8E060204638BD00BF04570B005F
:10537C0030B50E4D2978BFF35B8F11F0010487B067
:10538C0011D12846FEF783FE68B101A8FFF7DAFFBA
:10539C0001AA21460648FFF703FE2846FEF77CFECD
:1053AC00044800F00BF8024807B030BD44E7032076
:1053BC0048E703204D530B00FEF765BE0023014662
:1053CC001A46184600F04CB80A44914200F1FF33DB
:1053DC0000D1704710B511F8014B03F8014F914201
:1053EC00F9D110BD02440346934200D1704703F833
:1053FC00011BF9E738B5104B1D68AB6B0446B3B90C
:10540C001820FFF78DFA0246A86320B90B4B0C4805
:10541C004221FFF79DFA0B490B4BC0E900130B4BD4
:10542C0083600B23838100210120C2E90401AB6B53
:10543C0000221C615A6138BD14E5032005570B008E
:10544C001C570B000E33CDAB34126DE6ECDE0500B1
:10545C00034613F8012B002AFBD1181A01387047A8
:10546C002DE9F843DFF8B8800646D8F800001F464F
:10547C000D46914600F056F8254B1C6834B9254C66
:10548C001C60254B13B11B68C4F8883063681F2B54
:10549C0007DDD8F8000000F047F84FF0FF30BDE80A
:1054AC00F8834EB3D4F8880088B91C4B23B9D8F8CC
:1054BC00000000F038F8F0E74FF48470FFF730FA92
:1054CC000028F4D00023C0E94033C4F88800636896
:1054DC0040F8239001229A4000EB8301D0F8003170
:1054EC001343C0F80031022EC1F8807002BFD0F80F
:1054FC0004311343C0F804316368D8F800005A1C17
:10550C000233626044F8235000F00EF80020C6E726
:10551C00E8E703205CE70320000000002D490B00A6
:10552C0078E5032070477047704700001D400B0062
:10553C0059400B0081400B0085400B00000000001F
:10554C004D756C7469706C657865722E7365742812
:10555C0029203E2076616C7565206D757374206210
:10556C006520696E207468652072616E6765206FB6
:10557C006620302E2E2E31352C2076616C756520F0
:10558C003D2025640A00000000000000000000001F
:10559C00DB490B00D1490B00C7490B00BD490B007F
:1055AC00B1490B00A5490B0081500B0089500B0031
:1055BC0099490B0091490B0087490B007D490B0061
:1055CC00B9500B006170700025592D256D2D256487
:1055DC005425483A254D3A2553257A006173637456
:1055EC00696D65000000000000000000D14C0B004C
:1055FC00C14C0B00C34C0B0000000000000000006D
:10560C00B74D0B001F4E0B00F54D0B00414A0B0024
:10561C00E74D0B00B94D0B00C94D0B00194E0B009B
:10562C00D94D0B00B14D0B00000000000000000034
:10563C00B14E0B001D4F0B00F54E0B00414A0B00F9
:10564C00C54E0B00E14E0B00D34E0B00EF4E0B0082
:10565C00B34E0B00B74E0B00000000000000000022
:10566C00554F0B009F4F0B00774F0B00574F0B0004
:10567C007F4F0B00874F0B008F4F0B00974F0B008A
:10568C00000000000000000023500B0019500B001C
:10569C000F500B00D14F0B004D4B0B0003500B0068
:1056AC0081500B0089500B00F74F0B00EF4F0B0094
:1056BC00E54F0B00DB4F0B00B9500B000000000056
:1056CC000000000041500B004B500B0055500B00DC
:1056DC005F500B0069500B0075500B0081500B0094
:1056EC0089500B0091500B009D500B00A5500B00E6
:1056FC00AF500B00B9500B00005245454E54206D75
:10570C00616C6C6F632073756363656564656400BD
:10571C002F6D6E742F776F726B73706163652F775B
:10572C006F726B73706163652F4743432D31302D5E
:10573C00706970656C696E652F6A656E6B696E73E6
:10574C002D4743432D31302D706970656C696E6542
:10575C002D34385F32303230313132345F313630C3
:10576C00363138303634312F7372632F6E65776C67
:10577C0069622F6E65776C69622F6C6962632F7337
:10578C0074646C69622F72616E642E630000000099
:10579C0099450B00E5490B000D4A0B00314A0B00F3
:1057AC00594B0B00694B0B007D4B0B002D500B0024
:0457BC0091510B00FC
:0457C00000000000E5
:1057C400E8550B0018E5032000000000000000006D
:1057D40000000000000000000000000000000000C5
:1057E40000000000000000000000000000000000B5
:1057F40000000000000000000000000000000000A5
:105804000000000000000000000000000000000094
:105814000000000000000000000000000000000084
:0C5824000000000000000000ECE7032082
:10583000FFFFFFFF00000102030405060708090A35
:105840000B0C0D0E0F101112131415161718191A30
:085850001B1C1D1E1F20280077
:045858007856341238
:04000003B000401CED
:00000001FF
