:02000002B0004C
:1040000000400B00CC570B00000006000C0005021E
:084010000401810C0000000016
:0440180054540B00F1
:10401C0009480A49884208B505D0094A824202D0AB
:10402C00121A01F05FF90748074A0021121A01F031
:10403C0067F9014808BD00BF00E6032024570B00B8
:10404C0080E6032080E60320EDE7032070B5074EE1
:10405C00074C00F0A1FDA41BA4080025AC4200D124
:10406C0070BD56F8043B98470135F7E7F0560B0046
:10407C0014570B0000F0C2B808B500F00BFABDE8FD
:10408C00084000F041BD00F0EFBB00F0F5BB00783C
:10409C00B0FA80F0400970470123037070470EB4EA
:1040AC0003B503AB002153F8042B019300F0BBFCC8
:1040BC0002B05DF804EB03B0704700000F2938B56F
:1040CC0005460C4606D900F06BFE0D492246FFF75B
:1040DC00E6FF38BD407801F0010101F050F8A878F6
:1040EC00C4F3400101F04BF8E878C4F3800101F00F
:1040FC0046F82879E108BDE8384001F040B800BF27
:10410C0068540B0038B50446FFF7D8FF207800211F
:10411C0001F035F8607901F04BF801210546207863
:10412C0001F02DF8284638BD38B50D460446092156
:10413C002846FFF7E7FF0028B8BF0F3000112070AA
:10414C0008212846FFF7DEFF0028B8BF0F3000110A
:10415C00607007212846FFF7D5FF0028B8BF0F3045
:10416C000011A0700C212846FFF7CCFF0028B8BF27
:10417C000F300011E0700D212846FFF7C3FF002817
:10418C00B8BF0F30001120710A212846FFF7BAFF83
:10419C000028B8BF0F30001160710B212846FFF7C3
:1041AC00B1FF0028B8BF0F300011A0710E212846B6
:1041BC00FFF7A8FF0028B8BF0F300011E0710F21E6
:1041CC002846FFF79FFF0028B8BF0F300011207260
:1041DC00204638BD0B7803704B7843708B78837016
:1041EC00CB78C3700B7903714B7943718B798371E5
:1041FC00CB79C3710B7A03727047000010B5114C68
:10420C000121207800F0AAFF6078012100F0A6FFC0
:10421C00A078012100F0A2FFE078012100F09EFFC0
:10422C002079012100F09AFF6079002100F096FFBF
:10423C00A1792046FFF742FF20780121BDE810400C
:10424C0000F09DBF8CE603201FB5084901A8FFF7BD
:10425C006BFF01A90648FFF7BDFF00F0A1FD036845
:10426C0011219B68984705B05DF804FB8CE6032090
:10427C0093E603201FB5084901A8FFF755FF01A9D4
:10428C000648FFF7A7FF00F08BFD036812219B681F
:10429C00984705B05DF804FB8CE60320AEE60320DE
:1042AC001FB5084901A8FFF73FFF01A90648FFF712
:1042BC0091FF00F075FD036813219B68984705B0CA
:1042CC005DF804FB8CE603209CE603201FB508492F
:1042DC0001A8FFF729FF01A90648FFF77BFF00F0B3
:1042EC005FFD036814219B68984705B05DF804FBDB
:1042FC008CE60320A5E603202DE9F04F434B85B057
:10430C001B680393424B02934FF000094FF4106368
:10431C00CA460193039B4B4574DD029A52F8043B49
:10432C00029293F80080B8F1000F68D093F801E086
:10433C00BEF1000F63D093F802C0BCF1000F5ED049
:10434C00DF78002F5BD01E79002E58D05D79002DC0
:10435C0055D09C79002C52D0D97900294FD01A7A9B
:10436C00002A4CD090F800B0A8EB0B0890F801B0E4
:10437C00B8F1000FAEEB0B0EB8BFC8F10008BEF1E0
:10438C00000FB8BFCEF1000EF04490F802E0ACEB99
:10439C000E0E90F803C0BEF1000FA7EB0C07B8BFD0
:1043AC00CEF1000E002FB8BF7F42F044B84407791D
:1043BC00F61B002EB8BF7642464490F80580A5EB5C
:1043CC0008088579641BC579B8F1000FA1EB0501CC
:1043DC00B8BFC8F10008002CB8BF6442B044002933
:1043EC004444B8BF49422144047A121B002AB8BF86
:1043FC0052420A4401999142C4BF9A46019209F172
:10440C00010987E7504605B0BDE8F08F10E60320A0
:10441C0000E603201FB51A4901A8FFF785FE01A885
:10442C00FFF76AFF174B984208D100F0B9FC0368FC
:10443C009B68A121984705B05DF804FB124B98428C
:10444C0005D100F0ADFC0368A2219B68F2E70F4B8D
:10445C00984205D100F0A4FC0368A3219B68E9E70E
:10446C000B4B984205D100F09BFC0368A4219B6880
:10447C00E0E700F095FC0368B0219B68DAE700BF29
:10448C008CE6032093E60320AEE603209CE6032093
:10449C00A5E6032010B500F083FC03681B69984760
:1044AC00002817DD00F07CFC03685B699847C4B2F8
:1044BC00042C07DC44B1023C022C0CD8DFE804F0DD
:1044CC000F131700A02C16D000F06AFC0C492246E2
:1044DC00FFF7E5FD10BDBDE81040FFF7B5BEBDE828
:1044EC001040FFF7C7BEBDE81040FFF7D9BEBDE8CE
:1044FC001040FFF7EBBEBDE81040FFF78BBF00BFCD
:10450C00AE540B0008B50C4B0022C3E90022A2F5F7
:10451C0080329A60022000F023F9084B06221A70B0
:10452C0002225A7003229A700422DA7005221A7140
:10453C0013225A7108BD00BF80E603208CE60320CD
:10454C0008B5024B1B689B68019308BD6802030009
:10455C0008B5024B1B68DB68019308BD68020300B9
:10456C0008B5024B1B685B68019308BD2C02030065
:10457C0008B5024B1B689B68019308BD2C02030015
:10458C0008B5024B1B68DB68019308BD2C020300C5
:10459C0008B5024B1B681B69019308BD2C02030074
:1045AC0008B5024B1B681B6B019308BD2C02030062
:1045BC0008B5024B1B685B68019308BD1802030029
:1045CC0008B5024B1B685B69019308BD1802030018
:1045DC0008B5024B1B685B6C019308BD48020300D5
:1045EC0008B5024B1B685B69019308BD64020300AC
:1045FC0008B5024B1B68DB68019308BD3C02030045
:10460C0008B5024B1B681B69019308BD3C020300F3
:10461C0008B5024B1B685B69019308BD3C020300A3
:10462C0008B5024B1B689B69019308BD3C02030053
:10463C0008B5024B1B68DB69019308BD3C02030003
:10464C0008B5024B1B681B6A019308BD3C020300B2
:10465C0008B5024B1B689B6A019308BD3C02030022
:10466C0008B5024B1B681B6C019308BD3C02030090
:10467C0008B5024B1B681B6A019308BD2802030096
:10468C0008B5024B1B685B6A019308BD2802030046
:10469C0008B5024B1B689B6A019308BD28020300F6
:1046AC0008B5024B1B68DB6A019308BD28020300A6
:1046BC0008B5024B1B681B6B019308BD2802030055
:1046CC0008B5024B1B685B6B019308BD2802030005
:1046DC0008B5024B1B681B6C019308BD2802030034
:1046EC0008B5024B1B68DB69019308BD300203005F
:1046FC0008B5024B1B681B6A019308BD300203000E
:10470C0008B5024B1B681B68019308BD4C020300E3
:10471C0008B5024B1B681B69019308BD4C020300D2
:10472C0008B5024B1B685B69019308BD4C02030082
:10473C0008B5024B1B689B69019308BD4C02030032
:10474C0008B5024B1B68DB69019308BD4C020300E2
:10475C0008B5024B1B681B6A019308BD4C02030091
:10476C0008B5024B1B685B68019308BD200203006F
:10477C0008B5034B1B68D3F88830019308BD0000C3
:10478C002002030008B5034B1B68D3F89430019347
:10479C0008BD00002002030008B5024B1B685B68D3
:1047AC00019308BD4002030008B5024B1B689B68CF
:1047BC00019308BD4002030008B5024B1B68DB687F
:1047CC00019308BD4002030008B5024B1B681B692E
:1047DC00019308BD4002030008B5024B1B685B69DE
:1047EC00019308BD4002030008B5024B1B689B698E
:1047FC00019308BD4002030008B5024B1B68DB693E
:10480C00019308BD4002030008B5024B1B681B6AEC
:10481C00019308BD4002030008B5024B1B681B6BDB
:10482C00019308BD4002030008B5024B1B685B6B8B
:10483C00019308BD4002030008B5024B1B681B6CBA
:10484C00019308BD4002030008B5024B1B685B6C6A
:10485C00019308BD4002030008B5024B1B68DB6BDB
:10486C00019308BD4402030008B5024B1B681B688A
:10487C00019308BD1C02030008B5024B1B685B6862
:10488C00019308BD1C02030008B5024B1B685B6A50
:10489C00019308BD1C02030008B5024B1B681B6C7E
:1048AC00019308BD1C02030008B5024B1B685B6C2E
:1048BC00019308BD1C020300002240681146FFF75B
:1048CC00A3BF002240681146FFF7AEBF406800222C
:1048DC00FFF7A2BF4068002281F00101FFF78CBFF7
:1048EC00002340681A461946FFF77EBF0023406834
:1048FC001A461946FFF770BF002240681146FFF7B1
:10490C0063BF002240681146FFF74EBF406800228B
:10491C000221FFF751BF002340681A46FFF73CBF46
:10492C00024B03225A60024A1A607047B8E6032011
:10493C00F0540B0010B5044608462170FFF7D0FE6A
:10494C0000236360204610BD054B02221A60054B04
:10495C00054A9A600020C3E90000FFF701BF00BFC1
:10496C00CCE60320C0E603200000FFFF0248002332
:10497C000360FFF72DBE00BFD0E60320F8B5064656
:10498C000D468F180024BD420CD0336815F8011B5E
:10499C009B6830469847031E01DB1C44F3E7002C50
:1049AC0008BF1C462046F8BD13B50446084659B14D
:1049BC00019100F0DBFC23680199DB68024620467C
:1049CC0002B0BDE81040184702B010BD03689B68E8
:1049DC00184738B50D210546FFF7F8FF0A210446A4
:1049EC002846FFF7F3FF204438BD30B58BB00023C9
:1049FC00012A8DF8243098BF0A2209AC0D46B1FB70
:104A0C00F2F101FB125303F0FF03092B94BF303377
:104A1C003733DBB2AA4204F8013DEFD92146FFF748
:104A2C00C3FF0BB030BD2DE9F04186B000AF054699
:104A3C000E46381D142114463B60FFF725FF132842
:104A4C000ED8391D2846FFF7AFFF04461EB1284685
:104A5C00FFF7BFFF044420461837BD46BDE8F08180
:104A6C0000F1080323F00703E846ADEB030D2246E3
:104A7C00411C3B686846FFF707FF69462846FFF76D
:104A8C0093FF0446C546E1E7002340681A461946E1
:104A9C00FFF7A2BE014B024A1A607047D4E603200E
:104AAC0024550B00024B1A68024B1A60704700BF6A
:104ABC0014E60320D8E60320014B00229A607047CD
:104ACC00DCE60320014B1860704700BF18E603209A
:104ADC0008B50B4B43B100F063F903681B699847A9
:104AEC00002801DDAFF30080064B43B100F092FBD0
:104AFC0003681B699847002801DDAFF3008008BDEF
:104B0C00000000000000000008B5FFF7E1FFFFF710
:104B1C0057FD014B186008BD40E703200548064AC5
:104B2C00064908B5121A00F0DDFB054B054A1A6060
:104B3C0008BD00BF00F4032004F4032020570B0031
:104B4C0000F403201E1C279A07B5002300931A4675
:104B5C006FF07701FFF716FE03B05DF804FB000061
:104B6C0007B543880A2B08D0502B0BD1094B1B6877
:104B7C004BB103B05DF804EB1847FFF7E5FF03B04A
:104B8C005DF804FB002300931A466FF07701FFF7E2
:104B9C00F9FDF4E7F0E6032010B512480021FFF709
:104BAC0083FE114B1A68114B9A42114B0CBF012218
:104BBC0000221A7001D0FFF7B1FFFFF7F9FC044691
:104BCC0000F0A6FB0B4B13B12046AFF30080002185
:104BDC000848FFF741FEBDE8104007480021FFF7E9
:104BEC00C7BD00BFD14A0B0000F403201E1C279A3E
:104BFC00ECE60320000000006D4B0B00704710B575
:104C0C0018210446FFF741FA204610BDF0B5037D8C
:104C1C00062B8DB00E4600F104074FF0000412D0A5
:104C2C0000F1080515F8011D0A223046FFF7DDFEDC
:104C3C00AF42044419D0002CF4D02E213046FFF79B
:104C4C00C5FE0444EEE72F236A4639460A208DF848
:104C5C000040FFF7C5FC684600F088FB336802464D
:104C6C00DB68694630469847044620460DB0F0BDD7
:104C7C0010B5054B0446112240F8043B002100F00E
:104C8C003FFB204610BD00BF4C550B000346074AA6
:104C9C0010B543F8042B01F1100251F8044B43F802
:104CAC00044B9142F9D10A781A7010BD4C550B0087
:104CBC0010B59DF8084044EA032343EA024242EA55
:104CCC00016104234160037510BD000007B5064B5C
:104CDC000360CB7800938B784A780978FFF7E8FF6C
:104CEC0003B05DF804FB00BF4C550B0041747047DA
:104CFC007047704708B50021007CFFF719FD40EAAA
:104D0C00E07008BD08B50121007CFFF711FD40EAF9
:104D1C00E07008BD08B5007CFFF702FD20EAE070EA
:104D2C0008BD08B5007CFFF7F3FC20EAE07008BD75
:104D3C0013B50446007C0191FFF7F2FC00280199A1
:104D4C0001DC607C20B1207CFFF7FAFC20EAE070EB
:104D5C0002B010BD007CFFF7FBBC10B5142104465B
:104D6C00FFF793F9204610BD10B54FF47A73044643
:104D7C0008460021C4E90113044B2360012320746D
:104D8C0063741146FFF7BCFC204610BD60550B0048
:104D9C0010B514220446002100F0B2FA204610BDD2
:104DAC0010B50F4C88B003A8FFF7F2FF2178BFF3C2
:104DBC005B8F11F001010FD120460191FFF767F9CC
:104DCC00019948B103AA0748FFF7CEFF2046FFF729
:104DDC0063F9054800F080FA024808B010BD00BF26
:104DEC00F4E60320F8E60320FD4C0B0070474174F9
:104DFC00704708B5007CFFF72BFC20EAE07008BD7B
:104E0C0008B5007CFFF7FCFB20EAE07008BD08B594
:104E1C00007CFFF705FC40EAE07008BD08B5007C9B
:104E2C00FFF7F6FB40EAE07008BD007CFFF700BC22
:104E3C0037B5457C04462DB1207C03B0BDE830402D
:104E4C00FFF7D6BB007C0191FFF702FC002801990B
:104E5C00F2DC284603B030BD10B514210446FFF730
:104E6C0014F9204610BD000010B54FF47A730446B7
:104E7C00084611460022C4E90123044B2360012398
:104E8C0020746374FFF7ECFB204610BD90550B00AB
:104E9C007047F8B5064615460C468F18BC4206D02E
:104EAC00336814F8011B9B6830469847F6E7284690
:104EBC00F8BD007C0022FFF7DBBB007C0021FFF774
:104ECC00DFBB007C0021FFF7E3BB007C0021FFF778
:104EDC00E7BB007C0021FFF7EBBB10B514210446A7
:104EEC00FFF7D3F8204610BD10B54FF47A73044683
:104EFC0008460021C4E90113034B236020741146BA
:104F0C00FFF7E6FB204610BDC0550B0000224068A1
:104F1C001146FFF759BC002240681146FFF774BCDC
:104F2C00002240681146FFF77FBC40680022FFF763
:104F3C0073BC4068002281F00101FFF75DBC0023C7
:104F4C0040681A461946FFF74FBC002240681146CC
:104F5C00FFF72ABC406800220221FFF72DBC00237A
:104F6C0040681A46FFF718BC024B04225A60024AEA
:104F7C001A6070470CE70320E8550B0000234068CB
:104F8C001A46FFF709BC406800220221FFF714BC47
:104F9C00002240681146FFF707BC0022406811460A
:104FAC00FFF712BC002340681A461946FFF714BCE1
:104FBC00002340681A461946FFF716BC40680021CA
:104FCC00FFF73ABC40680021FFF73EBC4068002266
:104FDC0081F00101FFF710BC40680022FFF71CBCF8
:104FEC00002240681146FFF71FBC002240681146A2
:104FFC00FFF70ABC2DE9F04395B014460D46074661
:10500C00FFF736FE00211C220DA8009100F078F964
:10501C0040230C9320466B460CAA0021FFF798FA0C
:10502C00044600284BD1024601216868FFF7CCFBEF
:10503C000221804622466868FFF7C6FB009E814627
:10504C002146002E3BD0002939D17368022B03D0A6
:10505C000A2B11D0F669F4E7B8F1000FFAD0716998
:10506C0006A8043107ADFFF731FE0FCD3C1D0FC470
:10507C002B6823704146EDE7B9F1000FEAD0746953
:10508C00102201A800F03CF906238DF8143001AD74
:10509C0004F108031834186859682A4603C2083307
:1050AC00A3421546F7D101A906A807ADFFF7EEFDFF
:1050BC000FCD3C1D0FC42B6823704946CAE70098DE
:1050CC00FFF73EFA384615B0BDE8F083024B034AB1
:1050DC001A6000225A60704714E7032024560B0014
:1050EC00232813B502D9002002B010BDA0F10B0388
:1050FC00022B1AD8174C2178BFF35B8F11F00101EA
:10510C000BD120460191FEF7C2FF019928B112483C
:10511C00FFF710FC2046FEF7BFFF0F4B1878FFF788
:10512C00E7FA0028DFD10120DEE7012809D800F0DA
:10513C00ADF80021007CFFF7C3FA80F00100C0B28B
:10514C00D2E709380128EED800F064F8007CFFF7AC
:10515C0077FAF2E71CE7032020E70320232838B571
:10516C0004460D460AD8FF2908D0FFF7B9FF28B12D
:10517C0029462046BDE83840FFF7FAB938BD38B5A6
:10518C0004460D46FFF7FCF9FF2810D0062804D87A
:10519C004D2323FA00F0C30709D42046FFF7A0FFE4
:1051AC0028B129462046BDE83840FFF7F1B938BD93
:1051BC000D2810B504469CBF0E34A4B22046FFF750
:1051CC008FFF50B103212046FFF7CAF9032804D101
:1051DC002046BDE81040FFF7E3B9002010BD704732
:1051EC0038B5044614252A46002100F089F825809C
:1051FC004025074925812846258200F06BF8044993
:10520C006060284600F066F8E060204638BD00BFBC
:10521C0058560B0030B50E4D2978BFF35B8F11F04B
:10522C00010487B011D12846FEF731FF68B101A8FF
:10523C00FFF7D6FF01AA21460648FFF715FE2846C0
:10524C00FEF72AFF044800F047F8024807B030BDCB
:10525C0028E703202CE70320EB510B0070470000DC
:10526C0038B5202514230446036085600561064982
:10527C00284600F02FF804496060284600F02AF810
:10528C00E060204638BD00BF58560B0030B50E4DBF
:10529C002978BFF35B8F11F0010487B011D1284638
:1052AC00FEF7F5FE68B101A8FFF7DAFF01AA214667
:1052BC000648FFF719FE2846FEF7EEFE044800F0FC
:1052CC000BF8024807B030BD44E7032048E7032041
:1052DC0069520B00FEF7D7BE002301461A4618464A
:1052EC0000F04CB80A44914200F1FF3300D17047F2
:1052FC0010B511F8014B03F8014F9142F9D110BDD3
:10530C0002440346934200D1704703F8011BF9E7AE
:10531C0038B5104B1D68AB6B0446B3B91820FFF7BA
:10532C00A3FA0246A86320B90B4B0C484221FFF7A5
:10533C00B3FA0B490B4BC0E900130B4B83600B23E7
:10534C00838100210120C2E90401AB6B00221C61A6
:10535C005A6138BD18E6032059560B0070560B00E5
:10536C000E33CDAB34126DE6ECDE0500034613F8BC
:10537C00012B002AFBD1181A013870472DE9F8438C
:10538C00DFF8B8800646D8F800001F460D46914657
:10539C0000F056F8254B1C6834B9254C1C60254B85
:1053AC0013B11B68C4F8883063681F2B07DDD8F86D
:1053BC00000000F047F84FF0FF30BDE8F8834EB323
:1053CC00D4F8880088B91C4B23B9D8F8000000F039
:1053DC0038F8F0E74FF48470FFF746FA0028F4D061
:1053EC000023C0E94033C4F88800636840F8239078
:1053FC0001229A4000EB8301D0F800311343C0F82E
:10540C000031022EC1F8807002BFD0F80431134372
:10541C00C0F804316368D8F800005A1C023362608B
:10542C0044F8235000F00EF80020C6E7E8E703200C
:10543C005CE703200000000075480B007CE60320AD
:10544C0070477047704700001D400B0059400B001F
:10545C0081400B0085400B00000000004D756C7402
:10546C0069706C657865722E7365742829203E20EE
:10547C0076616C7565206D75737420626520696E3C
:10548C00207468652072616E6765206F6620302E0F
:10549C002E2E31352C2076616C7565203D202564CF
:1054AC000A004552524F523A20526563696576653F
:1054BC006420636F6D6D616E6420272564272C203A
:1054CC006E6F742063757272656E746C7920696D81
:1054DC00706C656D656E7465642E0A0000000000CA
:1054EC000000000023490B0019490B000F490B0069
:1054FC0005490B00F9480B00ED480B00C94F0B0098
:10550C00D14F0B00E1480B00D9480B00CF480B00E2
:10551C00C5480B0001500B006170700025592D25FA
:10552C006D2D25645425483A254D3A2553257A008E
:10553C0061736374696D6500000000000000000079
:10554C00194C0B00094C0B000B4C0B00000000001D
:10555C0000000000FF4C0B00674D0B003D4D0B0095
:10556C0089490B002F4D0B00014D0B00114D0B0009
:10557C00614D0B00214D0B00F94C0B00000000009D
:10558C0000000000F94D0B00654E0B003D4E0B006A
:10559C0089490B000D4E0B00294E0B001B4E0B00C6
:1055AC00374E0B00FB4D0B00FF4D0B0000000000B5
:1055BC00000000009D4E0B00E74E0B00BF4E0B0091
:1055CC009F4E0B00C74E0B00CF4E0B00D74E0B005F
:1055DC00DF4E0B0000000000000000006B4F0B00C2
:1055EC00614F0B00574F0B00194F0B00954A0B00E6
:1055FC004B4F0B00C94F0B00D14F0B003F4F0B0013
:10560C00374F0B002D4F0B00234F0B0001500B009D
:10561C000000000000000000894F0B00934F0B00AE
:10562C009D4F0B00A74F0B00B14F0B00BD4F0B0054
:10563C00C94F0B00D14F0B00D94F0B00E54F0B009E
:10564C00ED4F0B00F74F0B0001500B00005245457E
:10565C004E54206D616C6C6F63207375636365656C
:10566C00646564002F6D6E742F776F726B7370614D
:10567C0063652F776F726B73706163652F4743435C
:10568C002D31302D706970656C696E652F6A656E91
:10569C006B696E732D4743432D31302D70697065E6
:1056AC006C696E652D34385F3230323031313234C2
:1056BC005F313630363138303634312F7372632FD8
:1056CC006E65776C69622F6E65776C69622F6C6999
:1056DC0062632F7374646C69622F72616E642E63E3
:1056EC000000000011450B002D490B0055490B0023
:1056FC0079490B00A14A0B00B14A0B00C54A0B00BB
:10570C00754F0B00D9500B0000000000000000008A
:04571C000000000089
:045720000000000085
:1057240093E60320AEE603209CE60320A5E60320CF
:10573400040000003C550B001CE6032000000000A0
:105744000000000000000000000000000000000055
:105754000000000000000000000000000000000045
:105764000000000000000000000000000000000035
:105774000000000000000000000000000000000025
:105784000000000000000000000000000000000015
:10579400000000000000000000000000ECE703200F
:1057A400FFFFFFFF00000102030405060708090AC2
:1057B4000B0C0D0E0F101112131415161718191ABD
:0857C4001B1C1D1E1F20280004
:0457CC0078563412C5
:04000003B000401CED
:00000001FF
