:02000002B0004C
:1040000000400B00E8560B00000006000C00050203
:084010000401810C0000000016
:0440180054530B00F2
:10401C0009480A49884208B505D0094A824202D0AB
:10402C00121A01F0DFF80748074A0021121A01F0B2
:10403C00E7F8014808BD00BFD0E5032054560B003B
:10404C003CE603203CE60320EDE7032070B5074E69
:10405C00074C00F009FDA41BA4080025AC4200D1BC
:10406C0070BD56F8043B98470135F7E72C560B000A
:10407C0050560B0000F032B908B500F04DF9BDE810
:10408C00084000F0A9BC00F057BB00F05DBB007805
:10409C00B0FA80F0400970470123037070470EB4EA
:1040AC0003B503AB002153F8042B019300F023FC60
:1040BC0002B05DF804EB03B070470000F8B500F0F7
:1040CC00DBFD0D490D4E0E4D0E4FFFF7E8FF0024A2
:1040DC0000F0D2FD56F8042B55F8043B3946D31AA0
:1040EC0022460134FFF7DBFF092CF1D100F0C4FDAF
:1040FC000549FFF7D4FFF8BD68530B0058E60320C1
:10410C007CE6032088530B00EF530B0038B50446B4
:10411C00008800F0B9FF0028237914BF0125002581
:10412C0005D013B9E36803B19847257138BD002B4E
:10413C00FBD0A368F7E700000F2938B505460C46FD
:10414C0006D900F099FD0D492246FFF7A8FF38BDAE
:10415C00407801F0010100F07EFFA878C4F3400123
:10416C0000F079FFE878C4F3800100F074FF28793F
:10417C00E108BDE8384000F06EBF00BF93530B0060
:10418C0038B50446FFF7D8FF2078002100F063FF14
:10419C00607900F08CFF01210546207800F05BFF70
:1041AC00284638BD2DE9F74F00F066FD19491A4E27
:1041BC001A4DDFF87890DFF87880194FFFF76FFF12
:1041CC004FF0000A5FFA8AF14846FFF7D9FF55F81D
:1041DC00043B56F8044B0193834600F04DFD019BC4
:1041EC001049234403EBD373BBEB630FB4BF4346BB
:1041FC003B4652460AF1010AFFF751FFBAF1090F8B
:10420C00E0D100F039FD0849FFF749FF03B0BDE8E4
:10421C00F08F00BFDD530B0058E603207CE6032033
:10422C00DB530B00F1530B00EF530B00A0E6032004
:10423C00D9530B00F8B500F01FFD0E490E4D0F4F72
:10424C000F4EFFF72CFF0024E1B23846FFF798FF22
:10425C00286000F011FD224655F8043B314601342C
:10426C00FFF71DFF092CEFD100F006FD0549FFF704
:10427C0016FFF8BDFC530B0058E60320A0E6032004
:10428C0088530B00EF530B00F8B500F0F5FC0E490A
:10429C000E4D0F4F0F4EFFF702FF0024E1B23846D0
:1042AC00FFF76EFF286000F0E7FC224655F8043B50
:1042BC0031460134FFF7F3FE092CEFD100F0DCFCA2
:1042CC000549FFF7ECFEF8BD0F540B007CE603200C
:1042DC00A0E6032088530B00EF530B0008B500F049
:1042EC00CBFC4FF4165100F0BBFC054B054A9A6011
:1042FC00054ADA60054B064A9A60064ADA6008BD40
:10430C0048E60320C9400B00B1410B00A8E603208E
:10431C0041420B0095420B0008B50348FFF7F6FE2F
:10432C000248FFF7F3FE08BD48E60320A8E6032089
:10433C002A4B2B4A70B500252A4C9A60C3E90055CC
:10434C00022000F075F90323A3700423E370052306
:10435C000620022623710E236371207066700121E2
:10436C0000F068FE6078012100F064FEA078012165
:10437C0000F060FEE078012100F05CFE2079012164
:10438C0000F058FE6079294600F054FEA1792046D1
:10439C00FFF7D2FE2078144C012100F05CFE0820BF
:1043AC0020603146C4E9025500F044FE208800F03C
:1043BC006BFE401B18BF012020710C4C07202060A5
:1043CC003146C4E9025500F035FE208800F05CFE51
:1043DC00401B18BF0120207170BD00BF3CE60320BC
:1043EC000000FFFFA0E60320A8E6032048E6032018
:1043FC0008B5024B1B689B68019308BD680203005B
:10440C0008B5024B1B68DB68019308BD680203000A
:10441C0008B5024B1B685B68019308BD2C020300B6
:10442C0008B5024B1B689B68019308BD2C02030066
:10443C0008B5024B1B68DB68019308BD2C02030016
:10444C0008B5024B1B681B69019308BD2C020300C5
:10445C0008B5024B1B685B69019308BD2C02030075
:10446C0008B5024B1B681B6B019308BD2C020300A3
:10447C0008B5024B1B685B68019308BD180203006A
:10448C0008B5024B1B685B69019308BD1802030059
:10449C0008B5024B1B685B6C019308BD4802030016
:1044AC0008B5024B1B685B69019308BD64020300ED
:1044BC0008B5024B1B68DB68019308BD3C02030086
:1044CC0008B5024B1B681B69019308BD3C02030035
:1044DC0008B5024B1B685B69019308BD3C020300E5
:1044EC0008B5024B1B689B69019308BD3C02030095
:1044FC0008B5024B1B68DB69019308BD3C02030045
:10450C0008B5024B1B681B6A019308BD3C020300F3
:10451C0008B5024B1B689B6A019308BD3C02030063
:10452C0008B5024B1B681B6C019308BD3C020300D1
:10453C0008B5024B1B681B6A019308BD28020300D7
:10454C0008B5024B1B685B6A019308BD2802030087
:10455C0008B5024B1B689B6A019308BD2802030037
:10456C0008B5024B1B68DB6A019308BD28020300E7
:10457C0008B5024B1B681B6B019308BD2802030096
:10458C0008B5024B1B685B6B019308BD2802030046
:10459C0008B5024B1B681B6C019308BD2802030075
:1045AC0008B5024B1B68DB69019308BD30020300A0
:1045BC0008B5024B1B681B6A019308BD300203004F
:1045CC0008B5024B1B681B68019308BD4C02030025
:1045DC0008B5024B1B685B68019308BD4C020300D5
:1045EC0008B5024B1B681B69019308BD4C02030004
:1045FC0008B5024B1B685B69019308BD4C020300B4
:10460C0008B5024B1B689B69019308BD4C02030063
:10461C0008B5024B1B68DB69019308BD4C02030013
:10462C0008B5024B1B681B6A019308BD4C020300C2
:10463C0008B5024B1B685B68019308BD20020300A0
:10464C0008B5034B1B68D3F88830019308BD0000F4
:10465C002002030008B5034B1B68D3F89430019378
:10466C0008BD00002002030008B5024B1B685B6804
:10467C00019308BD4002030008B5024B1B689B6800
:10468C00019308BD4002030008B5024B1B68DB68B0
:10469C00019308BD4002030008B5024B1B681B695F
:1046AC00019308BD4002030008B5024B1B685B690F
:1046BC00019308BD4002030008B5024B1B689B69BF
:1046CC00019308BD4002030008B5024B1B68DB696F
:1046DC00019308BD4002030008B5024B1B681B6A1E
:1046EC00019308BD4002030008B5024B1B681B6B0D
:1046FC00019308BD4002030008B5024B1B685B6BBD
:10470C00019308BD4002030008B5024B1B681B6CEB
:10471C00019308BD4002030008B5024B1B685B6C9B
:10472C00019308BD4002030008B5024B1B68DB6B0C
:10473C00019308BD4402030008B5024B1B681B68BB
:10474C00019308BD1C02030008B5024B1B685B6893
:10475C00019308BD1C02030008B5024B1B685B6A81
:10476C00019308BD1C02030008B5024B1B681B6CAF
:10477C00019308BD1C02030008B5024B1B685B6C5F
:10478C00019308BD1C020300002240681146FFF78C
:10479C00A3BF002240681146FFF7AEBF406800225D
:1047AC00FFF7A2BF4068002281F00101FFF78CBF28
:1047BC00002340681A461946FFF77EBF0023406865
:1047CC001A461946FFF770BF002240681146FFF7E2
:1047DC0063BF002240681146FFF74EBF40680022BD
:1047EC000221FFF751BF002340681A46FFF73CBF78
:1047FC00024B03225A60024A1A607047B8E6032043
:10480C002C540B0010B5044608462170FFF7C8FE67
:10481C0000236360204610BD054B02221A60054B35
:10482C00054A9A600020C3E90000FFF701BF00BFF2
:10483C00CCE60320C0E603200000FFFF0248002363
:10484C000360FFF725BE00BFD0E60320F8B506468F
:10485C000D468F180024BD420CD0336815F8011B8F
:10486C009B6830469847031E01DB1C44F3E7002C81
:10487C0008BF1C462046F8BD13B50446084659B17E
:10488C00019100F0F3FC23680199DB680246204695
:10489C0002B0BDE81040184702B010BD03689B6819
:1048AC00184738B50D210546FFF7F8FF0A210446D5
:1048BC002846FFF7F3FF204438BD30B58BB00023FA
:1048CC00012A8DF8243098BF0A2209AC0D46B1FBA1
:1048DC00F2F101FB125303F0FF03092B94BF3033A9
:1048EC003733DBB2AA4204F8013DEFD92146FFF77A
:1048FC00C3FF0BB030BD2DE9F04186B000AF0546CB
:10490C000E46381D142114463B60FFF725FF132873
:10491C000ED8391D2846FFF7AFFF04461EB12846B6
:10492C00FFF7BFFF044420461837BD46BDE8F081B1
:10493C0000F1080323F00703E846ADEB030D224614
:10494C00411C3B686846FFF707FF69462846FFF79E
:10495C0093FF0446C546E1E7002340681A46194612
:10496C00FFF7A2BE014B024A1A607047D4E603203F
:10497C0060540B00024B1A68024B1A60704700BF60
:10498C00D0E50320D8E60320014B00229A60704743
:10499C00DCE60320014B1860704700BFD4E5032010
:1049AC0008B50B4B43B100F067F903681B699847D6
:1049BC00002801DDAFF30080064B43B100F0AAFBE9
:1049CC0003681B699847002801DDAFF3008008BD20
:1049DC00000000000000000008B5FFF7E1FFFFF742
:1049EC004FFD014B186008BD40E703200548064AFF
:1049FC00064908B5121A00F0F5FB054B054A1A607A
:104A0C0008BD00BF00F4032004F4032050560B0033
:104A1C0000F403201E1C279A07B5002300931A46A6
:104A2C006FF07701FFF716FE03B05DF804FB000092
:104A3C0007B543880A2B08D0502B0BD1094B1B68A8
:104A4C004BB103B05DF804EB1847FFF7E5FF03B07B
:104A5C005DF804FB002300931A466FF07701FFF713
:104A6C00F9FDF4E7F0E6032010B512480021FFF73A
:104A7C0083FE114B1A68114B9A42114B0CBF012249
:104A8C0000221A7001D0FFF7B1FFFFF7F1FC0446CA
:104A9C0000F0BEFB0B4B13B12046AFF3008000219E
:104AAC000848FFF741FEBDE8104007480021FFF71A
:104ABC00C7BD00BFA1490B0000F403201E1C279AA0
:104ACC00ECE60320000000003D4A0B00704710B5D7
:104ADC0018210446FFF7D9FA204610BDF0B5037D26
:104AEC00062B8DB00E4600F104074FF0000412D0D7
:104AFC0000F1080515F8011D0A223046FFF7DDFE0E
:104B0C00AF42044419D0002CF4D02E213046FFF7CC
:104B1C00C5FE0444EEE72F236A4639460A208DF879
:104B2C000040FFF7BDFC684600F0A0FB336802466E
:104B3C00DB68694630469847044620460DB0F0BD08
:104B4C0010B5054B0446112240F8043B002100F03F
:104B5C0057FB204610BD00BF88540B000346074A84
:104B6C0010B543F8042B01F1100251F8044B43F833
:104B7C00044B9142F9D10A781A7010BD88540B007D
:104B8C0010B59DF8084044EA032343EA024242EA86
:104B9C00016104234160037510BD000007B5064B8D
:104BAC000360CB7800938B784A780978FFF7E8FF9D
:104BBC0003B05DF804FB00BF88540B0041747047D0
:104BCC007047704708B50021007CFFF719FD40EADB
:104BDC00E07008BD08B50121007CFFF711FD40EA2B
:104BEC00E07008BD08B5007CFFF702FD20EAE0701C
:104BFC0008BD08B5007CFFF7F3FC20EAE07008BDA7
:104C0C0013B50446007C0191FFF7F2FC00280199D2
:104C1C0001DC607C20B1207CFFF7FAFC20EAE0701C
:104C2C0002B010BD007CFFF7FBBC10B5142104468C
:104C3C00FFF72BFA204610BD10B54FF47A730446DB
:104C4C0008460021C4E90113044B2360012320749E
:104C5C0063741146FFF7B4FC204610BD9C540B0046
:104C6C00007C0022FFF7B4BC10B5142204460021CE
:104C7C0000F0C6FA204610BD10B50F4C88B003A842
:104C8C00FFF7F2FF2178BFF35B8F11F001010FD119
:104C9C0020460191FFF7FBF9019948B103AA074897
:104CAC00FFF7CAFF2046FFF7F7F9054800F094FA22
:104CBC00024808B010BD00BFF4E60320F8E603205C
:104CCC00CD4B0B0070474174704708B5007CFFF763
:104CDC001FFC20EAE07008BD08B5007CFFF7F0FB74
:104CEC0020EAE07008BD08B5007CFFF7F9FB40EA4C
:104CFC00E07008BD08B5007CFFF7EAFB40EAE07005
:104D0C0008BD007CFFF7F4BB37B5457C04462DB1DC
:104D1C00207C03B0BDE83040FFF7CABB007C01919A
:104D2C00FFF7F6FB00280199F2DC284603B030BDF2
:104D3C0010B514210446FFF7A8F9204610BD000059
:104D4C0010B54FF47A730446084611460022C4E9A4
:104D5C000123044B2360012320746374FFF7E0FBF1
:104D6C00204610BDCC540B007047F8B506461546CE
:104D7C000C468F18BC4206D0336814F8011B9B6894
:104D8C0030469847F6E72846F8BD007C0022FFF72E
:104D9C00CFBB007C0021FFF7D3BB007C0021FFF7C9
:104DAC00D7BB007C0021FFF7DBBB007C0021FFF7A9
:104DBC00DFBB10B514210446FFF767F9204610BD80
:104DCC0010B54FF47A73044608460021C4E9011368
:104DDC00034B236020741146FFF7DAFB204610BD0D
:104DEC00FC540B00002240681146FFF755BC002212
:104DFC0040681146FFF770BC002240681146FFF76F
:104E0C007BBC40680022FFF76FBC4068002281F039
:104E1C000101FFF759BC002340681A461946FFF7F9
:104E2C004BBC002240681146FFF726BC40680022AC
:104E3C000221FFF729BC002340681A46FFF714BC77
:104E4C00024B04225A60024A1A6070470CE7032096
:104E5C0024550B00002340681A46FFF705BC406838
:104E6C0000220221FFF710BC002240681146FFF718
:104E7C0003BC002240681146FFF70EBC00234068BB
:104E8C001A461946FFF710BC002340681A4619460B
:104E9C00FFF712BC40680021FFF736BC40680021C8
:104EAC00FFF73ABC4068002281F00101FFF70CBC0F
:104EBC0040680022FFF718BC002240681146FFF73B
:104ECC001BBC002240681146FFF706BC2DE9F043DD
:104EDC0095B014460D460746FFF732FE00211C2202
:104EEC000DA8009100F08CF940230C9320466B46E2
:104EFC000CAA0021FFF784FA044600284BD1024685
:104F0C0001216868FFF7C8FB0221804622466868C9
:104F1C00FFF7C2FB009E81462146002E3BD00029A4
:104F2C0039D17368022B03D00A2B11D0F669F4E740
:104F3C00B8F1000FFAD0716906A8043107ADFFF77C
:104F4C002DFE0FCD3C1D0FC42B6823704146EDE7A1
:104F5C00B9F1000FEAD07469102201A800F050F9E1
:104F6C0006238DF8143001AD04F1080318341868C9
:104F7C0059682A4603C20833A3421546F7D101A942
:104F8C0006A807ADFFF7EAFD0FCD3C1D0FC42B683B
:104F9C0023704946CAE70098FFF72AFA384615B03D
:104FAC00BDE8F083024B034A1A6000225A60704736
:104FBC0014E7032060550B00232813B502D90020F9
:104FCC0002B010BDA0F10B03022B1AD8174C21789C
:104FDC00BFF35B8F11F001010BD120460191FFF75C
:104FEC0056F8019928B11248FFF70CFC2046FFF740
:104FFC0053F80F4B1878FFF7DBFA0028DFD10120AC
:10500C00DEE7012809D800F0C1F80021007CFFF789
:10501C00B7FA80F00100C0B2D2E709380128EED807
:10502C0000F078F8007CFFF76BFAF2E71CE703203E
:10503C0020E70320232838B504460D460AD8FF295B
:10504C0008D0FFF7B9FF28B129462046BDE8384003
:10505C00FFF7E6B938BD38B504460D46FFF7E8F959
:10506C00FF2810D0062804D84D2323FA00F0C307DC
:10507C0009D42046FFF7A0FF28B129462046BDE8F9
:10508C003840FFF7DDB938BD10B50446FFF7D0F94D
:10509C00031FDBB2012B08D92046FFF78DFF20B18F
:1050AC002046BDE81040FFF7D3B9002010BD0D28F5
:1050BC0010B504469CBF0E34A4B22046FFF77CFF0B
:1050CC0050B103212046FFF7A3F9032804D1204651
:1050DC00BDE81040FFF7C4B9002010BD70470000B8
:1050EC0038B5044614252A46002100F089F825809D
:1050FC004025074925812846258200F06BF8044994
:10510C006060284600F066F8E060204638BD00BFBD
:10511C0094550B0030B50E4D2978BFF35B8F11F011
:10512C00010487B011D12846FEF7B1FF68B101A880
:10513C00FFF7D6FF01AA21460648FFF701FE2846D5
:10514C00FEF7AAFF044800F047F8024807B030BD4C
:10515C0028E703202CE70320E9500B0070470000E0
:10516C0038B5202514230446036085600561064983
:10517C00284600F02FF804496060284600F02AF811
:10518C00E060204638BD00BF94550B0030B50E4D85
:10519C002978BFF35B8F11F0010487B011D1284639
:1051AC00FEF775FF68B101A8FFF7DAFF01AA2146E7
:1051BC000648FFF705FE2846FEF76EFF044800F090
:1051CC000BF8024807B030BD44E7032048E7032042
:1051DC0069510B00FEF757BF002301461A461846CB
:1051EC0000F04CB80A44914200F1FF3300D17047F3
:1051FC0010B511F8014B03F8014F9142F9D110BDD4
:10520C0002440346934200D1704703F8011BF9E7AF
:10521C0038B5104B1D68AB6B0446B3B91820FFF7BB
:10522C008BFA0246A86320B90B4B0C484221FFF7BE
:10523C009BFA0B490B4BC0E900130B4B83600B2300
:10524C00838100210120C2E90401AB6B00221C61A7
:10525C005A6138BDD4E5032095550B00AC550B00B5
:10526C000E33CDAB34126DE6ECDE0500034613F8BD
:10527C00012B002AFBD1181A013870472DE9F8438D
:10528C00DFF8B8800646D8F800001F460D46914658
:10529C0000F056F8254B1C6834B9254C1C60254B86
:1052AC0013B11B68C4F8883063681F2B07DDD8F86E
:1052BC00000000F047F84FF0FF30BDE8F8834EB324
:1052CC00D4F8880088B91C4B23B9D8F8000000F03A
:1052DC0038F8F0E74FF48470FFF72EFA0028F4D07A
:1052EC000023C0E94033C4F88800636840F8239079
:1052FC0001229A4000EB8301D0F800311343C0F82F
:10530C000031022EC1F8807002BFD0F80431134373
:10531C00C0F804316368D8F800005A1C023362608C
:10532C0044F8235000F00EF80020C6E7E8E703200D
:10533C005CE703200000000045470B0038E6032023
:10534C0070477047704700001D400B0059400B0020
:10535C0081400B0085400B0000000000446966662C
:10536C0065726E636573206265747765656E206D1A
:10537C00696E20616E64206D61780A0025643A20A4
:10538C00256420202020004D756C7469706C657844
:10539C0065722E7365742829203E2076616C7565C4
:1053AC00206D75737420626520696E2074686520A9
:1053BC0072616E6765206F6620302E2E2E31352C73
:1053CC002076616C7565203D2025640A00540046EA
:1053DC0000436C6F73657220746F206D696E20765C
:1053EC00616C3F0A0025643A2025732020202000A0
:1053FC005570646174696E67206D61782076616C9C
:10540C00730A005570646174696E67206D696E2053
:10541C0076616C730A0000000000000000000000C0
:10542C00F3470B00E9470B00DF470B00D5470B0098
:10543C00C9470B00BD470B00A14E0B00A94E0B003A
:10544C00B1470B00A9470B009F470B0095470B007A
:10545C00D94E0B006170700025592D256D2D2564DA
:10546C005425483A254D3A2553257A0061736374C7
:10547C00696D65000000000000000000E94A0B00A7
:10548C00D94A0B00DB4A0B000000000000000000B2
:10549C00CF4B0B00374C0B000D4C0B0059480B003D
:1054AC00FF4B0B00D14B0B00E14B0B00314C0B00B5
:1054BC00F14B0B00C94B0B0000000000000000007A
:1054CC00D14C0B003D4D0B00154D0B0059480B00FA
:1054DC00E54C0B00014D0B00F34C0B000F4D0B007A
:1054EC00D34C0B00D74C0B00000000000000000058
:1054FC00754D0B00BF4D0B00974D0B00774D0B00FE
:10550C009F4D0B00A74D0B00AF4D0B00B74D0B0083
:10551C000000000000000000434E0B00394E0B0051
:10552C002F4E0B00F14D0B0065490B00234E0B0069
:10553C00A14E0B00A94E0B00174E0B000F4E0B008B
:10554C00054E0B00FB4D0B00D94E0B00000000006C
:10555C0000000000614E0B006B4E0B00754E0B00F3
:10556C007F4E0B00894E0B00954E0B00A14E0B008D
:10557C00A94E0B00B14E0B00BD4E0B00C54E0B00DF
:10558C00CF4E0B00D94E0B00005245454E54206DAA
:10559C00616C6C6F6320737563636565646564002F
:1055AC002F6D6E742F776F726B73706163652F77CD
:1055BC006F726B73706163652F4743432D31302DD0
:1055CC00706970656C696E652F6A656E6B696E7358
:1055DC002D4743432D31302D706970656C696E65B4
:1055EC002D34385F32303230313132345F31363035
:1055FC00363138303634312F7372632F6E65776CD9
:10560C0069622F6E65776C69622F6C6962632F73A8
:10561C0074646C69622F72616E642E63000000000A
:10562C003D430B00FD470B0025480B0049480B0080
:10563C0071490B0081490B0095490B004D4E0B0035
:04564C00B14F0B004F
:045650000000000056
:1056540078540B00D8E5032000000000000000008F
:105664000000000000000000000000000000000036
:105674000000000000000000000000000000000026
:105684000000000000000000000000000000000016
:105694000000000000000000000000000000000006
:1056A40000000000000000000000000000000000F6
:0C56B4000000000000000000ECE70320F4
:1056C000FFFFFFFF00000102030405060708090AA7
:1056D0000B0C0D0E0F101112131415161718191AA2
:0856E0001B1C1D1E1F202800E9
:0456E80078563412AA
:04000003B000401CED
:00000001FF
