:02000002B0004C
:1040000000400B00586A0B00000006000C0005027F
:084010000401810C0000000016
:04401800E85D0B0054
:10401C0009480A49884208B505D0094A824202D0AB
:10402C00121A01F029FE0748074A0021121A01F062
:10403C0031FE014808BD00BF0CE20320B4650B0043
:10404C0088E6032088E60320EDE7032070B5074ED1
:10405C00074C01F035FAA41BA4080025AC4200D192
:10406C0070BD56F8043B98470135F7E788650B009F
:10407C00AC650B0000F02CB808B500F043F8BDE8B7
:10408C00084001F0D5B900F0C9BF00F0CFBF000067
:10409C0008B5034A00210C2000F02CFFFEE700BFFE
:1040AC00A14C0B000078B0FA80F040097047012356
:1040BC00037070470EB403B503AB002153F8042B07
:1040CC00019301F040F902B05DF804EB03B07047C6
:1040DC0008B53D220A48022100F010FB01210848D6
:1040EC0000F08DFD064800F099FA0321132001F031
:1040FC00DDFCBDE808400321122001F0D7BC00BF55
:10410C0094E6032010B50F4C204600F00FFA002265
:10411C001146204600F070FD132001F0F1FC0A4915
:10412C0002462046FFF7C6FF122001F0E9FC0749C2
:10413C0002462046FFF7BEFF2046BDE8104000F0C7
:10414C006DBA00BF94E60320FC5D0B00045E0B000F
:10415C0008B5084B0022C3E90022A2F580329A6010
:10416C00022000F0CFFEBDE808400348042100F017
:10417C00C7B900BF88E6032094E60320F0B5457E5E
:10418C00BDF81440022D69D0032D00F09980012D4B
:10419C006CD10589D2432A4412B2002A5DDBB0F9F6
:1041AC000850954259DD0029BEBF5B181BB2002197
:1041BC00B0F90A00CD188542C4BF431A1BB2002BBC
:1041CC004BDDC1F3C400DFF820C102EBC01211F0CB
:1041DC000701DBB20CEB02001AD0C1F10805404E0E
:1041EC00EDB2AB42775D3FBFA5EB030EFF2646FA5F
:1041FC000EF637401CF80260012C0CBF3E43BE4348
:10420C00AB420CF8026028D308390B44DBB2803087
:10421C00072B19D9012C4FF0FF3518BF0025EDB233
:10422C0000F180011A46083AD2B2072A01F8805CE4
:10423C0001F18001F7D8A3F10802C2F3C4020132E4
:10424C0000EBC21003F007033BB1264AD25C0378A3
:10425C00012C0CBF134393430370F0BD4589D2432B
:10426C002A44CD180189491B12B209B2002AF4DB89
:10427C00B0F90A509542F0DD0029BEBF5B181BB2A5
:10428C000021B0F90870CE18BE42C4BF6B1A1BB225
:10429C00002BE2DDD010802510FB051112480144E3
:1042AC0002F0070001228240012CD2B20B440CD147
:1042BC008B42D2D011F8010B104301F8010CF7E737
:1042CC00CD184189491B09B267E7D243D2B28B4260
:1042DC00C3D011F8010B104001F8010CF7E700BF37
:1042EC0014E203200CE203201CE20320F0B5457E0F
:1042FC00BDF81440022D34D0032D00F09B80012D0D
:10430C0037D1D5180289521B12B20029C0F2918004
:10431C00B0F90A508D4240F38C80002ABEBF9B1826
:10432C001BB20022B0F90870D618BE42C4BFAB1A3B
:10433C001BB2002B7DDDC810802510FB05224548E3
:10434C00024401F0070001218140012CC9B2134441
:10435C0075D19A426DD012F8010B084302F8010C8A
:10436C00F7E70589C9432944D5184289521B09B27C
:10437C0012B200295DDBB0F908508D4259DD002ADC
:10438C00BEBF9B181BB20022B0F90A00D51885429B
:10439C00C4BF831A1BB2002B4BDDC2F3C400DFF881
:1043AC00B4C001EBC01112F00702DBB20CEB010040
:1043BC001AD0C2F10805284EEDB2AB42775D3FBF73
:1043CC00A5EB030EFF2646FA0EF637401CF80160EB
:1043DC00012C0CBF3E43BE43AB420CF8016028D30A
:1043EC00083A1344DBB28030072B19D9012C4FF05B
:1043FC00FF3518BF0025EDB200F180011A46083ACE
:10440C00D2B2072A01F8805C01F18001F7D8A3F140
:10441C000802C2F3C402013200EBC21003F007031E
:10442C003BB10E4AD25C0378012C0CBF134393436F
:10443C000370F0BD4589C943294409B265E7C943F6
:10444C00C9B29A42F5D012F8010B084002F8010CDF
:10445C00F7E700BF1CE2032014E203200CE2032068
:10446C0070470000F8B50D1E064614461F462DDB9E
:10447C0000F0CAFBA84229DD002C27DB304600F0F7
:10448C00C6FBA04222DD304600F0BCFB02281ED049
:10449C00032825D0012804D13389E2431A442C4641
:1044AC0015B2002C2246B8BFE21DD210802112FB9F
:1044BC0001550E49012204F007044B5702FA04F48B
:1044CC0064B297420CBF2343A3434B55F8BD3189CB
:1044DC0072890139E4434D1B14442DB224B2E0E738
:1044EC007389013B5B1B25461CB2DAE71CE20320F7
:1044FC0010B524210446FFF7C8FD204610BD00006E
:10450C0038B5402204460D46802100F0A7FA064B30
:10451C002360FF2384F8213063774FF6FF73E38326
:10452C0084F82050204638BD145E0B0002484FF42E
:10453C008062002101F0AEBB1CE2032013B50B4CD2
:10454C002178BFF35B8F11F001010BD12046019153
:10455C00FFF7A8FD019928B1054800F0CBFD2046D6
:10456C00FFF7A5FD024802B010BD00BFB8E603205E
:10457C00BCE6032007B590F8223043B10191FFF758
:10458C00DDFF019903B05DF804EB00F067BE0B464C
:10459C00817F407F012203B05DF804EB01F0C7BAC4
:1045AC0038B590F91D30013304460D461DD090F9F5
:1045BC002100012180B201F08AFA94F91F00002138
:1045CC0080B201F084FA94F92100002180B201F04C
:1045DC007EFA29462046FFF7CDFF94F921000121F0
:1045EC00BDE8384080B201F072BA01F019FB94F9C1
:1045FC001B1001F029F901F013FB036800219B68E3
:10460C00984701F00DFB036829469B68984701F019
:10461C0007FBBDE8384001F01EB90000F8B52121B8
:10462C000446FFF7BDFF00212046FFF7B9FF7F21AD
:10463C002046FFF7B5FF22212046FFF7B1FF0021EE
:10464C002046FFF7ADFF07212046FFF7A9FF94F99D
:10465C001D30294F01332AD094F92100012180B259
:10466C0001F035FA94F91F00012180B201F02FFA04
:10467C0094F92100002180B201F029FA012000F008
:10468C0009FB4FF48065013D17F8011B2046ADB2C4
:10469C00FFF770FF002DF6D1012000F0FBFA94F922
:1046AC0021000121BDE8F84080B201F010BA0025CC
:1046BC0001F0B6FA94F91B1001F0C6F801F0B0FA4B
:1046CC00036840219B68984705F11006B6B201F0CB
:1046DC00A7FA0368795D9B6898476B1C9DB2AE4244
:1046EC00F5D101F09DFA01F0B6F8B6F5806F00D166
:1046FC00F8BD3546DCE700BF1CE2032038B590F965
:10470C001D300177013304460D46C27600F0C98096
:10471C0090F91F00012180B201F0C8F994F9210031
:10472C00012180B201F0C2F994F82230002B00F084
:10473C00A68094F92100012180B201F0C8F9FFF79D
:10474C00FDFE012100F0F4FCFFF7F8FE102100F053
:10475C005FFDFFF7F3FE002100F0FEFCFFF7EEFE1D
:10476C0000F0D2FC94F92000012180B201F09EF9F6
:10477C0094F92000012180B201F0A9F9012000F088
:10478C002BFE94F92000002180B201F0A0F90A2040
:10479C0000F022FE94F92000012180B201F097F97B
:1047AC002046AE21FFF7FCFE2046D521FFF7F8FE90
:1047BC0020468021FFF7F4FE2046A821FFF7F0FEEB
:1047CC0020463F21FFF7ECFE2046D321FFF7E8FE01
:1047DC0020460021FFF7E4FE20464021FFF7E0FED3
:1047EC008D212046FFF7DCFE012D0CBF102114217A
:1047FC002046FFF7D5FE20462021FFF7D1FE2046AC
:10480C000021FFF7CDFE2046A121FFF7C9FE20466F
:10481C00C821FFF7C5FE2046DA21FFF7C1FE20466E
:10482C001221FFF7BDFE81212046FFF7B9FE012DB5
:10483C000CBF9F21CF212046FFF7B2FED921204685
:10484C00FFF7AEFE012D0CBF2221F1212046FFF710
:10485C00A7FE2046DB21FFF7A3FE20464021FFF7F1
:10486C009FFE2046A421FFF79BFE2046A621FFF7C2
:10487C0097FE2046AF21BDE83840FFF791BE94F972
:10488C001D00012180B201F011F994F91E000121E3
:10489C0080B201F00BF994F82230002B3FF462AF98
:1048AC0047E701F0BDF900F0C5FF5BE72DE9F04FDC
:1048BC0085B01F46BDF93880BDF83C30A8EB020925
:1048CC00A7EB010AB9F1000FB8BFC9F10009BAF1A1
:1048DC00000FB8BFCAF1000AD14583460C461546F5
:1048EC0004DD3A462C4647460D469046BC4205DD53
:1048FC002A464546904622463C4617463E1BB2B2D7
:10490C000092A8EB050282EAE271A1EBE271C6F318
:10491C00C03202FA86F64545B4BF01224FF0FF3291
:10492C00019176100292BC421CDCDBF80020039350
:10493C00D145D2F81080C7BF294622462A462146C7
:10494C005846C047019A039BB61AB1B236B2002E34
:10495C0005DA029A1544009A56182DB236B2013473
:10496C0024B2E0E705B0BDE8F08F2DE9F347BDF8C0
:10497C002C800768BDF92890CDF800800446FF69AB
:10498C0016468A461D46B8472368CDF8008009F1C3
:10499C00FF323244DF6951462B46204612B2B847EB
:1049AC002368CDF800809F6932464B46514620461D
:1049BC00B8476B1E03EB0A012368CDF828809D696C
:1049CC0032464B4609B22046AC4602B0BDE8F04731
:1049DC00604737B5013B13440468BDF81850019586
:1049EC001BB2009364690B46A04703B030BD37B5CA
:1049FC00BDF818500468CDE90025013B0B446469EF
:104A0C001BB2A04703B030BD2DE9F347BDF9289088
:104A1C00BDF82C80054692460C46CE18B4420BDAF3
:104A2C002B68CDF800809F6921464B46524628469C
:104A3C000134B84724B2F1E702B0BDE8F08713B5F2
:104A4C0002680191B0F90E100091546AB0F90C3063
:104A5C0000221146A04702B010BD704730B542810C
:104A6C00C2814FF0FF320024054D426101224460A7
:104A7C0005600181818104610283827630BD00BFB3
:104A8C0048630B002DE9F04F2DED028B8DB00746DE
:104A9C000491BDF860100591BDF864100691B0F951
:104AAC000C1004989DF86850814252DDB7F90E1035
:104ABC0091424EDD062111FB0504002C49DD02EB71
:104ACC00C504002C45DD03EB83030B9393B20793D2
:104ADC0008339BB2089100240993052C1CBF2C4B66
:104AEC000B9A079E16BF1B1900239B5C0393049A19
:104AFC00ABB20A9304FB05F313FA82F31BB204EB7B
:104B0C00020A08EE103AB0460FFA85F90FFA8AFA43
:104B1C00039BDB072FD5012D3B681FD1D3F810B0B9
:104B2C00059B32B251463846D847039B5B0803932A
:104B3C000A9B01369844099BB6B2B3421FFA88F817
:104B4C00E6D1089B013B013413F0FF0364B20893D8
:104B5C00C3D10DB0BDEC028BBDE8F08F059ACDE949
:104B6C00009218EE101AD3F824B00FFA88F24B46C4
:104B7C003846D847D9E7DDE905239342D5D0012D36
:104B8C003B6803D1D3F810B0069BCAE7069AE6E758
:104B9C00445E0B0030B50A2985B0044607D1027E6D
:104BAC00638A03EBC20363820023238221E00D2975
:104BBC001FD0037E0293C38A0193838A0093B0F9BA
:104BCC0012200B46B0F91010FFF75CFF207E238AF1
:104BDC0000EB400103EB4103A17E1BB20246238292
:104BEC0039B1B4F90C106FF0050505FB00118B42BF
:104BFC00D6DC012005B030BD018242827047C182F3
:104C0C0081827047407E7047B0F90C007047B0F954
:104C1C000E00704708B5024B1B689B68019308BDDA
:104C2C006802030008B5024B1B68DB68019308BDE2
:104C3C006802030008B5024B1B685B68019308BD52
:104C4C002C02030008B5024B1B689B68019308BD3E
:104C5C002C02030008B5024B1B68DB68019308BDEE
:104C6C002C02030008B5024B1B681B69019308BD9D
:104C7C002C02030008B5024B1B681B6B019308BD8B
:104C8C002C02030008B5024B1B685B68019308BD3E
:104C9C001802030008B5024B1B68DB68019308BDC2
:104CAC001802030008B5024B1B685B69019308BD31
:104CBC001802030008B5024B1B685B6C019308BD1E
:104CCC004802030008B5024B1B685B69019308BDE1
:104CDC006402030008B5024B1B68DB68019308BD36
:104CEC003C02030008B5024B1B681B69019308BD0D
:104CFC003C02030008B5024B1B685B69019308BDBD
:104D0C003C02030008B5024B1B689B69019308BD6C
:104D1C003C02030008B5024B1B68DB69019308BD1C
:104D2C003C02030008B5024B1B681B6A019308BDCB
:104D3C003C02030008B5024B1B689B6A019308BD3B
:104D4C003C02030008B5024B1B681B6C019308BDA9
:104D5C003C02030008B5024B1B68DB68019308BDDD
:104D6C002802030008B5024B1B689B69019308BD20
:104D7C002802030008B5024B1B68DB69019308BDD0
:104D8C002802030008B5024B1B681B6A019308BD7F
:104D9C002802030008B5024B1B685B6A019308BD2F
:104DAC002802030008B5024B1B689B6A019308BDDF
:104DBC002802030008B5024B1B68DB6A019308BD8F
:104DCC002802030008B5024B1B681B6B019308BD3E
:104DDC002802030008B5024B1B685B6B019308BDEE
:104DEC002802030008B5024B1B681B6C019308BD1D
:104DFC002802030008B5024B1B681B68019308BD11
:104E0C003002030008B5024B1B689B68019308BD78
:104E1C003002030008B5024B1B68DB68019308BD28
:104E2C003002030008B5024B1B681B69019308BDD7
:104E3C003002030008B5024B1B685B69019308BD87
:104E4C003002030008B5024B1B68DB69019308BDF7
:104E5C003002030008B5024B1B681B6A019308BDA6
:104E6C003002030008B5024B1B685B6A019308BD56
:104E7C003002030008B5024B1B681B6C019308BD84
:104E8C003002030008B5024B1B685B6C019308BD34
:104E9C003002030008B5024B1B681B68019308BD68
:104EAC004C02030008B5024B1B681B69019308BD3B
:104EBC004C02030008B5024B1B685B69019308BDEB
:104ECC004C02030008B5024B1B689B69019308BD9B
:104EDC004C02030008B5024B1B68DB69019308BD4B
:104EEC004C02030008B5024B1B681B6A019308BDFA
:104EFC004C02030008B5024B1B685B6B019308BDA9
:104F0C006002030008B5024B1B685B68019308BD87
:104F1C002002030008B5024B1B685B69019308BDB6
:104F2C002002030008B5034B1B68D3F888300193AB
:104F3C0008BD00002002030008B5034B1B68D3F822
:104F4C009430019308BD00002002030008B5024B09
:104F5C001B685B68019308BD4002030008B5024B57
:104F6C001B689B68019308BD4002030008B5024B07
:104F7C001B68DB68019308BD4002030008B5024BB7
:104F8C001B681B69019308BD4002030008B5024B66
:104F9C001B685B69019308BD4002030008B5024B16
:104FAC001B689B69019308BD4002030008B5024BC6
:104FBC001B68DB69019308BD4002030008B5024B76
:104FCC001B681B6A019308BD4002030008B5024B25
:104FDC001B681B6B019308BD4002030008B5024B14
:104FEC001B685B6B019308BD4002030008B5024BC4
:104FFC001B681B6C019308BD4002030008B5024BF3
:10500C001B685B6C019308BD4002030008B5024BA2
:10501C001B68DB6B019308BD4402030008B5024B0F
:10502C001B681B68019308BD1C02030008B5024BEA
:10503C001B685B68019308BD1C02030008B5024B9A
:10504C001B685B6A019308BD1C02030008B5024B88
:10505C001B681B6C019308BD1C02030008B5024BB6
:10506C001B685B6C019308BD1C02030000224068A6
:10507C001146FFF7A3BF002240681146FFF7AEBFF1
:10508C0040680022FFF7A2BF4068002281F00101B6
:10509C00FFF78CBF002340681A461946FFF77EBF06
:1050AC00002340681A461946FFF770BF002240687B
:1050BC001146FFF763BF002240681146FFF74EBF51
:1050CC00406800220221FFF751BF002340681A46B6
:1050DC00FFF73CBF024B03225A60024A1A6070472A
:1050EC00C4E6032080630B000021FFF7CBBE002138
:1050FC00FFF7C0BE10B5044608462170FFF7A2FEAC
:10510C0000236360204610BD13B504460078FFF7FA
:10511C00EEFF58B9207801904FF6FF71FFF76AFE49
:10512C00019802B0BDE81040FFF7DEBF02B010BD21
:10513C0013B5044600780191FFF7D9FF019948B9DE
:10514C0020780190FFF75EFE019802B0BDE8104098
:10515C00FFF7CABF02B010BD13B504460078019129
:10516C00FFF7C5FF019948B920780190FFF752FE6F
:10517C00019802B0BDE81040FFF7B6BF02B010BDF9
:10518C00400830B51860002418688842E5B206D98A
:10519C000134082C02D040081860F5E70725024BB3
:1051AC005B5D137030BD00BFB4630B002DE9F041A3
:1051BC0088B000230446007802930E461746FFF78A
:1051CC0096FF054600BB94F800800146142203A804
:1051DC0000F060FD0B232A4603A94046ADF80C30C5
:1051EC00FFF740FE04988DF8075002AB0DF1070253
:1051FC0007FB06F1FFF7C4FF20789DF80710FFF7B7
:10520C0011FE2078FFF770FF029808B0BDE8F0811E
:10521C0038B5044600780D46FFF769FF0346D0B950
:10522C00616899B10C4A12F8010B854202D0013326
:10523C00082BF8D10133DBB20122D9402046FFF70D
:10524C00B5FF2078BDE83840FFF74EBF20782946DF
:10525C00FFF7E8FDF5E738BDB4630B0008B500783F
:10526C00FFF7E8FDC0B208BD054B02221A60054BE2
:10527C00054A9A600020C3E90000FFF743BE00BF57
:10528C00D8E60320CCE603200000FFFF02480023F1
:10529C000360FFF70FBD00BFDCE60320F8B5064640
:1052AC000D468F180024BD420CD0336815F8011B35
:1052BC009B6830469847031E01DB1C44F3E7002C27
:1052CC0008BF1C462046F8BD13B50446084659B124
:1052DC00019100F015FD23680199DB680246204618
:1052EC0002B0BDE81040184702B010BD03689B68BF
:1052FC00184738B50D210546FFF7F8FF0A2104467B
:10530C002846FFF7F3FF204438BD30B58BB000239F
:10531C00012A8DF8243098BF0A2209AC0D46B1FB46
:10532C00F2F101FB125303F0FF03092B94BF30334E
:10533C003733DBB2AA4204F8013DEFD92146FFF71F
:10534C00C3FF0BB030BD2DE9F04186B000AF054670
:10535C000E46381D142114463B60FFF76FFE1328D0
:10536C000ED8391D2846FFF7AFFF04461EB128465C
:10537C00FFF7BFFF044420461837BD46BDE8F08157
:10538C0000F1080323F00703E846ADEB030D2246BA
:10539C00411C3B686846FFF751FE69462846FFF7FB
:1053AC0093FF0446C546E1E7002340681A461946B8
:1053BC00FFF7ECBD014B024A1A607047E0E6032090
:1053CC00BC630B00024B1A68024B1A60704700BF9B
:1053DC001CE60320E4E603200021FFF79BBD000040
:1053EC00014B00229A607047E8E60320014B1860DD
:1053FC00704700BF20E6032008B50B4B43B100F00B
:10540C0063F903681B699847002801DDAFF300803E
:10541C00064B43B100F0C8FB03681B699847002892
:10542C0001DDAFF3008008BD0000000000000000AB
:10543C0008B5FFF7E1FFFFF735FC014B186008BD1D
:10544C0040E703200548064A064908B5121A00F041
:10545C0013FC054B054A1A6008BD00BF00F403207D
:10546C0004F40320B0650B0000F403201E1C279AE3
:10547C0007B5002300931A466FF07701FFF75CFD28
:10548C0003B05DF804FB000007B543880A2B08D075
:10549C00502B0BD1094B1B684BB103B05DF804EBDF
:1054AC001847FFF7E5FF03B05DF804FB00230093FA
:1054BC001A466FF07701FFF73FFDF4E7FCE6032097
:1054CC0010B512480021FFF7C9FD114B1A68114B9A
:1054DC009A42114B0CBF012200221A7001D0FFF727
:1054EC00B1FFFFF7CFFB044600F0DCFB0B4B13B115
:1054FC002046AFF3008000210848FFF787FDBDE888
:10550C00104007480021FFF70DBD00BFF9530B00F9
:10551C0000F403201E1C279AF8E60320000000006C
:10552C0095540B00704710B518210446FEF7ADFDDD
:10553C00204610BDF0B5037D062B8DB00E4600F154
:10554C0004074FF0000412D000F1080515F8011DF6
:10555C000A223046FFF7D9FEAF42044419D0002C82
:10556C00F4D02E213046FFF7C1FE0444EEE72F2382
:10557C006A4639460A208DF80040FFF7A3FB6846BF
:10558C0000F0BEFB33680246DB686946304698473C
:10559C00044620460DB0F0BD10B5054B0446112253
:1055AC0040F8043B002100F075FB204610BD00BF05
:1055BC00E4630B000346074A10B543F8042B01F1D2
:1055CC00100251F8044B43F8044B9142F9D10A787C
:1055DC001A7010BDE4630B0010B59DF8084044EA46
:1055EC00032343EA024242EA01610423416003754A
:1055FC0010BD000007B5064B0360CB7800938B7889
:10560C004A780978FFF7E8FF03B05DF804FB00BFA8
:10561C00E4630B00417470477047704708B5002174
:10562C00007CFFF74FFC40EAE07008BD08B5012193
:10563C00007CFFF747FC40EAE07008BD08B5007C31
:10564C00FFF738FC20EAE07008BD08B5007CFFF7D6
:10565C0029FC20EAE07008BD13B50446007C0191DA
:10566C00FFF728FC0028019901DC607C20B1207C2C
:10567C00FFF730FC20EAE07002B010BD007CFFF7B1
:10568C0031BC10B514210446FEF7FFFC204610BDBA
:10569C0010B54FF47A73044608460021C4E901138F
:1056AC00044B23600123207463741146FFF7F2FB53
:1056BC00204610BDF8630B0010B5142204460021DF
:1056CC0000F0E8FA204610BD10B50F4C88B003A8C6
:1056DC00FFF7F2FF2178BFF35B8F11F001010FD1BF
:1056EC0020460191FEF7DEFC019948B103AA074858
:1056FC00FFF7CEFF2046FEF7DAFC054800F0B6FABD
:10570C00024808B010BD00BF00E7032004E70320E7
:10571C0025560B0070474174704708B5007CFFF7A5
:10572C0009FB20EAE07008BD08B5007CFFF7DAFA47
:10573C0020EAE07008BD08B5007CFFF7E3FA40EA08
:10574C00E07008BD08B5007CFFF7D4FA40EAE070C1
:10575C0008BD007CFFF7DEBA37B5457C04462DB199
:10576C00207C03B0BDE83040FFF7B4BA007C019157
:10577C00FFF7E0FA00280199F2DC284603B030BDAF
:10578C0010B514210446FEF780FC204610BD000025
:10579C0010B54FF47A730446084611460022C4E94A
:1057AC000123044B2360012320746374FFF7CAFAAE
:1057BC00204610BD28640B007047F8B50646154608
:1057CC000C468F18BC4206D0336814F8011B9B683A
:1057DC0030469847F6E72846F8BD007C0022FFF7D4
:1057EC00D1BA007C0021FFF7D5BA007C0021FFF76D
:1057FC00D9BA007C0021FFF7DDBA007C0021FFF74D
:10580C00E1BA10B514210446FEF73FFC204610BD4A
:10581C0010B54FF47A73044608460021C4E901130D
:10582C00034B236020741146FFF7DCFA204610BDB1
:10583C0058640B000023007C1A461946FFF78ABAFD
:10584C00007C0022FFF78EBAC9B2FFF7F9BF007CCB
:10585C000022FFF78FBA0121FFF7F9BF0022406841
:10586C001146FFF78BBB002240681146FFF7A6BB21
:10587C00002240681146FFF7B1BB40680022FFF7D9
:10588C00A5BB4068002281F00101FFF78FBB00230C
:10589C0040681A461946FFF781BB00224068114642
:1058AC00FFF75CBB406800220221FFF75FBB0023BF
:1058BC0040681A46FFF74ABB024B04225A60024A60
:1058CC001A60704718E7032080640B0000234068BF
:1058DC001A46FFF73BBB406800220221FFF746BB8C
:1058EC00002240681146FFF739BB00224068114680
:1058FC00FFF744BB002340681A461946FFF746BB26
:10590C00002340681A461946FFF748BB406800213F
:10591C00FFF76CBB40680021FFF770BB40680022AA
:10592C0081F00101FFF742BB40680022FFF74EBB3C
:10593C00002240681146FFF751BB00224068114617
:10594C00FFF73CBB2DE9F04395B014460D460746D6
:10595C00FFF722FE00211C220DA8009100F09AF9FD
:10596C0040230C9320466B460CAA0021FFF75AF9F2
:10597C00044600284BD1024601216868FFF7FEFA65
:10598C000221804622466868FFF7F8FA009E81469D
:10599C002146002E3BD0002939D17368022B03D04D
:1059AC000A2B11D0F669F4E7B8F1000FFAD071693F
:1059BC0006A8043107ADFFF71DFE0FCD3C1D0FC42B
:1059CC002B6823704146EDE7B9F1000FEAD07469FA
:1059DC00102201A800F05EF906238DF8143001ADF9
:1059EC0004F108031834186859682A4603C20833AE
:1059FC00A3421546F7D101A906A807ADFFF7DAFDBA
:105A0C000FCD3C1D0FC42B6823704946CAE7009884
:105A1C00FFF700F9384615B0BDE8F083024B034A96
:105A2C001A6000225A60704720E70320BC640B0008
:105A3C00232813B502D9002002B010BDA0F10B032E
:105A4C00022B1AD8174C2178BFF35B8F11F0010190
:105A5C000BD120460191FEF725FB019928B1124884
:105A6C00FFF748FB2046FEF722FB0F4B1878FFF799
:105A7C00F1F90028DFD10120DEE7012809D800F078
:105A8C00CFF80021007CFFF7A5F980F00100C0B22F
:105A9C00D2E709380128EED800F086F8007CFFF731
:105AAC0041F9F2E7B8E60320BCE60320232838B519
:105ABC0004460D460AD8FF2908D0FFF7B9FF28B1D4
:105ACC0029462046BDE83840FFF7BCB838BD38B58C
:105ADC0004460D46FFF7BEF8FF2810D0062804D860
:105AEC004D2323FA00F0C30709D42046FFF7A0FF8B
:105AFC0028B129462046BDE83840FFF7B3B838BD79
:105B0C000D2810B504469CBF0E34A4B22046FFF7F6
:105B1C008FFF50B103212046FFF78CF8032804D1E6
:105B2C002046BDE81040FFF7A5B8002010BD2DE9B8
:105B3C00F04190461F46072406460D46C4F1070166
:105B4C00B8F1000F12D147FA01F101F00101304612
:105B5C00FFF7BDFF01212846FFF7B9FF00212846BA
:105B6C00FFF7B5FF013CE9D2BDE8F08147FA04F13B
:105B7C00EBE7704738B5044614252A46002100F09F
:105B8C0089F825804025074925812846258200F083
:105B9C006BF804496060284600F066F8E060204627
:105BAC0038BD00BFF0640B0030B50E4D2978BFF343
:105BBC005B8F11F0010487B011D12846FEF772FA01
:105BCC0068B101A8FFF7D6FF01AA21460648FFF7E6
:105BDC00DFFD2846FEF76BFA044800F047F8024850
:105BEC0007B030BD28E703202CE703207F5B0B00B8
:105BFC007047000038B520251423044603608560E7
:105C0C0005610649284600F02FF8044960602846D3
:105C1C0000F02AF8E060204638BD00BFF0640B00AD
:105C2C0030B50E4D2978BFF35B8F11F0010487B0AE
:105C3C0011D12846FEF736FA68B101A8FFF7DAFF52
:105C4C0001AA21460648FFF7E3FD2846FEF72FFA86
:105C5C00044800F00BF8024807B030BD44E70320BD
:105C6C0048E70320FD5B0B00FEF70DBA002301464D
:105C7C001A46184600F04CB80A44914200F1FF3322
:105C8C0000D1704710B511F8014B03F8014F914248
:105C9C00F9D110BD02440346934200D1704703F87A
:105CAC00011BF9E738B5104B1D68AB6B0446B3B953
:105CBC001820FFF7B3F90246A86320B90B4B0C4828
:105CCC004221FFF7C3F90B490B4BC0E900130B4BF7
:105CDC0083600B23838100210120C2E90401AB6B9B
:105CEC0000221C615A6138BD20E60320F1640B00D0
:105CFC0008650B000E33CDAB34126DE6ECDE0500FF
:105D0C00034613F8012B002AFBD1181A01387047EF
:105D1C002DE9F843DFF8B8800646D8F800001F4696
:105D2C000D46914600F056F8254B1C6834B9254CAD
:105D3C001C60254B13B11B68C4F8883063681F2B9B
:105D4C0007DDD8F8000000F047F84FF0FF30BDE851
:105D5C00F8834EB3D4F8880088B91C4B23B9D8F813
:105D6C00000000F038F8F0E74FF48470FFF756F9B4
:105D7C000028F4D00023C0E94033C4F888006368DD
:105D8C0040F8239001229A4000EB8301D0F80031B7
:105D9C001343C0F80031022EC1F8807002BFD0F856
:105DAC0004311343C0F804316368D8F800005A1C5E
:105DBC000233626044F8235000F00EF80020C6E76E
:105DCC00E8E703205CE703200000000029500B00EB
:105DDC0084E6032070477047704700001D400B009D
:105DEC0059400B0081400B0085400B000000000067
:105DFC0046313A2025640A0046323A2025640A00CE
:105E0C0000000000000000006D440B00FD440B007E
:105E1C00A14B0B00A9520B0071440B00B9480B00AD
:105E2C00F9420B0089410B0077490B00154A0B0016
:105E3C004B4A0B00674A0B0000000000003E5B4F12
:105E4C005B3E3E6B4F6B3E1C3E7C3E1C183C7E3CCE
:105E5C00181C577D571C1C5E7F5E1C00183C1800DC
:105E6C00FFE7C3E7FF0018241800FFE7DBE7FF306C
:105E7C00483A060E2629792926407F050507407FDA
:105E8C0005253F5A3CE73C5A7F3E1C1C08081C1C4D
:105E9C003E7F14227F22145F5F005F5F06097F0143
:105EAC007F006689956A606060606094A2FFA2942E
:105EBC0008047E040810207E201008082A1C0808FC
:105ECC001C2A08081E101010100C1E0C1E0C30384A
:105EDC003E3830060E3E0E06000000000000005F4B
:105EEC0000000007000700147F147F14242A7F2A67
:105EFC001223130864623649562050000807030029
:105F0C00001C2241000041221C002A1C7F1C2A0874
:105F1C00083E0808008070300008080808080000D7
:105F2C0060600020100804023E5149453E00427F4B
:105F3C00400072494949462141494D331814127F9A
:105F4C001027454545393C4A49493141211109073A
:105F5C003649494936464949291E000014000000BB
:105F6C00403400000008142241141414141400418D
:105F7C0022140802015909063E415D594E7C12114A
:105F8C00127C7F494949363E414141227F41414182
:105F9C003E7F494949417F090909013E41415173FD
:105FAC007F0808087F00417F41002040413F017F6E
:105FBC00081422417F404040407F021C027F7F0436
:105FCC0008107F3E4141413E7F090909063E41517F
:105FDC00215E7F09192946264949493203017F016F
:105FEC00033F4040403F1F2040201F3F4038403F70
:105FFC00631408146303047804036159494D430086
:10600C007F4141410204081020004141417F0402BC
:10601C000102044040404040000307080020545453
:10602C0078407F2844443838444444283844442831
:10603C007F385454541800087E090218A4A49C7884
:10604C007F0804047800447D40002040403D007FE0
:10605C001028440000417F40007C047804787C08C0
:10606C000404783844444438FC1824241818242494
:10607C0018FC7C08040408485454542404043F4479
:10608C00243C4040207C1C2040201C3C4030403CA8
:10609C0044281028444C9090907C4464544C440008
:1060AC00083641000000770000004136080002016C
:1060BC000204023C2623263C1EA1A161123A404058
:1060CC00207A3854545559215555794121545478D6
:1060DC0041215554784020545579400C1E5272126F
:1060EC0039555555593954545459395554545800F7
:1060FC0000457C410002457D420001457C40F02971
:10610C002429F0F0282528F07C54554500205454BF
:10611C007C547C0A097F4932494949323248484803
:10612C0032324A4848303A4141217A3A424020784A
:10613C00009DA0A07D39444444393D4040403D3C45
:10614C0024FF2424487E4943662B2FFC2F2BFF0968
:10615C0029F620C0887E090320545479410000445C
:10616C007D413048484A32384040227A007A0A0A47
:10617C00727D0D19317D2629292F282629292926BA
:10618C0030484D4020380808080808080808382FFF
:10619C0010C8ACBA2F102834FA00007B0000081489
:1061AC002A142222142A1408AA005500AAAA55AAB5
:1061BC0055AA000000FF00101010FF00141414FF6B
:1061CC00001010FF00FF1010F010F0141414FC005D
:1061DC001414F700FF0000FF00FF1414F404FC1467
:1061EC001417101F10101F101F1414141F00101060
:1061FC0010F0000000001F101010101F10101010D5
:10620C00F010000000FF101010101010101010FFF4
:10621C0010000000FF140000FF00FF00001F10170B
:10622C000000FC04F414141710171414F404F400F4
:10623C0000FF00F714141414141414F700F71414BA
:10624C0014171410101F101F141414F4141010F041
:10625C0010F000001F101F0000001F14000000FCB5
:10626C00140000F010F01010FF10FF141414FF14A1
:10627C001010101F00000000F010FFFFFFFFFFF0D8
:10628C00F0F0F0F0FFFFFF0000000000FFFF0F0F29
:10629C000F0F0F38444438447C2A2A3E147E0202E5
:1062AC000606027E027E0263554941633844443C33
:1062BC0004407E201E2006027E020299A5E7A599C5
:1062CC001C2A492A1C4C7201724C304A4D4D3030FC
:1062DC0048784830BC625A463D3E494949007E01E7
:1062EC0001017E2A2A2A2A2A44445F444440514A06
:1062FC00444040444A51400000FF0103E080FF004D
:10630C000008086B6B083612362436060F090F0688
:10631C00000018180000001010003040FF010100B0
:10632C001F01011E00191D1712003C3C3C3C0000D3
:10633C000000000000000000000000000000000051
:10634C0000000000A14B0B00A9520B009D400B005C
:10635C00B9480B00DF490B00FB490B0077490B00D8
:10636C00154A0B004B4A0B00674A0B00000000005B
:10637C0000000000D7500B00CD500B00C3500B0099
:10638C00B9500B00AD500B00A1500B0019590B006C
:10639C0021590B0095500B008D500B0083500B00B6
:1063AC0079500B0051590B00000810182028303878
:1063BC006170700025592D256D2D25645425483AA2
:1063CC00254D3A2553257A0061736374696D650018
:1063DC00000000000000000041550B0031550B007F
:1063EC0033550B00000000000000000027560B0086
:1063FC008F560B0065560B00A9520B0057560B001D
:10640C0029560B0039560B0089560B0049560B00C8
:10641C0021560B00000000000000000021570B006B
:10642C008D570B0065570B00A9520B0035570B000D
:10643C0051570B0043570B005F570B0023570B00B2
:10644C0027570B000000000000000000C5570B0090
:10645C000F580B00E7570B00C7570B00EF570B00FB
:10646C00F7570B00FF570B0007580B0000000000FC
:10647C0000000000BB580B00B1580B00A7580B00D4
:10648C0069580B00B5530B009B580B0019590B00A6
:10649C0021590B008F580B0087580B007D580B00AF
:1064AC0073580B0051590B00000000000000000055
:1064BC00D9580B00E3580B00ED580B00F7580B00A4
:1064CC0001590B000D590B0019590B0021590B00E8
:1064DC0029590B0035590B003D590B0047590B003E
:1064EC0051590B00005245454E54206D616C6C6F38
:1064FC006320737563636565646564002F6D6E74EA
:10650C002F776F726B73706163652F776F726B731C
:10651C00706163652F4743432D31302D7069706571
:10652C006C696E652F6A656E6B696E732D4743439C
:10653C002D31302D706970656C696E652D34385F46
:10654C0032303230313132345F31363036313830EE
:10655C003634312F7372632F6E65776C69622F6ED0
:10656C0065776C69622F6C6962632F7374646C69F4
:10657C00622F72616E642E63000000005D410B009F
:10658C00E1500B0075520B0099520B00C1530B00DC
:10659C00D1530B00ED530B00C5580B00295A0B00BF
:0465AC0000000000EB
:0465B00000000000E7
:1065B400000103070F1F3F7F0080C0E0F0F8FCFEDE
:1065C40000000000000000000000000000000000C7
:1065D40000000000000000000000000000000000B7
:1065E40000000000000000000000000000000000A7
:1065F4000000000000000000000000000000008017
:106604008080000000000000000000000000000086
:10661400008080C0C00000000000000000000000F6
:106624000000000000000000000000000000000066
:106634000000000000000000000000000000000056
:106644000000000000000000000000000000000046
:106654000000000080C0E0F0F8FCF8E0000000005A
:1066640000000000000000000000000000808080A6
:10667400808000808000000000808080808000FF97
:10668400FFFF000000008080808000008080000008
:1066940080FFFF8080008080008080808000808078
:1066A4000000000000808000008C8E84000080F8D0
:1066B400F8F8800000000000000000000000000066
:1066C400F0F0F0F0F0F0F0F0F0F0F0F0E0E0C08086
:1066D40000E0FCFEFFFFFF7FFFFFFFFFFF00000065
:1066E4000000000000000000000000FEFFC70101E0
:1066F400010183FFFF00007CFEC70101010183FF4C
:10670400FFFF0038FEC78301010183C7FFFF0000BC
:1067140001FFFF010100FFFF0701010100007FFFEE
:1067240080000000FFFF7F0000FFFFFF000001FF6B
:10673400FFFF010000000000000000000000000056
:10674400030F3F7F7FFFFFFFFFFFFFFFE7C7C78FF9
:106754008F9FBFFFFFC3C0F0FFFFFFFFFFFCFCFCE8
:10676400FCFCFCFCFCF8F8F0F0E0C00001030303BF
:1067740003030103030000000001030303030101F9
:1067840003010000000103030303010103030000EC
:1067940000030300000003030000000000000001E8
:1067A40003030303030100000001030100000003CD
:1067B40003010000000000000000000000000000D1
:1067C40000000080C0E0F0F9FFFFFFFFFF3F1F0F54
:1067D40087C7F7FFFF1F1F3DFCF8F8F8F87C7DFF23
:1067E400FFFFFFFFFFFFFF7F3F0F07003030000078
:1067F4000000000000000000000000000000000095
:1068040000000000FEFEFC0000000000000000008C
:1068140000000000000000000000000000E0C000D4
:106824000000000000000000000030300000000004
:106834000000000000000000000000000000000054
:1068440000C0FEFFFFFFFFFFFFFFFFFF7F7F3F1F33
:106854000F071F7FFFFFF8F8FFFFFFFFFFFEF8E0C1
:10686400000000010000000000000000FEFE000027
:1068740000FCFEFC0C06060EFCF80000F0F81C0EF2
:106884000606060CFFFFFF0000FEFE00000000FCF1
:10689400FEFC00183C7E66E6CE84000006FFFF0680
:1068A40006FCFEFC0C0606060000FEFE0000C0F816
:1068B400FC4E4646464E7C7840183C76E6CECC806C
:1068C40000000000000000000000000000000000C4
:1068D4000000000001070F1F1F3F3F3F3F1F0F0332
:1068E4000000000000000000000000000F0F000086
:1068F400000F0F0F000000000F0F000003070E0C25
:1069040018180C060F0F0F0000010F0E0C180C0FB7
:10691400070100040E0C180C0F070000000F0F00F5
:10692400000F0F0F0000000000000F0F0000000711
:10693400070C0C181C0C060600040E0C180C0F0790
:106944000000000000000000000000000000000043
:106954000000000000000000000000000000000033
:106964000000000000000000000000000000000023
:106974000000000000000000000000000000000013
:106984000000000000000000000000000000000003
:1069940000000000000000000000000000000000F3
:1069A40000000000000000000000000000000000E3
:1069B40000000000000000000000000000000000D3
:1069C400D4630B0024E60320000000000000000054
:1069D40000000000000000000000000000000000B3
:1069E40000000000000000000000000000000000A3
:1069F4000000000000000000000000000000000093
:106A04000000000000000000000000000000000082
:106A14000000000000000000000000000000000072
:0C6A24000000000000000000ECE7032070
:106A3000FFFFFFFF00000102030405060708090A23
:106A40000B0C0D0E0F101112131415161718191A1E
:086A50001B1C1D1E1F20280065
:046A58007856341226
:04000003B000401CED
:00000001FF
