:02000002B0004C
:1040000000400B008C740B00000006000C00050241
:084010000401810C0000000016
:0440180004710B0024
:1040200009480A49884208B505D0094A824202D0A7
:10403000121A02F0B5FF0748074A0021121A02F0CF
:10404000BDFF014808BD00BF34E60320F4730B0038
:10405000A4E60320A4E60320EDE7032070B5074E95
:10406000074C00F0F7FEA41BA4080025AC4200D1C9
:1040700070BD56F8043B98470135F7E7CC730B0049
:10408000F0730B0000F022B808B500F02BF8BDE883
:10409000084000F097BE00F003BD00F009BD0078B5
:1040A000B0FA80F0400970470123037070470EB4E6
:1040B00003B503AB002153F8042B019300F0CDFDB1
:1040C00002B05DF804EB03B07047000008B5044887
:1040D00000F00CF9BDE808400148022100F02AB9BF
:1040E000B0E6032010B52DED028B21488CB000F016
:1040F0003BFA1F4800F0FEFADFED1E7ACDED0A0A0A
:10410000B4EEE70AF1EE10FAB0EE408A8DED0B1A2C
:1041100023DD00F0A3FF1849FFF7C9FF00F09EFF61
:10412000044618EE100A02F0DDFB02460B460B981F
:10413000CDE9042302F0D6FBCDE902010A9802F092
:10414000D1FBDDE90423CDE900010C492046FFF74E
:10415000AEFF0CB0BDEC028B10BDDFED097AB4EE02
:10416000E70AF1EE10FAD9D500F078FF0549D3E758
:10417000B0E603200000C84318710B0032710B0039
:104180000000C8C325710B0008B5084B0022C3E925
:104190000022A2F580329A60022000F0FDFBBDE80B
:1041A00008400348682100F09FB800BFA4E6032040
:1041B000B0E6032013B51B2204460178012301A8B1
:1041C00000F0D3FA01A800F0EFFAC0F3C013A37017
:1041D000C0F38013E370C0F340132371C0F3C10335
:1041E000637101A800F0ADFA02B010BD13B5C47838
:1041F00083780178A40144EAC314037944EA4314A0
:10420000437944EAC3041B22E4B201A800F087FA10
:10421000214601A800F09EFA01A800F092FA02B02F
:1042200010BD13B51C2204460178012301A800F03B
:104230009CFA01A800F0B8FAC0F3C013A371C0F350
:104240008013E371C0F340132372C0F3C1036372A0
:1042500001A800F076FA02B010BD13B5382201783B
:104260000446012301A800F080FA01A800F09CFA9E
:10427000C0F30013A372C0F3C003E37200F00103A4
:10428000237301A800F05DFA02B010BD13B56B22D4
:1042900004460178012301A800F067FA01A800F0A4
:1042A00083FAC0F3C0136373C0F38013A373C0F326
:1042B0004013E373C0F3C003237400F00703637477
:1042C00001A800F03EFA02B010BD10B50446FFF799
:1042D00071FF2046FFF7A5FF2046FFF7D7FF2046D6
:1042E000BDE81040FFF7B9BF0170704713B5044631
:1042F00001F0E8F800F09FFF40B900F0AFFE0C4974
:10430000FFF7D5FE01F0DEF800F05EFF2046FFF774
:10431000DCFF6B22217801A800F001FA002101A83E
:1043200000F018FA01A800F00CFA02B010BD00BFAE
:104330005A710B00032910B50C4606D900F08EFE09
:1043400004492246FFF7B3FE10BD4171BDE810409D
:10435000FFF74CBF73710B00F7B50E461546017899
:104360003B221C4601A8062300F0FFF901A800F03B
:104370001BFA074601A800F017FA40EA0720308030
:1043800001A800F011FA064601A800F00DFA40EA73
:104390000620288001A800F007FA054601A800F0D1
:1043A00003FA40EA0520208001A800F0CAF903B012
:1043B000F0BDF7B50E461546017843221C4601A80C
:1043C000062300F0D2F901A800F0EEF9074601A893
:1043D00000F0EAF940EA0720308001A800F0E4F993
:1043E000064601A800F0E0F940EA0620288001A86E
:1043F00000F0DAF9054601A800F0D6F940EA0520F8
:10440000208001A800F09DF903B0F0BD000000007D
:10441000F0B52DED088B044683B00F4616461D46B9
:1044200001AA0DF106030DF10201FFF795FF607A75
:1044300002F036FA9FED460B41EC110B01F068F8E3
:1044400053EC102B10EE100A194602F0EDF802F0B2
:1044500051FD044680F0004002F044FA41EC180B94
:10446000204602F03FFA41EC190BBDF9020007EEBD
:10447000900AF8EEE77A9FED38BB17EE900A02F04B
:1044800031FAB0EE494AF0EE694AB0EE483AF0EE41
:10449000683A9FED33ABB0EE4B2AF0EE6B2AB0EEEC
:1044A0004A1AF0EE6A1A41EC100B00F01FFC51ECB6
:1044B000100B02F01FFD3860BDF9040007EE900AF2
:1044C000F8EEE77A17EE900A02F00CFAB0EE494ADD
:1044D000F0EE694AB0EE483AF0EE683AB0EE4B2A98
:1044E000F0EE6B2AB0EE4A1AF0EE6A1A41EC100BAD
:1044F00000F0FCFB51EC100B02F0FCFC3060BDF94D
:10450000060007EE900AF8EEE77A17EE900A02F03E
:10451000E9F9B0EE494AF0EE694AB0EE483AF0EEF9
:10452000683AB0EE4B2AF0EE6B2AB0EE4A1AF0EE83
:104530006A1A41EC100B00F0D9FB51EC100B02F0A1
:10454000D9FC286003B0BDEC088BF0BDAFF3008050
:10455000000000000000004000000000C0FFDF403D
:1045600000000000C0FFDFC010B58AB004AC06AB8D
:1045700005AA2146FFF74CFF94E807000AAB03E9C0
:1045800007009DED070ADDED080A9DED091A0AB046
:1045900010BD000000000000F0B52DED088B0446B2
:1045A00083B00F4616461D4601AA0DF106030DF114
:1045B0000201FFF7FEFE607902F072F99FED460BF3
:1045C00041EC110B00F0A4FF494B002251EC100B01
:1045D00002F0E0F902F08EFC044680F0004002F0A8
:1045E00081F941EC180B204602F07CF941EC190BE3
:1045F000BDF9020007EE900AF8EEE77A9FED38BBAE
:1046000017EE900A02F06EF9B0EE494AF0EE694AF0
:10461000B0EE483AF0EE683A9FED33ABB0EE4B2A7D
:10462000F0EE6B2AB0EE4A1AF0EE6A1A41EC100B6B
:1046300000F05CFB51EC100B02F05CFC3860BDF943
:10464000040007EE900AF8EEE77A17EE900A02F0FF
:1046500049F9B0EE494AF0EE694AB0EE483AF0EE58
:10466000683AB0EE4B2AF0EE6B2AB0EE4A1AF0EE42
:104670006A1A41EC100B00F039FB51EC100B02F000
:1046800039FC3060BDF9060007EE900AF8EEE77AD3
:1046900017EE900A02F026F9B0EE494AF0EE694AA8
:1046A000B0EE483AF0EE683AB0EE4B2AF0EE6B2AE4
:1046B000B0EE4A1AF0EE6A1A41EC100B00F016FB4D
:1046C00051EC100B02F016FC286003B0BDEC088B17
:1046D000F0BD00BFAFF3008000000000000000400C
:1046E00000000000C0FFDF4000000000C0FFDFC08E
:1046F00000406F4010B58AB004AC06AB05AA214655
:10470000FFF74AFF94E807000AAB03E907009DEDB5
:10471000070ADDED080A9DED091A0AB010BD37B58C
:1047200015460446019100F0CDFE019900F07BFD95
:1047300000F0C8FE036829469B689847204603B0EE
:1047400030BD10B5044600F0BDFE012100F06FFD44
:10475000204610BD07B5019100F0B4FE0368019931
:104760009B6803B05DF804EB184773B50C4616461A
:104770000193054600F0A6FE214600F054FD00F02E
:10478000A1FE036831469B68984700F09BFE00211C
:1047900000F04DFD00F096FE019A0023214600F046
:1047A00030FD284602B070BD08B500F08BFE0368EE
:1047B0005B699847C0B208BD08B5024B1B689B688F
:1047C000019308BD6802030008B5024B1B68DB6853
:1047D000019308BD6802030008B5024B1B685B68C3
:1047E000019308BD1802030008B5024B1B685B6902
:1047F000019308BD1802030008B5024B1B685B6CEF
:10480000019308BD4802030008B5024B1B685B69B1
:10481000019308BD6402030008B5024B1B68DB6806
:10482000019308BD3C02030008B5024B1B681B69DD
:10483000019308BD3C02030008B5024B1B685B698D
:10484000019308BD3C02030008B5024B1B689B693D
:10485000019308BD3C02030008B5024B1B68DB69ED
:10486000019308BD3C02030008B5024B1B689B6A1C
:10487000019308BD3C02030008B5024B1B681B6C8A
:10488000019308BD3C02030008B5024B1B68DB68BE
:10489000019308BD2802030008B5024B1B689B6901
:1048A000019308BD2802030008B5024B1B68DB69B1
:1048B000019308BD2802030008B5024B1B681B6A60
:1048C000019308BD2802030008B5024B1B685B6A10
:1048D000019308BD2802030008B5024B1B689B6AC0
:1048E000019308BD2802030008B5024B1B68DB6A70
:1048F000019308BD2802030008B5024B1B681B6B1F
:10490000019308BD2802030008B5024B1B685B6BCE
:10491000019308BD2802030008B5024B1B681B6CFD
:10492000019308BD2802030008B5024B1B681B6DEC
:10493000019308BD2802030008B5024B1B681B68E1
:10494000019308BD4C02030008B5024B1B681B69AC
:10495000019308BD4C02030008B5024B1B685B695C
:10496000019308BD4C02030008B5024B1B689B690C
:10497000019308BD4C02030008B5024B1B68DB69BC
:10498000019308BD4C02030008B5024B1B681B6A6B
:10499000019308BD4C02030008B5024B1B685B681D
:1049A000019308BD2002030008B5034B1B68D3F830
:1049B0008830019308BD00002002030008B5034BB6
:1049C0001B68D3F89430019308BD00002002030057
:1049D00008B5024B1B685B68019308BD40020300E9
:1049E00008B5024B1B689B68019308BD4002030099
:1049F00008B5024B1B68DB68019308BD4002030049
:104A000008B5024B1B681B69019308BD40020300F7
:104A100008B5024B1B685B69019308BD40020300A7
:104A200008B5024B1B689B69019308BD4002030057
:104A300008B5024B1B68DB69019308BD4002030007
:104A400008B5024B1B681B6A019308BD40020300B6
:104A500008B5024B1B681B6B019308BD40020300A5
:104A600008B5024B1B685B6B019308BD4002030055
:104A700008B5024B1B681B6C019308BD4002030084
:104A800008B5024B1B685B6C019308BD4002030034
:104A900008B5024B1B68DB6B019308BD44020300A1
:104AA00008B5024B1B681B68019308BD1C0203007C
:104AB00008B5024B1B685B68019308BD1C0203002C
:104AC00008B5024B1B685B6A019308BD1C0203001A
:104AD00008B5024B1B68DB6B019308BD1C02030089
:104AE00008B5024B1B681B6C019308BD1C02030038
:104AF00008B5024B1B685B6C019308BD1C020300E8
:104B0000002240681146FFF79BBF00224068114613
:104B1000FFF7A6BF40680022FFF79ABF4068002257
:104B200081F00101FFF784BF002340681A4619464F
:104B3000FFF776BF002340681A461946FFF768BFA3
:104B4000002240681146FFF75BBF00224068114613
:104B5000FFF746BF406800220221FFF749BF00234C
:104B600040681A46FFF734BF024B03225A60024ADC
:104B70001A607047C4E60320B8710B00054B02228F
:104B80001A60054B054A9A600020C3E90000FFF750
:104B900003BF00BFD8E60320CCE603200000FFFFE0
:104BA000024800230360FFF727BE00BFDCE60320B6
:104BB000F8B506460D468F180024BD420CD0336868
:104BC00015F8011B9B6830469847031E01DB1C4407
:104BD000F3E7002C08BF1C462046F8BD13B5044679
:104BE000084659B1019102F01FFA23680199DB6868
:104BF0000246204602B0BDE81040184702B010BD82
:104C000003689B68184738B50D210546FFF7F8FF84
:104C10000A2104462846FFF7F3FF204438BD30B58B
:104C20008BB00023012A8DF8243098BF0A2209ACEA
:104C30000D46B1FBF2F101FB125303F0FF03092B08
:104C400094BF30333733DBB2AA4204F8013DEFD9C9
:104C50002146FFF7C3FF0BB030BD2DE9F04186B010
:104C600000AF05460E46381D142114463B60FFF781
:104C700027FF13280ED8391D2846FFF7AFFF04463B
:104C80001EB12846FFF7BFFF044420461837BD4633
:104C9000BDE8F08100F1080323F00703E846ADEB1F
:104CA000030D2246411C3B686846FFF709FF694631
:104CB0002846FFF793FF0446C546E1E70023406816
:104CC0001A461946FFF7A4BE014B024A1A60704704
:104CD000E0E60320EC710B00024B1A68024B1A60ED
:104CE000704700BF34E60320E4E603202DE9F04FCF
:104CF00055EC114B57EC126B85B011EE102A12EEE9
:104D0000100A2B4639468DED020B8DED004B5BEC06
:104D100013AB02F0A7F89DED020B38BB51EC100B62
:104D200022462B4601F07EFC5246804689465B4671
:104D3000DDE9000101F076FC02460B46404649469B
:104D400001F028FE2246804689462B4630463946E9
:104D500001F068FC02460B464046494601F044FF1C
:104D600052465B4601F060FC41EC100B05B0BDE81B
:104D7000F08F0000014B00229A607047E8E60320A4
:104D8000014B1860704700BF3CE6032008B50B4B91
:104D900043B100F063F903681B699847002801DDFF
:104DA000AFF30080064B43B100F050FB03681B6972
:104DB0009847002801DDAFF3008008BD0000000027
:104DC0000000000008B5FFF7E1FFFFF70DFD014B04
:104DD000186008BD40E703200548064A064908B5A3
:104DE000121A02F0DDF8054B054A1A6008BD00BF33
:104DF00000F4032004F40320F0730B0000F40320FC
:104E00001E1C279A07B5002300931A466FF07701FE
:104E1000FFF7D4FD03B05DF804FB000007B543883D
:104E20000A2B08D0502B0BD1094B1B684BB103B098
:104E30005DF804EB1847FFF7E5FF03B05DF804FBEE
:104E4000002300931A466FF07701FFF7B7FDF4E7F0
:104E5000FCE6032010B512480021FFF749FE114B74
:104E60001A68114B9A42114B0CBF012200221A7092
:104E700001D0FFF7B1FFFFF7AFFC044602F0A6F840
:104E80000B4B13B12046AFF3008000210848FFF719
:104E9000FFFDBDE8104007480021FFF785BD00BFBA
:104EA000814D0B0000F403201E1C279AF8E6032016
:104EB000000000001D4E0B00704710B5182104467D
:104EC000FFF7EBF8204610BDF0B5037D062B8DB043
:104ED0000E4600F104074FF0000412D000F108055F
:104EE00015F8011D0A223046FFF799FEAF4204442F
:104EF00019D0002CF4D02E213046FFF781FE044457
:104F0000EEE72F236A4639460A208DF80040FFF766
:104F10007BFC684602F088F833680246DB68694625
:104F200030469847044620460DB0F0BD10B5054BFD
:104F30000446112240F8043B002102F03FF82046CD
:104F400010BD00BF14720B000346074A10B543F8AA
:104F5000042B01F1100251F8044B43F8044B914229
:104F6000F9D10A781A7010BD14720B0010B59DF8B3
:104F7000084044EA032343EA024242EA016104236F
:104F80004160037510BD000007B5064B0360CB7888
:104F900000938B784A780978FFF7E8FF03B05DF853
:104FA00004FB00BF14720B004174704770477047D8
:104FB00008B50021007CFFF7D7FC40EAE07008BD8F
:104FC00008B50121007CFFF7CFFC40EAE07008BD86
:104FD00008B5007CFFF7C0FC20EAE07008BD08B50A
:104FE000007CFFF7B1FC20EAE07008BD13B5044671
:104FF000007C0191FFF7B0FC0028019901DC607C86
:1050000020B1207CFFF7B8FC20EAE07002B010BDB0
:10501000007CFFF7B9BC10B514210446FFF73DF83A
:10502000204610BD10B54FF47A730446084600219F
:10503000C4E90113044B23600123207463741146F7
:10504000FFF77AFC204610BD28720B0010B5142221
:105050000446002101F0B2FF204610BD10B50F4CF0
:1050600088B003A8FFF7F2FF2178BFF35B8F11F040
:1050700001010FD120460191FFF711F8019948B1C4
:1050800003AA0748FFF7CEFF2046FFF70DF80548B3
:1050900001F080FF024808B010BD00BF00E7032008
:1050A00004E70320AD4F0B0070474174704708B50B
:1050B000007CFFF7D9FB20EAE07008BD08B5007C52
:1050C000FFF7B2FB20EAE07008BD08B5007CFFF7EF
:1050D000BBFB40EAE07008BD08B5007CFFF7ACFB05
:1050E00040EAE07008BD007CFFF7B6BB37B5457CF1
:1050F00004462DB1207C03B0BDE83040FFF78CBBE7
:10510000007C0191FFF7B0FB00280199F2DC2846F2
:1051100003B030BD10B514210446FEF7BEFF204693
:1051200010BD000010B54FF47A73044608461146CE
:105130000022C4E90123044B23600123207463741B
:10514000FFF79AFB204610BD58720B007047F8B568
:10515000064615460C468F18BC4206D0336814F834
:10516000011B9B6830469847F6E72846F8BD007C4F
:105170000022FFF7A1BB007C0021FFF7A5BB007C4C
:105180000021FFF7A9BB007C0021FFF7ADBB007C2D
:105190000021FFF7B1BB10B514210446FEF77DFFD7
:1051A000204610BD10B54FF47A730446084600211E
:1051B000C4E90113034B236020741146FFF7ACFBD5
:1051C000204610BD88720B000023007C1A46194649
:1051D000FFF75ABB7FB500221423CDE90122ADF8B9
:1051E00004300B788DF808304B680393CB68049338
:1051F000007C0B7A059301A9FFF796FB07B05DF8D9
:1052000004FB1FB5003B8DF800104FF064010391C3
:1052100018BF0123694601928DF80830FFF7DAFFC5
:1052200005B05DF804FB007C0022FFF735BB007C75
:105230000022FFF739BB007C0021FFF765BB00228D
:1052400040681146FFF7DCBB002240681146FFF7BB
:10525000F7BB002240681146FFF702BC40680022FD
:10526000FFF7F6BB4068002281F00101FFF7E0BBC9
:10527000002340681A461946FFF7D2BB0022406857
:105280001146FFF7ADBB406800220221FFF7B0BB1B
:10529000002340681A46FFF79BBB0000024B042224
:1052A0005A60024A1A60704718E70320B0720B0078
:1052B000002340681A46FFF78BBB4068002202219A
:1052C000FFF796BB002240681146FFF789BB00221A
:1052D00040681146FFF794BB002340681A46194600
:1052E000FFF796BB002340681A461946FFF798BBA4
:1052F00040680021FFF7BCBB40680021FFF7C0BB3E
:105300004068002281F00101FFF792BB4068002253
:10531000FFF79EBB002240681146FFF7A1BB0022A9
:1053200040681146FFF78CBB2DE9F04395B0144659
:105330000D460746FFF7FAFD00211C220DA800913B
:1053400001F03CFE40230C9320466B460CAA002142
:10535000FFF73AFA044600284BD10246012168685B
:10536000FFF74EFB0221804622466868FFF748FBA4
:10537000009E81462146002E3BD0002939D173681A
:10538000022B03D00A2B11D0F669F4E7B8F1000F15
:10539000FAD0716906A8043107ADFFF7F5FD0FCD0E
:1053A0003C1D0FC42B6823704146EDE7B9F1000F97
:1053B000EAD07469102201A801F000FE06238DF8DE
:1053C000143001AD04F108031834186859682A46EE
:1053D00003C20833A3421546F7D101A906A807ADB9
:1053E000FFF7B2FD0FCD3C1D0FC42B68237049465B
:1053F000CAE70098FFF7E0F9384615B0BDE8F0833A
:10540000024B034A1A6000225A60704720E70320CB
:10541000EC720B007047000038B5044614252A468C
:10542000002101F0CBFD2580402507492581284634
:10543000258200F06BF804496060284600F066F8A9
:10544000E060204638BD00BF20730B0030B50E4D24
:105450002978BFF35B8F11F0010487B011D1284682
:10546000FEF71DFE68B101A8FFF7D6FF01AA21468D
:105470000648FFF757FE2846FEF716FE044801F0DF
:1054800089FD024807B030BD28E703202CE7032040
:1054900015540B007047000038B52025142304462E
:1054A0000360856005610649284600F02FF804492D
:1054B0006060284600F02AF8E060204638BD00BF52
:1054C00020730B0030B50E4D2978BFF35B8F11F0C0
:1054D000010487B011D12846FEF7E1FD68B101A8AB
:1054E000FFF7DAFF01AA21460648FFF75BFE2846D0
:1054F000FEF7DAFD044801F04DFD024807B030BD6B
:1055000044E7032048E7032095540B00FEF7C3BD92
:10551000F8B52DED028B57EC106B55EC114B00F0EC
:10552000CBF8634BB0EE408AF0EE608A93F900301E
:1055300001332AD022462B462046294601F0C4FCDE
:1055400018BB32463B463046394601F0BDFC0028C8
:1055500044D1002200233046394601F083FCD8B103
:10556000002200232046294601F07CFC00283DD182
:1055700045EC104B00F010FF38B1204629460022C0
:10558000002301F079FC00285CD1B0EE480AF0EE6F
:10559000680ABDEC028BF8BDB0EE480AF0EE680A6E
:1055A00000F0FAFE58B351EC180B0022002301F072
:1055B00059FC0028E9D047EC106B00F0EDFE002804
:1055C000E3D045EC104B00F0E7FE0028DDD0FFF7FC
:1055D0007FFA22239FED2E8B0360D6E720462946D3
:1055E0000022002301F03EFC0028CED09FED2A8B44
:1055F000B0EE480AF0EE680ABDEC028BF8BD47EC4D
:10560000106B00F0C9FE0028CDD045EC104B00F027
:10561000C3FE0028C7D053EC182B18EE100A194609
:1056200001F052FC20BBFFF753FA034622221A6016
:10563000304639460022002301F01EFC48B99FED98
:10564000188BA2E7FFF744FA21239FED178B036025
:105650009BE745EC104B00F0B3FE224651EC100BDB
:105660002B4601F0FFFB0028E9D19FED0F8B8CE763
:10567000FFF72EFA0022002321210160104619466F
:1056800001F0B2FA41EC180B7FE700BFAFF30080E6
:105690000000000000000000000000000000F03FDB
:1056A000000000000000F07F000000000000F0FF9C
:1056B00038E60320000000002DE9F04F57EC116B95
:1056C0002DED0C8B27F0004A5AEA060287B03DD038
:1056D00055EC104B724925F00048884510EE102A11
:1056E000A9462CDC11EE103ABB4636D08A4526DCA2
:1056F0006B498A4521D0B9F1000F39DB00210091B7
:10570000002B51D1664B9A4500F0A280654B9A451B
:1057100000F0B080BBF1804F00F0C084624B9B452D
:1057200042D1B9F1000F3FDB45EC104B07B0BDECA7
:105730000C8BBDE8F04F00F059BD002BDBD008F119
:10574000404808F5801858EA020309D19FED500B34
:1057500007B0BDEC0C8BBDE8F08F0CB9C245C7DDBE
:10576000524807B0BDEC0C8BBDE8F04F00F020BEF6
:105770004F498A4500F38580A1F154718A450FDDB8
:105780004FEA2A51A1F2FF31142940F39B84C1F161
:10579000340123FA01F000FA01F1994200F0ED849E
:1057A00000210091002BB1D045EC104B029200F08B
:1057B000E9FD029A5ABBB8F1000F04D0394B29F029
:1057C00040429A4223D1BBF1000F07DA53EC102B71
:1057D0003449002001F008FA41EC100BB9F1000F38
:1057E000B6DA009B08F1404808F5801858EA030330
:1057F00040F08D8453EC102B1046194600F012FF38
:1058000002460B4601F0F0F941EC100BA0E7009ABC
:105810004FEAD973013B0493134335D0254B9A4586
:105820004CDD03F104739A45234B40F3DB83984529
:1058300040F36083BBF1000F40F3608316A3D3E90C
:1058400000231046194601F0A5F841EC100B7FE744
:1058500008F1404303F5801313433FF477AF164B31
:10586000984540F37A83BBF1000FC0F2478347ECC1
:10587000106B6DE7BBF1000FC0F21A8445EC104BC2
:1058800066E7022100913BE722462B46B4E700BFC2
:10589000000000000000F03F9C7500883CE4377E6B
:1058A0000000F07F0000F03F0000E03F24730B0099
:1058B000FFFF3F430000E041FFFFEF3FE44B09EAF9
:1058C0000303002253B951EC100BE24B01F062F8D4
:1058D00041EC100B10EE908A6FF034024FEA28531F
:1058E000A3F2FF339A18DC4B0592C8F3130848F073
:1058F0007F54984544F4401407DDD84B984540F355
:10590000148401320592A4F580149FEDB96B9FEDCC
:10591000BA7B53EC162BB0EE47CAF0EE67CA0025EF
:10592000B0EE47DAF0EE67DA5BEC10ABA346504618
:10593000594643EC1A2B00F075FE53EC1A2B8046A7
:1059400089465046594600F06FFE02460B4600203D
:10595000C34901F049F941EC1B0B404653EC1B2BAA
:10596000494601F017F841EC180B0A460146CDE90B
:1059700002120021029164104BEC19AB44F0005468
:10598000DDE902AB04F500230020591904460D4659
:1059900002460B465046594600F0FCFF02460B46B5
:1059A0004046494600F03EFE53EC1A2B804689469D
:1059B0002046294600F036FE02460B4651EC190BF4
:1059C00000F030FE52465B4600F0E4FF02460B4614
:1059D0004046494600F026FE53EC1B2B00F0DAFF50
:1059E00053EC182B41EC190B51EC180B00F0D2FFC3
:1059F00083A3D3E9002304460D4600F0CBFF82A326
:105A0000D3E9002300F010FE22462B4600F0C2FF2F
:105A10007FA3D3E9002300F007FE22462B4600F0C7
:105A2000B9FF7DA3D3E9002300F0FEFD22462B46FB
:105A300000F0B0FF7AA3D3E9002300F0F5FD224681
:105A40002B4600F0A7FF78A3D3E9002300F0ECFD7C
:105A50002246804689462B462046294600F09AFF7A
:105A600002460B464046494600F094FF5246044623
:105A70000D465B4651EC180B00F0D6FD53EC192B8C
:105A800000F088FF22462B4600F0CEFD52468046AD
:105A900089465B465046594600F07CFF02460B465D
:105AA00043EC1A2B6F4B002200F0BEFD42464B46E2
:105AB00000F0BAFD00240D4622462B4650465946BA
:105AC00000F068FF674B82468B460022204629463D
:105AD00000F0A8FD53EC1A2B00F0A4FD02460B4683
:105AE0004046494600F09EFD53EC182B00F052FF53
:105AF00022462B4604460D4651EC190B00F04AFF96
:105B000002460B462046294600F08EFD8046894617
:105B100042464B465046594600F086FD44A3D3E921
:105B20000023002004460D4600F034FF524641ECAD
:105B3000190B5B462046294600F074FD02460B46D1
:105B40004046494600F06EFD3BA3D3E9002300F038
:105B500021FF02460B462046294614461D4638A31F
:105B6000D3E9002300F016FF02460B4620462946E3
:105B700000F05AFD53EC1D2B00F056FD80460598B1
:105B8000894600F09DFE424682468B464B4651ECCC
:105B9000190B00F049FD53EC1C2B00F045FD52465B
:105BA0005B4600F041FD52465B46002004460D4630
:105BB00000F038FD53EC1C2B00F034FD53EC192B96
:105BC00000F030FD02460B464046494600F02AFDF3
:105BD000009B049A013B134382468B4640F0B681FA
:105BE0009FED197BB0EE478AF0EE678A3CE000BF7C
:105BF000000000000000F03F000000000000000076
:105C0000EF4E454A287ECA3F65DBC9934A86CD3FA1
:105C100001411DA96074D13F4D268F515555D53F87
:105C2000FFAB6FDBB66DDB3F033333333333E33F1F
:105C3000000000E009C7EE3FFD033ADC09C7EE3F74
:105C4000F5015B14E02F3EBE000000000000F0BF35
:105C50000000F07F000040438E98030079B60B00EF
:105C60000000F03F000008400023CDE900670093EA
:105C7000DDE90089304642464B46394600F0D2FC09
:105C800022462B4600F086FE32463B4606460F462D
:105C90005046594600F07EFE02460B4630463946D5
:105CA00000F0C2FC42464B4606460F4620462946B7
:105CB00000F070FE04460D462B463046394622461B
:105CC00000F0B2FCC24B9942804689468A4640F3B6
:105CD000188101F13F4303F5E003034340F00782DD
:105CE000A3A3D3E900233046394600F09DFC0246C9
:105CF0000B46404649469046994622462B4600F0C0
:105D000091FC02460B464046494601F0D3F8002874
:105D100040F0ED81CAF30A534FF48012A3F2FE3330
:105D200042FA03F35344AB49C3F30A52A2F2FF32DF
:105D300041FA02FCC3F3130141F48011C2F11402D1
:105D400041FA02F2002023EA0C01BAF1000F00929E
:105D50000B46024602DA0099494200912046294644
:105D600000F060FC009B1B05029302460B460446B4
:105D70000D463046394600F057FC89464FF0000882
:105D80007DA3D3E900234046494600F003FE2246A6
:105D90002B4682468B464046494600F043FC02466D
:105DA0000B463046394600F03DFC75A3D3E900238D
:105DB00000F0F0FD74A3D3E9002304460D464046ED
:105DC000494600F0E7FD02460B462046294600F012
:105DD0002BFC06460F4632463B465046594600F0DD
:105DE00023FC52465B4604460D4600F01BFC02466F
:105DF0000B463046394600F015FC2246804689465F
:105E00002B462046294600F0C5FD61A3D3E90023B7
:105E100006460F4600F0BEFD5FA3D3E9002300F065
:105E200001FC32463B4600F0B5FD5DA3D3E90023FB
:105E300000F0FAFB32463B4600F0ACFD5AA3D3E932
:105E4000002300F0EFFB32463B4600F0A3FD58A3D1
:105E5000D3E9002300F0E8FB32463B4600F09AFD10
:105E600002460B462046294600F0DCFB06460F465C
:105E700032463B462046294600F08CFD02460B4642
:105E80003046394616461F4600224FF0804300F048
:105E9000C9FB02460B463046394600F0A5FE424695
:105EA00006460F464B462046294600F073FD424603
:105EB0004B4600F0B9FB02460B463046394600F02F
:105EC000B1FB22462B4600F0ADFB02460B460020FC
:105ED000414900F0A7FB029A0B461344B3F5801F1B
:105EE000C0F24381194653EC182B00F053FD41ECEE
:105EF000100B2DE4BBF1000FFFF6A0AC9FED2E0BB5
:105F000026E4DFF8DCC021F00043634540F3E7807E
:105F1000324B0B4403430AD122462B4600F082FB4E
:105F200032463B4600F0BCFF00283FF4F3AE24A30A
:105F3000D3E9002351EC180B00F02CFD20A3D3E98A
:105F4000002300F027FD41EC100B01E49FED1E7BC8
:105F5000B0EE478AF0EE678A86E6BBF1000FCDDA35
:105F600007F1004300EE106A00EE903AFFF7F0BB35
:105F7000FE822B654715973C00000000432EE63F4C
:105F8000EF39FAFE422EE63F396CA80C615C20BE68
:105F9000D0A4BE726937663EF16BD2C541BDBB3E2F
:105FA0002CDE25AF6A56113F93BDBE166CC1663F0D
:105FB0003E5555555555C53F0000000000000000F6
:105FC00059F3F8C21F6EA501000000000000F03F69
:105FD000FFFF8F40FFFF0F000000F03F00346F3FD6
:105FE000FFCB9040984585DB7D4B98453FF722AC31
:105FF00051EC100B7A4B002200F014FB68A3D3E99C
:10600000002304460D4600F0C5FC67A3D3E9002336
:1060100082468B462046294600F0BCFC714B41EC81
:10602000180B00222046294600F0B4FC02460B461D
:106030005FA1D1E9000100F0F5FA22462B4600F0FD
:10604000A9FC02460B460020674900F0EBFA224605
:10605000804689462B462046294600F09BFC024696
:106060000B464046494600F095FC53A3D3E9002374
:1060700000F090FC02460B4651EC180B00F0D2FAEF
:106080008046894642464B465046594600F0CCFA77
:10609000002052465B4604460D4691E522462B46BB
:1060A0002046294600F076FC41EC100BFFF750BB70
:1060B0004B49002022462B4600F096FD41EC100B88
:1060C000FFF746BB002B44D1C1F114014AFA01F09D
:1060D00000FA01F151455AD00093FFF717BB424A2D
:1060E00093425BDCDDE900120291009146E634A3A5
:1060F000D3E9002351EC180B00F04CFC30A3D3E99A
:10610000002300F047FC41EC100BFFF721BB009B84
:10611000012B7FF41DAB10EE901A10EE102A01F146
:10612000004343EC102BFFF713BB9FED277BB0EE32
:1061300047CAF0EE67CA9FED267BB0EE47DAF0EE75
:1061400067DA9FED257B4FF4802553EC172BFFF783
:10615000EBBB45EC104B009200F014F9009A002ABA
:106160007FF492AB0092FFF726BB41EC100B009836
:1061700000F0C2F951EC100BB5E600F00100C0F1DF
:1061800002010091002B3FF4C1AAFFF70DBB00F004
:106190000100C0F102030093FFF7B8BA1B15BBE57D
:1061A000000000604715F73F44DF5DF80BAE543E3A
:1061B000555555555555D53FFE822B654715F73F2B
:1061C0009C7500883CE4377E0000004003B8E23F45
:1061D00006D0CF43EBFD4C3E000000000000F83F2E
:1061E0000000F03F0000D03F0000E03F2DE9F0410B
:1061F000634A55EC104BAA4300F09F80002D10EE2F
:1062000010CA2B4654DD291563D0C3F31303A1F242
:10621000FF37C90743F4801304D45B0003EBDC733E
:106220004FEA4C0C4FEADC72002602EB43037F106E
:106230004FEA4C0C4FF0160E34464FF40012A118E2
:10624000994202DC5B1A8C1816445B00BEF1010E09
:1062500003EBDC734FEA52024FEA4C0CEFD1754668
:1062600020204FF000420AE044D04FEADC710138B0
:1062700001EB43034FEA4C0C4FEA520243D0A342D6
:1062800002EB0E01F0DD002901EB020E0ADBA04655
:106290001B1B614588BF03F1FF33ACEB010C1544B8
:1062A0004446E2E7BEF1000FF1DB04F10108EFE73D
:1062B00025F00042224338D0002D4ED129464FEA26
:1062C000DC22153913464FEA4C5C002AF7D0D6027F
:1062D00050D400205B00DD02044600F10100F9D536
:1062E0001A4663460CFA00FCC0F12000C340091BAB
:1062F00013438AE76145B8D8002901EB020ED1DBD0
:1063000098460023C9E753EA0C0310D168087110BE
:10631000F30701F17F5101F5001148BF40F0004043
:1063200001EB0753024643EC102BBDE8F0816A1CD9
:1063300016BF681C01364008E9E710EE102A10EE7F
:10634000100A2B46294600F025FB22462B4600F07A
:106350006BF941EC100BBDE8F08110EE102A2046DD
:10636000294600F05FF902460B4600F03DFC41EC87
:10637000100BDAE7634620204FF0FF34B6E700BF8A
:106380000000F07F51EC100B10EE102A21F00043BA
:1063900043EC102B704700BF82B08DED000B0198CD
:1063A00040F0004000F58010C00F02B0704700BF01
:1063B0009FED010B704700BF000000000000F87F58
:1063C000F0B553EC102BC3F30A5CACF2FF31132988
:1063D00010EE100A83B01C464FEAD37E3ADC002947
:1063E00030DB424D45FA01FC03EA0C0515432DD084
:1063F00003EA5C0318434FEA5C0C0CD024EA0C0C53
:106400004FF48024132944FA01F10CBF4FF00040EF
:1064100000204CEA0104364901EBCE0E2346DEE9AA
:10642000004502462946204600F0FEF8CDE900016D
:10643000DDE9000122462B4600F0F4F841EC100B98
:1064400003B0F0BD23F00041114324D143EC102BE5
:1064500003B0F0BD332908DDB1F5806FF6D11946E0
:1064600000F0E2F841EC100BF2E7ACF2134C4FF005
:10647000FF3121FA0CF10A42E8D010EA51024FEA4A
:106480005103C8D020EA03034FF0804040FA0CFCCF
:1064900043EA0C00BFE7C3F313031843144A434213
:1064A000034302EBCE0E1B0B620C03F400235204D9
:1064B00043EA02073B46DEE9006710EE102A304649
:1064C000394600F0B1F8CDE9000132463B46DDE93E
:1064D000000100F0A7F804F0004421F0004102465A
:1064E00041EA040343EC102B03B0F0BDFFFF0F00A3
:1064F00028730B000000000038B553EC102BC3F3D9
:106500000A5104469C4689BB10EE101A23F0004C39
:106510005CEA010129D0194600223D4B3D4D10EEA9
:10652000100A00F037FAAC4202460B4616DB8C46E6
:10653000C1F30A513639214440F2FE70814221DC18
:10654000002947DC11F1350F34DA4CF250318C421E
:1065500018DC002B26A1D1E9000144DB24A3D3E9F8
:10656000002300F017FA41EC100B38BD40F2FF7029
:106570008142E0D110EE100A194600F055F841ECC6
:10658000100B38BD002B1CA1D1E9000107DB1AA3B9
:10659000D3E9002300F0FEF941EC100B38BD18A13F
:1065A000D1E9000114A3D3E9002300F0F3F941EC91
:1065B000100BF3E72CF0FF4C2CF4E00C36314CEAD6
:1065C0000153104619460022134B00F0E3F941EC49
:1065D000100B38BD2CF0FF4C2CF4E00C4CEA0153AE
:1065E00043EC102B38BD08A1D1E90001B6E700BF8C
:1065F00059F3F8C21F6EA5019C7500883CE4377EF4
:106600009C7500883CE437FE59F3F8C21F6EA581E3
:1066100000005043B03CFFFF0000903C81F000417F
:1066200002E000BF83F0004330B54FEA41044FEA77
:10663000430594EA050F08BF90EA020F1FBF54EA12
:10664000000C55EA020C7FEA645C7FEA655C00F0AE
:10665000E2804FEA5454D4EB5555B8BF6D420CDD7F
:106660002C4480EA020281EA030382EA000083EA02
:10667000010180EA020281EA0303362D88BF30BDA2
:1066800011F0004F4FEA01314FF4801C4CEA1131F8
:1066900002D0404261EB410113F0004F4FEA033357
:1066A0004CEA133302D0524263EB430394EA050FE2
:1066B00000F0A780A4F10104D5F1200E0DDB02FA51
:1066C0000EFC22FA05F2801841F1000103FA0EF2E5
:1066D000801843FA05F359410EE0A5F120050EF1AB
:1066E000200E012A03FA0EFC28BF4CF0020C43FADC
:1066F00005F3C01851EBE37101F0004507D54FF0E9
:10670000000EDCF1000C7EEB00006EEB0101B1F538
:10671000801F1BD3B1F5001F0CD349085FEA30007E
:106720004FEA3C0C04F101044FEA445212F5800F89
:1067300080F09A80BCF1004F08BF5FEA500C50F126
:10674000000041EB045141EA050130BD5FEA4C0C09
:10675000404141EB0101013C28BFB1F5801FE9D266
:1067600091F0000F04BF01460020B1FA81F308BF89
:106770002033A3F10B03B3F120020CDA0C3208DD55
:1067800002F1140CC2F10C0201FA0CF021FA02F130
:106790000CE002F11402D8BFC2F1200C01FA02F1A0
:1067A00020FA0CFCDCBF41EA0C019040E41AA2BFC5
:1067B00001EB0451294330BD6FEA04041F3C1CDA8D
:1067C0000C340EDC04F11404C4F1200220FA04F0AD
:1067D00001FA02F340EA030021FA04F345EA030157
:1067E00030BDC4F10C04C4F1200220FA02F001FA19
:1067F00004F340EA0300294630BD21FA04F029469B
:1068000030BD94F0000F83F4801306BF81F4801133
:106810000134013D4EE77FEA645C18BF7FEA655CA6
:1068200029D094EA050F08BF90EA020F05D054EA78
:10683000000C04BF1946104630BD91EA030F1EBF7D
:106840000021002030BD5FEA545C05D14000494181
:1068500028BF41F0004130BD14F580043CBF01F574
:10686000801130BD01F0004545F0FE4141F470015A
:106870004FF0000030BD7FEA645C1ABF1946104635
:106880007FEA655C1CBF0B46024650EA013406BF36
:1068900052EA033591EA030F41F4002130BD00BFF5
:1068A00090F0000F04BF0021704730B54FF48064B2
:1068B00004F132044FF000054FF0000150E700BF33
:1068C00090F0000F04BF0021704730B54FF4806492
:1068D00004F1320410F0004548BF40424FF000017F
:1068E0003EE700BF42004FEAE2014FEA31014FEAC2
:1068F00002701FBF12F07F4393F07F4F81F0605111
:10690000704732F07F4208BF704793F07F4F04BF5B
:1069100041F40021704730B54FF4607401F0004538
:1069200021F000411CE700BF50EA010208BF704798
:1069300030B54FF000050AE050EA010208BF704789
:1069400030B511F0004502D5404261EB41014FF4F2
:10695000806404F132045FEA915C3FF4D8AE4FF0FA
:1069600003025FEADC0C18BF03325FEADC0C18BFDD
:10697000033202EBDC02C2F1200300FA03FC20FA2E
:1069800002F001FA03FE40EA0E0021FA02F114447B
:10699000BDE600BF70B54FF0FF0C4CF4E06C1CEA94
:1069A00011541DBF1CEA135594EA0C0F95EA0C0F05
:1069B00000F0DEF82C4481EA030621EA4C5123EA78
:1069C0004C5350EA013518BF52EA033541F48011A7
:1069D00043F4801338D0A0FB02CE4FF00005E1FB5A
:1069E00002E506F00042E0FB03E54FF00006E1FBA4
:1069F00003569CF0000F18BF4EF0010EA4F1FF04E7
:106A0000B6F5007F64F5407404D25FEA4E0E6D4126
:106A100046EB060642EAC62141EA55514FEAC52037
:106A200040EA5E504FEACE2EB4F1FD0C88BFBCF5B3
:106A3000E06F1ED8BEF1004F08BF5FEA500E50F164
:106A4000000041EB045170BD06F0004646EA01012A
:106A500040EA020081EA0301B4EB5C04C2BFD4EB5C
:106A60000C0541EA045170BD41F480114FF0000E55
:106A7000013C00F3AB8014F1360FDEBF002001F0C3
:106A8000004170BDC4F10004203C35DA0C341BDC3D
:106A900004F11404C4F1200500FA05F320FA04F00F
:106AA00001FA05F240EA020001F0004221F0004143
:106AB00010EBD37021FA04F642EB06015EEA430EB6
:106AC00008BF20EAD37070BDC4F10C04C4F12005E6
:106AD00000FA04F320FA05F001FA04F240EA020099
:106AE00001F0004110EBD37041F100015EEA430E6A
:106AF00008BF20EAD37070BDC4F1200500FA05F28A
:106B00004EEA020E20FA04F301FA05F243EA020308
:106B100021FA04F001F0004121FA04F220EA020017
:106B200000EBD3705EEA430E08BF20EAD37070BD5D
:106B300094F0000F0FD101F00046400041EB01013D
:106B400011F4801F08BF013CF7D041EA060195F01F
:106B5000000F18BF704703F00046520043EB0303D9
:106B600013F4801F08BF013DF7D043EA06037047C6
:106B700094EA0C0F0CEA135518BF95EA0C0F0CD0D1
:106B800050EA410618BF52EA4306D1D181EA030117
:106B900001F000414FF0000070BD50EA410606BF11
:106BA0001046194652EA430619D094EA0C0F02D156
:106BB00050EA013613D195EA0C0F05D152EA03369B
:106BC0001CBF104619460AD181EA030101F00041B9
:106BD00041F0FE4141F470014FF0000070BD41F002
:106BE000FE4141F4780170BD70B54FF0FF0C4CF4DC
:106BF000E06C1CEA11541DBF1CEA135594EA0C0FFB
:106C000095EA0C0F00F0A7F8A4EB050481EA030E47
:106C100052EA03354FEA013100F088804FEA03332E
:106C20004FF0805545EA131343EA12634FEA0222FC
:106C300045EA111545EA10654FEA00260EF00041BD
:106C40009D4208BF964244F1FD0404F5407402D20F
:106C50005B084FEA3202B61A65EB03055B084FEAA0
:106C600032024FF480104FF4002CB6EB020E75EB9D
:106C7000030E22BFB61A754640EA0C005B084FEAC5
:106C80003202B6EB020E75EB030E22BFB61A754642
:106C900040EA5C005B084FEA3202B6EB020E75EB8D
:106CA000030E22BFB61A754640EA9C005B084FEA05
:106CB0003202B6EB020E75EB030E22BFB61A754612
:106CC00040EADC0055EA060E18D04FEA051545EA01
:106CD00016754FEA06164FEAC30343EA52734FEAAA
:106CE000C2025FEA1C1CC0D111F4801F0BD141EA23
:106CF00000014FF000004FF0004CB6E711F4801F88
:106D000004BF01430020B4F1FD0C88BFBCF5E06F67
:106D10003FF6AFAEB5EB030C04BFB6EB020C5FEA77
:106D2000500C50F1000041EB045170BD0EF0004ECC
:106D30004EEA113114EB5C04C2BFD4EB0C0541EAFE
:106D4000045170BD41F480114FF0000E013C90E6FB
:106D500045EA060E8DE60CEA135594EA0C0F08BFBF
:106D600095EA0C0F3FF43BAF94EA0C0F0AD150EABE
:106D700001347FF434AF95EA0C0F7FF425AF104651
:106D800019462CE795EA0C0F06D152EA03353FF479
:106D9000FDAE1046194622E750EA410618BF52EAF6
:106DA00043067FF4C5AE50EA41047FF40DAF52EACA
:106DB00043057FF4EBAE12E74FF0FF3C06E000BF67
:106DC0004FF0010C02E000BF4FF0010C4DF804CD74
:106DD0004FEA410C7FEA6C5C4FEA430C18BF7FEA34
:106DE0006C5C1BD001B050EA410C0CBF52EA430C62
:106DF00091EA030F02BF90EA020F0020704710F1E2
:106E0000000F91EA030F58BF994208BF90422CBF70
:106E1000D8176FEAE37040F0010070474FEA410C69
:106E20007FEA6C5C02D150EA013C07D14FEA430C87
:106E30007FEA6C5CD6D152EA033CD3D05DF8040BF8
:106E4000704700BF8446104662468C46194663462A
:106E500000E000BF01B5FFF7B7FF002848BF10F101
:106E6000000F01BD4DF808EDFFF7F4FF0CBF012046
:106E700000205DF808FB00BF4DF808EDFFF7EAFFC2
:106E800034BF012000205DF808FB00BF4DF808ED7D
:106E9000FFF7E0FF94BF012000205DF808FB00BF72
:106EA0004DF808EDFFF7CEFF94BF012000205DF8FC
:106EB00008FB00BF4DF808EDFFF7C4FF34BF012009
:106EC00000205DF808FB00BF4FEA410C7FEA6C5CD4
:106ED00002D150EA013C0AD14FEA430C7FEA6C5CD4
:106EE00002D152EA033C02D14FF0000070474FF04C
:106EF000010070474FEA4102B2F1E04324BFB3F50D
:106F0000001CDCF1FE5C0DD901F0004C4FEAC00220
:106F10004CEA5070B2F1004F40EB830008BF20F004
:106F20000100704711F0804F21D113F13872BCBFBE
:106F300001F00040704741F480114FEA5252C2F113
:106F40001802C2F1200C10FA0CF320FA02F018BF5C
:106F500040F001004FEAC1234FEAD32303FA0CFCAF
:106F600040EA0C0023FA02F34FEA4303CCE77FEA3E
:106F7000625307D150EA01331EBF4FF0FE4040F488
:106F80004000704701F0004040F0FE4040F4000037
:106F9000704700BF002301461A46184600F04CB85F
:106FA0000A44914200F1FF3300D1704710B511F847
:106FB000014B03F8014F9142F9D110BD0244034641
:106FC000934200D1704703F8011BF9E738B5104B25
:106FD0001D68AB6B0446B3B91820FDF761FD02468E
:106FE000A86320B90B4B0C484221FDF779FD0B49F2
:106FF0000B4BC0E900130B4B83600B2383810021F3
:107000000120C2E90401AB6B00221C615A6138BD4A
:107010003CE6032038730B004F730B000E33CDABEF
:1070200034126DE6ECDE0500034613F8012B002A4E
:10703000FBD1181A013870472DE9F843DFF8B88002
:107040000646D8F800001F460D46914600F056F857
:10705000254B1C6834B9254C1C60254B13B11B68AB
:10706000C4F8883063681F2B07DDD8F8000000F0F3
:1070700047F84FF0FF30BDE8F8834EB3D4F88800EE
:1070800088B91C4B23B9D8F8000000F038F8F0E7B5
:107090004FF48470FDF704FD0028F4D00023C0E90C
:1070A0004033C4F88800636840F8239001229A4076
:1070B00000EB8301D0F800311343C0F80031022EF9
:1070C000C1F8807002BFD0F804311343C0F8043116
:1070D0006368D8F800005A1C0233626044F82350F9
:1070E00000F00EF80020C6E7E8E703205CE7032085
:1070F00000000000A14A0B00A0E603207047704783
:107100007047000021400B005D400B0085400B00E4
:1071100089400B0000000000526F746174696E6753
:10712000202B580A00526F746174696E67202D58C5
:107130000A0052583A202530342E32662020202072
:1071400052593A202530342E326620202020525ABF
:107150003A202530342E32660A004D5055363035EF
:1071600030203E20456E61626C696E6720576972FF
:10717000650A004D505536303530203E2045787038
:107180006563746564206779726F73636F706520DF
:1071900072616E6765206265747765656E20302068
:1071A000616E6420332C20676F742025640A000010
:1071B00000000000000000005F4B0B00554B0B006F
:1071C0004B4B0B00414B0B00354B0B00294B0B007D
:1071D000F1520B00F9520B001D4B0B00154B0B002D
:1071E0000B4B0B00014B0B0029530B00617070001F
:1071F00025592D256D2D25645425483A254D3A25D0
:1072000053257A0061736374696D650000000000A6
:1072100000000000C94E0B00B94E0B00BB4E0B0026
:107220000000000000000000AF4F0B0017500B00E3
:10723000ED4F0B00B14B0B00DF4F0B00B14F0B00BC
:10724000C14F0B0011500B00D14F0B00A94F0B0089
:107250000000000000000000A9500B0015510B00B9
:10726000ED500B00B14B0B00BD500B00D9500B0083
:10727000CB500B00E7500B00AB500B00AF500B0096
:1072800000000000000000004D510B0097510B0062
:107290006F510B004F510B0077510B007F510B00CA
:1072A00087510B008F510B00000000000000000010
:1072B00091520B0087520B007D520B003F520B0086
:1072C000BD4C0B0071520B00F1520B00F9520B0038
:1072D00065520B005D520B0053520B0049520B00DC
:1072E00029530B000000000000000000B1520B0009
:1072F000BB520B00C5520B00CF520B00D9520B00F2
:10730000E5520B00F1520B00F9520B0001530B0038
:107310000D530B0015530B001F530B0029530B008B
:1073200000000000000000000000000000003043EA
:1073300000000000000030C35245454E54206D61EE
:107340006C6C6F6320737563636565646564002F9F
:107350006D6E742F776F726B73706163652F776FCB
:10736000726B73706163652F4743432D31302D700D
:107370006970656C696E652F6A656E6B696E732DD9
:107380004743432D31302D706970656C696E652DF2
:1073900034385F32303230313132345F313630366A
:1073A0003138303634312F7372632F6E65776C69E4
:1073B000622F6E65776C69622F6C6962632F7374DC
:1073C000646C69622F72616E642E630089410B00E8
:1073D000694B0B007D4B0B00A14B0B00C94C0B0004
:1073E000D94C0B00754D0B009D520B0001540B0046
:0473F0000000000099
:1073F40004720B00FF00000040E6032000000000C0
:107404000000000000000000000000000000000078
:107414000000000000000000000000000000000068
:107424000000000000000000000000000000000058
:107434000000000000000000000000000000000048
:107444000000000000000000000000000000000038
:10745400000000000000000000000000ECE7032032
:10746400FFFFFFFF00000102030405060708090AE5
:107474000B0C0D0E0F101112131415161718191AE0
:087484001B1C1D1E1F20280027
:04748C0078563412E8
:04000003B0004020E9
:00000001FF
