:02000002B0004C
:1040000000400B00B8550B00000006000C00050234
:084010000401810C0000000016
:04401800B0520B0097
:10401C0009480A49884208B505D0094A824202D0AB
:10402C00121A01F08DF80748074A0021121A01F004
:10403C0095F8014808BD00BF2CE6032024550B0061
:10404C0098E6032098E60320EDE7032070B5074EB1
:10405C00074C00F0AFFCA41BA4080025AC4200D117
:10406C0070BD56F8043B98470135F7E7FC540B003C
:10407C0020550B0000F022B808B500F02FF8BDE871
:10408C00084000F04FBC00F0FDBA00F003BB007814
:10409C00B0FA80F0400970470123037070470EB4EA
:1040AC0003B503AB002153F8042B019300F0C9FBBB
:1040BC0002B05DF804EB03B07047000008B5064889
:1040CC0000F0C8F80448012100F0E8F8BDE8084009
:1040DC000021112000F08CBFA4E6032008B51120AC
:1040EC0000F097FF20B100F069FD0249FFF7D7FF00
:1040FC0008BD00BFC4520B0008B5084B0022C3E931
:10410C000022A2F580329A60022000F037FABDE856
:10411C0008400348682100F09BB800BF98E60320D4
:10412C00A4E6032013B51B2204460178012301A841
:10413C0000F0DDF801A800F0F9F8C0F3C013A3708B
:10414C00C0F38013E370C0F340132371C0F3C103B9
:10415C00637101A800F0B7F802B010BD13B51C22B2
:10416C0004460178012301A800F0C1F801A800F071
:10417C00DDF8C0F3C013A371C0F38013E371C0F377
:10418C0040132372C0F3C103637201A800F09BF8C3
:10419C0002B010BD13B5382201780446012301A8E2
:1041AC0000F0A5F801A800F0C1F8C0F30013A37249
:1041BC00C0F3C003E37200F00103237301A800F005
:1041CC0082F802B010BD13B5C47A837A0178E4008A
:1041DC0044EA0314037B1C433822E4B201A800F028
:1041EC0060F8214601A800F077F801A800F06BF800
:1041FC0002B010BD13B56B2204460178012301A84F
:10420C0000F075F801A800F091F8C0F3C0136373C7
:10421C00C0F38013A373C0F34013E373C0F3C00364
:10422C00237400F00703637401A800F04CF802B08B
:10423C0010BD10B50446FFF775FF2046FFF78EFF43
:10424C002046FFF7D7FF2046BDE81040FFF7A2BF7E
:10425C000170704713B5044600F046FF00F09BFD5B
:10426C0040B900F0ABFC0C49FFF719FF00F03CFF24
:10427C0000F05AFD2046FFF7DCFF6B22217801A8E5
:10428C0000F00FF8002101A800F026F801A800F0BA
:10429C001AF802B010BD00BFD8520B000173FFF723
:1042AC0092BF37B515460446019100F01DFF0199E8
:1042BC0000F069FD00F018FF036829469B689847D9
:1042CC00204603B030BD10B5044600F00DFF0121AF
:1042DC0000F05DFD204610BD07B5019100F004FF14
:1042EC00036801999B6803B05DF804EB184773B53C
:1042FC000C4616460193054600F0F6FE214600F0EA
:10430C0042FD00F0F1FE036831469B68984700F0CF
:10431C00EBFE002100F03BFD00F0E6FE019A0023CD
:10432C00214600F01EFD284602B070BD08B500F015
:10433C00DBFE03685B699847C0B208BD08B5024B49
:10434C001B689B68019308BD6802030008B5024B0B
:10435C001B68DB68019308BD6802030008B5024BBB
:10436C001B689B68019308BD2C02030008B5024B27
:10437C001B68DB68019308BD2C02030008B5024BD7
:10438C001B685B69019308BD2C02030008B5024B46
:10439C001B685B68019308BD1802030008B5024B4B
:1043AC001B685B69019308BD1802030008B5024B3A
:1043BC001B685B6C019308BD4802030008B5024BF7
:1043CC001B685B69019308BD6402030008B5024BCE
:1043DC001B68DB68019308BD3C02030008B5024B67
:1043EC001B681B69019308BD3C02030008B5024B16
:1043FC001B685B69019308BD3C02030008B5024BC6
:10440C001B689B69019308BD3C02030008B5024B75
:10441C001B68DB69019308BD3C02030008B5024B25
:10442C001B681B6A019308BD3C02030008B5024BD4
:10443C001B689B6A019308BD3C02030008B5024B44
:10444C001B681B6C019308BD3C02030008B5024BB2
:10445C001B68DB68019308BD2802030008B5024BFA
:10446C001B689B69019308BD2802030008B5024B29
:10447C001B68DB69019308BD2802030008B5024BD9
:10448C001B681B6A019308BD2802030008B5024B88
:10449C001B685B6A019308BD2802030008B5024B38
:1044AC001B689B6A019308BD2802030008B5024BE8
:1044BC001B68DB6A019308BD2802030008B5024B98
:1044CC001B681B6B019308BD2802030008B5024B47
:1044DC001B685B6B019308BD2802030008B5024BF7
:1044EC001B681B6C019308BD2802030008B5024B26
:1044FC001B681B6D019308BD2802030008B5024B15
:10450C001B68DB69019308BD3002030008B5024B40
:10451C001B681B6A019308BD3002030008B5024BEF
:10452C001B681B68019308BD4C02030008B5024BC5
:10453C001B681B69019308BD4C02030008B5024BB4
:10454C001B685B69019308BD4C02030008B5024B64
:10455C001B689B69019308BD4C02030008B5024B14
:10456C001B68DB69019308BD4C02030008B5024BC4
:10457C001B681B6A019308BD4C02030008B5024B73
:10458C001B685B68019308BD2002030008B5034B50
:10459C001B68D3F88830019308BD0000200203008B
:1045AC0008B5034B1B68D3F89430019308BD000089
:1045BC002002030008B5024B1B685B68019308BD21
:1045CC004002030008B5024B1B689B68019308BDB1
:1045DC004002030008B5024B1B68DB68019308BD61
:1045EC004002030008B5024B1B681B69019308BD10
:1045FC004002030008B5024B1B685B69019308BDC0
:10460C004002030008B5024B1B689B69019308BD6F
:10461C004002030008B5024B1B68DB69019308BD1F
:10462C004002030008B5024B1B681B6A019308BDCE
:10463C004002030008B5024B1B681B6B019308BDBD
:10464C004002030008B5024B1B685B6B019308BD6D
:10465C004002030008B5024B1B681B6C019308BD9C
:10466C004002030008B5024B1B685B6C019308BD4C
:10467C004002030008B5024B1B68DB6B019308BDBD
:10468C004402030008B5024B1B681B68019308BD6C
:10469C001C02030008B5024B1B685B68019308BD44
:1046AC001C02030008B5024B1B685B6A019308BD32
:1046BC001C02030008B5024B1B681B6C019308BD60
:1046CC001C02030008B5024B1B685B6C019308BD10
:1046DC001C020300002240681146FFF7A3BF002212
:1046EC0040681146FFF7AEBF40680022FFF7A2BF3B
:1046FC004068002281F00101FFF78CBF0023406865
:10470C001A461946FFF77EBF002340681A46194621
:10471C00FFF770BF002240681146FFF763BF00220D
:10472C0040681146FFF74EBF406800220221FFF798
:10473C0051BF002340681A46FFF73CBF024B0322CF
:10474C005A60024A1A607047B8E60320FC520B000C
:10475C0010B5044608462170FFF7D0FE00236360B5
:10476C00204610BD054B02221A60054B054A9A6083
:10477C000020C3E90000FFF701BF00BFCCE6032017
:10478C00C0E603200000FFFF024800230360FFF790
:10479C000DBE00BFD0E60320F8B506460D468F18B7
:1047AC000024BD420CD0336815F8011B9B683046C1
:1047BC009847031E01DB1C44F3E7002C08BF1C4682
:1047CC002046F8BD13B50446084659B1019100F0D6
:1047DC00FBFC23680199DB680246204602B0BDE869
:1047EC001040184702B010BD03689B68184738B5D5
:1047FC000D210546FFF7F8FF0A2104462846FFF76E
:10480C00F3FF204438BD30B58BB00023012A8DF85E
:10481C00243098BF0A2209AC0D46B1FBF2F101FB22
:10482C00125303F0FF03092B94BF30333733DBB241
:10483C00AA4204F8013DEFD92146FFF7C3FF0BB0A4
:10484C0030BD2DE9F04186B000AF05460E46381D4F
:10485C00142114463B60FFF725FF13280ED8391D91
:10486C002846FFF7AFFF04461EB12846FFF7BFFFEF
:10487C00044420461837BD46BDE8F08100F108031A
:10488C0023F00703E846ADEB030D2246411C3B68C1
:10489C006846FFF707FF69462846FFF793FF044673
:1048AC00C546E1E7002340681A461946FFF7A2BE49
:1048BC00014B024A1A607047D4E6032030530B00B8
:1048CC00024B1A68024B1A60704700BF2CE603209B
:1048DC00D8E60320014B00229A607047DCE60320E7
:1048EC00014B1860704700BF30E6032008B50B4B36
:1048FC0043B100F063F903681B699847002801DD98
:10490C00AFF30080064B43B100F0B2FB03681B69A8
:10491C009847002801DDAFF3008008BD00000000BF
:10492C000000000008B5FFF7E1FFFFF737FD014B72
:10493C00186008BD40E703200548064A064908B53B
:10494C00121A00F0FDFB054B054A1A6008BD00BFAA
:10495C0000F4032004F4032020550B0000F4032082
:10496C001E1C279A07B5002300931A466FF0770197
:10497C00FFF716FE03B05DF804FB000007B5438893
:10498C000A2B08D0502B0BD1094B1B684BB103B031
:10499C005DF804EB1847FFF7E5FF03B05DF804FB87
:1049AC00002300931A466FF07701FFF7F9FDF4E747
:1049BC00F0E6032010B512480021FFF783FE114BDF
:1049CC001A68114B9A42114B0CBF012200221A702B
:1049DC0001D0FFF7B1FFFFF7D9FC044600F0C6FB8E
:1049EC000B4B13B12046AFF3008000210848FFF7B2
:1049FC0041FEBDE8104007480021FFF7C7BD00BFCE
:104A0C00ED480B0000F403201E1C279AECE6032053
:104A1C000000000089490B00704710B518210446AE
:104A2C00FFF733FB204610BDF0B5037D062B8DB090
:104A3C000E4600F104074FF0000412D000F10805F7
:104A4C0015F8011D0A223046FFF7DDFEAF42044483
:104A5C0019D0002CF4D02E213046FFF7C5FE0444AB
:104A6C00EEE72F236A4639460A208DF80040FFF7FF
:104A7C00A5FC684600F0A8FB33680246DB68694673
:104A8C0030469847044620460DB0F0BD10B5054B96
:104A9C000446112240F8043B002100F05FFB204645
:104AAC0010BD00BF58530B000346074A10B543F81E
:104ABC00042B01F1100251F8044B43F8044B9142C2
:104ACC00F9D10A781A7010BD58530B0010B59DF827
:104ADC00084044EA032343EA024242EA0161042308
:104AEC004160037510BD000007B5064B0360CB7821
:104AFC0000938B784A780978FFF7E8FF03B05DF8EC
:104B0C0004FB00BF58530B0041747047704770474B
:104B1C0008B50021007CFFF719FD40EAE07008BDE4
:104B2C0008B50121007CFFF711FD40EAE07008BDDB
:104B3C0008B5007CFFF702FD20EAE07008BD08B55F
:104B4C00007CFFF7F3FC20EAE07008BD13B50446C7
:104B5C00007C0191FFF7F2FC0028019901DC607CDC
:104B6C0020B1207CFFF7FAFC20EAE07002B010BD07
:104B7C00007CFFF7FBBC10B514210446FFF785FA47
:104B8C00204610BD10B54FF47A7304460846002138
:104B9C00C4E90113044B2360012320746374114690
:104BAC00FFF7BCFC204610BD6C530B0010B5142253
:104BBC000446002100F0D2FA204610BD10B50F4C6F
:104BCC0088B003A8FFF7F2FF2178BFF35B8F11F0D9
:104BDC0001010FD120460191FFF759FA019948B113
:104BEC0003AA0748FFF7CEFF2046FFF755FA054802
:104BFC0000F0A0FA024808B010BD00BFF4E6032094
:104C0C00F8E60320194B0B0070474174704708B548
:104C1C00007CFFF70BFC20EAE07008BD08B5007CB7
:104C2C00FFF7DCFB20EAE07008BD08B5007CFFF75D
:104C3C00E5FB40EAE07008BD08B5007CFFF7D6FB49
:104C4C0040EAE07008BD007CFFF7E0BB37B5457C5F
:104C5C0004462DB1207C03B0BDE83040FFF7B6BB55
:104C6C00007C0191FFF7E2FB00280199F2DC284659
:104C7C0003B030BD10B514210446FFF706FA2046E8
:104C8C0010BD000010B54FF47A7304460846114667
:104C9C000022C4E90123044B2360012320746374B4
:104CAC00FFF7CCFB204610BD9C530B007047F8B5AA
:104CBC00064615460C468F18BC4206D0336814F8CD
:104CCC00011B9B6830469847F6E72846F8BD007CE8
:104CDC000022FFF7D3BB007C0021FFF7D7BB007C81
:104CEC000021FFF7DBBB007C0021FFF7DFBB007C62
:104CFC000021FFF7E3BB10B514210446FFF7C5F9FB
:104D0C00204610BD10B54FF47A73044608460021B6
:104D1C00C4E90113034B236020741146FFF7DEFB3B
:104D2C00204610BDCC530B000023007C1A461946BC
:104D3C00FFF78CBB7FB500221423CDE90122ADF81F
:104D4C0004300B788DF808304B680393CB680493D0
:104D5C00007C0B7A059301A9FFF7C8FB07B05DF83F
:104D6C0004FB1FB5003B8DF800104FF0640103915C
:104D7C0018BF0123694601928DF80830FFF7DAFF5E
:104D8C0005B05DF804FB007C0022FFF767BB007CDC
:104D9C000022FFF76BBB007C0021FFF797BB0022C2
:104DAC0040681146FFF71EBC002240681146FFF711
:104DBC0039BC002240681146FFF744BC4068002211
:104DCC00FFF738BC4068002281F00101FFF722BCDC
:104DDC00002340681A461946FFF714BC00224068AD
:104DEC001146FFF7EFBB406800220221FFF7F2BB30
:104DFC00002340681A46FFF7DDBB0000024B04227B
:104E0C005A60024A1A6070470CE70320F4530B00F7
:104E1C00002340681A46FFF7CDBB406800220221F0
:104E2C00FFF7D8BB002240681146FFF7CBBB00222E
:104E3C0040681146FFF7D6BB002340681A46194656
:104E4C00FFF7D8BB002340681A461946FFF7DABBB8
:104E5C0040680021FFF7FEBB40680021FFF702BC51
:104E6C004068002281F00101FFF7D4BB40680022AA
:104E7C00FFF7E0BB002240681146FFF7E3BB0022BE
:104E8C0040681146FFF7CEBB2DE9F04395B01446B0
:104E9C000D460746FFF7FAFD00211C220DA80091D4
:104EAC0000F05CF940230C9320466B460CAA0021C1
:104EBC00FFF74CFA044600284BD1024601216868E2
:104ECC00FFF790FB0221804622466868FFF78AFBB9
:104EDC00009E81462146002E3BD0002939D17368B3
:104EEC00022B03D00A2B11D0F669F4E7B8F1000FAE
:104EFC00FAD0716906A8043107ADFFF7F5FD0FCDA7
:104F0C003C1D0FC42B6823704146EDE7B9F1000F2F
:104F1C00EAD07469102201A800F020F906238DF85C
:104F2C00143001AD04F108031834186859682A4686
:104F3C0003C20833A3421546F7D101A906A807AD51
:104F4C00FFF7B2FD0FCD3C1D0FC42B6823704946F3
:104F5C00CAE70098FFF7F2F9384615B0BDE8F083C0
:104F6C00024B034A1A6000225A60704714E7032070
:104F7C0030540B00232813B502D9002002B010BD09
:104F8C00A0F10B03022B1AD8174C2178BFF35B8FBF
:104F9C0011F001010BD120460191FFF778F801992E
:104FAC0028B11248FFF7D4FB2046FFF775F80F4BDA
:104FBC001878FFF7ABFA0028DFD10120DEE70128D3
:104FCC0009D800F091F80021007CFFF77FFA80F0FF
:104FDC000100C0B2D2E709380128EED800F048F839
:104FEC00007CFFF71BFAF2E71CE7032020E7032005
:104FFC00232838B504460D460AD8FF2908D0FFF7F8
:10500C00B9FF28B129462046BDE83840FFF7A6B9BC
:10501C0038BD10B50446FFF7A9F9031FDBB2012B0D
:10502C0008D92046FFF7A6FF20B12046BDE8104066
:10503C00FFF7A4B9002010BD7047000038B5044636
:10504C0014252A46002100F089F8258040250749BF
:10505C0025812846258200F06BF8044960602846BB
:10506C0000F066F8E060204638BD00BF64540B00C9
:10507C0030B50E4D2978BFF35B8F11F0010487B06A
:10508C0011D12846FFF703F868B101A8FFF7D6FF46
:10509C0001AA21460648FFF7F5FD2846FEF7FCFF5E
:1050AC00044800F047F8024807B030BD28E7032059
:1050BC002CE7032045500B007047000038B5202525
:1050CC00142304460360856005610649284600F0F8
:1050DC002FF804496060284600F02AF8E06020466A
:1050EC0038BD00BF64540B0030B50E4D2978BFF3AA
:1050FC005B8F11F0010487B011D12846FEF7C7FF72
:10510C0068B101A8FFF7DAFF01AA21460648FFF7AC
:10511C00F9FD2846FEF7C0FF044800F00BF80248E2
:10512C0007B030BD44E7032048E70320C5500B000F
:10513C00FEF7A9BF002301461A46184600F04CB8EA
:10514C000A44914200F1FF3300D1704710B511F8B9
:10515C00014B03F8014F9142F9D110BD02440346B3
:10516C00934200D1704703F8011BF9E738B5104B97
:10517C001D68AB6B0446B3B91820FFF783FA0246DF
:10518C00A86320B90B4B0C484221FFF793FA0B494B
:10519C000B4BC0E900130B4B83600B238381002165
:1051AC000120C2E90401AB6B00221C615A6138BDBD
:1051BC0030E6032065540B007C540B000E33CDAB52
:1051CC0034126DE6ECDE0500034613F8012B002AC1
:1051DC00FBD1181A013870472DE9F843DFF8B88075
:1051EC000646D8F800001F460D46914600F056F8CA
:1051FC00254B1C6834B9254C1C60254B13B11B681E
:10520C00C4F8883063681F2B07DDD8F8000000F065
:10521C0047F84FF0FF30BDE8F8834EB3D4F8880060
:10522C0088B91C4B23B9D8F8000000F038F8F0E727
:10523C004FF48470FFF726FA0028F4D00023C0E95D
:10524C004033C4F88800636840F8239001229A40E8
:10525C0000EB8301D0F800311343C0F80031022E6B
:10526C00C1F8807002BFD0F804311343C0F8043188
:10527C006368D8F800005A1C0233626044F823506B
:10528C0000F00EF80020C6E7E8E703205CE70320F7
:10529C000000000091460B0094E603207047704715
:1052AC00704700001D400B0059400B0081400B0063
:1052BC0085400B0000000000596F20646174612070
:1052CC007265616479204269746368004D5055368B
:1052DC00303530203E20456E61626C696E67205718
:1052EC006972650A00000000000000000000000068
:1052FC003F470B0035470B002B470B0021470B009A
:10530C0015470B0009470B005D4E0B00654E0B005B
:10531C00FD460B00F5460B00EB460B00E1460B007F
:10532C00954E0B006170700025592D256D2D25644F
:10533C005425483A254D3A2553257A0061736374F8
:10534C00696D65000000000000000000354A0B008C
:10535C00254A0B00274A0B0000000000000000004B
:10536C001B4B0B00834B0B00594B0B00A5470B0041
:10537C004B4B0B001D4B0B002D4B0B007D4B0B00B7
:10538C003D4B0B00154B0B00000000000000000013
:10539C00154C0B00814C0B00594C0B00A5470B0016
:1053AC00294C0B00454C0B00374C0B00534C0B009D
:1053BC00174C0B001B4C0B00000000000000000001
:1053CC00B94C0B00034D0B00DB4C0B00BB4C0B0022
:1053DC00E34C0B00EB4C0B00F34C0B00FB4C0B00A9
:1053EC000000000000000000FD4D0B00F34D0B0011
:1053FC00E94D0B00AB4D0B00B1480B00DD4D0B0024
:10540C005D4E0B00654E0B00D14D0B00C94D0B00D2
:10541C00BF4D0B00B54D0B00954E0B00000000006E
:10542C00000000001D4E0B00274E0B00314E0B00F0
:10543C003B4E0B00454E0B00514E0B005D4E0B00CE
:10544C00654E0B006D4E0B00794E0B00814E0B0020
:10545C008B4E0B00954E0B00005245454E54206D63
:10546C00616C6C6F63207375636365656465640060
:10547C002F6D6E742F776F726B73706163652F77FE
:10548C006F726B73706163652F4743432D31302D01
:10549C00706970656C696E652F6A656E6B696E7389
:1054AC002D4743432D31302D706970656C696E65E5
:1054BC002D34385F32303230313132345F31363066
:1054CC00363138303634312F7372632F6E65776C0A
:1054DC0069622F6E65776C69622F6C6962632F73DA
:1054EC0074646C69622F72616E642E63000000003C
:1054FC0005410B0049470B0071470B0095470B000A
:10550C00BD480B00CD480B00E1480B00094E0B00C9
:04551C006D4F0B00C4
:045520000000000087
:1055240048530B0034E60320000000000000000094
:105534000000000000000000000000000000000067
:105544000000000000000000000000000000000057
:105554000000000000000000000000000000000047
:105564000000000000000000000000000000000037
:105574000000000000000000000000000000000027
:0C5584000000000000000000ECE7032025
:10559000FFFFFFFF00000102030405060708090AD8
:1055A0000B0C0D0E0F101112131415161718191AD3
:0855B0001B1C1D1E1F2028001A
:0455B80078563412DB
:04000003B000401CED
:00000001FF
