:02000002B0004C
:1040000000400B00C8560B00000006000C00050223
:084010000401810C0000000016
:0440180008530B003E
:10401C0009480A49884208B505D0094A824202D0AB
:10402C00121A01F0B9F80748074A0021121A01F0D8
:10403C00C1F8014808BD00BF14E6032014560B005C
:10404C00A0E60320A0E60320EDE7032070B5074EA1
:10405C00074C00F0DDFCA41BA4080025AC4200D1E9
:10406C0070BD56F8043B98470135F7E7E4550B0053
:10407C0008560B0000F03AB808B500F0CDF8BDE8D2
:10408C00084000F07DBC00F01FBB00F025BB0078A1
:10409C00B0FA80F0400970470123037070470EB4EA
:1040AC0003B503AB002153F8042B019300F0EBFB99
:1040BC0002B05DF804EB03B0704703688B424368B1
:1040CC00C8BF01608B42B8BF41607047F7B504466A
:1040DC000D4616461F46FFF7F0FFD4E90012009775
:1040EC003346284600F018FC03B0F0BDF7B500F0DD
:1040FC009DFD4FF4165100F087FD00F097FD00F088
:10410C008AFD0028F9D00021112000F06DFF00215C
:10411C00102000F069FF00210F2000F065FF002146
:10412C000E2000F061FF0221084600F05DFF022125
:10413C00032000F059FF0121042000F055FF01215C
:10414C00042000F062FF00F05BF92B4F2B4E2C4D3E
:10415C00044600F055F941F28733001B98421CD8F5
:10416C00112000F07EFF01463846FFF7A6FF102015
:10417C0000F077FF01463046FFF79FFF0F2000F05D
:10418C0070FF01462846FFF798FF0E2000F069FFEC
:10419C0001461C48FFF791FFDBE700F047FD164B8B
:1041AC00D3E90023991A00911749FFF778FF00F023
:1041BC003DFD124BD3E90023991A00911349FFF7E7
:1041CC006EFF00F033FD0E4BD3E90023991A0091DA
:1041DC000F49FFF764FF00F029FD0A4BD3E90023D8
:1041EC00991A00910B49FFF75AFF0021042003B0E4
:1041FC00BDE8F04000F009BF24E603202CE60320C4
:10420C0014E603201CE603201C530B0046530B0042
:10421C006F530B0098530B002DE9F04F474CDFF810
:10422C0030B12378BFF35B8F13F0010F85B00ED143
:10423C002046FFF72CFF50B1022000F0FFFE0038A3
:10424C0018BF01208BF800002046FFF725FF3C4CDF
:10425C00DFF800A12378BFF35B8F13F0010F0ED1B1
:10426C002046FFF714FF50B1032000F0E7FE0038A2
:10427C0018BF01208AF800002046FFF70DFF02202E
:10428C0000F0DCFE031E18BF0123814603200293BD
:10429C0000F0D4FE031E18BF0123804611200393A7
:1042AC0000F0DFFEFF23014600222648FFF70EFF39
:1042BC000446102000F0D5FEFF23014600222148C1
:1042CC00FFF704FF05460F2000F0CBFEFF2301464D
:1042DC0000221C48FFF7FAFE06460E2000F0C1FE35
:1042EC00FF23014600221748FFF7F0FE9BF8003031
:1042FC0007465BB9B9F1000F08D000F097FCCDE987
:10430C00006711492B462246FFF7C9FE9AF8003088
:10431C005BB9B8F1000F08D000F088FCCDE900675C
:10432C000A492B462246FFF7BAFE029B8BF8003057
:10433C00039B8AF8003005B0BDE8F08FACE6032093
:10434C00B0E6032024E60320C0530B00CE530B0031
:10435C00B4E60320B5E60320044B0022C3E9002297
:10436C00A2F580329A60022000F02AB9A0E6032060
:10437C0008B5024B1B689B68019308BD68020300DB
:10438C0008B5024B1B68DB68019308BD680203008B
:10439C0008B5024B1B685B68019308BD2C02030037
:1043AC0008B5024B1B689B68019308BD2C020300E7
:1043BC0008B5024B1B68DB68019308BD2C02030097
:1043CC0008B5024B1B681B69019308BD2C02030046
:1043DC0008B5024B1B685B69019308BD2C020300F6
:1043EC0008B5024B1B681B6B019308BD2C02030024
:1043FC0008B5024B1B685B68019308BD18020300EB
:10440C0008B5024B1B685B69019308BD18020300D9
:10441C0008B5024B1B685B6C019308BD4802030096
:10442C0008B5024B1B685B69019308BD640203006D
:10443C0008B5024B1B68DB68019308BD3C02030006
:10444C0008B5024B1B681B69019308BD3C020300B5
:10445C0008B5024B1B685B69019308BD3C02030065
:10446C0008B5024B1B689B69019308BD3C02030015
:10447C0008B5024B1B68DB69019308BD3C020300C5
:10448C0008B5024B1B681B6A019308BD3C02030074
:10449C0008B5024B1B689B6A019308BD3C020300E4
:1044AC0008B5024B1B681B6C019308BD3C02030052
:1044BC0008B5024B1B681B6A019308BD2802030058
:1044CC0008B5024B1B685B6A019308BD2802030008
:1044DC0008B5024B1B689B6A019308BD28020300B8
:1044EC0008B5024B1B68DB6A019308BD2802030068
:1044FC0008B5024B1B681B6B019308BD2802030017
:10450C0008B5024B1B685B6B019308BD28020300C6
:10451C0008B5024B1B681B6C019308BD28020300F5
:10452C0008B5024B1B68DB69019308BD3002030020
:10453C0008B5024B1B681B6A019308BD30020300CF
:10454C0008B5024B1B681B68019308BD4C020300A5
:10455C0008B5024B1B685B68019308BD4C02030055
:10456C0008B5024B1B681B69019308BD4C02030084
:10457C0008B5024B1B685B69019308BD4C02030034
:10458C0008B5024B1B689B69019308BD4C020300E4
:10459C0008B5024B1B68DB69019308BD4C02030094
:1045AC0008B5024B1B681B6A019308BD4C02030043
:1045BC0008B5024B1B685B6A019308BD4C020300F3
:1045CC0008B5024B1B685B68019308BD2002030011
:1045DC0008B5034B1B68D3F88830019308BD000065
:1045EC002002030008B5034B1B68D3F894300193E9
:1045FC0008BD00002002030008B5024B1B685B6875
:10460C00019308BD4002030008B5024B1B689B6870
:10461C00019308BD4002030008B5024B1B68DB6820
:10462C00019308BD4002030008B5024B1B681B69CF
:10463C00019308BD4002030008B5024B1B685B697F
:10464C00019308BD4002030008B5024B1B689B692F
:10465C00019308BD4002030008B5024B1B68DB69DF
:10466C00019308BD4002030008B5024B1B681B6A8E
:10467C00019308BD4002030008B5024B1B681B6B7D
:10468C00019308BD4002030008B5024B1B685B6B2D
:10469C00019308BD4002030008B5024B1B681B6C5C
:1046AC00019308BD4002030008B5024B1B685B6C0C
:1046BC00019308BD4002030008B5024B1B68DB6B7D
:1046CC00019308BD4402030008B5024B1B681B682C
:1046DC00019308BD1C02030008B5024B1B685B6804
:1046EC00019308BD1C02030008B5024B1B685B6AF2
:1046FC00019308BD1C02030008B5024B1B681B6C20
:10470C00019308BD1C02030008B5024B1B685B6CCF
:10471C00019308BD1C020300002240681146FFF7FC
:10472C00A3BF002240681146FFF7AEBF40680022CD
:10473C00FFF7A2BF4068002281F00101FFF78CBF98
:10474C00002340681A461946FFF77EBF00234068D5
:10475C001A461946FFF770BF002240681146FFF752
:10476C0063BF002240681146FFF74EBF406800222D
:10477C000221FFF751BF002340681A46FFF73CBFE8
:10478C00024B03225A60024A1A607047B8E60320B3
:10479C00E4530B0010B5044608462170FFF7C0FE29
:1047AC0000236360204610BD054B02221A60054BA6
:1047BC00054A9A600020C3E90000FFF701BF00BF63
:1047CC00CCE60320C0E603200000FFFF02480023D4
:1047DC000360FFF71DBE00BFD0E60320F8B5064608
:1047EC000D468F180024BD420CD0336815F8011B00
:1047FC009B6830469847031E01DB1C44F3E7002CF2
:10480C0008BF1C462046F8BD13B50446084659B1EE
:10481C00019100F005FD23680199DB6802462046F2
:10482C0002B0BDE81040184702B010BD03689B6889
:10483C00184738B50D210546FFF7F8FF0A21044645
:10484C002846FFF7F3FF204438BD30B58BB000236A
:10485C00012A8DF8243098BF0A2209AC0D46B1FB11
:10486C00F2F101FB125303F0FF03092B94BF303319
:10487C003733DBB2AA4204F8013DEFD92146FFF7EA
:10488C00C3FF0BB030BD2DE9F04186B000AF05463B
:10489C000E46381D142114463B60FFF725FF1328E4
:1048AC000ED8391D2846FFF7AFFF04461EB1284627
:1048BC00FFF7BFFF044420461837BD46BDE8F08122
:1048CC0000F1080323F00703E846ADEB030D224685
:1048DC00411C3B686846FFF707FF69462846FFF70F
:1048EC0093FF0446C546E1E7002340681A46194683
:1048FC00FFF7A2BE014B024A1A607047D4E60320B0
:10490C0018540B00024B1A68024B1A60704700BF18
:10491C0034E60320D8E603208A4210B507D0441AA7
:10492C000298C01A4443501A94FBF0F0184410BD7E
:10493C00014B00229A607047DCE60320014B1860A3
:10494C00704700BF38E6032008B50B4B43B100F0AD
:10495C006DF903681B699847002801DDAFF30080EF
:10496C00064B43B100F0B0FB03681B699847002865
:10497C0001DDAFF3008008BD000000000000000066
:10498C0008B5FFF7E1FFFFF73BFD014B186008BDD1
:10499C0040E703200548064A064908B5121A00F0FC
:1049AC00FBFB054B054A1A6008BD00BF00F4032051
:1049BC0004F4032010560B0000F403201E1C279A4D
:1049CC0007B5002300931A466FF07701FFF70AFE34
:1049DC0003B05DF804FB000007B543880A2B08D030
:1049EC00502B0BD1094B1B684BB103B05DF804EB9A
:1049FC001847FFF7E5FF03B05DF804FB00230093B5
:104A0C001A466FF07701FFF7EDFDF4E7F0E60320AF
:104A1C0010B512480021FFF777FE114B1A68114BA5
:104A2C009A42114B0CBF012200221A7001D0FFF7E1
:104A3C00B1FFFFF7DDFC044600F0C4FB0B4B13B1D8
:104A4C002046AFF3008000210848FFF735FEBDE893
:104A5C00104007480021FFF7BBBD00BF49490B00C0
:104A6C0000F403201E1C279AECE603200000000033
:104A7C00E5490B00704710B518210446FFF705FBFC
:104A8C00204610BDF0B5037D062B8DB00E4600F10F
:104A9C0004074FF0000412D000F1080515F8011DB1
:104AAC000A223046FFF7D1FEAF42044419D0002C45
:104ABC00F4D02E213046FFF7B9FE0444EEE72F2345
:104ACC006A4639460A208DF80040FFF7A9FC684673
:104ADC0000F0A6FB33680246DB686946304698470F
:104AEC00044620460DB0F0BD10B5054B044611220E
:104AFC0040F8043B002100F05DFB204610BD00BFD8
:104B0C0040540B000346074A10B543F8042B01F13F
:104B1C00100251F8044B43F8044B9142F9D10A7836
:104B2C001A7010BD40540B0010B59DF8084044EAB3
:104B3C00032343EA024242EA016104234160037504
:104B4C0010BD000007B5064B0360CB7800938B7843
:104B5C004A780978FFF7E8FF03B05DF804FB00BF63
:104B6C0040540B00417470477047704708B50021E2
:104B7C00007CFFF705FD40EAE07008BD08B5012197
:104B8C00007CFFF7FDFC40EAE07008BD08B5007C36
:104B9C00FFF7EEFC20EAE07008BD08B5007CFFF7DB
:104BAC00DFFC20EAE07008BD13B50446007C0191DF
:104BBC00FFF7DEFC0028019901DC607C20B1207C31
:104BCC00FFF7E6FC20EAE07002B010BD007CFFF7B6
:104BDC00E7BC10B514210446FFF757FA204610BD68
:104BEC0010B54FF47A73044608460021C4E901134A
:104BFC00044B23600123207463741146FFF7A0FC5F
:104C0C00204610BD54540B00007C0022FFF7A0BCC2
:104C1C00007CFFF7CDBCFFF7FBBF10B51422044698
:104C2C00002100F0C7FA204610BD000010B50F4C53
:104C3C0088B003A8FFF7F1FF2178BFF35B8F11F069
:104C4C0001010FD120460191FFF721FA019948B1DA
:104C5C0003AA0748FFF7C4FF2046FFF71DFA0548D3
:104C6C0000F094FA024808B010BD00BFF4E603202F
:104C7C00F8E60320754B0B0070474174704708B57C
:104C8C00007CFFF705FC20EAE07008BD08B5007C4D
:104C9C00FFF7D6FB20EAE07008BD08B5007CFFF7F3
:104CAC00DFFB40EAE07008BD08B5007CFFF7D0FBE5
:104CBC0040EAE07008BD007CFFF7DABB37B5457CF5
:104CCC0004462DB1207C03B0BDE83040FFF7B0BBEB
:104CDC00007C0191FFF7DCFB00280199F2DC2846EF
:104CEC0003B030BD10B514210446FFF7CEF92046B1
:104CFC0010BD000010B54FF47A73044608461146F7
:104D0C000022C4E90123044B236001232074637443
:104D1C00FFF7C6FB204610BD84540B007047F8B556
:104D2C00064615460C468F18BC4206D0336814F85C
:104D3C00011B9B6830469847F6E72846F8BD007C77
:104D4C000022FFF7B5BB007C0021FFF7B9BB007C4C
:104D5C000021FFF7BDBB007C0021FFF7C1BB007C2D
:104D6C000021FFF7C5BB10B514210446FFF78DF9E0
:104D7C00204610BD10B54FF47A7304460846002146
:104D8C00C4E90113034B236020741146FFF7C0FBE9
:104D9C00204610BDB4540B00002240681146FFF7AA
:104DAC0043BC002240681146FFF75EBC00224068FD
:104DBC001146FFF769BC40680022FFF75DBC4068F4
:104DCC00002281F00101FFF747BC002340681A461E
:104DDC001946FFF739BC002240681146FFF714BC96
:104DEC00406800220221FFF717BC002340681A46D6
:104DFC00FFF702BC024B04225A60024A1A60704749
:104E0C000CE70320DC540B00002340681A46FFF724
:104E1C00F3BB406800220221FFF7FEBB0022406872
:104E2C001146FFF7F1BB002240681146FFF7FCBBAF
:104E3C00002340681A461946FFF7FEBB0023406862
:104E4C001A461946FFF700BC40680021FFF724BC46
:104E5C0040680021FFF728BC4068002281F0010166
:104E6C00FFF7FABB40680022FFF706BC002240683F
:104E7C001146FFF709BC002240681146FFF7F4BB4E
:104E8C002DE9F04395B014460D460746FFF72CFE6E
:104E9C0000211C220DA8009100F08CF940230C93EA
:104EAC0020466B460CAA0021FFF76AFA044600283C
:104EBC004BD1024601216868FFF7B6FB0221804600
:104ECC0022466868FFF7B0FB009E81462146002E03
:104EDC003BD0002939D17368022B03D00A2B11D097
:104EEC00F669F4E7B8F1000FFAD0716906A804313D
:104EFC0007ADFFF727FE0FCD3C1D0FC42B682370A9
:104F0C004146EDE7B9F1000FEAD07469102201A80F
:104F1C0000F050F906238DF8143001AD04F10803AC
:104F2C001834186859682A4603C20833A342154638
:104F3C00F7D101A906A807ADFFF7E4FD0FCD3C1D85
:104F4C000FC42B6823704946CAE70098FFF710FA84
:104F5C00384615B0BDE8F083024B034A1A600022B4
:104F6C005A60704714E7032018550B00232813B51B
:104F7C0002D9002002B010BDA0F10B03022B1AD8ED
:104F8C00174C2178BFF35B8F11F001010BD1204638
:104F9C000191FFF77CF8019928B11248FFF7FAFB51
:104FAC002046FFF779F80F4B1878FFF7C1FA002865
:104FBC00DFD10120DEE7012809D800F0C1F800217B
:104FCC00007CFFF79DFA80F00100C0B2D2E70938EF
:104FDC000128EED800F078F8007CFFF751FAF2E7E0
:104FEC001CE7032020E70320232838B504460D4690
:104FFC000AD8FF2908D0FFF7B9FF28B12946204667
:10500C00BDE83840FFF7CCB938BD38B504460D467D
:10501C00FFF7CEF9FF2810D0062804D84D2323FA29
:10502C0000F0C30709D42046FFF7A0FF28B129469A
:10503C002046BDE83840FFF7C3B938BD10B504466B
:10504C00FFF7B6F9031FDBB2012B08D92046FFF797
:10505C008DFF20B12046BDE81040FFF7B9B9002004
:10506C0010BD0D2810B504469CBF0E34A4B22046CA
:10507C00FFF77CFF50B103212046FFF789F9032885
:10508C0004D12046BDE81040FFF7AAB9002010BD9E
:10509C007047000038B5044614252A46002100F05C
:1050AC0089F825804025074925812846258200F06E
:1050BC006BF804496060284600F066F8E060204612
:1050CC0038BD00BF4C550B0030B50E4D2978BFF3E1
:1050DC005B8F11F0010487B011D12846FEF7D7FF82
:1050EC0068B101A8FFF7D6FF01AA21460648FFF7D1
:1050FC0001FE2846FEF7D0FF044800F047F80248AE
:10510C0007B030BD28E703202CE703209D500B008F
:10511C007047000038B520251423044603608560D1
:10512C0005610649284600F02FF8044960602846BE
:10513C0000F02AF8E060204638BD00BF4C550B004B
:10514C0030B50E4D2978BFF35B8F11F0010487B099
:10515C0011D12846FEF79BFF68B101A8FFF7DAFFD3
:10516C0001AA21460648FFF705FE2846FEF794FFE4
:10517C00044800F00BF8024807B030BD44E70320A8
:10518C0048E703201D510B00FEF77DBF00230146AD
:10519C001A46184600F04CB80A44914200F1FF330D
:1051AC0000D1704710B511F8014B03F8014F914233
:1051BC00F9D110BD02440346934200D1704703F865
:1051CC00011BF9E738B5104B1D68AB6B0446B3B93E
:1051DC001820FFF779FA0246A86320B90B4B0C484C
:1051EC004221FFF789FA0B490B4BC0E900130B4B1B
:1051FC0083600B23838100210120C2E90401AB6B86
:10520C0000221C615A6138BD38E603204D550B0055
:10521C0064550B000E33CDAB34126DE6ECDE05009D
:10522C00034613F8012B002AFBD1181A01387047DA
:10523C002DE9F843DFF8B8800646D8F800001F4681
:10524C000D46914600F056F8254B1C6834B9254C98
:10525C001C60254B13B11B68C4F8883063681F2B86
:10526C0007DDD8F8000000F047F84FF0FF30BDE83C
:10527C00F8834EB3D4F8880088B91C4B23B9D8F8FE
:10528C00000000F038F8F0E74FF48470FFF71CFAD8
:10529C000028F4D00023C0E94033C4F888006368C8
:1052AC0040F8239001229A4000EB8301D0F80031A2
:1052BC001343C0F80031022EC1F8807002BFD0F841
:1052CC0004311343C0F804316368D8F800005A1C49
:1052DC000233626044F8235000F00EF80020C6E759
:1052EC00E8E703205CE7032000000000D5460B0034
:1052FC009CE6032070477047704700001D400B0070
:10530C0059400B0081400B0085400B000000000051
:10531C00506F696E746572204869676820536361C9
:10532C006C652052616E67653A202564202D3E2005
:10533C00256420205B25645D0A00506F696E7465DE
:10534C0072204C6F77205363616C652052616E67DD
:10535C00653A202564202D3E20256420205B2564A1
:10536C005D0A004D6964646C652048696768205368
:10537C0063616C652052616E67653A202564202D4F
:10538C003E20256420205B25645D0A004D69646421
:10539C006C65204C6F77205363616C652052616E95
:1053AC0067653A202564202D3E20256420205B254E
:1053BC00645D0A00523A25642C25642C25642C2546
:1053CC006400423A25642C25642C25642C25640049
:1053DC00000000000000000083470B0079470B0021
:1053EC006F470B0065470B0059470B004D470B00EF
:1053FC00554E0B005D4E0B0041470B0039470B001F
:10540C002F470B0025470B008D4E0B006170700071
:10541C0025592D256D2D25645425483A254D3A25C1
:10542C0053257A0061736374696D65000000000098
:10543C0000000000914A0B00814A0B00834A0B00CC
:10544C000000000000000000774B0B00DF4B0B004E
:10545C00B54B0B00E9470B00A74B0B00794B0B002E
:10546C00894B0B00D94B0B00994B0B00714B0B006C
:10547C000000000000000000854C0B00F14C0B00FC
:10548C00C94C0B00E9470B00994C0B00B54C0B00B9
:10549C00A74C0B00C34C0B00874C0B008B4C0B0028
:1054AC000000000000000000294D0B00734D0B00A4
:1054BC004B4D0B002B4D0B00534D0B005B4D0B005C
:1054CC00634D0B006B4D0B00000000000000000052
:1054DC00F74D0B00ED4D0B00E34D0B00A54D0B00F4
:1054EC00F5480B00D74D0B00554E0B005D4E0B00D5
:1054FC00CB4D0B00C34D0B00B94D0B00AF4D0B004A
:10550C008D4E0B000000000000000000154E0B003B
:10551C001F4E0B00294E0B00334E0B003D4E0B0063
:10552C00494E0B00554E0B005D4E0B00654E0B00AB
:10553C00714E0B00794E0B00834E0B008D4E0B0001
:10554C00005245454E54206D616C6C6F6320737531
:10555C0063636565646564002F6D6E742F776F727D
:10556C006B73706163652F776F726B7370616365BA
:10557C002F4743432D31302D706970656C696E6512
:10558C002F6A656E6B696E732D4743432D31302D39
:10559C00706970656C696E652D34385F32303230ED
:1055AC00313132345F313630363138303634312F98
:1055BC007372632F6E65776C69622F6E65776C6999
:1055CC00622F6C6962632F7374646C69622F7261F1
:1055DC006E642E630000000065430B008D470B00CA
:1055EC00B5470B00D9470B0001490B0011490B00C3
:1055FC003D490B00014E0B00654F0B0000000000F5
:04560C00000000009A
:045610000000000096
:1056140040420F00C0BDF0FF40420F00C0BDF0FF8C
:1056240040420F00C0BDF0FF40420F00C0BDF0FF7C
:1056340030540B003CE60320000000000000000092
:105644000000000000000000000000000000000056
:105654000000000000000000000000000000000046
:105664000000000000000000000000000000000036
:105674000000000000000000000000000000000026
:105684000000000000000000000000000000000016
:0C5694000000000000000000ECE7032014
:1056A000FFFFFFFF00000102030405060708090AC7
:1056B0000B0C0D0E0F101112131415161718191AC2
:0856C0001B1C1D1E1F20280009
:0456C80078563412CA
:04000003B000401CED
:00000001FF
