:02000002B0004C
:1040000000400B0028550B00000006000C000502C4
:084010000401810C0000000016
:0440180000520B0047
:10401C0009480A49884208B505D0094A824202D0AB
:10402C00121A01F035F80748074A0021121A01F05C
:10403C003DF8014808BD00BF14E6032074540B0082
:10404C00A0E60320A0E60320EDE7032070B5074EA1
:10405C00074C00F073FCA41BA4080025AC4200D153
:10406C0070BD56F8043B98470135F7E748540B00F0
:10407C006C540B0000F021B808B500F049F8BDE80D
:10408C00084000F013BC00F0B5BA00F0BBBA0078E1
:10409C00B0FA80F0400970470123037070470EB4EA
:1040AC0003B503AB002153F8042B019300F081FB03
:1040BC0002B05DF804EB03B0704708B500F04CFD9E
:1040CC004FF4165100F036FD00F046FD00F039FDBE
:1040DC000028F9D00021112000F01CFF0021102035
:1040EC0000F018FF00210F2000F014FF00210E201B
:1040FC0000F010FF0221084600F00CFF0221032003
:10410C0000F008FFBDE808400121042000F002BFC8
:10411C002DE9F04F564CDFF874912378BFF35B8F89
:10412C0013F0010F85B00ED12046FFF7B0FF50B150
:10413C00022000F000FF003818BF012089F80000B1
:10414C002046FFF7A9FF4B4CDFF844812378BFF3DF
:10415C005B8F13F0010F0ED12046FFF798FF50B183
:10416C00032000F0E8FE003818BF012088F800009A
:10417C002046FFF791FF022000F0DDFEB0F1000BAE
:10418C0003904FF0030018BF4FF0010B00F0D3FE6B
:10419C0099F80010384F394E394D3A4CB0F1000AAD
:1041AC00034618BF4FF0010A99B9039A8AB10390DC
:1041BC00112000F0D3FE3860102000F0CFFE3060EC
:1041CC000F2000F0CBFE28600E2000F0C7FE039BF2
:1041DC00206098F8002082B97BB1112000F0BEFE5F
:1041EC007860102000F0BAFE70600F2000F0B6FE70
:1041FC0068600E2000F0B2FE60606324112000F0B5
:10420C00ADFE0094D7E90012002300F01BFB07461B
:10421C00102000F0A3FE0094D6E90012002300F059
:10422C0011FB06460F2000F099FE0094D5E9001210
:10423C00002300F007FB05460E2000F08FFE11490D
:10424C000094D1E90012002300F0FCFA044600F0BF
:10425C0083FCCDE900540C4933463A46FFF71FFF67
:10426C0089F800B088F800A005B0BDE8F08F00BF59
:10427C00ACE60320B0E6032024E603202CE6032062
:10428C0014E603201CE6032014520B00B4E60320B2
:10429C00B5E60320044B0022C3E90022A2F58032CC
:1042AC009A60022000F022B9A0E6032008B5024B68
:1042BC001B689B68019308BD6802030008B5024B9C
:1042CC001B68DB68019308BD6802030008B5024B4C
:1042DC001B685B68019308BD2C02030008B5024BF8
:1042EC001B689B68019308BD2C02030008B5024BA8
:1042FC001B68DB68019308BD2C02030008B5024B58
:10430C001B685B69019308BD2C02030008B5024BC6
:10431C001B681B6B019308BD2C02030008B5024BF4
:10432C001B685B68019308BD1802030008B5024BBB
:10433C001B685B69019308BD1802030008B5024BAA
:10434C001B685B6C019308BD4802030008B5024B67
:10435C001B685B69019308BD6402030008B5024B3E
:10436C001B68DB68019308BD3C02030008B5024BD7
:10437C001B681B69019308BD3C02030008B5024B86
:10438C001B685B69019308BD3C02030008B5024B36
:10439C001B689B69019308BD3C02030008B5024BE6
:1043AC001B68DB69019308BD3C02030008B5024B96
:1043BC001B681B6A019308BD3C02030008B5024B45
:1043CC001B689B6A019308BD3C02030008B5024BB5
:1043DC001B681B6C019308BD3C02030008B5024B23
:1043EC001B681B6A019308BD2802030008B5024B29
:1043FC001B685B6A019308BD2802030008B5024BD9
:10440C001B689B6A019308BD2802030008B5024B88
:10441C001B68DB6A019308BD2802030008B5024B38
:10442C001B681B6B019308BD2802030008B5024BE7
:10443C001B685B6B019308BD2802030008B5024B97
:10444C001B681B6C019308BD2802030008B5024BC6
:10445C001B68DB69019308BD3002030008B5024BF1
:10446C001B681B6A019308BD3002030008B5024BA0
:10447C001B681B68019308BD4C02030008B5024B76
:10448C001B685B68019308BD4C02030008B5024B26
:10449C001B681B69019308BD4C02030008B5024B55
:1044AC001B685B69019308BD4C02030008B5024B05
:1044BC001B689B69019308BD4C02030008B5024BB5
:1044CC001B68DB69019308BD4C02030008B5024B65
:1044DC001B681B6A019308BD4C02030008B5024B14
:1044EC001B685B6A019308BD4C02030008B5024BC4
:1044FC001B685B68019308BD2002030008B5034BE1
:10450C001B68D3F88830019308BD0000200203001B
:10451C0008B5034B1B68D3F89430019308BD000019
:10452C002002030008B5024B1B685B68019308BDB1
:10453C004002030008B5024B1B689B68019308BD41
:10454C004002030008B5024B1B68DB68019308BDF1
:10455C004002030008B5024B1B681B69019308BDA0
:10456C004002030008B5024B1B685B69019308BD50
:10457C004002030008B5024B1B689B69019308BD00
:10458C004002030008B5024B1B68DB69019308BDB0
:10459C004002030008B5024B1B681B6A019308BD5F
:1045AC004002030008B5024B1B681B6B019308BD4E
:1045BC004002030008B5024B1B685B6B019308BDFE
:1045CC004002030008B5024B1B681B6C019308BD2D
:1045DC004002030008B5024B1B685B6C019308BDDD
:1045EC004002030008B5024B1B68DB6B019308BD4E
:1045FC004402030008B5024B1B681B68019308BDFD
:10460C001C02030008B5024B1B685B68019308BDD4
:10461C001C02030008B5024B1B685B6A019308BDC2
:10462C001C02030008B5024B1B681B6C019308BDF0
:10463C001C02030008B5024B1B685B6C019308BDA0
:10464C001C020300002240681146FFF7A3BF0022A2
:10465C0040681146FFF7AEBF40680022FFF7A2BFCB
:10466C004068002281F00101FFF78CBF00234068F5
:10467C001A461946FFF77EBF002340681A461946B2
:10468C00FFF770BF002240681146FFF763BF00229E
:10469C0040681146FFF74EBF406800220221FFF729
:1046AC0051BF002340681A46FFF73CBF024B032260
:1046BC005A60024A1A607047B8E6032048520B0051
:1046CC0010B5044608462170FFF7C0FE0023636056
:1046DC00204610BD054B02221A60054B054A9A6014
:1046EC000020C3E90000FFF701BF00BFCCE60320A8
:1046FC00C0E603200000FFFF024800230360FFF721
:10470C001DBE00BFD0E60320F8B506460D468F1837
:10471C000024BD420CD0336815F8011B9B68304651
:10472C009847031E01DB1C44F3E7002C08BF1C4612
:10473C002046F8BD13B50446084659B1019100F066
:10474C00EBFC23680199DB680246204602B0BDE809
:10475C001040184702B010BD03689B68184738B565
:10476C000D210546FFF7F8FF0A2104462846FFF7FE
:10477C00F3FF204438BD30B58BB00023012A8DF8EF
:10478C00243098BF0A2209AC0D46B1FBF2F101FBB3
:10479C00125303F0FF03092B94BF30333733DBB2D2
:1047AC00AA4204F8013DEFD92146FFF7C3FF0BB035
:1047BC0030BD2DE9F04186B000AF05460E46381DE0
:1047CC00142114463B60FFF725FF13280ED8391D22
:1047DC002846FFF7AFFF04461EB12846FFF7BFFF80
:1047EC00044420461837BD46BDE8F08100F10803AB
:1047FC0023F00703E846ADEB030D2246411C3B6852
:10480C006846FFF707FF69462846FFF793FF044603
:10481C00C546E1E7002340681A461946FFF7A2BED9
:10482C00014B024A1A607047D4E603207C520B00FD
:10483C00024B1A68024B1A60704700BF34E6032023
:10484C00D8E603208A4210B507D0441A0298C01A41
:10485C004443501A94FBF0F0184410BD014B002255
:10486C009A607047DCE60320014B1860704700BF6C
:10487C0038E6032008B50B4B43B100F06DF9036823
:10488C001B699847002801DDAFF30080064B43B14C
:10489C0000F096FB03681B699847002801DDAFF315
:1048AC00008008BD000000000000000008B5FFF704
:1048BC00E1FFFFF73BFD014B186008BD40E703200B
:1048CC000548064A064908B5121A00F0E1FB054BEB
:1048DC00054A1A6008BD00BF00F4032004F403204D
:1048EC0070540B0000F403201E1C279A07B50023FC
:1048FC0000931A466FF07701FFF70AFE03B05DF8DC
:10490C0004FB000007B543880A2B08D0502B0BD1B1
:10491C00094B1B684BB103B05DF804EB1847FFF76C
:10492C00E5FF03B05DF804FB002300931A466FF01B
:10493C007701FFF7EDFDF4E7F0E6032010B5124820
:10494C000021FFF777FE114B1A68114B9A42114B5D
:10495C000CBF012200221A7001D0FFF7B1FFFFF744
:10496C00DDFC044600F0AAFB0B4B13B12046AFF361
:10497C00008000210848FFF735FEBDE810400748CD
:10498C000021FFF7BBBD00BF75480B0000F40320EE
:10499C001E1C279AECE603200000000011490B00B6
:1049AC00704710B518210446FFF76FFB204610BD69
:1049BC00F0B5037D062B8DB00E4600F104074FF0C9
:1049CC00000412D000F1080515F8011D0A2230462A
:1049DC00FFF7D1FEAF42044419D0002CF4D02E21A5
:1049EC003046FFF7B9FE0444EEE72F236A463946FA
:1049FC000A208DF80040FFF7A9FC684600F08CFBFC
:104A0C0033680246DB6869463046984704462046C0
:104A1C000DB0F0BD10B5054B0446112240F8043B17
:104A2C00002100F043FB204610BD00BFA4520B0038
:104A3C000346074A10B543F8042B01F1100251F854
:104A4C00044B43F8044B9142F9D10A781A7010BD0B
:104A5C00A4520B0010B59DF8084044EA032343EA26
:104A6C00024242EA016104234160037510BD00005B
:104A7C0007B5064B0360CB7800938B784A7809789E
:104A8C00FFF7E8FF03B05DF804FB00BFA4520B0076
:104A9C00417470477047704708B50021007CFFF7E0
:104AAC0005FD40EAE07008BD08B50121007CFFF768
:104ABC00FDFC40EAE07008BD08B5007CFFF7EEFC99
:104ACC0020EAE07008BD08B5007CFFF7DFFC20EAA7
:104ADC00E07008BD13B50446007C0191FFF7DEFCC5
:104AEC000028019901DC607C20B1207CFFF7E6FCFA
:104AFC0020EAE07002B010BD007CFFF7E7BC10B5F7
:104B0C0014210446FFF7C1FA204610BD10B54FF42E
:104B1C007A73044608460021C4E90113044B236050
:104B2C000123207463741146FFF7A0FC204610BDCE
:104B3C00B8520B00007C0022FFF7A0BC007CFFF7F2
:104B4C00CDBCFFF7FBBF10B514220446002100F0CA
:104B5C00ADFA204610BD000010B50F4C88B003A86C
:104B6C00FFF7F1FF2178BFF35B8F11F001010FD13B
:104B7C0020460191FFF78BFA019948B103AA074827
:104B8C00FFF7C4FF2046FFF787FA054800F07AFAD2
:104B9C00024808B010BD00BFF4E60320F8E603207D
:104BAC00A14A0B0070474174704708B5007CFFF7B1
:104BBC0005FC20EAE07008BD08B5007CFFF7D6FBC9
:104BCC0020EAE07008BD08B5007CFFF7DFFB40EA87
:104BDC00E07008BD08B5007CFFF7D0FB40EAE07040
:104BEC0008BD007CFFF7DABB37B5457C04462DB118
:104BFC00207C03B0BDE83040FFF7B0BB007C0191D6
:104C0C00FFF7DCFB00280199F2DC284603B030BD2D
:104C1C0010B514210446FFF738FA204610BD0000E9
:104C2C0010B54FF47A730446084611460022C4E9C5
:104C3C000123044B2360012320746374FFF7C6FB2C
:104C4C00204610BDE8520B007047F8B506461546D5
:104C5C000C468F18BC4206D0336814F8011B9B68B5
:104C6C0030469847F6E72846F8BD007C0022FFF74F
:104C7C00B5BB007C0021FFF7B9BB007C0021FFF71E
:104C8C00BDBB007C0021FFF7C1BB007C0021FFF7FE
:104C9C00C5BB10B514210446FFF7F7F9204610BD2B
:104CAC0010B54FF47A73044608460021C4E9011389
:104CBC00034B236020741146FFF7C0FB204610BD48
:104CCC0018530B00002240681146FFF743BC00222A
:104CDC0040681146FFF75EBC002240681146FFF7A2
:104CEC0069BC40680022FFF75DBC4068002281F07F
:104CFC000101FFF747BC002340681A461946FFF72D
:104D0C0039BC002240681146FFF714BC40680022F1
:104D1C000221FFF717BC002340681A46FFF702BCBC
:104D2C00024B04225A60024A1A6070470CE70320B7
:104D3C0040530B00002340681A46FFF7F3BB406852
:104D4C0000220221FFF7FEBB002240681146FFF74C
:104D5C00F1BB002240681146FFF7FCBB0023406802
:104D6C001A461946FFF7FEBB002340681A4619463F
:104D7C00FFF700BC40680021FFF724BC406800210D
:104D8C00FFF728BC4068002281F00101FFF7FABB55
:104D9C0040680022FFF706BC002240681146FFF76E
:104DAC0009BC002240681146FFF7F4BB2DE9F04323
:104DBC0095B014460D460746FFF72CFE00211C2229
:104DCC000DA8009100F072F940230C9320466B461D
:104DDC000CAA0021FFF772FA044600284BD10246B8
:104DEC0001216868FFF7B6FB0221804622466868FD
:104DFC00FFF7B0FB009E81462146002E3BD00029D8
:104E0C0039D17368022B03D00A2B11D0F669F4E761
:104E1C00B8F1000FFAD0716906A8043107ADFFF79D
:104E2C0027FE0FCD3C1D0FC42B6823704146EDE7C8
:104E3C00B9F1000FEAD07469102201A800F036F91C
:104E4C0006238DF8143001AD04F1080318341868EA
:104E5C0059682A4603C20833A3421546F7D101A963
:104E6C0006A807ADFFF7E4FD0FCD3C1D0FC42B6862
:104E7C0023704946CAE70098FFF718FA384615B070
:104E8C00BDE8F083024B034A1A6000225A60704757
:104E9C0014E703207C530B00232813B502D9002000
:104EAC0002B010BDA0F10B03022B1AD8174C2178BD
:104EBC00BFF35B8F11F001010BD120460191FFF77D
:104ECC00E6F8019928B11248FFF7FAFB2046FFF7E4
:104EDC00E3F80F4B1878FFF7C1FA0028DFD1012057
:104EEC00DEE7012809D800F0A7F80021007CFFF7C5
:104EFC009DFA80F00100C0B2D2E709380128EED843
:104F0C0000F05EF8007CFFF751FAF2E71CE7032093
:104F1C0020E70320232838B504460D460AD8FF297C
:104F2C0008D0FFF7B9FF28B129462046BDE8384024
:104F3C00FFF7D4B938BD10B50446FFF7D7F9031FF6
:104F4C00DBB2012B08D92046FFF7A6FF20B1204683
:104F5C00BDE81040FFF7D2B9002010BD0D2810B5E8
:104F6C0004469CBF0E34A4B22046FFF795FF50B107
:104F7C0003212046FFF7AAF9032804D12046BDE8F7
:104F8C001040FFF7C3B9002010BD704738B5044678
:104F9C0014252A46002100F089F825804025074970
:104FAC0025812846258200F06BF80449606028466C
:104FBC0000F066F8E060204638BD00BFB0530B002F
:104FCC0030B50E4D2978BFF35B8F11F0010487B01B
:104FDC0011D12846FFF75BF868B101A8FFF7D6FF9F
:104FEC0001AA21460648FFF71BFE2846FFF754F896
:104FFC00044800F047F8024807B030BD28E703200A
:10500C002CE70320974F0B007047000038B5202584
:10501C00142304460360856005610649284600F0A8
:10502C002FF804496060284600F02AF8E06020461A
:10503C0038BD00BFB0530B0030B50E4D2978BFF30F
:10504C005B8F11F0010487B011D12846FFF71FF8D0
:10505C0068B101A8FFF7DAFF01AA21460648FFF75D
:10506C001FFE2846FFF718F8044800F00BF802481A
:10507C0007B030BD44E7032048E7032015500B0070
:10508C00FFF701B8002301461A46184600F04CB849
:10509C000A44914200F1FF3300D1704710B511F86A
:1050AC00014B03F8014F9142F9D110BD0244034664
:1050BC00934200D1704703F8011BF9E738B5104B48
:1050CC001D68AB6B0446B3B91820FFF793FA024680
:1050DC00A86320B90B4B0C484221FFF7A3FA0B49EC
:1050EC000B4BC0E900130B4B83600B238381002116
:1050FC000120C2E90401AB6B00221C615A6138BD6E
:10510C0038E60320B1530B00C8530B000E33CDAB64
:10511C0034126DE6ECDE0500034613F8012B002A71
:10512C00FBD1181A013870472DE9F843DFF8B88025
:10513C000646D8F800001F460D46914600F056F87A
:10514C00254B1C6834B9254C1C60254B13B11B68CE
:10515C00C4F8883063681F2B07DDD8F8000000F016
:10516C0047F84FF0FF30BDE8F8834EB3D4F8880011
:10517C0088B91C4B23B9D8F8000000F038F8F0E7D8
:10518C004FF48470FFF736FA0028F4D00023C0E9FE
:10519C004033C4F88800636840F8239001229A4099
:1051AC0000EB8301D0F800311343C0F80031022E1C
:1051BC00C1F8807002BFD0F804311343C0F8043139
:1051CC006368D8F800005A1C0233626044F823501C
:1051DC0000F00EF80020C6E7E8E703205CE70320A8
:1051EC000000000001460B009CE60320704770474E
:1051FC00704700001D400B0059400B0081400B0014
:10520C0085400B000000000050483A2025303264E5
:10521C0020202020504C3A20253032642020204D74
:10522C00483A20253032642020204D4C3A2025303D
:10523C0032640A000000000000000000AF460B00C2
:10524C00A5460B009B460B0091460B0085460B00B8
:10525C0079460B00814D0B00894D0B006D460B0000
:10526C0065460B005B460B0051460B00B94D0B001D
:10527C006170700025592D256D2D25645425483AF3
:10528C00254D3A2553257A0061736374696D650069
:10529C000000000000000000BD490B00AD490B00F0
:1052AC00AF490B000000000000000000A34A0B00F7
:1052BC000B4B0B00E14A0B0015470B00D34A0B00BC
:1052CC00A54A0B00B54A0B00054B0B00C54A0B0059
:1052DC009D4A0B000000000000000000B14B0B00C9
:1052EC001D4C0B00F54B0B0015470B00C54B0B0071
:1052FC00E14B0B00D34B0B00EF4B0B00B34B0B00F4
:10530C00B74B0B000000000000000000554C0B00D8
:10531C009F4C0B00774C0B00574C0B007F4C0B0039
:10532C00874C0B008F4C0B00974C0B0000000000BF
:10533C0000000000234D0B00194D0B000F4D0B000E
:10534C00D14C0B0021480B00034D0B00814D0B0081
:10535C00894D0B00F74C0B00EF4C0B00E54C0B0090
:10536C00DB4C0B00B94D0B000000000000000000EE
:10537C00414D0B004B4D0B00554D0B005F4D0B0081
:10538C00694D0B00754D0B00814D0B00894D0B00C9
:10539C00914D0B009D4D0B00A54D0B00AF4D0B001F
:1053AC00B94D0B00005245454E54206D616C6C6F2D
:1053BC006320737563636565646564002F6D6E743B
:1053CC002F776F726B73706163652F776F726B736E
:1053DC00706163652F4743432D31302D70697065C3
:1053EC006C696E652F6A656E6B696E732D474343EE
:1053FC002D31302D706970656C696E652D34385F98
:10540C0032303230313132345F313630363138303F
:10541C003634312F7372632F6E65776C69622F6E21
:10542C0065776C69622F6C6962632F7374646C6945
:10543C00622F72616E642E6300000000A1420B00AB
:10544C00B9460B00E1460B0005470B002D480B003D
:10545C003D480B0069480B002D4D0B00914E0B0085
:04546C00000000003C
:045470000000000038
:1054740040420F00C0BDF0FF40420F00C0BDF0FF2E
:1054840040420F00C0BDF0FF40420F00C0BDF0FF1E
:1054940094520B003CE603200000000000000000D2
:1054A40000000000000000000000000000000000F8
:1054B40000000000000000000000000000000000E8
:1054C40000000000000000000000000000000000D8
:1054D40000000000000000000000000000000000C8
:1054E40000000000000000000000000000000000B8
:0C54F4000000000000000000ECE70320B6
:10550000FFFFFFFF00000102030405060708090A68
:105510000B0C0D0E0F101112131415161718191A63
:085520001B1C1D1E1F202800AA
:04552800785634126B
:04000003B000401CED
:00000001FF
